{
	"contracts/comparision.sol": {
		"ComparisionOperators": {
			"abi": [
				{
					"inputs": [],
					"name": "compare",
					"outputs": [],
					"stateMutability": "view",
					"type": "function"
				},
				{
					"inputs": [],
					"name": "compare1",
					"outputs": [],
					"stateMutability": "view",
					"type": "function"
				}
			],
			"devdoc": {
				"kind": "dev",
				"methods": {},
				"version": 1
			},
			"evm": {
				"assembly": "    /* \"contracts/comparision.sol\":69:312  contract ComparisionOperators{... */\n  mstore(0x40, 0x80)\n    /* \"contracts/comparision.sol\":113:114  6 */\n  0x06\n    /* \"contracts/comparision.sol\":105:114  uint a =6 */\n  0x00\n  sstore\n    /* \"contracts/comparision.sol\":130:131  6 */\n  0x06\n    /* \"contracts/comparision.sol\":121:131  uint b = 6 */\n  0x01\n  sstore\n    /* \"contracts/comparision.sol\":69:312  contract ComparisionOperators{... */\n  callvalue\n  dup1\n  iszero\n  tag_1\n  jumpi\n  0x00\n  dup1\n  revert\ntag_1:\n  pop\n  dataSize(sub_0)\n  dup1\n  dataOffset(sub_0)\n  0x00\n  codecopy\n  0x00\n  return\nstop\n\nsub_0: assembly {\n        /* \"contracts/comparision.sol\":69:312  contract ComparisionOperators{... */\n      mstore(0x40, 0x80)\n      callvalue\n      dup1\n      iszero\n      tag_1\n      jumpi\n      0x00\n      dup1\n      revert\n    tag_1:\n      pop\n      jumpi(tag_2, lt(calldatasize, 0x04))\n      shr(0xe0, calldataload(0x00))\n      dup1\n      0x3da0ac79\n      eq\n      tag_3\n      jumpi\n      dup1\n      0xc2eccd65\n      eq\n      tag_4\n      jumpi\n    tag_2:\n      0x00\n      dup1\n      revert\n        /* \"contracts/comparision.sol\":138:219  function compare() public view{... */\n    tag_3:\n      tag_5\n      tag_6\n      jump\t// in\n    tag_5:\n      stop\n        /* \"contracts/comparision.sol\":225:309  function compare1() public view{... */\n    tag_4:\n      tag_7\n      tag_8\n      jump\t// in\n    tag_7:\n      stop\n        /* \"contracts/comparision.sol\":138:219  function compare() public view{... */\n    tag_6:\n        /* \"contracts/comparision.sol\":192:193  b */\n      sload(0x01)\n        /* \"contracts/comparision.sol\":187:188  a */\n      sload(0x00)\n        /* \"contracts/comparision.sol\":187:193  a != b */\n      sub\n        /* \"contracts/comparision.sol\":179:211  require(a != b, 'That is false') */\n      tag_10\n      jumpi\n      mload(0x40)\n      0x08c379a000000000000000000000000000000000000000000000000000000000\n      dup2\n      mstore\n      0x04\n      add\n      tag_11\n      swap1\n      tag_12\n      jump\t// in\n    tag_11:\n      mload(0x40)\n      dup1\n      swap2\n      sub\n      swap1\n      revert\n    tag_10:\n        /* \"contracts/comparision.sol\":138:219  function compare() public view{... */\n      jump\t// out\n        /* \"contracts/comparision.sol\":225:309  function compare1() public view{... */\n    tag_8:\n        /* \"contracts/comparision.sol\":280:281  b */\n      sload(0x01)\n        /* \"contracts/comparision.sol\":275:276  a */\n      sload(0x00)\n        /* \"contracts/comparision.sol\":275:281  a == b */\n      eq\n        /* \"contracts/comparision.sol\":267:299  require(a == b, 'That is false') */\n      tag_14\n      jumpi\n      mload(0x40)\n      0x08c379a000000000000000000000000000000000000000000000000000000000\n      dup2\n      mstore\n      0x04\n      add\n      tag_15\n      swap1\n      tag_12\n      jump\t// in\n    tag_15:\n      mload(0x40)\n      dup1\n      swap2\n      sub\n      swap1\n      revert\n    tag_14:\n        /* \"contracts/comparision.sol\":225:309  function compare1() public view{... */\n      jump\t// out\n        /* \"#utility.yul\":7:176   */\n    tag_16:\n        /* \"#utility.yul\":91:102   */\n      0x00\n        /* \"#utility.yul\":125:131   */\n      dup3\n        /* \"#utility.yul\":120:123   */\n      dup3\n        /* \"#utility.yul\":113:132   */\n      mstore\n        /* \"#utility.yul\":165:169   */\n      0x20\n        /* \"#utility.yul\":160:163   */\n      dup3\n        /* \"#utility.yul\":156:170   */\n      add\n        /* \"#utility.yul\":141:170   */\n      swap1\n      pop\n        /* \"#utility.yul\":7:176   */\n      swap3\n      swap2\n      pop\n      pop\n      jump\t// out\n        /* \"#utility.yul\":182:345   */\n    tag_17:\n        /* \"#utility.yul\":322:337   */\n      0x546861742069732066616c736500000000000000000000000000000000000000\n        /* \"#utility.yul\":318:319   */\n      0x00\n        /* \"#utility.yul\":310:316   */\n      dup3\n        /* \"#utility.yul\":306:320   */\n      add\n        /* \"#utility.yul\":299:338   */\n      mstore\n        /* \"#utility.yul\":182:345   */\n      pop\n      jump\t// out\n        /* \"#utility.yul\":351:717   */\n    tag_18:\n        /* \"#utility.yul\":493:496   */\n      0x00\n        /* \"#utility.yul\":514:581   */\n      tag_23\n        /* \"#utility.yul\":578:580   */\n      0x0d\n        /* \"#utility.yul\":573:576   */\n      dup4\n        /* \"#utility.yul\":514:581   */\n      tag_16\n      jump\t// in\n    tag_23:\n        /* \"#utility.yul\":507:581   */\n      swap2\n      pop\n        /* \"#utility.yul\":590:683   */\n      tag_24\n        /* \"#utility.yul\":679:682   */\n      dup3\n        /* \"#utility.yul\":590:683   */\n      tag_17\n      jump\t// in\n    tag_24:\n        /* \"#utility.yul\":708:710   */\n      0x20\n        /* \"#utility.yul\":703:706   */\n      dup3\n        /* \"#utility.yul\":699:711   */\n      add\n        /* \"#utility.yul\":692:711   */\n      swap1\n      pop\n        /* \"#utility.yul\":351:717   */\n      swap2\n      swap1\n      pop\n      jump\t// out\n        /* \"#utility.yul\":723:1142   */\n    tag_12:\n        /* \"#utility.yul\":889:893   */\n      0x00\n        /* \"#utility.yul\":927:929   */\n      0x20\n        /* \"#utility.yul\":916:925   */\n      dup3\n        /* \"#utility.yul\":912:930   */\n      add\n        /* \"#utility.yul\":904:930   */\n      swap1\n      pop\n        /* \"#utility.yul\":976:985   */\n      dup2\n        /* \"#utility.yul\":970:974   */\n      dup2\n        /* \"#utility.yul\":966:986   */\n      sub\n        /* \"#utility.yul\":962:963   */\n      0x00\n        /* \"#utility.yul\":951:960   */\n      dup4\n        /* \"#utility.yul\":947:964   */\n      add\n        /* \"#utility.yul\":940:987   */\n      mstore\n        /* \"#utility.yul\":1004:1135   */\n      tag_26\n        /* \"#utility.yul\":1130:1134   */\n      dup2\n        /* \"#utility.yul\":1004:1135   */\n      tag_18\n      jump\t// in\n    tag_26:\n        /* \"#utility.yul\":996:1135   */\n      swap1\n      pop\n        /* \"#utility.yul\":723:1142   */\n      swap2\n      swap1\n      pop\n      jump\t// out\n\n    auxdata: 0xa26469706673582212207b1ea6af64e3d83bc4558ad034488817ff021c4e729ec69e03e4d594cefc293264736f6c634300081a0033\n}\n",
				"bytecode": {
					"linkReferences": {},
					"object": "608060405260065f5560066001553480156017575f80fd5b50610188806100255f395ff3fe608060405234801561000f575f80fd5b5060043610610034575f3560e01c80633da0ac7914610038578063c2eccd6514610042575b5f80fd5b61004061004c565b005b61004a610093565b005b6001545f5403610091576040517f08c379a000000000000000000000000000000000000000000000000000000000815260040161008890610134565b60405180910390fd5b565b6001545f54146100d8576040517f08c379a00000000000000000000000000000000000000000000000000000000081526004016100cf90610134565b60405180910390fd5b565b5f82825260208201905092915050565b7f546861742069732066616c7365000000000000000000000000000000000000005f82015250565b5f61011e600d836100da565b9150610129826100ea565b602082019050919050565b5f6020820190508181035f83015261014b81610112565b905091905056fea26469706673582212207b1ea6af64e3d83bc4558ad034488817ff021c4e729ec69e03e4d594cefc293264736f6c634300081a0033",
					"opcodes": "PUSH1 0x80 PUSH1 0x40 MSTORE PUSH1 0x6 PUSH0 SSTORE PUSH1 0x6 PUSH1 0x1 SSTORE CALLVALUE DUP1 ISZERO PUSH1 0x17 JUMPI PUSH0 DUP1 REVERT JUMPDEST POP PUSH2 0x188 DUP1 PUSH2 0x25 PUSH0 CODECOPY PUSH0 RETURN INVALID PUSH1 0x80 PUSH1 0x40 MSTORE CALLVALUE DUP1 ISZERO PUSH2 0xF JUMPI PUSH0 DUP1 REVERT JUMPDEST POP PUSH1 0x4 CALLDATASIZE LT PUSH2 0x34 JUMPI PUSH0 CALLDATALOAD PUSH1 0xE0 SHR DUP1 PUSH4 0x3DA0AC79 EQ PUSH2 0x38 JUMPI DUP1 PUSH4 0xC2ECCD65 EQ PUSH2 0x42 JUMPI JUMPDEST PUSH0 DUP1 REVERT JUMPDEST PUSH2 0x40 PUSH2 0x4C JUMP JUMPDEST STOP JUMPDEST PUSH2 0x4A PUSH2 0x93 JUMP JUMPDEST STOP JUMPDEST PUSH1 0x1 SLOAD PUSH0 SLOAD SUB PUSH2 0x91 JUMPI PUSH1 0x40 MLOAD PUSH32 0x8C379A000000000000000000000000000000000000000000000000000000000 DUP2 MSTORE PUSH1 0x4 ADD PUSH2 0x88 SWAP1 PUSH2 0x134 JUMP JUMPDEST PUSH1 0x40 MLOAD DUP1 SWAP2 SUB SWAP1 REVERT JUMPDEST JUMP JUMPDEST PUSH1 0x1 SLOAD PUSH0 SLOAD EQ PUSH2 0xD8 JUMPI PUSH1 0x40 MLOAD PUSH32 0x8C379A000000000000000000000000000000000000000000000000000000000 DUP2 MSTORE PUSH1 0x4 ADD PUSH2 0xCF SWAP1 PUSH2 0x134 JUMP JUMPDEST PUSH1 0x40 MLOAD DUP1 SWAP2 SUB SWAP1 REVERT JUMPDEST JUMP JUMPDEST PUSH0 DUP3 DUP3 MSTORE PUSH1 0x20 DUP3 ADD SWAP1 POP SWAP3 SWAP2 POP POP JUMP JUMPDEST PUSH32 0x546861742069732066616C736500000000000000000000000000000000000000 PUSH0 DUP3 ADD MSTORE POP JUMP JUMPDEST PUSH0 PUSH2 0x11E PUSH1 0xD DUP4 PUSH2 0xDA JUMP JUMPDEST SWAP2 POP PUSH2 0x129 DUP3 PUSH2 0xEA JUMP JUMPDEST PUSH1 0x20 DUP3 ADD SWAP1 POP SWAP2 SWAP1 POP JUMP JUMPDEST PUSH0 PUSH1 0x20 DUP3 ADD SWAP1 POP DUP2 DUP2 SUB PUSH0 DUP4 ADD MSTORE PUSH2 0x14B DUP2 PUSH2 0x112 JUMP JUMPDEST SWAP1 POP SWAP2 SWAP1 POP JUMP INVALID LOG2 PUSH5 0x6970667358 0x22 SLT KECCAK256 PUSH28 0x1EA6AF64E3D83BC4558AD034488817FF021C4E729EC69E03E4D594CE 0xFC 0x29 ORIGIN PUSH5 0x736F6C6343 STOP ADDMOD BYTE STOP CALLER "
				},
				"gasEstimates": {
					"creation": {
						"codeDepositCost": "78400",
						"executionCost": "44338",
						"totalCost": "122738"
					},
					"external": {
						"compare()": "4627",
						"compare1()": "4649"
					}
				},
				"methodIdentifiers": {
					"compare()": "3da0ac79",
					"compare1()": "c2eccd65"
				}
			},
			"storageLayout": {
				"storage": [
					{
						"astId": 4,
						"contract": "contracts/comparision.sol:ComparisionOperators",
						"label": "a",
						"offset": 0,
						"slot": "0",
						"type": "t_uint256"
					},
					{
						"astId": 7,
						"contract": "contracts/comparision.sol:ComparisionOperators",
						"label": "b",
						"offset": 0,
						"slot": "1",
						"type": "t_uint256"
					}
				],
				"types": {
					"t_uint256": {
						"encoding": "inplace",
						"label": "uint256",
						"numberOfBytes": "32"
					}
				}
			},
			"userdoc": {
				"kind": "user",
				"methods": {},
				"version": 1
			}
		}
	}
}