{
	"contracts/functionOverloading.sol": {
		"FunctionOverloading": {
			"abi": [
				{
					"inputs": [
						{
							"internalType": "uint256",
							"name": "a",
							"type": "uint256"
						},
						{
							"internalType": "uint256",
							"name": "b",
							"type": "uint256"
						}
					],
					"name": "getSum",
					"outputs": [
						{
							"internalType": "uint256",
							"name": "",
							"type": "uint256"
						}
					],
					"stateMutability": "pure",
					"type": "function"
				},
				{
					"inputs": [
						{
							"internalType": "uint256",
							"name": "a",
							"type": "uint256"
						},
						{
							"internalType": "uint256",
							"name": "b",
							"type": "uint256"
						},
						{
							"internalType": "uint256",
							"name": "c",
							"type": "uint256"
						}
					],
					"name": "getSum",
					"outputs": [
						{
							"internalType": "uint256",
							"name": "",
							"type": "uint256"
						}
					],
					"stateMutability": "pure",
					"type": "function"
				},
				{
					"inputs": [],
					"name": "getSumThreeArgs",
					"outputs": [
						{
							"internalType": "uint256",
							"name": "",
							"type": "uint256"
						}
					],
					"stateMutability": "pure",
					"type": "function"
				},
				{
					"inputs": [],
					"name": "getSumTwoArgs",
					"outputs": [
						{
							"internalType": "uint256",
							"name": "",
							"type": "uint256"
						}
					],
					"stateMutability": "pure",
					"type": "function"
				}
			],
			"devdoc": {
				"kind": "dev",
				"methods": {},
				"version": 1
			},
			"evm": {
				"assembly": "    /* \"contracts/functionOverloading.sol\":69:603  contract FunctionOverloading{... */\n  mstore(0x40, 0x80)\n  callvalue\n  dup1\n  iszero\n  tag_1\n  jumpi\n  0x00\n  dup1\n  revert\ntag_1:\n  pop\n  dataSize(sub_0)\n  dup1\n  dataOffset(sub_0)\n  0x00\n  codecopy\n  0x00\n  return\nstop\n\nsub_0: assembly {\n        /* \"contracts/functionOverloading.sol\":69:603  contract FunctionOverloading{... */\n      mstore(0x40, 0x80)\n      callvalue\n      dup1\n      iszero\n      tag_1\n      jumpi\n      0x00\n      dup1\n      revert\n    tag_1:\n      pop\n      jumpi(tag_2, lt(calldatasize, 0x04))\n      shr(0xe0, calldataload(0x00))\n      dup1\n      0x818b33d2\n      eq\n      tag_3\n      jumpi\n      dup1\n      0x8e86b125\n      eq\n      tag_4\n      jumpi\n      dup1\n      0xcb2b0819\n      eq\n      tag_5\n      jumpi\n      dup1\n      0xefb90b04\n      eq\n      tag_6\n      jumpi\n    tag_2:\n      0x00\n      dup1\n      revert\n        /* \"contracts/functionOverloading.sol\":510:600  function getSumThreeArgs()public pure returns(uint){... */\n    tag_3:\n      tag_7\n      tag_8\n      jump\t// in\n    tag_7:\n      mload(0x40)\n      tag_9\n      swap2\n      swap1\n      tag_10\n      jump\t// in\n    tag_9:\n      mload(0x40)\n      dup1\n      swap2\n      sub\n      swap1\n      return\n        /* \"contracts/functionOverloading.sol\":222:307  function getSum(uint a, uint b)public pure returns(uint){... */\n    tag_4:\n      tag_11\n      0x04\n      dup1\n      calldatasize\n      sub\n      dup2\n      add\n      swap1\n      tag_12\n      swap2\n      swap1\n      tag_13\n      jump\t// in\n    tag_12:\n      tag_14\n      jump\t// in\n    tag_11:\n      mload(0x40)\n      tag_15\n      swap2\n      swap1\n      tag_10\n      jump\t// in\n    tag_15:\n      mload(0x40)\n      dup1\n      swap2\n      sub\n      swap1\n      return\n        /* \"contracts/functionOverloading.sol\":315:410  function getSum(uint a, uint b, uint c)public pure returns(uint){... */\n    tag_5:\n      tag_16\n      0x04\n      dup1\n      calldatasize\n      sub\n      dup2\n      add\n      swap1\n      tag_17\n      swap2\n      swap1\n      tag_18\n      jump\t// in\n    tag_17:\n      tag_19\n      jump\t// in\n    tag_16:\n      mload(0x40)\n      tag_20\n      swap2\n      swap1\n      tag_10\n      jump\t// in\n    tag_20:\n      mload(0x40)\n      dup1\n      swap2\n      sub\n      swap1\n      return\n        /* \"contracts/functionOverloading.sol\":418:504  function getSumTwoArgs()public pure returns(uint){... */\n    tag_6:\n      tag_21\n      tag_22\n      jump\t// in\n    tag_21:\n      mload(0x40)\n      tag_23\n      swap2\n      swap1\n      tag_10\n      jump\t// in\n    tag_23:\n      mload(0x40)\n      dup1\n      swap2\n      sub\n      swap1\n      return\n        /* \"contracts/functionOverloading.sol\":510:600  function getSumThreeArgs()public pure returns(uint){... */\n    tag_8:\n        /* \"contracts/functionOverloading.sol\":556:560  uint */\n      0x00\n        /* \"contracts/functionOverloading.sol\":579:592  getSum(4,5,6) */\n      tag_25\n        /* \"contracts/functionOverloading.sol\":586:587  4 */\n      0x04\n        /* \"contracts/functionOverloading.sol\":588:589  5 */\n      0x05\n        /* \"contracts/functionOverloading.sol\":590:591  6 */\n      0x06\n        /* \"contracts/functionOverloading.sol\":579:585  getSum */\n      tag_19\n        /* \"contracts/functionOverloading.sol\":579:592  getSum(4,5,6) */\n      jump\t// in\n    tag_25:\n        /* \"contracts/functionOverloading.sol\":572:592  return getSum(4,5,6) */\n      swap1\n      pop\n        /* \"contracts/functionOverloading.sol\":510:600  function getSumThreeArgs()public pure returns(uint){... */\n      swap1\n      jump\t// out\n        /* \"contracts/functionOverloading.sol\":222:307  function getSum(uint a, uint b)public pure returns(uint){... */\n    tag_14:\n        /* \"contracts/functionOverloading.sol\":273:277  uint */\n      0x00\n        /* \"contracts/functionOverloading.sol\":298:299  b */\n      dup2\n        /* \"contracts/functionOverloading.sol\":296:297  a */\n      dup4\n        /* \"contracts/functionOverloading.sol\":296:299  a+b */\n      tag_27\n      swap2\n      swap1\n      tag_28\n      jump\t// in\n    tag_27:\n        /* \"contracts/functionOverloading.sol\":289:299  return a+b */\n      swap1\n      pop\n        /* \"contracts/functionOverloading.sol\":222:307  function getSum(uint a, uint b)public pure returns(uint){... */\n      swap3\n      swap2\n      pop\n      pop\n      jump\t// out\n        /* \"contracts/functionOverloading.sol\":315:410  function getSum(uint a, uint b, uint c)public pure returns(uint){... */\n    tag_19:\n        /* \"contracts/functionOverloading.sol\":374:378  uint */\n      0x00\n        /* \"contracts/functionOverloading.sol\":401:402  c */\n      dup2\n        /* \"contracts/functionOverloading.sol\":399:400  b */\n      dup4\n        /* \"contracts/functionOverloading.sol\":397:398  a */\n      dup6\n        /* \"contracts/functionOverloading.sol\":397:400  a+b */\n      tag_30\n      swap2\n      swap1\n      tag_28\n      jump\t// in\n    tag_30:\n        /* \"contracts/functionOverloading.sol\":397:402  a+b+c */\n      tag_31\n      swap2\n      swap1\n      tag_28\n      jump\t// in\n    tag_31:\n        /* \"contracts/functionOverloading.sol\":390:402  return a+b+c */\n      swap1\n      pop\n        /* \"contracts/functionOverloading.sol\":315:410  function getSum(uint a, uint b, uint c)public pure returns(uint){... */\n      swap4\n      swap3\n      pop\n      pop\n      pop\n      jump\t// out\n        /* \"contracts/functionOverloading.sol\":418:504  function getSumTwoArgs()public pure returns(uint){... */\n    tag_22:\n        /* \"contracts/functionOverloading.sol\":462:466  uint */\n      0x00\n        /* \"contracts/functionOverloading.sol\":485:496  getSum(2,3) */\n      tag_33\n        /* \"contracts/functionOverloading.sol\":492:493  2 */\n      0x02\n        /* \"contracts/functionOverloading.sol\":494:495  3 */\n      0x03\n        /* \"contracts/functionOverloading.sol\":485:491  getSum */\n      tag_14\n        /* \"contracts/functionOverloading.sol\":485:496  getSum(2,3) */\n      jump\t// in\n    tag_33:\n        /* \"contracts/functionOverloading.sol\":478:496  return getSum(2,3) */\n      swap1\n      pop\n        /* \"contracts/functionOverloading.sol\":418:504  function getSumTwoArgs()public pure returns(uint){... */\n      swap1\n      jump\t// out\n        /* \"#utility.yul\":7:84   */\n    tag_34:\n        /* \"#utility.yul\":44:51   */\n      0x00\n        /* \"#utility.yul\":73:78   */\n      dup2\n        /* \"#utility.yul\":62:78   */\n      swap1\n      pop\n        /* \"#utility.yul\":7:84   */\n      swap2\n      swap1\n      pop\n      jump\t// out\n        /* \"#utility.yul\":90:208   */\n    tag_35:\n        /* \"#utility.yul\":177:201   */\n      tag_45\n        /* \"#utility.yul\":195:200   */\n      dup2\n        /* \"#utility.yul\":177:201   */\n      tag_34\n      jump\t// in\n    tag_45:\n        /* \"#utility.yul\":172:175   */\n      dup3\n        /* \"#utility.yul\":165:202   */\n      mstore\n        /* \"#utility.yul\":90:208   */\n      pop\n      pop\n      jump\t// out\n        /* \"#utility.yul\":214:436   */\n    tag_10:\n        /* \"#utility.yul\":307:311   */\n      0x00\n        /* \"#utility.yul\":345:347   */\n      0x20\n        /* \"#utility.yul\":334:343   */\n      dup3\n        /* \"#utility.yul\":330:348   */\n      add\n        /* \"#utility.yul\":322:348   */\n      swap1\n      pop\n        /* \"#utility.yul\":358:429   */\n      tag_47\n        /* \"#utility.yul\":426:427   */\n      0x00\n        /* \"#utility.yul\":415:424   */\n      dup4\n        /* \"#utility.yul\":411:428   */\n      add\n        /* \"#utility.yul\":402:408   */\n      dup5\n        /* \"#utility.yul\":358:429   */\n      tag_35\n      jump\t// in\n    tag_47:\n        /* \"#utility.yul\":214:436   */\n      swap3\n      swap2\n      pop\n      pop\n      jump\t// out\n        /* \"#utility.yul\":523:640   */\n    tag_37:\n        /* \"#utility.yul\":632:633   */\n      0x00\n        /* \"#utility.yul\":629:630   */\n      dup1\n        /* \"#utility.yul\":622:634   */\n      revert\n        /* \"#utility.yul\":769:891   */\n    tag_39:\n        /* \"#utility.yul\":842:866   */\n      tag_52\n        /* \"#utility.yul\":860:865   */\n      dup2\n        /* \"#utility.yul\":842:866   */\n      tag_34\n      jump\t// in\n    tag_52:\n        /* \"#utility.yul\":835:840   */\n      dup2\n        /* \"#utility.yul\":832:867   */\n      eq\n        /* \"#utility.yul\":822:885   */\n      tag_53\n      jumpi\n        /* \"#utility.yul\":881:882   */\n      0x00\n        /* \"#utility.yul\":878:879   */\n      dup1\n        /* \"#utility.yul\":871:883   */\n      revert\n        /* \"#utility.yul\":822:885   */\n    tag_53:\n        /* \"#utility.yul\":769:891   */\n      pop\n      jump\t// out\n        /* \"#utility.yul\":897:1036   */\n    tag_40:\n        /* \"#utility.yul\":943:948   */\n      0x00\n        /* \"#utility.yul\":981:987   */\n      dup2\n        /* \"#utility.yul\":968:988   */\n      calldataload\n        /* \"#utility.yul\":959:988   */\n      swap1\n      pop\n        /* \"#utility.yul\":997:1030   */\n      tag_55\n        /* \"#utility.yul\":1024:1029   */\n      dup2\n        /* \"#utility.yul\":997:1030   */\n      tag_39\n      jump\t// in\n    tag_55:\n        /* \"#utility.yul\":897:1036   */\n      swap3\n      swap2\n      pop\n      pop\n      jump\t// out\n        /* \"#utility.yul\":1042:1516   */\n    tag_13:\n        /* \"#utility.yul\":1110:1116   */\n      0x00\n        /* \"#utility.yul\":1118:1124   */\n      dup1\n        /* \"#utility.yul\":1167:1169   */\n      0x40\n        /* \"#utility.yul\":1155:1164   */\n      dup4\n        /* \"#utility.yul\":1146:1153   */\n      dup6\n        /* \"#utility.yul\":1142:1165   */\n      sub\n        /* \"#utility.yul\":1138:1170   */\n      slt\n        /* \"#utility.yul\":1135:1254   */\n      iszero\n      tag_57\n      jumpi\n        /* \"#utility.yul\":1173:1252   */\n      tag_58\n      tag_37\n      jump\t// in\n    tag_58:\n        /* \"#utility.yul\":1135:1254   */\n    tag_57:\n        /* \"#utility.yul\":1293:1294   */\n      0x00\n        /* \"#utility.yul\":1318:1371   */\n      tag_59\n        /* \"#utility.yul\":1363:1370   */\n      dup6\n        /* \"#utility.yul\":1354:1360   */\n      dup3\n        /* \"#utility.yul\":1343:1352   */\n      dup7\n        /* \"#utility.yul\":1339:1361   */\n      add\n        /* \"#utility.yul\":1318:1371   */\n      tag_40\n      jump\t// in\n    tag_59:\n        /* \"#utility.yul\":1308:1371   */\n      swap3\n      pop\n        /* \"#utility.yul\":1264:1381   */\n      pop\n        /* \"#utility.yul\":1420:1422   */\n      0x20\n        /* \"#utility.yul\":1446:1499   */\n      tag_60\n        /* \"#utility.yul\":1491:1498   */\n      dup6\n        /* \"#utility.yul\":1482:1488   */\n      dup3\n        /* \"#utility.yul\":1471:1480   */\n      dup7\n        /* \"#utility.yul\":1467:1489   */\n      add\n        /* \"#utility.yul\":1446:1499   */\n      tag_40\n      jump\t// in\n    tag_60:\n        /* \"#utility.yul\":1436:1499   */\n      swap2\n      pop\n        /* \"#utility.yul\":1391:1509   */\n      pop\n        /* \"#utility.yul\":1042:1516   */\n      swap3\n      pop\n      swap3\n      swap1\n      pop\n      jump\t// out\n        /* \"#utility.yul\":1522:2141   */\n    tag_18:\n        /* \"#utility.yul\":1599:1605   */\n      0x00\n        /* \"#utility.yul\":1607:1613   */\n      dup1\n        /* \"#utility.yul\":1615:1621   */\n      0x00\n        /* \"#utility.yul\":1664:1666   */\n      0x60\n        /* \"#utility.yul\":1652:1661   */\n      dup5\n        /* \"#utility.yul\":1643:1650   */\n      dup7\n        /* \"#utility.yul\":1639:1662   */\n      sub\n        /* \"#utility.yul\":1635:1667   */\n      slt\n        /* \"#utility.yul\":1632:1751   */\n      iszero\n      tag_62\n      jumpi\n        /* \"#utility.yul\":1670:1749   */\n      tag_63\n      tag_37\n      jump\t// in\n    tag_63:\n        /* \"#utility.yul\":1632:1751   */\n    tag_62:\n        /* \"#utility.yul\":1790:1791   */\n      0x00\n        /* \"#utility.yul\":1815:1868   */\n      tag_64\n        /* \"#utility.yul\":1860:1867   */\n      dup7\n        /* \"#utility.yul\":1851:1857   */\n      dup3\n        /* \"#utility.yul\":1840:1849   */\n      dup8\n        /* \"#utility.yul\":1836:1858   */\n      add\n        /* \"#utility.yul\":1815:1868   */\n      tag_40\n      jump\t// in\n    tag_64:\n        /* \"#utility.yul\":1805:1868   */\n      swap4\n      pop\n        /* \"#utility.yul\":1761:1878   */\n      pop\n        /* \"#utility.yul\":1917:1919   */\n      0x20\n        /* \"#utility.yul\":1943:1996   */\n      tag_65\n        /* \"#utility.yul\":1988:1995   */\n      dup7\n        /* \"#utility.yul\":1979:1985   */\n      dup3\n        /* \"#utility.yul\":1968:1977   */\n      dup8\n        /* \"#utility.yul\":1964:1986   */\n      add\n        /* \"#utility.yul\":1943:1996   */\n      tag_40\n      jump\t// in\n    tag_65:\n        /* \"#utility.yul\":1933:1996   */\n      swap3\n      pop\n        /* \"#utility.yul\":1888:2006   */\n      pop\n        /* \"#utility.yul\":2045:2047   */\n      0x40\n        /* \"#utility.yul\":2071:2124   */\n      tag_66\n        /* \"#utility.yul\":2116:2123   */\n      dup7\n        /* \"#utility.yul\":2107:2113   */\n      dup3\n        /* \"#utility.yul\":2096:2105   */\n      dup8\n        /* \"#utility.yul\":2092:2114   */\n      add\n        /* \"#utility.yul\":2071:2124   */\n      tag_40\n      jump\t// in\n    tag_66:\n        /* \"#utility.yul\":2061:2124   */\n      swap2\n      pop\n        /* \"#utility.yul\":2016:2134   */\n      pop\n        /* \"#utility.yul\":1522:2141   */\n      swap3\n      pop\n      swap3\n      pop\n      swap3\n      jump\t// out\n        /* \"#utility.yul\":2147:2327   */\n    tag_41:\n        /* \"#utility.yul\":2195:2272   */\n      0x4e487b7100000000000000000000000000000000000000000000000000000000\n        /* \"#utility.yul\":2192:2193   */\n      0x00\n        /* \"#utility.yul\":2185:2273   */\n      mstore\n        /* \"#utility.yul\":2292:2296   */\n      0x11\n        /* \"#utility.yul\":2289:2290   */\n      0x04\n        /* \"#utility.yul\":2282:2297   */\n      mstore\n        /* \"#utility.yul\":2316:2320   */\n      0x24\n        /* \"#utility.yul\":2313:2314   */\n      0x00\n        /* \"#utility.yul\":2306:2321   */\n      revert\n        /* \"#utility.yul\":2333:2524   */\n    tag_28:\n        /* \"#utility.yul\":2373:2376   */\n      0x00\n        /* \"#utility.yul\":2392:2412   */\n      tag_69\n        /* \"#utility.yul\":2410:2411   */\n      dup3\n        /* \"#utility.yul\":2392:2412   */\n      tag_34\n      jump\t// in\n    tag_69:\n        /* \"#utility.yul\":2387:2412   */\n      swap2\n      pop\n        /* \"#utility.yul\":2426:2446   */\n      tag_70\n        /* \"#utility.yul\":2444:2445   */\n      dup4\n        /* \"#utility.yul\":2426:2446   */\n      tag_34\n      jump\t// in\n    tag_70:\n        /* \"#utility.yul\":2421:2446   */\n      swap3\n      pop\n        /* \"#utility.yul\":2469:2470   */\n      dup3\n        /* \"#utility.yul\":2466:2467   */\n      dup3\n        /* \"#utility.yul\":2462:2471   */\n      add\n        /* \"#utility.yul\":2455:2471   */\n      swap1\n      pop\n        /* \"#utility.yul\":2490:2493   */\n      dup1\n        /* \"#utility.yul\":2487:2488   */\n      dup3\n        /* \"#utility.yul\":2484:2494   */\n      gt\n        /* \"#utility.yul\":2481:2517   */\n      iszero\n      tag_71\n      jumpi\n        /* \"#utility.yul\":2497:2515   */\n      tag_72\n      tag_41\n      jump\t// in\n    tag_72:\n        /* \"#utility.yul\":2481:2517   */\n    tag_71:\n        /* \"#utility.yul\":2333:2524   */\n      swap3\n      swap2\n      pop\n      pop\n      jump\t// out\n\n    auxdata: 0xa26469706673582212206146be96ebcc3105825d48a5a811ae48ca53c078a8a84b4749027b44db46f42564736f6c634300081a0033\n}\n",
				"bytecode": {
					"linkReferences": {},
					"object": "6080604052348015600e575f80fd5b506102c98061001c5f395ff3fe608060405234801561000f575f80fd5b506004361061004a575f3560e01c8063818b33d21461004e5780638e86b1251461006c578063cb2b08191461009c578063efb90b04146100cc575b5f80fd5b6100566100ea565b604051610063919061015e565b60405180910390f35b610086600480360381019061008191906101a5565b6100fe565b604051610093919061015e565b60405180910390f35b6100b660048036038101906100b191906101e3565b610113565b6040516100c3919061015e565b60405180910390f35b6100d4610134565b6040516100e1919061015e565b60405180910390f35b5f6100f9600460056006610113565b905090565b5f818361010b9190610260565b905092915050565b5f8183856101219190610260565b61012b9190610260565b90509392505050565b5f610141600260036100fe565b905090565b5f819050919050565b61015881610146565b82525050565b5f6020820190506101715f83018461014f565b92915050565b5f80fd5b61018481610146565b811461018e575f80fd5b50565b5f8135905061019f8161017b565b92915050565b5f80604083850312156101bb576101ba610177565b5b5f6101c885828601610191565b92505060206101d985828601610191565b9150509250929050565b5f805f606084860312156101fa576101f9610177565b5b5f61020786828701610191565b935050602061021886828701610191565b925050604061022986828701610191565b9150509250925092565b7f4e487b71000000000000000000000000000000000000000000000000000000005f52601160045260245ffd5b5f61026a82610146565b915061027583610146565b925082820190508082111561028d5761028c610233565b5b9291505056fea26469706673582212206146be96ebcc3105825d48a5a811ae48ca53c078a8a84b4749027b44db46f42564736f6c634300081a0033",
					"opcodes": "PUSH1 0x80 PUSH1 0x40 MSTORE CALLVALUE DUP1 ISZERO PUSH1 0xE JUMPI PUSH0 DUP1 REVERT JUMPDEST POP PUSH2 0x2C9 DUP1 PUSH2 0x1C PUSH0 CODECOPY PUSH0 RETURN INVALID PUSH1 0x80 PUSH1 0x40 MSTORE CALLVALUE DUP1 ISZERO PUSH2 0xF JUMPI PUSH0 DUP1 REVERT JUMPDEST POP PUSH1 0x4 CALLDATASIZE LT PUSH2 0x4A JUMPI PUSH0 CALLDATALOAD PUSH1 0xE0 SHR DUP1 PUSH4 0x818B33D2 EQ PUSH2 0x4E JUMPI DUP1 PUSH4 0x8E86B125 EQ PUSH2 0x6C JUMPI DUP1 PUSH4 0xCB2B0819 EQ PUSH2 0x9C JUMPI DUP1 PUSH4 0xEFB90B04 EQ PUSH2 0xCC JUMPI JUMPDEST PUSH0 DUP1 REVERT JUMPDEST PUSH2 0x56 PUSH2 0xEA JUMP JUMPDEST PUSH1 0x40 MLOAD PUSH2 0x63 SWAP2 SWAP1 PUSH2 0x15E JUMP JUMPDEST PUSH1 0x40 MLOAD DUP1 SWAP2 SUB SWAP1 RETURN JUMPDEST PUSH2 0x86 PUSH1 0x4 DUP1 CALLDATASIZE SUB DUP2 ADD SWAP1 PUSH2 0x81 SWAP2 SWAP1 PUSH2 0x1A5 JUMP JUMPDEST PUSH2 0xFE JUMP JUMPDEST PUSH1 0x40 MLOAD PUSH2 0x93 SWAP2 SWAP1 PUSH2 0x15E JUMP JUMPDEST PUSH1 0x40 MLOAD DUP1 SWAP2 SUB SWAP1 RETURN JUMPDEST PUSH2 0xB6 PUSH1 0x4 DUP1 CALLDATASIZE SUB DUP2 ADD SWAP1 PUSH2 0xB1 SWAP2 SWAP1 PUSH2 0x1E3 JUMP JUMPDEST PUSH2 0x113 JUMP JUMPDEST PUSH1 0x40 MLOAD PUSH2 0xC3 SWAP2 SWAP1 PUSH2 0x15E JUMP JUMPDEST PUSH1 0x40 MLOAD DUP1 SWAP2 SUB SWAP1 RETURN JUMPDEST PUSH2 0xD4 PUSH2 0x134 JUMP JUMPDEST PUSH1 0x40 MLOAD PUSH2 0xE1 SWAP2 SWAP1 PUSH2 0x15E JUMP JUMPDEST PUSH1 0x40 MLOAD DUP1 SWAP2 SUB SWAP1 RETURN JUMPDEST PUSH0 PUSH2 0xF9 PUSH1 0x4 PUSH1 0x5 PUSH1 0x6 PUSH2 0x113 JUMP JUMPDEST SWAP1 POP SWAP1 JUMP JUMPDEST PUSH0 DUP2 DUP4 PUSH2 0x10B SWAP2 SWAP1 PUSH2 0x260 JUMP JUMPDEST SWAP1 POP SWAP3 SWAP2 POP POP JUMP JUMPDEST PUSH0 DUP2 DUP4 DUP6 PUSH2 0x121 SWAP2 SWAP1 PUSH2 0x260 JUMP JUMPDEST PUSH2 0x12B SWAP2 SWAP1 PUSH2 0x260 JUMP JUMPDEST SWAP1 POP SWAP4 SWAP3 POP POP POP JUMP JUMPDEST PUSH0 PUSH2 0x141 PUSH1 0x2 PUSH1 0x3 PUSH2 0xFE JUMP JUMPDEST SWAP1 POP SWAP1 JUMP JUMPDEST PUSH0 DUP2 SWAP1 POP SWAP2 SWAP1 POP JUMP JUMPDEST PUSH2 0x158 DUP2 PUSH2 0x146 JUMP JUMPDEST DUP3 MSTORE POP POP JUMP JUMPDEST PUSH0 PUSH1 0x20 DUP3 ADD SWAP1 POP PUSH2 0x171 PUSH0 DUP4 ADD DUP5 PUSH2 0x14F JUMP JUMPDEST SWAP3 SWAP2 POP POP JUMP JUMPDEST PUSH0 DUP1 REVERT JUMPDEST PUSH2 0x184 DUP2 PUSH2 0x146 JUMP JUMPDEST DUP2 EQ PUSH2 0x18E JUMPI PUSH0 DUP1 REVERT JUMPDEST POP JUMP JUMPDEST PUSH0 DUP2 CALLDATALOAD SWAP1 POP PUSH2 0x19F DUP2 PUSH2 0x17B JUMP JUMPDEST SWAP3 SWAP2 POP POP JUMP JUMPDEST PUSH0 DUP1 PUSH1 0x40 DUP4 DUP6 SUB SLT ISZERO PUSH2 0x1BB JUMPI PUSH2 0x1BA PUSH2 0x177 JUMP JUMPDEST JUMPDEST PUSH0 PUSH2 0x1C8 DUP6 DUP3 DUP7 ADD PUSH2 0x191 JUMP JUMPDEST SWAP3 POP POP PUSH1 0x20 PUSH2 0x1D9 DUP6 DUP3 DUP7 ADD PUSH2 0x191 JUMP JUMPDEST SWAP2 POP POP SWAP3 POP SWAP3 SWAP1 POP JUMP JUMPDEST PUSH0 DUP1 PUSH0 PUSH1 0x60 DUP5 DUP7 SUB SLT ISZERO PUSH2 0x1FA JUMPI PUSH2 0x1F9 PUSH2 0x177 JUMP JUMPDEST JUMPDEST PUSH0 PUSH2 0x207 DUP7 DUP3 DUP8 ADD PUSH2 0x191 JUMP JUMPDEST SWAP4 POP POP PUSH1 0x20 PUSH2 0x218 DUP7 DUP3 DUP8 ADD PUSH2 0x191 JUMP JUMPDEST SWAP3 POP POP PUSH1 0x40 PUSH2 0x229 DUP7 DUP3 DUP8 ADD PUSH2 0x191 JUMP JUMPDEST SWAP2 POP POP SWAP3 POP SWAP3 POP SWAP3 JUMP JUMPDEST PUSH32 0x4E487B7100000000000000000000000000000000000000000000000000000000 PUSH0 MSTORE PUSH1 0x11 PUSH1 0x4 MSTORE PUSH1 0x24 PUSH0 REVERT JUMPDEST PUSH0 PUSH2 0x26A DUP3 PUSH2 0x146 JUMP JUMPDEST SWAP2 POP PUSH2 0x275 DUP4 PUSH2 0x146 JUMP JUMPDEST SWAP3 POP DUP3 DUP3 ADD SWAP1 POP DUP1 DUP3 GT ISZERO PUSH2 0x28D JUMPI PUSH2 0x28C PUSH2 0x233 JUMP JUMPDEST JUMPDEST SWAP3 SWAP2 POP POP JUMP INVALID LOG2 PUSH5 0x6970667358 0x22 SLT KECCAK256 PUSH2 0x46BE SWAP7 0xEB 0xCC BALANCE SDIV DUP3 TSTORE BASEFEE 0xA5 0xA8 GT 0xAE BASEFEE 0xCA MSTORE8 0xC0 PUSH25 0xA8A84B4749027B44DB46F42564736F6C634300081A00330000 "
				},
				"gasEstimates": {
					"creation": {
						"codeDepositCost": "142600",
						"executionCost": "188",
						"totalCost": "142788"
					},
					"external": {
						"getSum(uint256,uint256)": "infinite",
						"getSum(uint256,uint256,uint256)": "infinite",
						"getSumThreeArgs()": "infinite",
						"getSumTwoArgs()": "infinite"
					}
				},
				"methodIdentifiers": {
					"getSum(uint256,uint256)": "8e86b125",
					"getSum(uint256,uint256,uint256)": "cb2b0819",
					"getSumThreeArgs()": "818b33d2",
					"getSumTwoArgs()": "efb90b04"
				}
			},
			"storageLayout": {
				"storage": [],
				"types": null
			},
			"userdoc": {
				"kind": "user",
				"methods": {},
				"version": 1
			}
		}
	}
}