{
	"contracts/etherunits.sol": {
		"learnEtherUnits": {
			"abi": [
				{
					"inputs": [],
					"name": "excersize",
					"outputs": [],
					"stateMutability": "pure",
					"type": "function"
				},
				{
					"inputs": [],
					"name": "test",
					"outputs": [],
					"stateMutability": "pure",
					"type": "function"
				}
			],
			"devdoc": {
				"kind": "dev",
				"methods": {},
				"version": 1
			},
			"evm": {
				"assembly": "    /* \"contracts/etherunits.sol\":69:497  contract learnEtherUnits{... */\n  mstore(0x40, 0x80)\n  callvalue\n  dup1\n  iszero\n  tag_1\n  jumpi\n  0x00\n  dup1\n  revert\ntag_1:\n  pop\n  dataSize(sub_0)\n  dup1\n  dataOffset(sub_0)\n  0x00\n  codecopy\n  0x00\n  return\nstop\n\nsub_0: assembly {\n        /* \"contracts/etherunits.sol\":69:497  contract learnEtherUnits{... */\n      mstore(0x40, 0x80)\n      callvalue\n      dup1\n      iszero\n      tag_1\n      jumpi\n      0x00\n      dup1\n      revert\n    tag_1:\n      pop\n      jumpi(tag_2, lt(calldatasize, 0x04))\n      shr(0xe0, calldataload(0x00))\n      dup1\n      0x9b4e0958\n      eq\n      tag_3\n      jumpi\n      dup1\n      0xf8a8fd6d\n      eq\n      tag_4\n      jumpi\n    tag_2:\n      0x00\n      dup1\n      revert\n        /* \"contracts/etherunits.sol\":298:494  function excersize()public pure{... */\n    tag_3:\n      tag_5\n      tag_6\n      jump\t// in\n    tag_5:\n      stop\n        /* \"contracts/etherunits.sol\":100:290  function test()public pure {... */\n    tag_4:\n      tag_7\n      tag_8\n      jump\t// in\n    tag_7:\n      stop\n        /* \"contracts/etherunits.sol\":298:494  function excersize()public pure{... */\n    tag_6:\n        /* \"contracts/etherunits.sol\":359:369  60 seconds */\n      0x3c\n        /* \"contracts/etherunits.sol\":347:356  1 minutes */\n      dup1\n        /* \"contracts/etherunits.sol\":347:369  1 minutes ==60 seconds */\n      eq\n        /* \"contracts/etherunits.sol\":340:370  assert(1 minutes ==60 seconds) */\n      tag_10\n      jumpi\n      tag_11\n      tag_12\n      jump\t// in\n    tag_11:\n    tag_10:\n        /* \"contracts/etherunits.sol\":400:412  1140 minutes */\n      0x010b30\n        /* \"contracts/etherunits.sol\":388:396  24 hours */\n      0x015180\n        /* \"contracts/etherunits.sol\":388:412  24 hours == 1140 minutes */\n      eq\n        /* \"contracts/etherunits.sol\":381:413  assert(24 hours == 1140 minutes) */\n      tag_13\n      jumpi\n      tag_14\n      tag_12\n      jump\t// in\n    tag_14:\n    tag_13:\n        /* \"contracts/etherunits.sol\":441:449  24 hours */\n      0x015180\n        /* \"contracts/etherunits.sol\":431:437  1 days */\n      dup1\n        /* \"contracts/etherunits.sol\":431:449  1 days == 24 hours */\n      eq\n        /* \"contracts/etherunits.sol\":424:450  assert(1 days == 24 hours) */\n      tag_15\n      jumpi\n      tag_16\n      tag_12\n      jump\t// in\n    tag_16:\n    tag_15:\n        /* \"contracts/etherunits.sol\":479:485  7 days */\n      0x093a80\n        /* \"contracts/etherunits.sol\":468:475  1 weeks */\n      dup1\n        /* \"contracts/etherunits.sol\":468:485  1 weeks == 7 days */\n      eq\n        /* \"contracts/etherunits.sol\":461:486  assert(1 weeks == 7 days) */\n      tag_17\n      jumpi\n      tag_18\n      tag_12\n      jump\t// in\n    tag_18:\n    tag_17:\n        /* \"contracts/etherunits.sol\":298:494  function excersize()public pure{... */\n      jump\t// out\n        /* \"contracts/etherunits.sol\":100:290  function test()public pure {... */\n    tag_8:\n        /* \"contracts/etherunits.sol\":169:176  1 ether */\n      0x0de0b6b3a7640000\n        /* \"contracts/etherunits.sol\":142:165  1000000000000000000 wei */\n      dup1\n        /* \"contracts/etherunits.sol\":142:176  1000000000000000000 wei == 1 ether */\n      eq\n        /* \"contracts/etherunits.sol\":134:178  assert( 1000000000000000000 wei == 1 ether ) */\n      tag_20\n      jumpi\n      tag_21\n      tag_12\n      jump\t// in\n    tag_21:\n    tag_20:\n        /* \"contracts/etherunits.sol\":201:202  1 */\n      0x01\n        /* \"contracts/etherunits.sol\":192:197  1 wei */\n      dup1\n        /* \"contracts/etherunits.sol\":192:202  1 wei == 1 */\n      eq\n        /* \"contracts/etherunits.sol\":185:203  assert(1 wei == 1) */\n      tag_22\n      jumpi\n      tag_23\n      tag_12\n      jump\t// in\n    tag_23:\n    tag_22:\n        /* \"contracts/etherunits.sol\":228:232  1e18 */\n      0x0de0b6b3a7640000\n        /* \"contracts/etherunits.sol\":217:224  1 ether */\n      dup1\n        /* \"contracts/etherunits.sol\":217:232  1 ether == 1e18 */\n      eq\n        /* \"contracts/etherunits.sol\":210:233  assert(1 ether == 1e18) */\n      tag_24\n      jumpi\n      tag_25\n      tag_12\n      jump\t// in\n    tag_25:\n    tag_24:\n        /* \"contracts/etherunits.sol\":257:280  2000000000000000000 wei */\n      0x1bc16d674ec80000\n        /* \"contracts/etherunits.sol\":247:254  2 ether */\n      dup1\n        /* \"contracts/etherunits.sol\":247:280  2 ether ==2000000000000000000 wei */\n      eq\n        /* \"contracts/etherunits.sol\":240:282  assert(2 ether ==2000000000000000000 wei ) */\n      tag_26\n      jumpi\n      tag_27\n      tag_12\n      jump\t// in\n    tag_27:\n    tag_26:\n        /* \"contracts/etherunits.sol\":100:290  function test()public pure {... */\n      jump\t// out\n        /* \"#utility.yul\":7:187   */\n    tag_12:\n        /* \"#utility.yul\":55:132   */\n      0x4e487b7100000000000000000000000000000000000000000000000000000000\n        /* \"#utility.yul\":52:53   */\n      0x00\n        /* \"#utility.yul\":45:133   */\n      mstore\n        /* \"#utility.yul\":152:156   */\n      0x01\n        /* \"#utility.yul\":149:150   */\n      0x04\n        /* \"#utility.yul\":142:157   */\n      mstore\n        /* \"#utility.yul\":176:180   */\n      0x24\n        /* \"#utility.yul\":173:174   */\n      0x00\n        /* \"#utility.yul\":166:181   */\n      revert\n\n    auxdata: 0xa2646970667358221220a75cb6f28b9a6284e1e4d05a4d4de59aef031b098ffe9ce8f9c8e918e9a84f9664736f6c634300081a0033\n}\n",
				"bytecode": {
					"linkReferences": {},
					"object": "6080604052348015600e575f80fd5b506101598061001c5f395ff3fe608060405234801561000f575f80fd5b5060043610610034575f3560e01c80639b4e095814610038578063f8a8fd6d14610042575b5f80fd5b61004061004c565b005b61004a61009b565b005b603c801461005d5761005c6100f6565b5b62010b306201518014610073576100726100f6565b5b620151808014610086576100856100f6565b5b62093a808014610099576100986100f6565b5b565b670de0b6b3a764000080146100b3576100b26100f6565b5b600180146100c4576100c36100f6565b5b670de0b6b3a764000080146100dc576100db6100f6565b5b671bc16d674ec8000080146100f4576100f36100f6565b5b565b7f4e487b71000000000000000000000000000000000000000000000000000000005f52600160045260245ffdfea2646970667358221220a75cb6f28b9a6284e1e4d05a4d4de59aef031b098ffe9ce8f9c8e918e9a84f9664736f6c634300081a0033",
					"opcodes": "PUSH1 0x80 PUSH1 0x40 MSTORE CALLVALUE DUP1 ISZERO PUSH1 0xE JUMPI PUSH0 DUP1 REVERT JUMPDEST POP PUSH2 0x159 DUP1 PUSH2 0x1C PUSH0 CODECOPY PUSH0 RETURN INVALID PUSH1 0x80 PUSH1 0x40 MSTORE CALLVALUE DUP1 ISZERO PUSH2 0xF JUMPI PUSH0 DUP1 REVERT JUMPDEST POP PUSH1 0x4 CALLDATASIZE LT PUSH2 0x34 JUMPI PUSH0 CALLDATALOAD PUSH1 0xE0 SHR DUP1 PUSH4 0x9B4E0958 EQ PUSH2 0x38 JUMPI DUP1 PUSH4 0xF8A8FD6D EQ PUSH2 0x42 JUMPI JUMPDEST PUSH0 DUP1 REVERT JUMPDEST PUSH2 0x40 PUSH2 0x4C JUMP JUMPDEST STOP JUMPDEST PUSH2 0x4A PUSH2 0x9B JUMP JUMPDEST STOP JUMPDEST PUSH1 0x3C DUP1 EQ PUSH2 0x5D JUMPI PUSH2 0x5C PUSH2 0xF6 JUMP JUMPDEST JUMPDEST PUSH3 0x10B30 PUSH3 0x15180 EQ PUSH2 0x73 JUMPI PUSH2 0x72 PUSH2 0xF6 JUMP JUMPDEST JUMPDEST PUSH3 0x15180 DUP1 EQ PUSH2 0x86 JUMPI PUSH2 0x85 PUSH2 0xF6 JUMP JUMPDEST JUMPDEST PUSH3 0x93A80 DUP1 EQ PUSH2 0x99 JUMPI PUSH2 0x98 PUSH2 0xF6 JUMP JUMPDEST JUMPDEST JUMP JUMPDEST PUSH8 0xDE0B6B3A7640000 DUP1 EQ PUSH2 0xB3 JUMPI PUSH2 0xB2 PUSH2 0xF6 JUMP JUMPDEST JUMPDEST PUSH1 0x1 DUP1 EQ PUSH2 0xC4 JUMPI PUSH2 0xC3 PUSH2 0xF6 JUMP JUMPDEST JUMPDEST PUSH8 0xDE0B6B3A7640000 DUP1 EQ PUSH2 0xDC JUMPI PUSH2 0xDB PUSH2 0xF6 JUMP JUMPDEST JUMPDEST PUSH8 0x1BC16D674EC80000 DUP1 EQ PUSH2 0xF4 JUMPI PUSH2 0xF3 PUSH2 0xF6 JUMP JUMPDEST JUMPDEST JUMP JUMPDEST PUSH32 0x4E487B7100000000000000000000000000000000000000000000000000000000 PUSH0 MSTORE PUSH1 0x1 PUSH1 0x4 MSTORE PUSH1 0x24 PUSH0 REVERT INVALID LOG2 PUSH5 0x6970667358 0x22 SLT KECCAK256 0xA7 TLOAD 0xB6 CALLCODE DUP12 SWAP11 PUSH3 0x84E1E4 0xD0 GAS 0x4D 0x4D 0xE5 SWAP11 0xEF SUB SHL MULMOD DUP16 INVALID SWAP13 0xE8 0xF9 0xC8 0xE9 XOR 0xE9 0xA8 0x4F SWAP7 PUSH5 0x736F6C6343 STOP ADDMOD BYTE STOP CALLER "
				},
				"gasEstimates": {
					"creation": {
						"codeDepositCost": "69000",
						"executionCost": "115",
						"totalCost": "69115"
					},
					"external": {
						"excersize()": "194",
						"test()": "235"
					}
				},
				"methodIdentifiers": {
					"excersize()": "9b4e0958",
					"test()": "f8a8fd6d"
				}
			},
			"storageLayout": {
				"storage": [],
				"types": null
			},
			"userdoc": {
				"kind": "user",
				"methods": {},
				"version": 1
			}
		}
	}
}