{
	"contracts/modulo.sol": {
		"modulo": {
			"abi": [
				{
					"inputs": [],
					"name": "calc",
					"outputs": [
						{
							"internalType": "uint256",
							"name": "",
							"type": "uint256"
						}
					],
					"stateMutability": "pure",
					"type": "function"
				}
			],
			"devdoc": {
				"kind": "dev",
				"methods": {},
				"version": 1
			},
			"evm": {
				"assembly": "    /* \"contracts/modulo.sol\":69:271  contract modulo{... */\n  mstore(0x40, 0x80)\n  callvalue\n  dup1\n  iszero\n  tag_1\n  jumpi\n  0x00\n  dup1\n  revert\ntag_1:\n  pop\n  dataSize(sub_0)\n  dup1\n  dataOffset(sub_0)\n  0x00\n  codecopy\n  0x00\n  return\nstop\n\nsub_0: assembly {\n        /* \"contracts/modulo.sol\":69:271  contract modulo{... */\n      mstore(0x40, 0x80)\n      callvalue\n      dup1\n      iszero\n      tag_1\n      jumpi\n      0x00\n      dup1\n      revert\n    tag_1:\n      pop\n      jumpi(tag_2, lt(calldatasize, 0x04))\n      shr(0xe0, calldataload(0x00))\n      dup1\n      0x96f1b6be\n      eq\n      tag_3\n      jumpi\n    tag_2:\n      0x00\n      dup1\n      revert\n        /* \"contracts/modulo.sol\":91:232  function calc() public pure returns(uint){... */\n    tag_3:\n      tag_4\n      tag_5\n      jump\t// in\n    tag_4:\n      mload(0x40)\n      tag_6\n      swap2\n      swap1\n      tag_7\n      jump\t// in\n    tag_6:\n      mload(0x40)\n      dup1\n      swap2\n      sub\n      swap1\n      return\n    tag_5:\n        /* \"contracts/modulo.sol\":127:131  uint */\n      0x00\n        /* \"contracts/modulo.sol\":138:144  uint a */\n      dup1\n        /* \"contracts/modulo.sol\":147:150  112 */\n      0x70\n        /* \"contracts/modulo.sol\":138:150  uint a = 112 */\n      swap1\n      pop\n        /* \"contracts/modulo.sol\":156:162  uint b */\n      0x00\n        /* \"contracts/modulo.sol\":165:167  35 */\n      0x23\n        /* \"contracts/modulo.sol\":156:167  uint b = 35 */\n      swap1\n      pop\n        /* \"contracts/modulo.sol\":173:184  uint result */\n      0x00\n        /* \"contracts/modulo.sol\":204:205  b */\n      dup2\n        /* \"contracts/modulo.sol\":200:201  a */\n      dup4\n        /* \"contracts/modulo.sol\":200:205  a % b */\n      tag_9\n      swap2\n      swap1\n      tag_10\n      jump\t// in\n    tag_9:\n        /* \"contracts/modulo.sol\":191:205  result = a % b */\n      swap1\n      pop\n        /* \"contracts/modulo.sol\":218:224  result */\n      dup1\n        /* \"contracts/modulo.sol\":211:224  return result */\n      swap4\n      pop\n      pop\n      pop\n      pop\n        /* \"contracts/modulo.sol\":91:232  function calc() public pure returns(uint){... */\n      swap1\n      jump\t// out\n        /* \"#utility.yul\":7:84   */\n    tag_11:\n        /* \"#utility.yul\":44:51   */\n      0x00\n        /* \"#utility.yul\":73:78   */\n      dup2\n        /* \"#utility.yul\":62:78   */\n      swap1\n      pop\n        /* \"#utility.yul\":7:84   */\n      swap2\n      swap1\n      pop\n      jump\t// out\n        /* \"#utility.yul\":90:208   */\n    tag_12:\n        /* \"#utility.yul\":177:201   */\n      tag_17\n        /* \"#utility.yul\":195:200   */\n      dup2\n        /* \"#utility.yul\":177:201   */\n      tag_11\n      jump\t// in\n    tag_17:\n        /* \"#utility.yul\":172:175   */\n      dup3\n        /* \"#utility.yul\":165:202   */\n      mstore\n        /* \"#utility.yul\":90:208   */\n      pop\n      pop\n      jump\t// out\n        /* \"#utility.yul\":214:436   */\n    tag_7:\n        /* \"#utility.yul\":307:311   */\n      0x00\n        /* \"#utility.yul\":345:347   */\n      0x20\n        /* \"#utility.yul\":334:343   */\n      dup3\n        /* \"#utility.yul\":330:348   */\n      add\n        /* \"#utility.yul\":322:348   */\n      swap1\n      pop\n        /* \"#utility.yul\":358:429   */\n      tag_19\n        /* \"#utility.yul\":426:427   */\n      0x00\n        /* \"#utility.yul\":415:424   */\n      dup4\n        /* \"#utility.yul\":411:428   */\n      add\n        /* \"#utility.yul\":402:408   */\n      dup5\n        /* \"#utility.yul\":358:429   */\n      tag_12\n      jump\t// in\n    tag_19:\n        /* \"#utility.yul\":214:436   */\n      swap3\n      swap2\n      pop\n      pop\n      jump\t// out\n        /* \"#utility.yul\":442:622   */\n    tag_13:\n        /* \"#utility.yul\":490:567   */\n      0x4e487b7100000000000000000000000000000000000000000000000000000000\n        /* \"#utility.yul\":487:488   */\n      0x00\n        /* \"#utility.yul\":480:568   */\n      mstore\n        /* \"#utility.yul\":587:591   */\n      0x12\n        /* \"#utility.yul\":584:585   */\n      0x04\n        /* \"#utility.yul\":577:592   */\n      mstore\n        /* \"#utility.yul\":611:615   */\n      0x24\n        /* \"#utility.yul\":608:609   */\n      0x00\n        /* \"#utility.yul\":601:616   */\n      revert\n        /* \"#utility.yul\":628:804   */\n    tag_10:\n        /* \"#utility.yul\":660:661   */\n      0x00\n        /* \"#utility.yul\":677:697   */\n      tag_22\n        /* \"#utility.yul\":695:696   */\n      dup3\n        /* \"#utility.yul\":677:697   */\n      tag_11\n      jump\t// in\n    tag_22:\n        /* \"#utility.yul\":672:697   */\n      swap2\n      pop\n        /* \"#utility.yul\":711:731   */\n      tag_23\n        /* \"#utility.yul\":729:730   */\n      dup4\n        /* \"#utility.yul\":711:731   */\n      tag_11\n      jump\t// in\n    tag_23:\n        /* \"#utility.yul\":706:731   */\n      swap3\n      pop\n        /* \"#utility.yul\":750:751   */\n      dup3\n        /* \"#utility.yul\":740:775   */\n      tag_24\n      jumpi\n        /* \"#utility.yul\":755:773   */\n      tag_25\n      tag_13\n      jump\t// in\n    tag_25:\n        /* \"#utility.yul\":740:775   */\n    tag_24:\n        /* \"#utility.yul\":796:797   */\n      dup3\n        /* \"#utility.yul\":793:794   */\n      dup3\n        /* \"#utility.yul\":789:798   */\n      mod\n        /* \"#utility.yul\":784:798   */\n      swap1\n      pop\n        /* \"#utility.yul\":628:804   */\n      swap3\n      swap2\n      pop\n      pop\n      jump\t// out\n\n    auxdata: 0xa2646970667358221220cc0f6743a62f0736c4404f3d0d460204f05079bcb7e52ab0877065fac69865d164736f6c634300081a0033\n}\n",
				"bytecode": {
					"linkReferences": {},
					"object": "6080604052348015600e575f80fd5b5061011e8061001c5f395ff3fe6080604052348015600e575f80fd5b50600436106026575f3560e01c806396f1b6be14602a575b5f80fd5b60306044565b604051603b9190607b565b60405180910390f35b5f80607090505f602390505f8183605a919060bf565b905080935050505090565b5f819050919050565b6075816065565b82525050565b5f602082019050608c5f830184606e565b92915050565b7f4e487b71000000000000000000000000000000000000000000000000000000005f52601260045260245ffd5b5f60c7826065565b915060d0836065565b92508260dd5760dc6092565b5b82820690509291505056fea2646970667358221220cc0f6743a62f0736c4404f3d0d460204f05079bcb7e52ab0877065fac69865d164736f6c634300081a0033",
					"opcodes": "PUSH1 0x80 PUSH1 0x40 MSTORE CALLVALUE DUP1 ISZERO PUSH1 0xE JUMPI PUSH0 DUP1 REVERT JUMPDEST POP PUSH2 0x11E DUP1 PUSH2 0x1C PUSH0 CODECOPY PUSH0 RETURN INVALID PUSH1 0x80 PUSH1 0x40 MSTORE CALLVALUE DUP1 ISZERO PUSH1 0xE JUMPI PUSH0 DUP1 REVERT JUMPDEST POP PUSH1 0x4 CALLDATASIZE LT PUSH1 0x26 JUMPI PUSH0 CALLDATALOAD PUSH1 0xE0 SHR DUP1 PUSH4 0x96F1B6BE EQ PUSH1 0x2A JUMPI JUMPDEST PUSH0 DUP1 REVERT JUMPDEST PUSH1 0x30 PUSH1 0x44 JUMP JUMPDEST PUSH1 0x40 MLOAD PUSH1 0x3B SWAP2 SWAP1 PUSH1 0x7B JUMP JUMPDEST PUSH1 0x40 MLOAD DUP1 SWAP2 SUB SWAP1 RETURN JUMPDEST PUSH0 DUP1 PUSH1 0x70 SWAP1 POP PUSH0 PUSH1 0x23 SWAP1 POP PUSH0 DUP2 DUP4 PUSH1 0x5A SWAP2 SWAP1 PUSH1 0xBF JUMP JUMPDEST SWAP1 POP DUP1 SWAP4 POP POP POP POP SWAP1 JUMP JUMPDEST PUSH0 DUP2 SWAP1 POP SWAP2 SWAP1 POP JUMP JUMPDEST PUSH1 0x75 DUP2 PUSH1 0x65 JUMP JUMPDEST DUP3 MSTORE POP POP JUMP JUMPDEST PUSH0 PUSH1 0x20 DUP3 ADD SWAP1 POP PUSH1 0x8C PUSH0 DUP4 ADD DUP5 PUSH1 0x6E JUMP JUMPDEST SWAP3 SWAP2 POP POP JUMP JUMPDEST PUSH32 0x4E487B7100000000000000000000000000000000000000000000000000000000 PUSH0 MSTORE PUSH1 0x12 PUSH1 0x4 MSTORE PUSH1 0x24 PUSH0 REVERT JUMPDEST PUSH0 PUSH1 0xC7 DUP3 PUSH1 0x65 JUMP JUMPDEST SWAP2 POP PUSH1 0xD0 DUP4 PUSH1 0x65 JUMP JUMPDEST SWAP3 POP DUP3 PUSH1 0xDD JUMPI PUSH1 0xDC PUSH1 0x92 JUMP JUMPDEST JUMPDEST DUP3 DUP3 MOD SWAP1 POP SWAP3 SWAP2 POP POP JUMP INVALID LOG2 PUSH5 0x6970667358 0x22 SLT KECCAK256 0xCC 0xF PUSH8 0x43A62F0736C4404F RETURNDATASIZE 0xD CHAINID MUL DIV CREATE POP PUSH26 0xBCB7E52AB0877065FAC69865D164736F6C634300081A00330000 "
				},
				"gasEstimates": {
					"creation": {
						"codeDepositCost": "57200",
						"executionCost": "103",
						"totalCost": "57303"
					},
					"external": {
						"calc()": "infinite"
					}
				},
				"methodIdentifiers": {
					"calc()": "96f1b6be"
				}
			},
			"storageLayout": {
				"storage": [],
				"types": null
			},
			"userdoc": {
				"kind": "user",
				"methods": {},
				"version": 1
			}
		}
	}
}