{
	"contracts/assignment.sol": {
		"AssignmentOperator": {
			"abi": [
				{
					"inputs": [],
					"name": "assign",
					"outputs": [
						{
							"internalType": "uint256",
							"name": "",
							"type": "uint256"
						}
					],
					"stateMutability": "view",
					"type": "function"
				},
				{
					"inputs": [],
					"name": "assign1",
					"outputs": [
						{
							"internalType": "uint256",
							"name": "",
							"type": "uint256"
						}
					],
					"stateMutability": "view",
					"type": "function"
				}
			],
			"devdoc": {
				"kind": "dev",
				"methods": {},
				"version": 1
			},
			"evm": {
				"assembly": "    /* \"contracts/assignment.sol\":67:329  contract AssignmentOperator{... */\n  mstore(0x40, 0x80)\n    /* \"contracts/assignment.sol\":109:110  4 */\n  0x04\n    /* \"contracts/assignment.sol\":101:110  uint b =4 */\n  0x00\n  sstore\n    /* \"contracts/assignment.sol\":125:126  3 */\n  0x03\n    /* \"contracts/assignment.sol\":117:126  uint a =3 */\n  0x01\n  sstore\n    /* \"contracts/assignment.sol\":67:329  contract AssignmentOperator{... */\n  callvalue\n  dup1\n  iszero\n  tag_1\n  jumpi\n  0x00\n  dup1\n  revert\ntag_1:\n  pop\n  dataSize(sub_0)\n  dup1\n  dataOffset(sub_0)\n  0x00\n  codecopy\n  0x00\n  return\nstop\n\nsub_0: assembly {\n        /* \"contracts/assignment.sol\":67:329  contract AssignmentOperator{... */\n      mstore(0x40, 0x80)\n      callvalue\n      dup1\n      iszero\n      tag_1\n      jumpi\n      0x00\n      dup1\n      revert\n    tag_1:\n      pop\n      jumpi(tag_2, lt(calldatasize, 0x04))\n      shr(0xe0, calldataload(0x00))\n      dup1\n      0x12ae6397\n      eq\n      tag_3\n      jumpi\n      dup1\n      0x85e08874\n      eq\n      tag_4\n      jumpi\n    tag_2:\n      0x00\n      dup1\n      revert\n        /* \"contracts/assignment.sol\":133:222  function assign() public view returns(uint){... */\n    tag_3:\n      tag_5\n      tag_6\n      jump\t// in\n    tag_5:\n      mload(0x40)\n      tag_7\n      swap2\n      swap1\n      tag_8\n      jump\t// in\n    tag_7:\n      mload(0x40)\n      dup1\n      swap2\n      sub\n      swap1\n      return\n        /* \"contracts/assignment.sol\":228:326  function assign1()public view returns(uint){... */\n    tag_4:\n      tag_9\n      tag_10\n      jump\t// in\n    tag_9:\n      mload(0x40)\n      tag_11\n      swap2\n      swap1\n      tag_8\n      jump\t// in\n    tag_11:\n      mload(0x40)\n      dup1\n      swap2\n      sub\n      swap1\n      return\n        /* \"contracts/assignment.sol\":133:222  function assign() public view returns(uint){... */\n    tag_6:\n        /* \"contracts/assignment.sol\":171:175  uint */\n      0x00\n        /* \"contracts/assignment.sol\":187:193  uint c */\n      dup1\n        /* \"contracts/assignment.sol\":213:214  b */\n      sload(0x00)\n        /* \"contracts/assignment.sol\":211:214  c=b */\n      swap1\n      pop\n      dup1\n        /* \"contracts/assignment.sol\":204:214  return c=b */\n      swap2\n      pop\n      pop\n        /* \"contracts/assignment.sol\":133:222  function assign() public view returns(uint){... */\n      swap1\n      jump\t// out\n        /* \"contracts/assignment.sol\":228:326  function assign1()public view returns(uint){... */\n    tag_10:\n        /* \"contracts/assignment.sol\":266:270  uint */\n      0x00\n        /* \"contracts/assignment.sol\":282:288  uint c */\n      dup1\n        /* \"contracts/assignment.sol\":289:290  2 */\n      0x02\n        /* \"contracts/assignment.sol\":282:290  uint c=2 */\n      swap1\n      pop\n        /* \"contracts/assignment.sol\":317:318  a */\n      sload(0x01)\n        /* \"contracts/assignment.sol\":315:316  b */\n      sload(0x00)\n        /* \"contracts/assignment.sol\":313:314  c */\n      dup3\n        /* \"contracts/assignment.sol\":313:316  c+b */\n      tag_14\n      swap2\n      swap1\n      tag_15\n      jump\t// in\n    tag_14:\n        /* \"contracts/assignment.sol\":313:318  c+b+a */\n      tag_16\n      swap2\n      swap1\n      tag_15\n      jump\t// in\n    tag_16:\n        /* \"contracts/assignment.sol\":308:318  c += c+b+a */\n      dup2\n      tag_17\n      swap2\n      swap1\n      tag_15\n      jump\t// in\n    tag_17:\n      swap1\n      pop\n      dup1\n        /* \"contracts/assignment.sol\":301:318  return c += c+b+a */\n      swap2\n      pop\n      pop\n        /* \"contracts/assignment.sol\":228:326  function assign1()public view returns(uint){... */\n      swap1\n      jump\t// out\n        /* \"#utility.yul\":7:84   */\n    tag_18:\n        /* \"#utility.yul\":44:51   */\n      0x00\n        /* \"#utility.yul\":73:78   */\n      dup2\n        /* \"#utility.yul\":62:78   */\n      swap1\n      pop\n        /* \"#utility.yul\":7:84   */\n      swap2\n      swap1\n      pop\n      jump\t// out\n        /* \"#utility.yul\":90:208   */\n    tag_19:\n        /* \"#utility.yul\":177:201   */\n      tag_24\n        /* \"#utility.yul\":195:200   */\n      dup2\n        /* \"#utility.yul\":177:201   */\n      tag_18\n      jump\t// in\n    tag_24:\n        /* \"#utility.yul\":172:175   */\n      dup3\n        /* \"#utility.yul\":165:202   */\n      mstore\n        /* \"#utility.yul\":90:208   */\n      pop\n      pop\n      jump\t// out\n        /* \"#utility.yul\":214:436   */\n    tag_8:\n        /* \"#utility.yul\":307:311   */\n      0x00\n        /* \"#utility.yul\":345:347   */\n      0x20\n        /* \"#utility.yul\":334:343   */\n      dup3\n        /* \"#utility.yul\":330:348   */\n      add\n        /* \"#utility.yul\":322:348   */\n      swap1\n      pop\n        /* \"#utility.yul\":358:429   */\n      tag_26\n        /* \"#utility.yul\":426:427   */\n      0x00\n        /* \"#utility.yul\":415:424   */\n      dup4\n        /* \"#utility.yul\":411:428   */\n      add\n        /* \"#utility.yul\":402:408   */\n      dup5\n        /* \"#utility.yul\":358:429   */\n      tag_19\n      jump\t// in\n    tag_26:\n        /* \"#utility.yul\":214:436   */\n      swap3\n      swap2\n      pop\n      pop\n      jump\t// out\n        /* \"#utility.yul\":442:622   */\n    tag_20:\n        /* \"#utility.yul\":490:567   */\n      0x4e487b7100000000000000000000000000000000000000000000000000000000\n        /* \"#utility.yul\":487:488   */\n      0x00\n        /* \"#utility.yul\":480:568   */\n      mstore\n        /* \"#utility.yul\":587:591   */\n      0x11\n        /* \"#utility.yul\":584:585   */\n      0x04\n        /* \"#utility.yul\":577:592   */\n      mstore\n        /* \"#utility.yul\":611:615   */\n      0x24\n        /* \"#utility.yul\":608:609   */\n      0x00\n        /* \"#utility.yul\":601:616   */\n      revert\n        /* \"#utility.yul\":628:819   */\n    tag_15:\n        /* \"#utility.yul\":668:671   */\n      0x00\n        /* \"#utility.yul\":687:707   */\n      tag_29\n        /* \"#utility.yul\":705:706   */\n      dup3\n        /* \"#utility.yul\":687:707   */\n      tag_18\n      jump\t// in\n    tag_29:\n        /* \"#utility.yul\":682:707   */\n      swap2\n      pop\n        /* \"#utility.yul\":721:741   */\n      tag_30\n        /* \"#utility.yul\":739:740   */\n      dup4\n        /* \"#utility.yul\":721:741   */\n      tag_18\n      jump\t// in\n    tag_30:\n        /* \"#utility.yul\":716:741   */\n      swap3\n      pop\n        /* \"#utility.yul\":764:765   */\n      dup3\n        /* \"#utility.yul\":761:762   */\n      dup3\n        /* \"#utility.yul\":757:766   */\n      add\n        /* \"#utility.yul\":750:766   */\n      swap1\n      pop\n        /* \"#utility.yul\":785:788   */\n      dup1\n        /* \"#utility.yul\":782:783   */\n      dup3\n        /* \"#utility.yul\":779:789   */\n      gt\n        /* \"#utility.yul\":776:812   */\n      iszero\n      tag_31\n      jumpi\n        /* \"#utility.yul\":792:810   */\n      tag_32\n      tag_20\n      jump\t// in\n    tag_32:\n        /* \"#utility.yul\":776:812   */\n    tag_31:\n        /* \"#utility.yul\":628:819   */\n      swap3\n      swap2\n      pop\n      pop\n      jump\t// out\n\n    auxdata: 0xa26469706673582212202498604e68f1710ad7cd2e0a5dda204ea81694655004ddc882366191136ee31864736f6c634300081a0033\n}\n",
				"bytecode": {
					"linkReferences": {},
					"object": "608060405260045f5560036001553480156017575f80fd5b5061017c806100255f395ff3fe608060405234801561000f575f80fd5b5060043610610034575f3560e01c806312ae63971461003857806385e0887414610056575b5f80fd5b610040610074565b60405161004d91906100cd565b60405180910390f35b61005e610081565b60405161006b91906100cd565b60405180910390f35b5f805f5490508091505090565b5f80600290506001545f54826100979190610113565b6100a19190610113565b816100ac9190610113565b90508091505090565b5f819050919050565b6100c7816100b5565b82525050565b5f6020820190506100e05f8301846100be565b92915050565b7f4e487b71000000000000000000000000000000000000000000000000000000005f52601160045260245ffd5b5f61011d826100b5565b9150610128836100b5565b92508282019050808211156101405761013f6100e6565b5b9291505056fea26469706673582212202498604e68f1710ad7cd2e0a5dda204ea81694655004ddc882366191136ee31864736f6c634300081a0033",
					"opcodes": "PUSH1 0x80 PUSH1 0x40 MSTORE PUSH1 0x4 PUSH0 SSTORE PUSH1 0x3 PUSH1 0x1 SSTORE CALLVALUE DUP1 ISZERO PUSH1 0x17 JUMPI PUSH0 DUP1 REVERT JUMPDEST POP PUSH2 0x17C DUP1 PUSH2 0x25 PUSH0 CODECOPY PUSH0 RETURN INVALID PUSH1 0x80 PUSH1 0x40 MSTORE CALLVALUE DUP1 ISZERO PUSH2 0xF JUMPI PUSH0 DUP1 REVERT JUMPDEST POP PUSH1 0x4 CALLDATASIZE LT PUSH2 0x34 JUMPI PUSH0 CALLDATALOAD PUSH1 0xE0 SHR DUP1 PUSH4 0x12AE6397 EQ PUSH2 0x38 JUMPI DUP1 PUSH4 0x85E08874 EQ PUSH2 0x56 JUMPI JUMPDEST PUSH0 DUP1 REVERT JUMPDEST PUSH2 0x40 PUSH2 0x74 JUMP JUMPDEST PUSH1 0x40 MLOAD PUSH2 0x4D SWAP2 SWAP1 PUSH2 0xCD JUMP JUMPDEST PUSH1 0x40 MLOAD DUP1 SWAP2 SUB SWAP1 RETURN JUMPDEST PUSH2 0x5E PUSH2 0x81 JUMP JUMPDEST PUSH1 0x40 MLOAD PUSH2 0x6B SWAP2 SWAP1 PUSH2 0xCD JUMP JUMPDEST PUSH1 0x40 MLOAD DUP1 SWAP2 SUB SWAP1 RETURN JUMPDEST PUSH0 DUP1 PUSH0 SLOAD SWAP1 POP DUP1 SWAP2 POP POP SWAP1 JUMP JUMPDEST PUSH0 DUP1 PUSH1 0x2 SWAP1 POP PUSH1 0x1 SLOAD PUSH0 SLOAD DUP3 PUSH2 0x97 SWAP2 SWAP1 PUSH2 0x113 JUMP JUMPDEST PUSH2 0xA1 SWAP2 SWAP1 PUSH2 0x113 JUMP JUMPDEST DUP2 PUSH2 0xAC SWAP2 SWAP1 PUSH2 0x113 JUMP JUMPDEST SWAP1 POP DUP1 SWAP2 POP POP SWAP1 JUMP JUMPDEST PUSH0 DUP2 SWAP1 POP SWAP2 SWAP1 POP JUMP JUMPDEST PUSH2 0xC7 DUP2 PUSH2 0xB5 JUMP JUMPDEST DUP3 MSTORE POP POP JUMP JUMPDEST PUSH0 PUSH1 0x20 DUP3 ADD SWAP1 POP PUSH2 0xE0 PUSH0 DUP4 ADD DUP5 PUSH2 0xBE JUMP JUMPDEST SWAP3 SWAP2 POP POP JUMP JUMPDEST PUSH32 0x4E487B7100000000000000000000000000000000000000000000000000000000 PUSH0 MSTORE PUSH1 0x11 PUSH1 0x4 MSTORE PUSH1 0x24 PUSH0 REVERT JUMPDEST PUSH0 PUSH2 0x11D DUP3 PUSH2 0xB5 JUMP JUMPDEST SWAP2 POP PUSH2 0x128 DUP4 PUSH2 0xB5 JUMP JUMPDEST SWAP3 POP DUP3 DUP3 ADD SWAP1 POP DUP1 DUP3 GT ISZERO PUSH2 0x140 JUMPI PUSH2 0x13F PUSH2 0xE6 JUMP JUMPDEST JUMPDEST SWAP3 SWAP2 POP POP JUMP INVALID LOG2 PUSH5 0x6970667358 0x22 SLT KECCAK256 0x24 SWAP9 PUSH1 0x4E PUSH9 0xF1710AD7CD2E0A5DDA KECCAK256 0x4E 0xA8 AND SWAP5 PUSH6 0x5004DDC88236 PUSH2 0x9113 PUSH15 0xE31864736F6C634300081A00330000 "
				},
				"gasEstimates": {
					"creation": {
						"codeDepositCost": "76000",
						"executionCost": "44332",
						"totalCost": "120332"
					},
					"external": {
						"assign()": "2422",
						"assign1()": "infinite"
					}
				},
				"methodIdentifiers": {
					"assign()": "12ae6397",
					"assign1()": "85e08874"
				}
			},
			"storageLayout": {
				"storage": [
					{
						"astId": 4,
						"contract": "contracts/assignment.sol:AssignmentOperator",
						"label": "b",
						"offset": 0,
						"slot": "0",
						"type": "t_uint256"
					},
					{
						"astId": 7,
						"contract": "contracts/assignment.sol:AssignmentOperator",
						"label": "a",
						"offset": 0,
						"slot": "1",
						"type": "t_uint256"
					}
				],
				"types": {
					"t_uint256": {
						"encoding": "inplace",
						"label": "uint256",
						"numberOfBytes": "32"
					}
				}
			},
			"userdoc": {
				"kind": "user",
				"methods": {},
				"version": 1
			}
		}
	}
}