{
	"contracts/DataTypes.sol": {
		"DataTypes": {
			"abi": [
				{
					"inputs": [],
					"name": "b",
					"outputs": [
						{
							"internalType": "bytes1",
							"name": "",
							"type": "bytes1"
						}
					],
					"stateMutability": "view",
					"type": "function"
				},
				{
					"inputs": [],
					"name": "boolean",
					"outputs": [
						{
							"internalType": "bool",
							"name": "",
							"type": "bool"
						}
					],
					"stateMutability": "view",
					"type": "function"
				},
				{
					"inputs": [],
					"name": "int_var",
					"outputs": [
						{
							"internalType": "int256",
							"name": "",
							"type": "int256"
						}
					],
					"stateMutability": "view",
					"type": "function"
				},
				{
					"inputs": [],
					"name": "myEnum",
					"outputs": [
						{
							"internalType": "enum DataTypes.my_enum",
							"name": "",
							"type": "uint8"
						}
					],
					"stateMutability": "pure",
					"type": "function"
				},
				{
					"inputs": [],
					"name": "str",
					"outputs": [
						{
							"internalType": "string",
							"name": "",
							"type": "string"
						}
					],
					"stateMutability": "view",
					"type": "function"
				}
			],
			"devdoc": {
				"kind": "dev",
				"methods": {},
				"version": 1
			},
			"evm": {
				"assembly": "    /* \"contracts/DataTypes.sol\":59:363  contract DataTypes{... */\n  mstore(0x40, 0x80)\n    /* \"contracts/DataTypes.sol\":106:111  false */\n  0x00\n    /* \"contracts/DataTypes.sol\":84:111  bool public boolean = false */\n  dup1\n  exp(0x0100, 0x00)\n  dup2\n  sload\n  dup2\n  0xff\n  mul\n  not\n  and\n  swap1\n  dup4\n  iszero\n  iszero\n  mul\n  or\n  swap1\n  sstore\n  pop\n    /* \"contracts/DataTypes.sol\":139:145  -63126 */\n  0xffffffffffffffffffffffffffffffffffffffffffffffffffffffffffff096a\n    /* \"contracts/DataTypes.sol\":118:145  int public int_var = -63126 */\n  0x01\n  sstore\n    /* \"contracts/DataTypes.sol\":152:186  string public str = \"test purpose\" */\n  mload(0x40)\n  dup1\n  0x40\n  add\n  0x40\n  mstore\n  dup1\n  0x0c\n  dup2\n  mstore\n  0x20\n  add\n  0x7465737420707572706f73650000000000000000000000000000000000000000\n  dup2\n  mstore\n  pop\n  0x02\n  swap1\n  dup2\n  tag_1\n  swap2\n  swap1\n  tag_2\n  jump\t// in\ntag_1:\n  pop\n    /* \"contracts/DataTypes.sol\":193:214  bytes1 public b = \"P\" */\n  0x5000000000000000000000000000000000000000000000000000000000000000\n  0x03\n  exp(0x0100, 0x00)\n  dup2\n  sload\n  dup2\n  0xff\n  mul\n  not\n  and\n  swap1\n  dup4\n  0xf8\n  shr\n  mul\n  or\n  swap1\n  sstore\n  pop\n    /* \"contracts/DataTypes.sol\":59:363  contract DataTypes{... */\n  callvalue\n  dup1\n  iszero\n  tag_3\n  jumpi\n  0x00\n  dup1\n  revert\ntag_3:\n  pop\n  jump(tag_4)\n    /* \"#utility.yul\":7:106   */\ntag_5:\n    /* \"#utility.yul\":59:65   */\n  0x00\n    /* \"#utility.yul\":93:98   */\n  dup2\n    /* \"#utility.yul\":87:99   */\n  mload\n    /* \"#utility.yul\":77:99   */\n  swap1\n  pop\n    /* \"#utility.yul\":7:106   */\n  swap2\n  swap1\n  pop\n  jump\t// out\n    /* \"#utility.yul\":112:292   */\ntag_6:\n    /* \"#utility.yul\":160:237   */\n  0x4e487b7100000000000000000000000000000000000000000000000000000000\n    /* \"#utility.yul\":157:158   */\n  0x00\n    /* \"#utility.yul\":150:238   */\n  mstore\n    /* \"#utility.yul\":257:261   */\n  0x41\n    /* \"#utility.yul\":254:255   */\n  0x04\n    /* \"#utility.yul\":247:262   */\n  mstore\n    /* \"#utility.yul\":281:285   */\n  0x24\n    /* \"#utility.yul\":278:279   */\n  0x00\n    /* \"#utility.yul\":271:286   */\n  revert\n    /* \"#utility.yul\":298:478   */\ntag_7:\n    /* \"#utility.yul\":346:423   */\n  0x4e487b7100000000000000000000000000000000000000000000000000000000\n    /* \"#utility.yul\":343:344   */\n  0x00\n    /* \"#utility.yul\":336:424   */\n  mstore\n    /* \"#utility.yul\":443:447   */\n  0x22\n    /* \"#utility.yul\":440:441   */\n  0x04\n    /* \"#utility.yul\":433:448   */\n  mstore\n    /* \"#utility.yul\":467:471   */\n  0x24\n    /* \"#utility.yul\":464:465   */\n  0x00\n    /* \"#utility.yul\":457:472   */\n  revert\n    /* \"#utility.yul\":484:804   */\ntag_8:\n    /* \"#utility.yul\":528:534   */\n  0x00\n    /* \"#utility.yul\":565:566   */\n  0x02\n    /* \"#utility.yul\":559:563   */\n  dup3\n    /* \"#utility.yul\":555:567   */\n  div\n    /* \"#utility.yul\":545:567   */\n  swap1\n  pop\n    /* \"#utility.yul\":612:613   */\n  0x01\n    /* \"#utility.yul\":606:610   */\n  dup3\n    /* \"#utility.yul\":602:614   */\n  and\n    /* \"#utility.yul\":633:651   */\n  dup1\n    /* \"#utility.yul\":623:704   */\n  tag_30\n  jumpi\n    /* \"#utility.yul\":689:693   */\n  0x7f\n    /* \"#utility.yul\":681:687   */\n  dup3\n    /* \"#utility.yul\":677:694   */\n  and\n    /* \"#utility.yul\":667:694   */\n  swap2\n  pop\n    /* \"#utility.yul\":623:704   */\ntag_30:\n    /* \"#utility.yul\":751:753   */\n  0x20\n    /* \"#utility.yul\":743:749   */\n  dup3\n    /* \"#utility.yul\":740:754   */\n  lt\n    /* \"#utility.yul\":720:738   */\n  dup2\n    /* \"#utility.yul\":717:755   */\n  sub\n    /* \"#utility.yul\":714:798   */\n  tag_31\n  jumpi\n    /* \"#utility.yul\":770:788   */\n  tag_32\n  tag_7\n  jump\t// in\ntag_32:\n    /* \"#utility.yul\":714:798   */\ntag_31:\n    /* \"#utility.yul\":535:804   */\n  pop\n    /* \"#utility.yul\":484:804   */\n  swap2\n  swap1\n  pop\n  jump\t// out\n    /* \"#utility.yul\":810:951   */\ntag_9:\n    /* \"#utility.yul\":859:863   */\n  0x00\n    /* \"#utility.yul\":882:885   */\n  dup2\n    /* \"#utility.yul\":874:885   */\n  swap1\n  pop\n    /* \"#utility.yul\":905:908   */\n  dup2\n    /* \"#utility.yul\":902:903   */\n  0x00\n    /* \"#utility.yul\":895:909   */\n  mstore\n    /* \"#utility.yul\":939:943   */\n  0x20\n    /* \"#utility.yul\":936:937   */\n  0x00\n    /* \"#utility.yul\":926:944   */\n  keccak256\n    /* \"#utility.yul\":918:944   */\n  swap1\n  pop\n    /* \"#utility.yul\":810:951   */\n  swap2\n  swap1\n  pop\n  jump\t// out\n    /* \"#utility.yul\":957:1050   */\ntag_10:\n    /* \"#utility.yul\":994:1000   */\n  0x00\n    /* \"#utility.yul\":1041:1043   */\n  0x20\n    /* \"#utility.yul\":1036:1038   */\n  0x1f\n    /* \"#utility.yul\":1029:1034   */\n  dup4\n    /* \"#utility.yul\":1025:1039   */\n  add\n    /* \"#utility.yul\":1021:1044   */\n  div\n    /* \"#utility.yul\":1011:1044   */\n  swap1\n  pop\n    /* \"#utility.yul\":957:1050   */\n  swap2\n  swap1\n  pop\n  jump\t// out\n    /* \"#utility.yul\":1056:1163   */\ntag_11:\n    /* \"#utility.yul\":1100:1108   */\n  0x00\n    /* \"#utility.yul\":1150:1155   */\n  dup3\n    /* \"#utility.yul\":1144:1148   */\n  dup3\n    /* \"#utility.yul\":1140:1156   */\n  shl\n    /* \"#utility.yul\":1119:1156   */\n  swap1\n  pop\n    /* \"#utility.yul\":1056:1163   */\n  swap3\n  swap2\n  pop\n  pop\n  jump\t// out\n    /* \"#utility.yul\":1169:1562   */\ntag_12:\n    /* \"#utility.yul\":1238:1244   */\n  0x00\n    /* \"#utility.yul\":1288:1289   */\n  0x08\n    /* \"#utility.yul\":1276:1286   */\n  dup4\n    /* \"#utility.yul\":1272:1290   */\n  mul\n    /* \"#utility.yul\":1311:1408   */\n  tag_37\n    /* \"#utility.yul\":1341:1407   */\n  0xffffffffffffffffffffffffffffffffffffffffffffffffffffffffffffffff\n    /* \"#utility.yul\":1330:1339   */\n  dup3\n    /* \"#utility.yul\":1311:1408   */\n  tag_11\n  jump\t// in\ntag_37:\n    /* \"#utility.yul\":1429:1468   */\n  tag_38\n    /* \"#utility.yul\":1459:1467   */\n  dup7\n    /* \"#utility.yul\":1448:1457   */\n  dup4\n    /* \"#utility.yul\":1429:1468   */\n  tag_11\n  jump\t// in\ntag_38:\n    /* \"#utility.yul\":1417:1468   */\n  swap6\n  pop\n    /* \"#utility.yul\":1501:1505   */\n  dup1\n    /* \"#utility.yul\":1497:1506   */\n  not\n    /* \"#utility.yul\":1490:1495   */\n  dup5\n    /* \"#utility.yul\":1486:1507   */\n  and\n    /* \"#utility.yul\":1477:1507   */\n  swap4\n  pop\n    /* \"#utility.yul\":1550:1554   */\n  dup1\n    /* \"#utility.yul\":1540:1548   */\n  dup7\n    /* \"#utility.yul\":1536:1555   */\n  and\n    /* \"#utility.yul\":1529:1534   */\n  dup5\n    /* \"#utility.yul\":1526:1556   */\n  or\n    /* \"#utility.yul\":1516:1556   */\n  swap3\n  pop\n    /* \"#utility.yul\":1245:1562   */\n  pop\n  pop\n    /* \"#utility.yul\":1169:1562   */\n  swap4\n  swap3\n  pop\n  pop\n  pop\n  jump\t// out\n    /* \"#utility.yul\":1568:1645   */\ntag_13:\n    /* \"#utility.yul\":1605:1612   */\n  0x00\n    /* \"#utility.yul\":1634:1639   */\n  dup2\n    /* \"#utility.yul\":1623:1639   */\n  swap1\n  pop\n    /* \"#utility.yul\":1568:1645   */\n  swap2\n  swap1\n  pop\n  jump\t// out\n    /* \"#utility.yul\":1651:1711   */\ntag_14:\n    /* \"#utility.yul\":1679:1682   */\n  0x00\n    /* \"#utility.yul\":1700:1705   */\n  dup2\n    /* \"#utility.yul\":1693:1705   */\n  swap1\n  pop\n    /* \"#utility.yul\":1651:1711   */\n  swap2\n  swap1\n  pop\n  jump\t// out\n    /* \"#utility.yul\":1717:1859   */\ntag_15:\n    /* \"#utility.yul\":1767:1776   */\n  0x00\n    /* \"#utility.yul\":1800:1853   */\n  tag_42\n    /* \"#utility.yul\":1818:1852   */\n  tag_43\n    /* \"#utility.yul\":1827:1851   */\n  tag_44\n    /* \"#utility.yul\":1845:1850   */\n  dup5\n    /* \"#utility.yul\":1827:1851   */\n  tag_13\n  jump\t// in\ntag_44:\n    /* \"#utility.yul\":1818:1852   */\n  tag_14\n  jump\t// in\ntag_43:\n    /* \"#utility.yul\":1800:1853   */\n  tag_13\n  jump\t// in\ntag_42:\n    /* \"#utility.yul\":1787:1853   */\n  swap1\n  pop\n    /* \"#utility.yul\":1717:1859   */\n  swap2\n  swap1\n  pop\n  jump\t// out\n    /* \"#utility.yul\":1865:1940   */\ntag_16:\n    /* \"#utility.yul\":1908:1911   */\n  0x00\n    /* \"#utility.yul\":1929:1934   */\n  dup2\n    /* \"#utility.yul\":1922:1934   */\n  swap1\n  pop\n    /* \"#utility.yul\":1865:1940   */\n  swap2\n  swap1\n  pop\n  jump\t// out\n    /* \"#utility.yul\":1946:2215   */\ntag_17:\n    /* \"#utility.yul\":2056:2095   */\n  tag_47\n    /* \"#utility.yul\":2087:2094   */\n  dup4\n    /* \"#utility.yul\":2056:2095   */\n  tag_15\n  jump\t// in\ntag_47:\n    /* \"#utility.yul\":2117:2208   */\n  tag_48\n    /* \"#utility.yul\":2166:2207   */\n  tag_49\n    /* \"#utility.yul\":2190:2206   */\n  dup3\n    /* \"#utility.yul\":2166:2207   */\n  tag_16\n  jump\t// in\ntag_49:\n    /* \"#utility.yul\":2158:2164   */\n  dup5\n    /* \"#utility.yul\":2151:2155   */\n  dup5\n    /* \"#utility.yul\":2145:2156   */\n  sload\n    /* \"#utility.yul\":2117:2208   */\n  tag_12\n  jump\t// in\ntag_48:\n    /* \"#utility.yul\":2111:2115   */\n  dup3\n    /* \"#utility.yul\":2104:2209   */\n  sstore\n    /* \"#utility.yul\":2022:2215   */\n  pop\n    /* \"#utility.yul\":1946:2215   */\n  pop\n  pop\n  pop\n  jump\t// out\n    /* \"#utility.yul\":2221:2294   */\ntag_18:\n    /* \"#utility.yul\":2266:2269   */\n  0x00\n    /* \"#utility.yul\":2221:2294   */\n  swap1\n  jump\t// out\n    /* \"#utility.yul\":2300:2489   */\ntag_19:\n    /* \"#utility.yul\":2377:2409   */\n  tag_52\n  tag_18\n  jump\t// in\ntag_52:\n    /* \"#utility.yul\":2418:2483   */\n  tag_53\n    /* \"#utility.yul\":2476:2482   */\n  dup2\n    /* \"#utility.yul\":2468:2474   */\n  dup5\n    /* \"#utility.yul\":2462:2466   */\n  dup5\n    /* \"#utility.yul\":2418:2483   */\n  tag_17\n  jump\t// in\ntag_53:\n    /* \"#utility.yul\":2353:2489   */\n  pop\n    /* \"#utility.yul\":2300:2489   */\n  pop\n  pop\n  jump\t// out\n    /* \"#utility.yul\":2495:2681   */\ntag_20:\n    /* \"#utility.yul\":2555:2675   */\ntag_55:\n    /* \"#utility.yul\":2572:2575   */\n  dup2\n    /* \"#utility.yul\":2565:2570   */\n  dup2\n    /* \"#utility.yul\":2562:2576   */\n  lt\n    /* \"#utility.yul\":2555:2675   */\n  iszero\n  tag_57\n  jumpi\n    /* \"#utility.yul\":2626:2665   */\n  tag_58\n    /* \"#utility.yul\":2663:2664   */\n  0x00\n    /* \"#utility.yul\":2656:2661   */\n  dup3\n    /* \"#utility.yul\":2626:2665   */\n  tag_19\n  jump\t// in\ntag_58:\n    /* \"#utility.yul\":2599:2600   */\n  0x01\n    /* \"#utility.yul\":2592:2597   */\n  dup2\n    /* \"#utility.yul\":2588:2601   */\n  add\n    /* \"#utility.yul\":2579:2601   */\n  swap1\n  pop\n    /* \"#utility.yul\":2555:2675   */\n  jump(tag_55)\ntag_57:\n    /* \"#utility.yul\":2495:2681   */\n  pop\n  pop\n  jump\t// out\n    /* \"#utility.yul\":2687:3230   */\ntag_21:\n    /* \"#utility.yul\":2788:2790   */\n  0x1f\n    /* \"#utility.yul\":2783:2786   */\n  dup3\n    /* \"#utility.yul\":2780:2791   */\n  gt\n    /* \"#utility.yul\":2777:3223   */\n  iszero\n  tag_60\n  jumpi\n    /* \"#utility.yul\":2822:2860   */\n  tag_61\n    /* \"#utility.yul\":2854:2859   */\n  dup2\n    /* \"#utility.yul\":2822:2860   */\n  tag_9\n  jump\t// in\ntag_61:\n    /* \"#utility.yul\":2906:2935   */\n  tag_62\n    /* \"#utility.yul\":2924:2934   */\n  dup5\n    /* \"#utility.yul\":2906:2935   */\n  tag_10\n  jump\t// in\ntag_62:\n    /* \"#utility.yul\":2896:2904   */\n  dup2\n    /* \"#utility.yul\":2892:2936   */\n  add\n    /* \"#utility.yul\":3089:3091   */\n  0x20\n    /* \"#utility.yul\":3077:3087   */\n  dup6\n    /* \"#utility.yul\":3074:3092   */\n  lt\n    /* \"#utility.yul\":3071:3120   */\n  iszero\n  tag_63\n  jumpi\n    /* \"#utility.yul\":3110:3118   */\n  dup2\n    /* \"#utility.yul\":3095:3118   */\n  swap1\n  pop\n    /* \"#utility.yul\":3071:3120   */\ntag_63:\n    /* \"#utility.yul\":3133:3213   */\n  tag_64\n    /* \"#utility.yul\":3189:3211   */\n  tag_65\n    /* \"#utility.yul\":3207:3210   */\n  dup6\n    /* \"#utility.yul\":3189:3211   */\n  tag_10\n  jump\t// in\ntag_65:\n    /* \"#utility.yul\":3179:3187   */\n  dup4\n    /* \"#utility.yul\":3175:3212   */\n  add\n    /* \"#utility.yul\":3162:3173   */\n  dup3\n    /* \"#utility.yul\":3133:3213   */\n  tag_20\n  jump\t// in\ntag_64:\n    /* \"#utility.yul\":2792:3223   */\n  pop\n  pop\n    /* \"#utility.yul\":2777:3223   */\ntag_60:\n    /* \"#utility.yul\":2687:3230   */\n  pop\n  pop\n  pop\n  jump\t// out\n    /* \"#utility.yul\":3236:3353   */\ntag_22:\n    /* \"#utility.yul\":3290:3298   */\n  0x00\n    /* \"#utility.yul\":3340:3345   */\n  dup3\n    /* \"#utility.yul\":3334:3338   */\n  dup3\n    /* \"#utility.yul\":3330:3346   */\n  shr\n    /* \"#utility.yul\":3309:3346   */\n  swap1\n  pop\n    /* \"#utility.yul\":3236:3353   */\n  swap3\n  swap2\n  pop\n  pop\n  jump\t// out\n    /* \"#utility.yul\":3359:3528   */\ntag_23:\n    /* \"#utility.yul\":3403:3409   */\n  0x00\n    /* \"#utility.yul\":3436:3487   */\n  tag_68\n    /* \"#utility.yul\":3484:3485   */\n  0x00\n    /* \"#utility.yul\":3480:3486   */\n  not\n    /* \"#utility.yul\":3472:3477   */\n  dup5\n    /* \"#utility.yul\":3469:3470   */\n  0x08\n    /* \"#utility.yul\":3465:3478   */\n  mul\n    /* \"#utility.yul\":3436:3487   */\n  tag_22\n  jump\t// in\ntag_68:\n    /* \"#utility.yul\":3432:3488   */\n  not\n    /* \"#utility.yul\":3517:3521   */\n  dup1\n    /* \"#utility.yul\":3511:3515   */\n  dup4\n    /* \"#utility.yul\":3507:3522   */\n  and\n    /* \"#utility.yul\":3497:3522   */\n  swap2\n  pop\n    /* \"#utility.yul\":3410:3528   */\n  pop\n    /* \"#utility.yul\":3359:3528   */\n  swap3\n  swap2\n  pop\n  pop\n  jump\t// out\n    /* \"#utility.yul\":3533:3828   */\ntag_24:\n    /* \"#utility.yul\":3609:3613   */\n  0x00\n    /* \"#utility.yul\":3755:3784   */\n  tag_70\n    /* \"#utility.yul\":3780:3783   */\n  dup4\n    /* \"#utility.yul\":3774:3778   */\n  dup4\n    /* \"#utility.yul\":3755:3784   */\n  tag_23\n  jump\t// in\ntag_70:\n    /* \"#utility.yul\":3747:3784   */\n  swap2\n  pop\n    /* \"#utility.yul\":3817:3820   */\n  dup3\n    /* \"#utility.yul\":3814:3815   */\n  0x02\n    /* \"#utility.yul\":3810:3821   */\n  mul\n    /* \"#utility.yul\":3804:3808   */\n  dup3\n    /* \"#utility.yul\":3801:3822   */\n  or\n    /* \"#utility.yul\":3793:3822   */\n  swap1\n  pop\n    /* \"#utility.yul\":3533:3828   */\n  swap3\n  swap2\n  pop\n  pop\n  jump\t// out\n    /* \"#utility.yul\":3833:5228   */\ntag_2:\n    /* \"#utility.yul\":3950:3987   */\n  tag_72\n    /* \"#utility.yul\":3983:3986   */\n  dup3\n    /* \"#utility.yul\":3950:3987   */\n  tag_5\n  jump\t// in\ntag_72:\n    /* \"#utility.yul\":4052:4070   */\n  0xffffffffffffffff\n    /* \"#utility.yul\":4044:4050   */\n  dup2\n    /* \"#utility.yul\":4041:4071   */\n  gt\n    /* \"#utility.yul\":4038:4094   */\n  iszero\n  tag_73\n  jumpi\n    /* \"#utility.yul\":4074:4092   */\n  tag_74\n  tag_6\n  jump\t// in\ntag_74:\n    /* \"#utility.yul\":4038:4094   */\ntag_73:\n    /* \"#utility.yul\":4118:4156   */\n  tag_75\n    /* \"#utility.yul\":4150:4154   */\n  dup3\n    /* \"#utility.yul\":4144:4155   */\n  sload\n    /* \"#utility.yul\":4118:4156   */\n  tag_8\n  jump\t// in\ntag_75:\n    /* \"#utility.yul\":4203:4270   */\n  tag_76\n    /* \"#utility.yul\":4263:4269   */\n  dup3\n    /* \"#utility.yul\":4255:4261   */\n  dup3\n    /* \"#utility.yul\":4249:4253   */\n  dup6\n    /* \"#utility.yul\":4203:4270   */\n  tag_21\n  jump\t// in\ntag_76:\n    /* \"#utility.yul\":4297:4298   */\n  0x00\n    /* \"#utility.yul\":4321:4325   */\n  0x20\n    /* \"#utility.yul\":4308:4325   */\n  swap1\n  pop\n    /* \"#utility.yul\":4353:4355   */\n  0x1f\n    /* \"#utility.yul\":4345:4351   */\n  dup4\n    /* \"#utility.yul\":4342:4356   */\n  gt\n    /* \"#utility.yul\":4370:4371   */\n  0x01\n    /* \"#utility.yul\":4365:4983   */\n  dup2\n  eq\n  tag_78\n  jumpi\n    /* \"#utility.yul\":5027:5028   */\n  0x00\n    /* \"#utility.yul\":5044:5050   */\n  dup5\n    /* \"#utility.yul\":5041:5118   */\n  iszero\n  tag_79\n  jumpi\n    /* \"#utility.yul\":5093:5102   */\n  dup3\n    /* \"#utility.yul\":5088:5091   */\n  dup8\n    /* \"#utility.yul\":5084:5103   */\n  add\n    /* \"#utility.yul\":5078:5104   */\n  mload\n    /* \"#utility.yul\":5069:5104   */\n  swap1\n  pop\n    /* \"#utility.yul\":5041:5118   */\ntag_79:\n    /* \"#utility.yul\":5144:5211   */\n  tag_80\n    /* \"#utility.yul\":5204:5210   */\n  dup6\n    /* \"#utility.yul\":5197:5202   */\n  dup3\n    /* \"#utility.yul\":5144:5211   */\n  tag_24\n  jump\t// in\ntag_80:\n    /* \"#utility.yul\":5138:5142   */\n  dup7\n    /* \"#utility.yul\":5131:5212   */\n  sstore\n    /* \"#utility.yul\":5000:5222   */\n  pop\n    /* \"#utility.yul\":4335:5222   */\n  jump(tag_77)\n    /* \"#utility.yul\":4365:4983   */\ntag_78:\n    /* \"#utility.yul\":4417:4421   */\n  0x1f\n    /* \"#utility.yul\":4413:4422   */\n  not\n    /* \"#utility.yul\":4405:4411   */\n  dup5\n    /* \"#utility.yul\":4401:4423   */\n  and\n    /* \"#utility.yul\":4451:4488   */\n  tag_81\n    /* \"#utility.yul\":4483:4487   */\n  dup7\n    /* \"#utility.yul\":4451:4488   */\n  tag_9\n  jump\t// in\ntag_81:\n    /* \"#utility.yul\":4510:4511   */\n  0x00\n    /* \"#utility.yul\":4524:4732   */\ntag_82:\n    /* \"#utility.yul\":4538:4545   */\n  dup3\n    /* \"#utility.yul\":4535:4536   */\n  dup2\n    /* \"#utility.yul\":4532:4546   */\n  lt\n    /* \"#utility.yul\":4524:4732   */\n  iszero\n  tag_84\n  jumpi\n    /* \"#utility.yul\":4617:4626   */\n  dup5\n    /* \"#utility.yul\":4612:4615   */\n  dup10\n    /* \"#utility.yul\":4608:4627   */\n  add\n    /* \"#utility.yul\":4602:4628   */\n  mload\n    /* \"#utility.yul\":4594:4600   */\n  dup3\n    /* \"#utility.yul\":4587:4629   */\n  sstore\n    /* \"#utility.yul\":4668:4669   */\n  0x01\n    /* \"#utility.yul\":4660:4666   */\n  dup3\n    /* \"#utility.yul\":4656:4670   */\n  add\n    /* \"#utility.yul\":4646:4670   */\n  swap2\n  pop\n    /* \"#utility.yul\":4715:4717   */\n  0x20\n    /* \"#utility.yul\":4704:4713   */\n  dup6\n    /* \"#utility.yul\":4700:4718   */\n  add\n    /* \"#utility.yul\":4687:4718   */\n  swap5\n  pop\n    /* \"#utility.yul\":4561:4565   */\n  0x20\n    /* \"#utility.yul\":4558:4559   */\n  dup2\n    /* \"#utility.yul\":4554:4566   */\n  add\n    /* \"#utility.yul\":4549:4566   */\n  swap1\n  pop\n    /* \"#utility.yul\":4524:4732   */\n  jump(tag_82)\ntag_84:\n    /* \"#utility.yul\":4760:4766   */\n  dup7\n    /* \"#utility.yul\":4751:4758   */\n  dup4\n    /* \"#utility.yul\":4748:4767   */\n  lt\n    /* \"#utility.yul\":4745:4924   */\n  iszero\n  tag_85\n  jumpi\n    /* \"#utility.yul\":4818:4827   */\n  dup5\n    /* \"#utility.yul\":4813:4816   */\n  dup10\n    /* \"#utility.yul\":4809:4828   */\n  add\n    /* \"#utility.yul\":4803:4829   */\n  mload\n    /* \"#utility.yul\":4861:4909   */\n  tag_86\n    /* \"#utility.yul\":4903:4907   */\n  0x1f\n    /* \"#utility.yul\":4895:4901   */\n  dup10\n    /* \"#utility.yul\":4891:4908   */\n  and\n    /* \"#utility.yul\":4880:4889   */\n  dup3\n    /* \"#utility.yul\":4861:4909   */\n  tag_23\n  jump\t// in\ntag_86:\n    /* \"#utility.yul\":4853:4859   */\n  dup4\n    /* \"#utility.yul\":4846:4910   */\n  sstore\n    /* \"#utility.yul\":4768:4924   */\n  pop\n    /* \"#utility.yul\":4745:4924   */\ntag_85:\n    /* \"#utility.yul\":4970:4971   */\n  0x01\n    /* \"#utility.yul\":4966:4967   */\n  0x02\n    /* \"#utility.yul\":4958:4964   */\n  dup9\n    /* \"#utility.yul\":4954:4968   */\n  mul\n    /* \"#utility.yul\":4950:4972   */\n  add\n    /* \"#utility.yul\":4944:4948   */\n  dup9\n    /* \"#utility.yul\":4937:4973   */\n  sstore\n    /* \"#utility.yul\":4372:4983   */\n  pop\n  pop\n  pop\n    /* \"#utility.yul\":4335:5222   */\ntag_77:\n  pop\n    /* \"#utility.yul\":3925:5228   */\n  pop\n  pop\n  pop\n    /* \"#utility.yul\":3833:5228   */\n  pop\n  pop\n  jump\t// out\n    /* \"contracts/DataTypes.sol\":59:363  contract DataTypes{... */\ntag_4:\n  dataSize(sub_0)\n  dup1\n  dataOffset(sub_0)\n  0x00\n  codecopy\n  0x00\n  return\nstop\n\nsub_0: assembly {\n        /* \"contracts/DataTypes.sol\":59:363  contract DataTypes{... */\n      mstore(0x40, 0x80)\n      callvalue\n      dup1\n      iszero\n      tag_1\n      jumpi\n      0x00\n      dup1\n      revert\n    tag_1:\n      pop\n      jumpi(tag_2, lt(calldatasize, 0x04))\n      shr(0xe0, calldataload(0x00))\n      dup1\n      0x2a3db8b2\n      eq\n      tag_3\n      jumpi\n      dup1\n      0x4df7e3d0\n      eq\n      tag_4\n      jumpi\n      dup1\n      0x693acd1e\n      eq\n      tag_5\n      jumpi\n      dup1\n      0xc15bae84\n      eq\n      tag_6\n      jumpi\n      dup1\n      0xc5b57bdb\n      eq\n      tag_7\n      jumpi\n    tag_2:\n      0x00\n      dup1\n      revert\n        /* \"contracts/DataTypes.sol\":118:145  int public int_var = -63126 */\n    tag_3:\n      tag_8\n      tag_9\n      jump\t// in\n    tag_8:\n      mload(0x40)\n      tag_10\n      swap2\n      swap1\n      tag_11\n      jump\t// in\n    tag_10:\n      mload(0x40)\n      dup1\n      swap2\n      sub\n      swap1\n      return\n        /* \"contracts/DataTypes.sol\":193:214  bytes1 public b = \"P\" */\n    tag_4:\n      tag_12\n      tag_13\n      jump\t// in\n    tag_12:\n      mload(0x40)\n      tag_14\n      swap2\n      swap1\n      tag_15\n      jump\t// in\n    tag_14:\n      mload(0x40)\n      dup1\n      swap2\n      sub\n      swap1\n      return\n        /* \"contracts/DataTypes.sol\":268:354  function myEnum() public pure returns(my_enum){... */\n    tag_5:\n      tag_16\n      tag_17\n      jump\t// in\n    tag_16:\n      mload(0x40)\n      tag_18\n      swap2\n      swap1\n      tag_19\n      jump\t// in\n    tag_18:\n      mload(0x40)\n      dup1\n      swap2\n      sub\n      swap1\n      return\n        /* \"contracts/DataTypes.sol\":152:186  string public str = \"test purpose\" */\n    tag_6:\n      tag_20\n      tag_21\n      jump\t// in\n    tag_20:\n      mload(0x40)\n      tag_22\n      swap2\n      swap1\n      tag_23\n      jump\t// in\n    tag_22:\n      mload(0x40)\n      dup1\n      swap2\n      sub\n      swap1\n      return\n        /* \"contracts/DataTypes.sol\":84:111  bool public boolean = false */\n    tag_7:\n      tag_24\n      tag_25\n      jump\t// in\n    tag_24:\n      mload(0x40)\n      tag_26\n      swap2\n      swap1\n      tag_27\n      jump\t// in\n    tag_26:\n      mload(0x40)\n      dup1\n      swap2\n      sub\n      swap1\n      return\n        /* \"contracts/DataTypes.sol\":118:145  int public int_var = -63126 */\n    tag_9:\n      sload(0x01)\n      dup2\n      jump\t// out\n        /* \"contracts/DataTypes.sol\":193:214  bytes1 public b = \"P\" */\n    tag_13:\n      0x03\n      0x00\n      swap1\n      sload\n      swap1\n      0x0100\n      exp\n      swap1\n      div\n      0xf8\n      shl\n      dup2\n      jump\t// out\n        /* \"contracts/DataTypes.sol\":268:354  function myEnum() public pure returns(my_enum){... */\n    tag_17:\n        /* \"contracts/DataTypes.sol\":306:313  my_enum */\n      0x00\n        /* \"contracts/DataTypes.sol\":332:346  my_enum._solid */\n      0x02\n        /* \"contracts/DataTypes.sol\":325:346  return my_enum._solid */\n      swap1\n      pop\n        /* \"contracts/DataTypes.sol\":268:354  function myEnum() public pure returns(my_enum){... */\n      swap1\n      jump\t// out\n        /* \"contracts/DataTypes.sol\":152:186  string public str = \"test purpose\" */\n    tag_21:\n      0x02\n      dup1\n      sload\n      tag_29\n      swap1\n      tag_30\n      jump\t// in\n    tag_29:\n      dup1\n      0x1f\n      add\n      0x20\n      dup1\n      swap2\n      div\n      mul\n      0x20\n      add\n      mload(0x40)\n      swap1\n      dup2\n      add\n      0x40\n      mstore\n      dup1\n      swap3\n      swap2\n      swap1\n      dup2\n      dup2\n      mstore\n      0x20\n      add\n      dup3\n      dup1\n      sload\n      tag_31\n      swap1\n      tag_30\n      jump\t// in\n    tag_31:\n      dup1\n      iszero\n      tag_32\n      jumpi\n      dup1\n      0x1f\n      lt\n      tag_33\n      jumpi\n      0x0100\n      dup1\n      dup4\n      sload\n      div\n      mul\n      dup4\n      mstore\n      swap2\n      0x20\n      add\n      swap2\n      jump(tag_32)\n    tag_33:\n      dup3\n      add\n      swap2\n      swap1\n      0x00\n      mstore\n      keccak256(0x00, 0x20)\n      swap1\n    tag_34:\n      dup2\n      sload\n      dup2\n      mstore\n      swap1\n      0x01\n      add\n      swap1\n      0x20\n      add\n      dup1\n      dup4\n      gt\n      tag_34\n      jumpi\n      dup3\n      swap1\n      sub\n      0x1f\n      and\n      dup3\n      add\n      swap2\n    tag_32:\n      pop\n      pop\n      pop\n      pop\n      pop\n      dup2\n      jump\t// out\n        /* \"contracts/DataTypes.sol\":84:111  bool public boolean = false */\n    tag_25:\n      0x00\n      dup1\n      sload\n      swap1\n      0x0100\n      exp\n      swap1\n      div\n      0xff\n      and\n      dup2\n      jump\t// out\n        /* \"#utility.yul\":7:83   */\n    tag_35:\n        /* \"#utility.yul\":43:50   */\n      0x00\n        /* \"#utility.yul\":72:77   */\n      dup2\n        /* \"#utility.yul\":61:77   */\n      swap1\n      pop\n        /* \"#utility.yul\":7:83   */\n      swap2\n      swap1\n      pop\n      jump\t// out\n        /* \"#utility.yul\":89:204   */\n    tag_36:\n        /* \"#utility.yul\":174:197   */\n      tag_55\n        /* \"#utility.yul\":191:196   */\n      dup2\n        /* \"#utility.yul\":174:197   */\n      tag_35\n      jump\t// in\n    tag_55:\n        /* \"#utility.yul\":169:172   */\n      dup3\n        /* \"#utility.yul\":162:198   */\n      mstore\n        /* \"#utility.yul\":89:204   */\n      pop\n      pop\n      jump\t// out\n        /* \"#utility.yul\":210:428   */\n    tag_11:\n        /* \"#utility.yul\":301:305   */\n      0x00\n        /* \"#utility.yul\":339:341   */\n      0x20\n        /* \"#utility.yul\":328:337   */\n      dup3\n        /* \"#utility.yul\":324:342   */\n      add\n        /* \"#utility.yul\":316:342   */\n      swap1\n      pop\n        /* \"#utility.yul\":352:421   */\n      tag_57\n        /* \"#utility.yul\":418:419   */\n      0x00\n        /* \"#utility.yul\":407:416   */\n      dup4\n        /* \"#utility.yul\":403:420   */\n      add\n        /* \"#utility.yul\":394:400   */\n      dup5\n        /* \"#utility.yul\":352:421   */\n      tag_36\n      jump\t// in\n    tag_57:\n        /* \"#utility.yul\":210:428   */\n      swap3\n      swap2\n      pop\n      pop\n      jump\t// out\n        /* \"#utility.yul\":434:583   */\n    tag_37:\n        /* \"#utility.yul\":470:477   */\n      0x00\n        /* \"#utility.yul\":510:576   */\n      0xff00000000000000000000000000000000000000000000000000000000000000\n        /* \"#utility.yul\":503:508   */\n      dup3\n        /* \"#utility.yul\":499:577   */\n      and\n        /* \"#utility.yul\":488:577   */\n      swap1\n      pop\n        /* \"#utility.yul\":434:583   */\n      swap2\n      swap1\n      pop\n      jump\t// out\n        /* \"#utility.yul\":589:704   */\n    tag_38:\n        /* \"#utility.yul\":674:697   */\n      tag_60\n        /* \"#utility.yul\":691:696   */\n      dup2\n        /* \"#utility.yul\":674:697   */\n      tag_37\n      jump\t// in\n    tag_60:\n        /* \"#utility.yul\":669:672   */\n      dup3\n        /* \"#utility.yul\":662:698   */\n      mstore\n        /* \"#utility.yul\":589:704   */\n      pop\n      pop\n      jump\t// out\n        /* \"#utility.yul\":710:928   */\n    tag_15:\n        /* \"#utility.yul\":801:805   */\n      0x00\n        /* \"#utility.yul\":839:841   */\n      0x20\n        /* \"#utility.yul\":828:837   */\n      dup3\n        /* \"#utility.yul\":824:842   */\n      add\n        /* \"#utility.yul\":816:842   */\n      swap1\n      pop\n        /* \"#utility.yul\":852:921   */\n      tag_62\n        /* \"#utility.yul\":918:919   */\n      0x00\n        /* \"#utility.yul\":907:916   */\n      dup4\n        /* \"#utility.yul\":903:920   */\n      add\n        /* \"#utility.yul\":894:900   */\n      dup5\n        /* \"#utility.yul\":852:921   */\n      tag_38\n      jump\t// in\n    tag_62:\n        /* \"#utility.yul\":710:928   */\n      swap3\n      swap2\n      pop\n      pop\n      jump\t// out\n        /* \"#utility.yul\":934:1114   */\n    tag_39:\n        /* \"#utility.yul\":982:1059   */\n      0x4e487b7100000000000000000000000000000000000000000000000000000000\n        /* \"#utility.yul\":979:980   */\n      0x00\n        /* \"#utility.yul\":972:1060   */\n      mstore\n        /* \"#utility.yul\":1079:1083   */\n      0x21\n        /* \"#utility.yul\":1076:1077   */\n      0x04\n        /* \"#utility.yul\":1069:1084   */\n      mstore\n        /* \"#utility.yul\":1103:1107   */\n      0x24\n        /* \"#utility.yul\":1100:1101   */\n      0x00\n        /* \"#utility.yul\":1093:1108   */\n      revert\n        /* \"#utility.yul\":1120:1235   */\n    tag_40:\n        /* \"#utility.yul\":1203:1204   */\n      0x03\n        /* \"#utility.yul\":1196:1201   */\n      dup2\n        /* \"#utility.yul\":1193:1205   */\n      lt\n        /* \"#utility.yul\":1183:1229   */\n      tag_65\n      jumpi\n        /* \"#utility.yul\":1209:1227   */\n      tag_66\n      tag_39\n      jump\t// in\n    tag_66:\n        /* \"#utility.yul\":1183:1229   */\n    tag_65:\n        /* \"#utility.yul\":1120:1235   */\n      pop\n      jump\t// out\n        /* \"#utility.yul\":1241:1372   */\n    tag_41:\n        /* \"#utility.yul\":1288:1295   */\n      0x00\n        /* \"#utility.yul\":1317:1322   */\n      dup2\n        /* \"#utility.yul\":1306:1322   */\n      swap1\n      pop\n        /* \"#utility.yul\":1323:1366   */\n      tag_68\n        /* \"#utility.yul\":1360:1365   */\n      dup3\n        /* \"#utility.yul\":1323:1366   */\n      tag_40\n      jump\t// in\n    tag_68:\n        /* \"#utility.yul\":1241:1372   */\n      swap2\n      swap1\n      pop\n      jump\t// out\n        /* \"#utility.yul\":1378:1509   */\n    tag_42:\n        /* \"#utility.yul\":1436:1445   */\n      0x00\n        /* \"#utility.yul\":1469:1503   */\n      tag_70\n        /* \"#utility.yul\":1497:1502   */\n      dup3\n        /* \"#utility.yul\":1469:1503   */\n      tag_41\n      jump\t// in\n    tag_70:\n        /* \"#utility.yul\":1456:1503   */\n      swap1\n      pop\n        /* \"#utility.yul\":1378:1509   */\n      swap2\n      swap1\n      pop\n      jump\t// out\n        /* \"#utility.yul\":1515:1662   */\n    tag_43:\n        /* \"#utility.yul\":1610:1655   */\n      tag_72\n        /* \"#utility.yul\":1649:1654   */\n      dup2\n        /* \"#utility.yul\":1610:1655   */\n      tag_42\n      jump\t// in\n    tag_72:\n        /* \"#utility.yul\":1605:1608   */\n      dup3\n        /* \"#utility.yul\":1598:1656   */\n      mstore\n        /* \"#utility.yul\":1515:1662   */\n      pop\n      pop\n      jump\t// out\n        /* \"#utility.yul\":1668:1906   */\n    tag_19:\n        /* \"#utility.yul\":1769:1773   */\n      0x00\n        /* \"#utility.yul\":1807:1809   */\n      0x20\n        /* \"#utility.yul\":1796:1805   */\n      dup3\n        /* \"#utility.yul\":1792:1810   */\n      add\n        /* \"#utility.yul\":1784:1810   */\n      swap1\n      pop\n        /* \"#utility.yul\":1820:1899   */\n      tag_74\n        /* \"#utility.yul\":1896:1897   */\n      0x00\n        /* \"#utility.yul\":1885:1894   */\n      dup4\n        /* \"#utility.yul\":1881:1898   */\n      add\n        /* \"#utility.yul\":1872:1878   */\n      dup5\n        /* \"#utility.yul\":1820:1899   */\n      tag_43\n      jump\t// in\n    tag_74:\n        /* \"#utility.yul\":1668:1906   */\n      swap3\n      swap2\n      pop\n      pop\n      jump\t// out\n        /* \"#utility.yul\":1912:2011   */\n    tag_44:\n        /* \"#utility.yul\":1964:1970   */\n      0x00\n        /* \"#utility.yul\":1998:2003   */\n      dup2\n        /* \"#utility.yul\":1992:2004   */\n      mload\n        /* \"#utility.yul\":1982:2004   */\n      swap1\n      pop\n        /* \"#utility.yul\":1912:2011   */\n      swap2\n      swap1\n      pop\n      jump\t// out\n        /* \"#utility.yul\":2017:2186   */\n    tag_45:\n        /* \"#utility.yul\":2101:2112   */\n      0x00\n        /* \"#utility.yul\":2135:2141   */\n      dup3\n        /* \"#utility.yul\":2130:2133   */\n      dup3\n        /* \"#utility.yul\":2123:2142   */\n      mstore\n        /* \"#utility.yul\":2175:2179   */\n      0x20\n        /* \"#utility.yul\":2170:2173   */\n      dup3\n        /* \"#utility.yul\":2166:2180   */\n      add\n        /* \"#utility.yul\":2151:2180   */\n      swap1\n      pop\n        /* \"#utility.yul\":2017:2186   */\n      swap3\n      swap2\n      pop\n      pop\n      jump\t// out\n        /* \"#utility.yul\":2192:2331   */\n    tag_46:\n        /* \"#utility.yul\":2281:2287   */\n      dup3\n        /* \"#utility.yul\":2276:2279   */\n      dup2\n        /* \"#utility.yul\":2271:2274   */\n      dup4\n        /* \"#utility.yul\":2265:2288   */\n      mcopy\n        /* \"#utility.yul\":2322:2323   */\n      0x00\n        /* \"#utility.yul\":2313:2319   */\n      dup4\n        /* \"#utility.yul\":2308:2311   */\n      dup4\n        /* \"#utility.yul\":2304:2320   */\n      add\n        /* \"#utility.yul\":2297:2324   */\n      mstore\n        /* \"#utility.yul\":2192:2331   */\n      pop\n      pop\n      pop\n      jump\t// out\n        /* \"#utility.yul\":2337:2439   */\n    tag_47:\n        /* \"#utility.yul\":2378:2384   */\n      0x00\n        /* \"#utility.yul\":2429:2431   */\n      0x1f\n        /* \"#utility.yul\":2425:2432   */\n      not\n        /* \"#utility.yul\":2420:2422   */\n      0x1f\n        /* \"#utility.yul\":2413:2418   */\n      dup4\n        /* \"#utility.yul\":2409:2423   */\n      add\n        /* \"#utility.yul\":2405:2433   */\n      and\n        /* \"#utility.yul\":2395:2433   */\n      swap1\n      pop\n        /* \"#utility.yul\":2337:2439   */\n      swap2\n      swap1\n      pop\n      jump\t// out\n        /* \"#utility.yul\":2445:2822   */\n    tag_48:\n        /* \"#utility.yul\":2533:2536   */\n      0x00\n        /* \"#utility.yul\":2561:2600   */\n      tag_80\n        /* \"#utility.yul\":2594:2599   */\n      dup3\n        /* \"#utility.yul\":2561:2600   */\n      tag_44\n      jump\t// in\n    tag_80:\n        /* \"#utility.yul\":2616:2687   */\n      tag_81\n        /* \"#utility.yul\":2680:2686   */\n      dup2\n        /* \"#utility.yul\":2675:2678   */\n      dup6\n        /* \"#utility.yul\":2616:2687   */\n      tag_45\n      jump\t// in\n    tag_81:\n        /* \"#utility.yul\":2609:2687   */\n      swap4\n      pop\n        /* \"#utility.yul\":2696:2761   */\n      tag_82\n        /* \"#utility.yul\":2754:2760   */\n      dup2\n        /* \"#utility.yul\":2749:2752   */\n      dup6\n        /* \"#utility.yul\":2742:2746   */\n      0x20\n        /* \"#utility.yul\":2735:2740   */\n      dup7\n        /* \"#utility.yul\":2731:2747   */\n      add\n        /* \"#utility.yul\":2696:2761   */\n      tag_46\n      jump\t// in\n    tag_82:\n        /* \"#utility.yul\":2786:2815   */\n      tag_83\n        /* \"#utility.yul\":2808:2814   */\n      dup2\n        /* \"#utility.yul\":2786:2815   */\n      tag_47\n      jump\t// in\n    tag_83:\n        /* \"#utility.yul\":2781:2784   */\n      dup5\n        /* \"#utility.yul\":2777:2816   */\n      add\n        /* \"#utility.yul\":2770:2816   */\n      swap2\n      pop\n        /* \"#utility.yul\":2537:2822   */\n      pop\n        /* \"#utility.yul\":2445:2822   */\n      swap3\n      swap2\n      pop\n      pop\n      jump\t// out\n        /* \"#utility.yul\":2828:3141   */\n    tag_23:\n        /* \"#utility.yul\":2941:2945   */\n      0x00\n        /* \"#utility.yul\":2979:2981   */\n      0x20\n        /* \"#utility.yul\":2968:2977   */\n      dup3\n        /* \"#utility.yul\":2964:2982   */\n      add\n        /* \"#utility.yul\":2956:2982   */\n      swap1\n      pop\n        /* \"#utility.yul\":3028:3037   */\n      dup2\n        /* \"#utility.yul\":3022:3026   */\n      dup2\n        /* \"#utility.yul\":3018:3038   */\n      sub\n        /* \"#utility.yul\":3014:3015   */\n      0x00\n        /* \"#utility.yul\":3003:3012   */\n      dup4\n        /* \"#utility.yul\":2999:3016   */\n      add\n        /* \"#utility.yul\":2992:3039   */\n      mstore\n        /* \"#utility.yul\":3056:3134   */\n      tag_85\n        /* \"#utility.yul\":3129:3133   */\n      dup2\n        /* \"#utility.yul\":3120:3126   */\n      dup5\n        /* \"#utility.yul\":3056:3134   */\n      tag_48\n      jump\t// in\n    tag_85:\n        /* \"#utility.yul\":3048:3134   */\n      swap1\n      pop\n        /* \"#utility.yul\":2828:3141   */\n      swap3\n      swap2\n      pop\n      pop\n      jump\t// out\n        /* \"#utility.yul\":3147:3237   */\n    tag_49:\n        /* \"#utility.yul\":3181:3188   */\n      0x00\n        /* \"#utility.yul\":3224:3229   */\n      dup2\n        /* \"#utility.yul\":3217:3230   */\n      iszero\n        /* \"#utility.yul\":3210:3231   */\n      iszero\n        /* \"#utility.yul\":3199:3231   */\n      swap1\n      pop\n        /* \"#utility.yul\":3147:3237   */\n      swap2\n      swap1\n      pop\n      jump\t// out\n        /* \"#utility.yul\":3243:3352   */\n    tag_50:\n        /* \"#utility.yul\":3324:3345   */\n      tag_88\n        /* \"#utility.yul\":3339:3344   */\n      dup2\n        /* \"#utility.yul\":3324:3345   */\n      tag_49\n      jump\t// in\n    tag_88:\n        /* \"#utility.yul\":3319:3322   */\n      dup3\n        /* \"#utility.yul\":3312:3346   */\n      mstore\n        /* \"#utility.yul\":3243:3352   */\n      pop\n      pop\n      jump\t// out\n        /* \"#utility.yul\":3358:3568   */\n    tag_27:\n        /* \"#utility.yul\":3445:3449   */\n      0x00\n        /* \"#utility.yul\":3483:3485   */\n      0x20\n        /* \"#utility.yul\":3472:3481   */\n      dup3\n        /* \"#utility.yul\":3468:3486   */\n      add\n        /* \"#utility.yul\":3460:3486   */\n      swap1\n      pop\n        /* \"#utility.yul\":3496:3561   */\n      tag_90\n        /* \"#utility.yul\":3558:3559   */\n      0x00\n        /* \"#utility.yul\":3547:3556   */\n      dup4\n        /* \"#utility.yul\":3543:3560   */\n      add\n        /* \"#utility.yul\":3534:3540   */\n      dup5\n        /* \"#utility.yul\":3496:3561   */\n      tag_50\n      jump\t// in\n    tag_90:\n        /* \"#utility.yul\":3358:3568   */\n      swap3\n      swap2\n      pop\n      pop\n      jump\t// out\n        /* \"#utility.yul\":3574:3754   */\n    tag_51:\n        /* \"#utility.yul\":3622:3699   */\n      0x4e487b7100000000000000000000000000000000000000000000000000000000\n        /* \"#utility.yul\":3619:3620   */\n      0x00\n        /* \"#utility.yul\":3612:3700   */\n      mstore\n        /* \"#utility.yul\":3719:3723   */\n      0x22\n        /* \"#utility.yul\":3716:3717   */\n      0x04\n        /* \"#utility.yul\":3709:3724   */\n      mstore\n        /* \"#utility.yul\":3743:3747   */\n      0x24\n        /* \"#utility.yul\":3740:3741   */\n      0x00\n        /* \"#utility.yul\":3733:3748   */\n      revert\n        /* \"#utility.yul\":3760:4080   */\n    tag_30:\n        /* \"#utility.yul\":3804:3810   */\n      0x00\n        /* \"#utility.yul\":3841:3842   */\n      0x02\n        /* \"#utility.yul\":3835:3839   */\n      dup3\n        /* \"#utility.yul\":3831:3843   */\n      div\n        /* \"#utility.yul\":3821:3843   */\n      swap1\n      pop\n        /* \"#utility.yul\":3888:3889   */\n      0x01\n        /* \"#utility.yul\":3882:3886   */\n      dup3\n        /* \"#utility.yul\":3878:3890   */\n      and\n        /* \"#utility.yul\":3909:3927   */\n      dup1\n        /* \"#utility.yul\":3899:3980   */\n      tag_93\n      jumpi\n        /* \"#utility.yul\":3965:3969   */\n      0x7f\n        /* \"#utility.yul\":3957:3963   */\n      dup3\n        /* \"#utility.yul\":3953:3970   */\n      and\n        /* \"#utility.yul\":3943:3970   */\n      swap2\n      pop\n        /* \"#utility.yul\":3899:3980   */\n    tag_93:\n        /* \"#utility.yul\":4027:4029   */\n      0x20\n        /* \"#utility.yul\":4019:4025   */\n      dup3\n        /* \"#utility.yul\":4016:4030   */\n      lt\n        /* \"#utility.yul\":3996:4014   */\n      dup2\n        /* \"#utility.yul\":3993:4031   */\n      sub\n        /* \"#utility.yul\":3990:4074   */\n      tag_94\n      jumpi\n        /* \"#utility.yul\":4046:4064   */\n      tag_95\n      tag_51\n      jump\t// in\n    tag_95:\n        /* \"#utility.yul\":3990:4074   */\n    tag_94:\n        /* \"#utility.yul\":3811:4080   */\n      pop\n        /* \"#utility.yul\":3760:4080   */\n      swap2\n      swap1\n      pop\n      jump\t// out\n\n    auxdata: 0xa26469706673582212200f8b2d40df15412952219277ad7351448235f0c08d9bbfe21eaf6191fd25835364736f6c634300081a0033\n}\n",
				"bytecode": {
					"linkReferences": {},
					"object": "60806040525f805f6101000a81548160ff0219169083151502179055507fffffffffffffffffffffffffffffffffffffffffffffffffffffffffffff096a6001556040518060400160405280600c81526020017f7465737420707572706f7365000000000000000000000000000000000000000081525060029081610084919061030a565b507f500000000000000000000000000000000000000000000000000000000000000060035f6101000a81548160ff021916908360f81c02179055503480156100ca575f80fd5b506103d9565b5f81519050919050565b7f4e487b71000000000000000000000000000000000000000000000000000000005f52604160045260245ffd5b7f4e487b71000000000000000000000000000000000000000000000000000000005f52602260045260245ffd5b5f600282049050600182168061014b57607f821691505b60208210810361015e5761015d610107565b5b50919050565b5f819050815f5260205f209050919050565b5f6020601f8301049050919050565b5f82821b905092915050565b5f600883026101c07fffffffffffffffffffffffffffffffffffffffffffffffffffffffffffffffff82610185565b6101ca8683610185565b95508019841693508086168417925050509392505050565b5f819050919050565b5f819050919050565b5f61020e610209610204846101e2565b6101eb565b6101e2565b9050919050565b5f819050919050565b610227836101f4565b61023b61023382610215565b848454610191565b825550505050565b5f90565b61024f610243565b61025a81848461021e565b505050565b5b8181101561027d576102725f82610247565b600181019050610260565b5050565b601f8211156102c25761029381610164565b61029c84610176565b810160208510156102ab578190505b6102bf6102b785610176565b83018261025f565b50505b505050565b5f82821c905092915050565b5f6102e25f19846008026102c7565b1980831691505092915050565b5f6102fa83836102d3565b9150826002028217905092915050565b610313826100d0565b67ffffffffffffffff81111561032c5761032b6100da565b5b6103368254610134565b610341828285610281565b5f60209050601f831160018114610372575f8415610360578287015190505b61036a85826102ef565b8655506103d1565b601f19841661038086610164565b5f5b828110156103a757848901518255600182019150602085019450602081019050610382565b868310156103c457848901516103c0601f8916826102d3565b8355505b6001600288020188555050505b505050505050565b610411806103e65f395ff3fe608060405234801561000f575f80fd5b5060043610610055575f3560e01c80632a3db8b2146100595780634df7e3d014610077578063693acd1e14610095578063c15bae84146100b3578063c5b57bdb146100d1575b5f80fd5b6100616100ef565b60405161006e91906101c3565b60405180910390f35b61007f6100f5565b60405161008c9190610216565b60405180910390f35b61009d610107565b6040516100aa91906102a2565b60405180910390f35b6100bb61010f565b6040516100c8919061032b565b60405180910390f35b6100d961019b565b6040516100e69190610365565b60405180910390f35b60015481565b60035f9054906101000a900460f81b81565b5f6002905090565b6002805461011c906103ab565b80601f0160208091040260200160405190810160405280929190818152602001828054610148906103ab565b80156101935780601f1061016a57610100808354040283529160200191610193565b820191905f5260205f20905b81548152906001019060200180831161017657829003601f168201915b505050505081565b5f8054906101000a900460ff1681565b5f819050919050565b6101bd816101ab565b82525050565b5f6020820190506101d65f8301846101b4565b92915050565b5f7fff0000000000000000000000000000000000000000000000000000000000000082169050919050565b610210816101dc565b82525050565b5f6020820190506102295f830184610207565b92915050565b7f4e487b71000000000000000000000000000000000000000000000000000000005f52602160045260245ffd5b6003811061026d5761026c61022f565b5b50565b5f81905061027d8261025c565b919050565b5f61028c82610270565b9050919050565b61029c81610282565b82525050565b5f6020820190506102b55f830184610293565b92915050565b5f81519050919050565b5f82825260208201905092915050565b8281835e5f83830152505050565b5f601f19601f8301169050919050565b5f6102fd826102bb565b61030781856102c5565b93506103178185602086016102d5565b610320816102e3565b840191505092915050565b5f6020820190508181035f83015261034381846102f3565b905092915050565b5f8115159050919050565b61035f8161034b565b82525050565b5f6020820190506103785f830184610356565b92915050565b7f4e487b71000000000000000000000000000000000000000000000000000000005f52602260045260245ffd5b5f60028204905060018216806103c257607f821691505b6020821081036103d5576103d461037e565b5b5091905056fea26469706673582212200f8b2d40df15412952219277ad7351448235f0c08d9bbfe21eaf6191fd25835364736f6c634300081a0033",
					"opcodes": "PUSH1 0x80 PUSH1 0x40 MSTORE PUSH0 DUP1 PUSH0 PUSH2 0x100 EXP DUP2 SLOAD DUP2 PUSH1 0xFF MUL NOT AND SWAP1 DUP4 ISZERO ISZERO MUL OR SWAP1 SSTORE POP PUSH32 0xFFFFFFFFFFFFFFFFFFFFFFFFFFFFFFFFFFFFFFFFFFFFFFFFFFFFFFFFFFFF096A PUSH1 0x1 SSTORE PUSH1 0x40 MLOAD DUP1 PUSH1 0x40 ADD PUSH1 0x40 MSTORE DUP1 PUSH1 0xC DUP2 MSTORE PUSH1 0x20 ADD PUSH32 0x7465737420707572706F73650000000000000000000000000000000000000000 DUP2 MSTORE POP PUSH1 0x2 SWAP1 DUP2 PUSH2 0x84 SWAP2 SWAP1 PUSH2 0x30A JUMP JUMPDEST POP PUSH32 0x5000000000000000000000000000000000000000000000000000000000000000 PUSH1 0x3 PUSH0 PUSH2 0x100 EXP DUP2 SLOAD DUP2 PUSH1 0xFF MUL NOT AND SWAP1 DUP4 PUSH1 0xF8 SHR MUL OR SWAP1 SSTORE POP CALLVALUE DUP1 ISZERO PUSH2 0xCA JUMPI PUSH0 DUP1 REVERT JUMPDEST POP PUSH2 0x3D9 JUMP JUMPDEST PUSH0 DUP2 MLOAD SWAP1 POP SWAP2 SWAP1 POP JUMP JUMPDEST PUSH32 0x4E487B7100000000000000000000000000000000000000000000000000000000 PUSH0 MSTORE PUSH1 0x41 PUSH1 0x4 MSTORE PUSH1 0x24 PUSH0 REVERT JUMPDEST PUSH32 0x4E487B7100000000000000000000000000000000000000000000000000000000 PUSH0 MSTORE PUSH1 0x22 PUSH1 0x4 MSTORE PUSH1 0x24 PUSH0 REVERT JUMPDEST PUSH0 PUSH1 0x2 DUP3 DIV SWAP1 POP PUSH1 0x1 DUP3 AND DUP1 PUSH2 0x14B JUMPI PUSH1 0x7F DUP3 AND SWAP2 POP JUMPDEST PUSH1 0x20 DUP3 LT DUP2 SUB PUSH2 0x15E JUMPI PUSH2 0x15D PUSH2 0x107 JUMP JUMPDEST JUMPDEST POP SWAP2 SWAP1 POP JUMP JUMPDEST PUSH0 DUP2 SWAP1 POP DUP2 PUSH0 MSTORE PUSH1 0x20 PUSH0 KECCAK256 SWAP1 POP SWAP2 SWAP1 POP JUMP JUMPDEST PUSH0 PUSH1 0x20 PUSH1 0x1F DUP4 ADD DIV SWAP1 POP SWAP2 SWAP1 POP JUMP JUMPDEST PUSH0 DUP3 DUP3 SHL SWAP1 POP SWAP3 SWAP2 POP POP JUMP JUMPDEST PUSH0 PUSH1 0x8 DUP4 MUL PUSH2 0x1C0 PUSH32 0xFFFFFFFFFFFFFFFFFFFFFFFFFFFFFFFFFFFFFFFFFFFFFFFFFFFFFFFFFFFFFFFF DUP3 PUSH2 0x185 JUMP JUMPDEST PUSH2 0x1CA DUP7 DUP4 PUSH2 0x185 JUMP JUMPDEST SWAP6 POP DUP1 NOT DUP5 AND SWAP4 POP DUP1 DUP7 AND DUP5 OR SWAP3 POP POP POP SWAP4 SWAP3 POP POP POP JUMP JUMPDEST PUSH0 DUP2 SWAP1 POP SWAP2 SWAP1 POP JUMP JUMPDEST PUSH0 DUP2 SWAP1 POP SWAP2 SWAP1 POP JUMP JUMPDEST PUSH0 PUSH2 0x20E PUSH2 0x209 PUSH2 0x204 DUP5 PUSH2 0x1E2 JUMP JUMPDEST PUSH2 0x1EB JUMP JUMPDEST PUSH2 0x1E2 JUMP JUMPDEST SWAP1 POP SWAP2 SWAP1 POP JUMP JUMPDEST PUSH0 DUP2 SWAP1 POP SWAP2 SWAP1 POP JUMP JUMPDEST PUSH2 0x227 DUP4 PUSH2 0x1F4 JUMP JUMPDEST PUSH2 0x23B PUSH2 0x233 DUP3 PUSH2 0x215 JUMP JUMPDEST DUP5 DUP5 SLOAD PUSH2 0x191 JUMP JUMPDEST DUP3 SSTORE POP POP POP POP JUMP JUMPDEST PUSH0 SWAP1 JUMP JUMPDEST PUSH2 0x24F PUSH2 0x243 JUMP JUMPDEST PUSH2 0x25A DUP2 DUP5 DUP5 PUSH2 0x21E JUMP JUMPDEST POP POP POP JUMP JUMPDEST JUMPDEST DUP2 DUP2 LT ISZERO PUSH2 0x27D JUMPI PUSH2 0x272 PUSH0 DUP3 PUSH2 0x247 JUMP JUMPDEST PUSH1 0x1 DUP2 ADD SWAP1 POP PUSH2 0x260 JUMP JUMPDEST POP POP JUMP JUMPDEST PUSH1 0x1F DUP3 GT ISZERO PUSH2 0x2C2 JUMPI PUSH2 0x293 DUP2 PUSH2 0x164 JUMP JUMPDEST PUSH2 0x29C DUP5 PUSH2 0x176 JUMP JUMPDEST DUP2 ADD PUSH1 0x20 DUP6 LT ISZERO PUSH2 0x2AB JUMPI DUP2 SWAP1 POP JUMPDEST PUSH2 0x2BF PUSH2 0x2B7 DUP6 PUSH2 0x176 JUMP JUMPDEST DUP4 ADD DUP3 PUSH2 0x25F JUMP JUMPDEST POP POP JUMPDEST POP POP POP JUMP JUMPDEST PUSH0 DUP3 DUP3 SHR SWAP1 POP SWAP3 SWAP2 POP POP JUMP JUMPDEST PUSH0 PUSH2 0x2E2 PUSH0 NOT DUP5 PUSH1 0x8 MUL PUSH2 0x2C7 JUMP JUMPDEST NOT DUP1 DUP4 AND SWAP2 POP POP SWAP3 SWAP2 POP POP JUMP JUMPDEST PUSH0 PUSH2 0x2FA DUP4 DUP4 PUSH2 0x2D3 JUMP JUMPDEST SWAP2 POP DUP3 PUSH1 0x2 MUL DUP3 OR SWAP1 POP SWAP3 SWAP2 POP POP JUMP JUMPDEST PUSH2 0x313 DUP3 PUSH2 0xD0 JUMP JUMPDEST PUSH8 0xFFFFFFFFFFFFFFFF DUP2 GT ISZERO PUSH2 0x32C JUMPI PUSH2 0x32B PUSH2 0xDA JUMP JUMPDEST JUMPDEST PUSH2 0x336 DUP3 SLOAD PUSH2 0x134 JUMP JUMPDEST PUSH2 0x341 DUP3 DUP3 DUP6 PUSH2 0x281 JUMP JUMPDEST PUSH0 PUSH1 0x20 SWAP1 POP PUSH1 0x1F DUP4 GT PUSH1 0x1 DUP2 EQ PUSH2 0x372 JUMPI PUSH0 DUP5 ISZERO PUSH2 0x360 JUMPI DUP3 DUP8 ADD MLOAD SWAP1 POP JUMPDEST PUSH2 0x36A DUP6 DUP3 PUSH2 0x2EF JUMP JUMPDEST DUP7 SSTORE POP PUSH2 0x3D1 JUMP JUMPDEST PUSH1 0x1F NOT DUP5 AND PUSH2 0x380 DUP7 PUSH2 0x164 JUMP JUMPDEST PUSH0 JUMPDEST DUP3 DUP2 LT ISZERO PUSH2 0x3A7 JUMPI DUP5 DUP10 ADD MLOAD DUP3 SSTORE PUSH1 0x1 DUP3 ADD SWAP2 POP PUSH1 0x20 DUP6 ADD SWAP5 POP PUSH1 0x20 DUP2 ADD SWAP1 POP PUSH2 0x382 JUMP JUMPDEST DUP7 DUP4 LT ISZERO PUSH2 0x3C4 JUMPI DUP5 DUP10 ADD MLOAD PUSH2 0x3C0 PUSH1 0x1F DUP10 AND DUP3 PUSH2 0x2D3 JUMP JUMPDEST DUP4 SSTORE POP JUMPDEST PUSH1 0x1 PUSH1 0x2 DUP9 MUL ADD DUP9 SSTORE POP POP POP JUMPDEST POP POP POP POP POP POP JUMP JUMPDEST PUSH2 0x411 DUP1 PUSH2 0x3E6 PUSH0 CODECOPY PUSH0 RETURN INVALID PUSH1 0x80 PUSH1 0x40 MSTORE CALLVALUE DUP1 ISZERO PUSH2 0xF JUMPI PUSH0 DUP1 REVERT JUMPDEST POP PUSH1 0x4 CALLDATASIZE LT PUSH2 0x55 JUMPI PUSH0 CALLDATALOAD PUSH1 0xE0 SHR DUP1 PUSH4 0x2A3DB8B2 EQ PUSH2 0x59 JUMPI DUP1 PUSH4 0x4DF7E3D0 EQ PUSH2 0x77 JUMPI DUP1 PUSH4 0x693ACD1E EQ PUSH2 0x95 JUMPI DUP1 PUSH4 0xC15BAE84 EQ PUSH2 0xB3 JUMPI DUP1 PUSH4 0xC5B57BDB EQ PUSH2 0xD1 JUMPI JUMPDEST PUSH0 DUP1 REVERT JUMPDEST PUSH2 0x61 PUSH2 0xEF JUMP JUMPDEST PUSH1 0x40 MLOAD PUSH2 0x6E SWAP2 SWAP1 PUSH2 0x1C3 JUMP JUMPDEST PUSH1 0x40 MLOAD DUP1 SWAP2 SUB SWAP1 RETURN JUMPDEST PUSH2 0x7F PUSH2 0xF5 JUMP JUMPDEST PUSH1 0x40 MLOAD PUSH2 0x8C SWAP2 SWAP1 PUSH2 0x216 JUMP JUMPDEST PUSH1 0x40 MLOAD DUP1 SWAP2 SUB SWAP1 RETURN JUMPDEST PUSH2 0x9D PUSH2 0x107 JUMP JUMPDEST PUSH1 0x40 MLOAD PUSH2 0xAA SWAP2 SWAP1 PUSH2 0x2A2 JUMP JUMPDEST PUSH1 0x40 MLOAD DUP1 SWAP2 SUB SWAP1 RETURN JUMPDEST PUSH2 0xBB PUSH2 0x10F JUMP JUMPDEST PUSH1 0x40 MLOAD PUSH2 0xC8 SWAP2 SWAP1 PUSH2 0x32B JUMP JUMPDEST PUSH1 0x40 MLOAD DUP1 SWAP2 SUB SWAP1 RETURN JUMPDEST PUSH2 0xD9 PUSH2 0x19B JUMP JUMPDEST PUSH1 0x40 MLOAD PUSH2 0xE6 SWAP2 SWAP1 PUSH2 0x365 JUMP JUMPDEST PUSH1 0x40 MLOAD DUP1 SWAP2 SUB SWAP1 RETURN JUMPDEST PUSH1 0x1 SLOAD DUP2 JUMP JUMPDEST PUSH1 0x3 PUSH0 SWAP1 SLOAD SWAP1 PUSH2 0x100 EXP SWAP1 DIV PUSH1 0xF8 SHL DUP2 JUMP JUMPDEST PUSH0 PUSH1 0x2 SWAP1 POP SWAP1 JUMP JUMPDEST PUSH1 0x2 DUP1 SLOAD PUSH2 0x11C SWAP1 PUSH2 0x3AB JUMP JUMPDEST DUP1 PUSH1 0x1F ADD PUSH1 0x20 DUP1 SWAP2 DIV MUL PUSH1 0x20 ADD PUSH1 0x40 MLOAD SWAP1 DUP2 ADD PUSH1 0x40 MSTORE DUP1 SWAP3 SWAP2 SWAP1 DUP2 DUP2 MSTORE PUSH1 0x20 ADD DUP3 DUP1 SLOAD PUSH2 0x148 SWAP1 PUSH2 0x3AB JUMP JUMPDEST DUP1 ISZERO PUSH2 0x193 JUMPI DUP1 PUSH1 0x1F LT PUSH2 0x16A JUMPI PUSH2 0x100 DUP1 DUP4 SLOAD DIV MUL DUP4 MSTORE SWAP2 PUSH1 0x20 ADD SWAP2 PUSH2 0x193 JUMP JUMPDEST DUP3 ADD SWAP2 SWAP1 PUSH0 MSTORE PUSH1 0x20 PUSH0 KECCAK256 SWAP1 JUMPDEST DUP2 SLOAD DUP2 MSTORE SWAP1 PUSH1 0x1 ADD SWAP1 PUSH1 0x20 ADD DUP1 DUP4 GT PUSH2 0x176 JUMPI DUP3 SWAP1 SUB PUSH1 0x1F AND DUP3 ADD SWAP2 JUMPDEST POP POP POP POP POP DUP2 JUMP JUMPDEST PUSH0 DUP1 SLOAD SWAP1 PUSH2 0x100 EXP SWAP1 DIV PUSH1 0xFF AND DUP2 JUMP JUMPDEST PUSH0 DUP2 SWAP1 POP SWAP2 SWAP1 POP JUMP JUMPDEST PUSH2 0x1BD DUP2 PUSH2 0x1AB JUMP JUMPDEST DUP3 MSTORE POP POP JUMP JUMPDEST PUSH0 PUSH1 0x20 DUP3 ADD SWAP1 POP PUSH2 0x1D6 PUSH0 DUP4 ADD DUP5 PUSH2 0x1B4 JUMP JUMPDEST SWAP3 SWAP2 POP POP JUMP JUMPDEST PUSH0 PUSH32 0xFF00000000000000000000000000000000000000000000000000000000000000 DUP3 AND SWAP1 POP SWAP2 SWAP1 POP JUMP JUMPDEST PUSH2 0x210 DUP2 PUSH2 0x1DC JUMP JUMPDEST DUP3 MSTORE POP POP JUMP JUMPDEST PUSH0 PUSH1 0x20 DUP3 ADD SWAP1 POP PUSH2 0x229 PUSH0 DUP4 ADD DUP5 PUSH2 0x207 JUMP JUMPDEST SWAP3 SWAP2 POP POP JUMP JUMPDEST PUSH32 0x4E487B7100000000000000000000000000000000000000000000000000000000 PUSH0 MSTORE PUSH1 0x21 PUSH1 0x4 MSTORE PUSH1 0x24 PUSH0 REVERT JUMPDEST PUSH1 0x3 DUP2 LT PUSH2 0x26D JUMPI PUSH2 0x26C PUSH2 0x22F JUMP JUMPDEST JUMPDEST POP JUMP JUMPDEST PUSH0 DUP2 SWAP1 POP PUSH2 0x27D DUP3 PUSH2 0x25C JUMP JUMPDEST SWAP2 SWAP1 POP JUMP JUMPDEST PUSH0 PUSH2 0x28C DUP3 PUSH2 0x270 JUMP JUMPDEST SWAP1 POP SWAP2 SWAP1 POP JUMP JUMPDEST PUSH2 0x29C DUP2 PUSH2 0x282 JUMP JUMPDEST DUP3 MSTORE POP POP JUMP JUMPDEST PUSH0 PUSH1 0x20 DUP3 ADD SWAP1 POP PUSH2 0x2B5 PUSH0 DUP4 ADD DUP5 PUSH2 0x293 JUMP JUMPDEST SWAP3 SWAP2 POP POP JUMP JUMPDEST PUSH0 DUP2 MLOAD SWAP1 POP SWAP2 SWAP1 POP JUMP JUMPDEST PUSH0 DUP3 DUP3 MSTORE PUSH1 0x20 DUP3 ADD SWAP1 POP SWAP3 SWAP2 POP POP JUMP JUMPDEST DUP3 DUP2 DUP4 MCOPY PUSH0 DUP4 DUP4 ADD MSTORE POP POP POP JUMP JUMPDEST PUSH0 PUSH1 0x1F NOT PUSH1 0x1F DUP4 ADD AND SWAP1 POP SWAP2 SWAP1 POP JUMP JUMPDEST PUSH0 PUSH2 0x2FD DUP3 PUSH2 0x2BB JUMP JUMPDEST PUSH2 0x307 DUP2 DUP6 PUSH2 0x2C5 JUMP JUMPDEST SWAP4 POP PUSH2 0x317 DUP2 DUP6 PUSH1 0x20 DUP7 ADD PUSH2 0x2D5 JUMP JUMPDEST PUSH2 0x320 DUP2 PUSH2 0x2E3 JUMP JUMPDEST DUP5 ADD SWAP2 POP POP SWAP3 SWAP2 POP POP JUMP JUMPDEST PUSH0 PUSH1 0x20 DUP3 ADD SWAP1 POP DUP2 DUP2 SUB PUSH0 DUP4 ADD MSTORE PUSH2 0x343 DUP2 DUP5 PUSH2 0x2F3 JUMP JUMPDEST SWAP1 POP SWAP3 SWAP2 POP POP JUMP JUMPDEST PUSH0 DUP2 ISZERO ISZERO SWAP1 POP SWAP2 SWAP1 POP JUMP JUMPDEST PUSH2 0x35F DUP2 PUSH2 0x34B JUMP JUMPDEST DUP3 MSTORE POP POP JUMP JUMPDEST PUSH0 PUSH1 0x20 DUP3 ADD SWAP1 POP PUSH2 0x378 PUSH0 DUP4 ADD DUP5 PUSH2 0x356 JUMP JUMPDEST SWAP3 SWAP2 POP POP JUMP JUMPDEST PUSH32 0x4E487B7100000000000000000000000000000000000000000000000000000000 PUSH0 MSTORE PUSH1 0x22 PUSH1 0x4 MSTORE PUSH1 0x24 PUSH0 REVERT JUMPDEST PUSH0 PUSH1 0x2 DUP3 DIV SWAP1 POP PUSH1 0x1 DUP3 AND DUP1 PUSH2 0x3C2 JUMPI PUSH1 0x7F DUP3 AND SWAP2 POP JUMPDEST PUSH1 0x20 DUP3 LT DUP2 SUB PUSH2 0x3D5 JUMPI PUSH2 0x3D4 PUSH2 0x37E JUMP JUMPDEST JUMPDEST POP SWAP2 SWAP1 POP JUMP INVALID LOG2 PUSH5 0x6970667358 0x22 SLT KECCAK256 0xF DUP12 0x2D BLOCKHASH 0xDF ISZERO COINBASE 0x29 MSTORE 0x21 SWAP3 PUSH24 0xAD7351448235F0C08D9BBFE21EAF6191FD25835364736F6C PUSH4 0x4300081A STOP CALLER "
				},
				"gasEstimates": {
					"creation": {
						"codeDepositCost": "208200",
						"executionCost": "infinite",
						"totalCost": "infinite"
					},
					"external": {
						"b()": "2466",
						"boolean()": "2529",
						"int_var()": "2403",
						"myEnum()": "448",
						"str()": "infinite"
					}
				},
				"methodIdentifiers": {
					"b()": "4df7e3d0",
					"boolean()": "c5b57bdb",
					"int_var()": "2a3db8b2",
					"myEnum()": "693acd1e",
					"str()": "c15bae84"
				}
			},
			"storageLayout": {
				"storage": [
					{
						"astId": 4,
						"contract": "contracts/DataTypes.sol:DataTypes",
						"label": "boolean",
						"offset": 0,
						"slot": "0",
						"type": "t_bool"
					},
					{
						"astId": 8,
						"contract": "contracts/DataTypes.sol:DataTypes",
						"label": "int_var",
						"offset": 0,
						"slot": "1",
						"type": "t_int256"
					},
					{
						"astId": 11,
						"contract": "contracts/DataTypes.sol:DataTypes",
						"label": "str",
						"offset": 0,
						"slot": "2",
						"type": "t_string_storage"
					},
					{
						"astId": 14,
						"contract": "contracts/DataTypes.sol:DataTypes",
						"label": "b",
						"offset": 0,
						"slot": "3",
						"type": "t_bytes1"
					}
				],
				"types": {
					"t_bool": {
						"encoding": "inplace",
						"label": "bool",
						"numberOfBytes": "1"
					},
					"t_bytes1": {
						"encoding": "inplace",
						"label": "bytes1",
						"numberOfBytes": "1"
					},
					"t_int256": {
						"encoding": "inplace",
						"label": "int256",
						"numberOfBytes": "32"
					},
					"t_string_storage": {
						"encoding": "bytes",
						"label": "string",
						"numberOfBytes": "32"
					}
				}
			},
			"userdoc": {
				"kind": "user",
				"methods": {},
				"version": 1
			}
		}
	}
}