{
	"contracts/enums.sol": {
		"learnEnum": {
			"abi": [
				{
					"inputs": [],
					"name": "getChoice",
					"outputs": [
						{
							"internalType": "enum learnEnum.frenchFriesSize",
							"name": "",
							"type": "uint8"
						}
					],
					"stateMutability": "view",
					"type": "function"
				},
				{
					"inputs": [],
					"name": "getChoice1",
					"outputs": [
						{
							"internalType": "enum learnEnum.shirtColor",
							"name": "",
							"type": "uint8"
						}
					],
					"stateMutability": "view",
					"type": "function"
				},
				{
					"inputs": [],
					"name": "getDefaultChoice",
					"outputs": [
						{
							"internalType": "uint256",
							"name": "",
							"type": "uint256"
						}
					],
					"stateMutability": "pure",
					"type": "function"
				},
				{
					"inputs": [],
					"name": "getDefaultChoice1",
					"outputs": [
						{
							"internalType": "enum learnEnum.shirtColor",
							"name": "",
							"type": "uint8"
						}
					],
					"stateMutability": "view",
					"type": "function"
				},
				{
					"inputs": [],
					"name": "setSmall",
					"outputs": [],
					"stateMutability": "nonpayable",
					"type": "function"
				},
				{
					"inputs": [],
					"name": "setWhite",
					"outputs": [],
					"stateMutability": "nonpayable",
					"type": "function"
				}
			],
			"devdoc": {
				"kind": "dev",
				"methods": {},
				"version": 1
			},
			"evm": {
				"assembly": "    /* \"contracts/enums.sol\":69:952  contract learnEnum{... */\n  mstore(0x40, 0x80)\n  callvalue\n  dup1\n  iszero\n  tag_1\n  jumpi\n  0x00\n  dup1\n  revert\ntag_1:\n  pop\n  dataSize(sub_0)\n  dup1\n  dataOffset(sub_0)\n  0x00\n  codecopy\n  0x00\n  return\nstop\n\nsub_0: assembly {\n        /* \"contracts/enums.sol\":69:952  contract learnEnum{... */\n      mstore(0x40, 0x80)\n      callvalue\n      dup1\n      iszero\n      tag_1\n      jumpi\n      0x00\n      dup1\n      revert\n    tag_1:\n      pop\n      jumpi(tag_2, lt(calldatasize, 0x04))\n      shr(0xe0, calldataload(0x00))\n      dup1\n      0x0f495ca3\n      eq\n      tag_3\n      jumpi\n      dup1\n      0x67cb61b6\n      eq\n      tag_4\n      jumpi\n      dup1\n      0x7e10e9d1\n      eq\n      tag_5\n      jumpi\n      dup1\n      0x843f7258\n      eq\n      tag_6\n      jumpi\n      dup1\n      0x91ff2c86\n      eq\n      tag_7\n      jumpi\n      dup1\n      0xb777cb32\n      eq\n      tag_8\n      jumpi\n    tag_2:\n      0x00\n      dup1\n      revert\n        /* \"contracts/enums.sol\":850:949  function getDefaultChoice1()public view returns(shirtColor){... */\n    tag_3:\n      tag_9\n      tag_10\n      jump\t// in\n    tag_9:\n      mload(0x40)\n      tag_11\n      swap2\n      swap1\n      tag_12\n      jump\t// in\n    tag_11:\n      mload(0x40)\n      dup1\n      swap2\n      sub\n      swap1\n      return\n        /* \"contracts/enums.sol\":325:413  function getChoice()public view returns(frenchFriesSize){... */\n    tag_4:\n      tag_13\n      tag_14\n      jump\t// in\n    tag_13:\n      mload(0x40)\n      tag_15\n      swap2\n      swap1\n      tag_16\n      jump\t// in\n    tag_15:\n      mload(0x40)\n      dup1\n      swap2\n      sub\n      swap1\n      return\n        /* \"contracts/enums.sol\":681:752  function setWhite() public{... */\n    tag_5:\n      tag_17\n      tag_18\n      jump\t// in\n    tag_17:\n      stop\n        /* \"contracts/enums.sol\":419:549  function getDefaultChoice()public pure returns(uint){... */\n    tag_6:\n      tag_19\n      tag_20\n      jump\t// in\n    tag_19:\n      mload(0x40)\n      tag_21\n      swap2\n      swap1\n      tag_22\n      jump\t// in\n    tag_21:\n      mload(0x40)\n      dup1\n      swap2\n      sub\n      swap1\n      return\n        /* \"contracts/enums.sol\":243:319  function setSmall() public {... */\n    tag_7:\n      tag_23\n      tag_24\n      jump\t// in\n    tag_23:\n      stop\n        /* \"contracts/enums.sol\":758:844  function getChoice1() public view returns(shirtColor){... */\n    tag_8:\n      tag_25\n      tag_26\n      jump\t// in\n    tag_25:\n      mload(0x40)\n      tag_27\n      swap2\n      swap1\n      tag_12\n      jump\t// in\n    tag_27:\n      mload(0x40)\n      dup1\n      swap2\n      sub\n      swap1\n      return\n        /* \"contracts/enums.sol\":850:949  function getDefaultChoice1()public view returns(shirtColor){... */\n    tag_10:\n        /* \"contracts/enums.sol\":898:908  shirtColor */\n      0x00\n        /* \"contracts/enums.sol\":659:674  shirtColor.BLUE */\n      0x02\n        /* \"contracts/enums.sol\":920:941  return defaultChoice1 */\n      swap1\n      pop\n        /* \"contracts/enums.sol\":850:949  function getDefaultChoice1()public view returns(shirtColor){... */\n      swap1\n      jump\t// out\n        /* \"contracts/enums.sol\":325:413  function getChoice()public view returns(frenchFriesSize){... */\n    tag_14:\n        /* \"contracts/enums.sol\":365:380  frenchFriesSize */\n      0x00\n        /* \"contracts/enums.sol\":399:405  choice */\n      dup1\n      0x00\n      swap1\n      sload\n      swap1\n      0x0100\n      exp\n      swap1\n      div\n      0xff\n      and\n        /* \"contracts/enums.sol\":392:405  return choice */\n      swap1\n      pop\n        /* \"contracts/enums.sol\":325:413  function getChoice()public view returns(frenchFriesSize){... */\n      swap1\n      jump\t// out\n        /* \"contracts/enums.sol\":681:752  function setWhite() public{... */\n    tag_18:\n        /* \"contracts/enums.sol\":728:744  shirtColor.WHITE */\n      0x01\n        /* \"contracts/enums.sol\":718:725  choice1 */\n      0x00\n      0x01\n        /* \"contracts/enums.sol\":718:744  choice1 = shirtColor.WHITE */\n      0x0100\n      exp\n      dup2\n      sload\n      dup2\n      0xff\n      mul\n      not\n      and\n      swap1\n      dup4\n      0x02\n      dup2\n      gt\n      iszero\n      tag_31\n      jumpi\n      tag_32\n      tag_33\n      jump\t// in\n    tag_32:\n    tag_31:\n      mul\n      or\n      swap1\n      sstore\n      pop\n        /* \"contracts/enums.sol\":681:752  function setWhite() public{... */\n      jump\t// out\n        /* \"contracts/enums.sol\":419:549  function getDefaultChoice()public pure returns(uint){... */\n    tag_20:\n        /* \"contracts/enums.sol\":466:470  uint */\n      0x00\n        /* \"contracts/enums.sol\":212:234  frenchFriesSize.MEDIUM */\n      0x01\n        /* \"contracts/enums.sol\":522:541  uint(defaultChoice) */\n      0x02\n      dup2\n      gt\n      iszero\n      tag_35\n      jumpi\n      tag_36\n      tag_33\n      jump\t// in\n    tag_36:\n    tag_35:\n        /* \"contracts/enums.sol\":515:541  return uint(defaultChoice) */\n      swap1\n      pop\n        /* \"contracts/enums.sol\":419:549  function getDefaultChoice()public pure returns(uint){... */\n      swap1\n      jump\t// out\n        /* \"contracts/enums.sol\":243:319  function setSmall() public {... */\n    tag_24:\n        /* \"contracts/enums.sol\":290:311  frenchFriesSize.SMALL */\n      0x02\n        /* \"contracts/enums.sol\":281:287  choice */\n      0x00\n      dup1\n        /* \"contracts/enums.sol\":281:311  choice = frenchFriesSize.SMALL */\n      0x0100\n      exp\n      dup2\n      sload\n      dup2\n      0xff\n      mul\n      not\n      and\n      swap1\n      dup4\n      0x02\n      dup2\n      gt\n      iszero\n      tag_38\n      jumpi\n      tag_39\n      tag_33\n      jump\t// in\n    tag_39:\n    tag_38:\n      mul\n      or\n      swap1\n      sstore\n      pop\n        /* \"contracts/enums.sol\":243:319  function setSmall() public {... */\n      jump\t// out\n        /* \"contracts/enums.sol\":758:844  function getChoice1() public view returns(shirtColor){... */\n    tag_26:\n        /* \"contracts/enums.sol\":800:810  shirtColor */\n      0x00\n        /* \"contracts/enums.sol\":829:836  choice1 */\n      dup1\n      0x01\n      swap1\n      sload\n      swap1\n      0x0100\n      exp\n      swap1\n      div\n      0xff\n      and\n        /* \"contracts/enums.sol\":822:836  return choice1 */\n      swap1\n      pop\n        /* \"contracts/enums.sol\":758:844  function getChoice1() public view returns(shirtColor){... */\n      swap1\n      jump\t// out\n        /* \"#utility.yul\":7:187   */\n    tag_33:\n        /* \"#utility.yul\":55:132   */\n      0x4e487b7100000000000000000000000000000000000000000000000000000000\n        /* \"#utility.yul\":52:53   */\n      0x00\n        /* \"#utility.yul\":45:133   */\n      mstore\n        /* \"#utility.yul\":152:156   */\n      0x21\n        /* \"#utility.yul\":149:150   */\n      0x04\n        /* \"#utility.yul\":142:157   */\n      mstore\n        /* \"#utility.yul\":176:180   */\n      0x24\n        /* \"#utility.yul\":173:174   */\n      0x00\n        /* \"#utility.yul\":166:181   */\n      revert\n        /* \"#utility.yul\":193:311   */\n    tag_41:\n        /* \"#utility.yul\":279:280   */\n      0x03\n        /* \"#utility.yul\":272:277   */\n      dup2\n        /* \"#utility.yul\":269:281   */\n      lt\n        /* \"#utility.yul\":259:305   */\n      tag_54\n      jumpi\n        /* \"#utility.yul\":285:303   */\n      tag_55\n      tag_33\n      jump\t// in\n    tag_55:\n        /* \"#utility.yul\":259:305   */\n    tag_54:\n        /* \"#utility.yul\":193:311   */\n      pop\n      jump\t// out\n        /* \"#utility.yul\":317:454   */\n    tag_42:\n        /* \"#utility.yul\":367:374   */\n      0x00\n        /* \"#utility.yul\":396:401   */\n      dup2\n        /* \"#utility.yul\":385:401   */\n      swap1\n      pop\n        /* \"#utility.yul\":402:448   */\n      tag_57\n        /* \"#utility.yul\":442:447   */\n      dup3\n        /* \"#utility.yul\":402:448   */\n      tag_41\n      jump\t// in\n    tag_57:\n        /* \"#utility.yul\":317:454   */\n      swap2\n      swap1\n      pop\n      jump\t// out\n        /* \"#utility.yul\":460:597   */\n    tag_43:\n        /* \"#utility.yul\":521:530   */\n      0x00\n        /* \"#utility.yul\":554:591   */\n      tag_59\n        /* \"#utility.yul\":585:590   */\n      dup3\n        /* \"#utility.yul\":554:591   */\n      tag_42\n      jump\t// in\n    tag_59:\n        /* \"#utility.yul\":541:591   */\n      swap1\n      pop\n        /* \"#utility.yul\":460:597   */\n      swap2\n      swap1\n      pop\n      jump\t// out\n        /* \"#utility.yul\":603:756   */\n    tag_44:\n        /* \"#utility.yul\":701:749   */\n      tag_61\n        /* \"#utility.yul\":743:748   */\n      dup2\n        /* \"#utility.yul\":701:749   */\n      tag_43\n      jump\t// in\n    tag_61:\n        /* \"#utility.yul\":696:699   */\n      dup3\n        /* \"#utility.yul\":689:750   */\n      mstore\n        /* \"#utility.yul\":603:756   */\n      pop\n      pop\n      jump\t// out\n        /* \"#utility.yul\":762:1006   */\n    tag_12:\n        /* \"#utility.yul\":866:870   */\n      0x00\n        /* \"#utility.yul\":904:906   */\n      0x20\n        /* \"#utility.yul\":893:902   */\n      dup3\n        /* \"#utility.yul\":889:907   */\n      add\n        /* \"#utility.yul\":881:907   */\n      swap1\n      pop\n        /* \"#utility.yul\":917:999   */\n      tag_63\n        /* \"#utility.yul\":996:997   */\n      0x00\n        /* \"#utility.yul\":985:994   */\n      dup4\n        /* \"#utility.yul\":981:998   */\n      add\n        /* \"#utility.yul\":972:978   */\n      dup5\n        /* \"#utility.yul\":917:999   */\n      tag_44\n      jump\t// in\n    tag_63:\n        /* \"#utility.yul\":762:1006   */\n      swap3\n      swap2\n      pop\n      pop\n      jump\t// out\n        /* \"#utility.yul\":1012:1134   */\n    tag_45:\n        /* \"#utility.yul\":1102:1103   */\n      0x03\n        /* \"#utility.yul\":1095:1100   */\n      dup2\n        /* \"#utility.yul\":1092:1104   */\n      lt\n        /* \"#utility.yul\":1082:1128   */\n      tag_65\n      jumpi\n        /* \"#utility.yul\":1108:1126   */\n      tag_66\n      tag_33\n      jump\t// in\n    tag_66:\n        /* \"#utility.yul\":1082:1128   */\n    tag_65:\n        /* \"#utility.yul\":1012:1134   */\n      pop\n      jump\t// out\n        /* \"#utility.yul\":1140:1285   */\n    tag_46:\n        /* \"#utility.yul\":1194:1201   */\n      0x00\n        /* \"#utility.yul\":1223:1228   */\n      dup2\n        /* \"#utility.yul\":1212:1228   */\n      swap1\n      pop\n        /* \"#utility.yul\":1229:1279   */\n      tag_68\n        /* \"#utility.yul\":1273:1278   */\n      dup3\n        /* \"#utility.yul\":1229:1279   */\n      tag_45\n      jump\t// in\n    tag_68:\n        /* \"#utility.yul\":1140:1285   */\n      swap2\n      swap1\n      pop\n      jump\t// out\n        /* \"#utility.yul\":1291:1436   */\n    tag_47:\n        /* \"#utility.yul\":1356:1365   */\n      0x00\n        /* \"#utility.yul\":1389:1430   */\n      tag_70\n        /* \"#utility.yul\":1424:1429   */\n      dup3\n        /* \"#utility.yul\":1389:1430   */\n      tag_46\n      jump\t// in\n    tag_70:\n        /* \"#utility.yul\":1376:1430   */\n      swap1\n      pop\n        /* \"#utility.yul\":1291:1436   */\n      swap2\n      swap1\n      pop\n      jump\t// out\n        /* \"#utility.yul\":1442:1603   */\n    tag_48:\n        /* \"#utility.yul\":1544:1596   */\n      tag_72\n        /* \"#utility.yul\":1590:1595   */\n      dup2\n        /* \"#utility.yul\":1544:1596   */\n      tag_47\n      jump\t// in\n    tag_72:\n        /* \"#utility.yul\":1539:1542   */\n      dup3\n        /* \"#utility.yul\":1532:1597   */\n      mstore\n        /* \"#utility.yul\":1442:1603   */\n      pop\n      pop\n      jump\t// out\n        /* \"#utility.yul\":1609:1861   */\n    tag_16:\n        /* \"#utility.yul\":1717:1721   */\n      0x00\n        /* \"#utility.yul\":1755:1757   */\n      0x20\n        /* \"#utility.yul\":1744:1753   */\n      dup3\n        /* \"#utility.yul\":1740:1758   */\n      add\n        /* \"#utility.yul\":1732:1758   */\n      swap1\n      pop\n        /* \"#utility.yul\":1768:1854   */\n      tag_74\n        /* \"#utility.yul\":1851:1852   */\n      0x00\n        /* \"#utility.yul\":1840:1849   */\n      dup4\n        /* \"#utility.yul\":1836:1853   */\n      add\n        /* \"#utility.yul\":1827:1833   */\n      dup5\n        /* \"#utility.yul\":1768:1854   */\n      tag_48\n      jump\t// in\n    tag_74:\n        /* \"#utility.yul\":1609:1861   */\n      swap3\n      swap2\n      pop\n      pop\n      jump\t// out\n        /* \"#utility.yul\":1867:1944   */\n    tag_49:\n        /* \"#utility.yul\":1904:1911   */\n      0x00\n        /* \"#utility.yul\":1933:1938   */\n      dup2\n        /* \"#utility.yul\":1922:1938   */\n      swap1\n      pop\n        /* \"#utility.yul\":1867:1944   */\n      swap2\n      swap1\n      pop\n      jump\t// out\n        /* \"#utility.yul\":1950:2068   */\n    tag_50:\n        /* \"#utility.yul\":2037:2061   */\n      tag_77\n        /* \"#utility.yul\":2055:2060   */\n      dup2\n        /* \"#utility.yul\":2037:2061   */\n      tag_49\n      jump\t// in\n    tag_77:\n        /* \"#utility.yul\":2032:2035   */\n      dup3\n        /* \"#utility.yul\":2025:2062   */\n      mstore\n        /* \"#utility.yul\":1950:2068   */\n      pop\n      pop\n      jump\t// out\n        /* \"#utility.yul\":2074:2296   */\n    tag_22:\n        /* \"#utility.yul\":2167:2171   */\n      0x00\n        /* \"#utility.yul\":2205:2207   */\n      0x20\n        /* \"#utility.yul\":2194:2203   */\n      dup3\n        /* \"#utility.yul\":2190:2208   */\n      add\n        /* \"#utility.yul\":2182:2208   */\n      swap1\n      pop\n        /* \"#utility.yul\":2218:2289   */\n      tag_79\n        /* \"#utility.yul\":2286:2287   */\n      0x00\n        /* \"#utility.yul\":2275:2284   */\n      dup4\n        /* \"#utility.yul\":2271:2288   */\n      add\n        /* \"#utility.yul\":2262:2268   */\n      dup5\n        /* \"#utility.yul\":2218:2289   */\n      tag_50\n      jump\t// in\n    tag_79:\n        /* \"#utility.yul\":2074:2296   */\n      swap3\n      swap2\n      pop\n      pop\n      jump\t// out\n\n    auxdata: 0xa2646970667358221220bef42a9dbd3eecfe4a095b155ddc29cbe627167acfaa5fc44e8468ad8063bae264736f6c634300081a0033\n}\n",
				"bytecode": {
					"linkReferences": {},
					"object": "6080604052348015600e575f80fd5b506102e48061001c5f395ff3fe608060405234801561000f575f80fd5b5060043610610060575f3560e01c80630f495ca31461006457806367cb61b6146100825780637e10e9d1146100a0578063843f7258146100aa57806391ff2c86146100c8578063b777cb32146100d2575b5f80fd5b61006c6100f0565b6040516100799190610205565b60405180910390f35b61008a6100f8565b6040516100979190610264565b60405180910390f35b6100a861010c565b005b6100b2610138565b6040516100bf9190610295565b60405180910390f35b6100d0610152565b005b6100da61017d565b6040516100e79190610205565b60405180910390f35b5f6002905090565b5f805f9054906101000a900460ff16905090565b60015f60016101000a81548160ff0219169083600281111561013157610130610192565b5b0217905550565b5f6001600281111561014d5761014c610192565b5b905090565b60025f806101000a81548160ff0219169083600281111561017657610175610192565b5b0217905550565b5f8060019054906101000a900460ff16905090565b7f4e487b71000000000000000000000000000000000000000000000000000000005f52602160045260245ffd5b600381106101d0576101cf610192565b5b50565b5f8190506101e0826101bf565b919050565b5f6101ef826101d3565b9050919050565b6101ff816101e5565b82525050565b5f6020820190506102185f8301846101f6565b92915050565b6003811061022f5761022e610192565b5b50565b5f81905061023f8261021e565b919050565b5f61024e82610232565b9050919050565b61025e81610244565b82525050565b5f6020820190506102775f830184610255565b92915050565b5f819050919050565b61028f8161027d565b82525050565b5f6020820190506102a85f830184610286565b9291505056fea2646970667358221220bef42a9dbd3eecfe4a095b155ddc29cbe627167acfaa5fc44e8468ad8063bae264736f6c634300081a0033",
					"opcodes": "PUSH1 0x80 PUSH1 0x40 MSTORE CALLVALUE DUP1 ISZERO PUSH1 0xE JUMPI PUSH0 DUP1 REVERT JUMPDEST POP PUSH2 0x2E4 DUP1 PUSH2 0x1C PUSH0 CODECOPY PUSH0 RETURN INVALID PUSH1 0x80 PUSH1 0x40 MSTORE CALLVALUE DUP1 ISZERO PUSH2 0xF JUMPI PUSH0 DUP1 REVERT JUMPDEST POP PUSH1 0x4 CALLDATASIZE LT PUSH2 0x60 JUMPI PUSH0 CALLDATALOAD PUSH1 0xE0 SHR DUP1 PUSH4 0xF495CA3 EQ PUSH2 0x64 JUMPI DUP1 PUSH4 0x67CB61B6 EQ PUSH2 0x82 JUMPI DUP1 PUSH4 0x7E10E9D1 EQ PUSH2 0xA0 JUMPI DUP1 PUSH4 0x843F7258 EQ PUSH2 0xAA JUMPI DUP1 PUSH4 0x91FF2C86 EQ PUSH2 0xC8 JUMPI DUP1 PUSH4 0xB777CB32 EQ PUSH2 0xD2 JUMPI JUMPDEST PUSH0 DUP1 REVERT JUMPDEST PUSH2 0x6C PUSH2 0xF0 JUMP JUMPDEST PUSH1 0x40 MLOAD PUSH2 0x79 SWAP2 SWAP1 PUSH2 0x205 JUMP JUMPDEST PUSH1 0x40 MLOAD DUP1 SWAP2 SUB SWAP1 RETURN JUMPDEST PUSH2 0x8A PUSH2 0xF8 JUMP JUMPDEST PUSH1 0x40 MLOAD PUSH2 0x97 SWAP2 SWAP1 PUSH2 0x264 JUMP JUMPDEST PUSH1 0x40 MLOAD DUP1 SWAP2 SUB SWAP1 RETURN JUMPDEST PUSH2 0xA8 PUSH2 0x10C JUMP JUMPDEST STOP JUMPDEST PUSH2 0xB2 PUSH2 0x138 JUMP JUMPDEST PUSH1 0x40 MLOAD PUSH2 0xBF SWAP2 SWAP1 PUSH2 0x295 JUMP JUMPDEST PUSH1 0x40 MLOAD DUP1 SWAP2 SUB SWAP1 RETURN JUMPDEST PUSH2 0xD0 PUSH2 0x152 JUMP JUMPDEST STOP JUMPDEST PUSH2 0xDA PUSH2 0x17D JUMP JUMPDEST PUSH1 0x40 MLOAD PUSH2 0xE7 SWAP2 SWAP1 PUSH2 0x205 JUMP JUMPDEST PUSH1 0x40 MLOAD DUP1 SWAP2 SUB SWAP1 RETURN JUMPDEST PUSH0 PUSH1 0x2 SWAP1 POP SWAP1 JUMP JUMPDEST PUSH0 DUP1 PUSH0 SWAP1 SLOAD SWAP1 PUSH2 0x100 EXP SWAP1 DIV PUSH1 0xFF AND SWAP1 POP SWAP1 JUMP JUMPDEST PUSH1 0x1 PUSH0 PUSH1 0x1 PUSH2 0x100 EXP DUP2 SLOAD DUP2 PUSH1 0xFF MUL NOT AND SWAP1 DUP4 PUSH1 0x2 DUP2 GT ISZERO PUSH2 0x131 JUMPI PUSH2 0x130 PUSH2 0x192 JUMP JUMPDEST JUMPDEST MUL OR SWAP1 SSTORE POP JUMP JUMPDEST PUSH0 PUSH1 0x1 PUSH1 0x2 DUP2 GT ISZERO PUSH2 0x14D JUMPI PUSH2 0x14C PUSH2 0x192 JUMP JUMPDEST JUMPDEST SWAP1 POP SWAP1 JUMP JUMPDEST PUSH1 0x2 PUSH0 DUP1 PUSH2 0x100 EXP DUP2 SLOAD DUP2 PUSH1 0xFF MUL NOT AND SWAP1 DUP4 PUSH1 0x2 DUP2 GT ISZERO PUSH2 0x176 JUMPI PUSH2 0x175 PUSH2 0x192 JUMP JUMPDEST JUMPDEST MUL OR SWAP1 SSTORE POP JUMP JUMPDEST PUSH0 DUP1 PUSH1 0x1 SWAP1 SLOAD SWAP1 PUSH2 0x100 EXP SWAP1 DIV PUSH1 0xFF AND SWAP1 POP SWAP1 JUMP JUMPDEST PUSH32 0x4E487B7100000000000000000000000000000000000000000000000000000000 PUSH0 MSTORE PUSH1 0x21 PUSH1 0x4 MSTORE PUSH1 0x24 PUSH0 REVERT JUMPDEST PUSH1 0x3 DUP2 LT PUSH2 0x1D0 JUMPI PUSH2 0x1CF PUSH2 0x192 JUMP JUMPDEST JUMPDEST POP JUMP JUMPDEST PUSH0 DUP2 SWAP1 POP PUSH2 0x1E0 DUP3 PUSH2 0x1BF JUMP JUMPDEST SWAP2 SWAP1 POP JUMP JUMPDEST PUSH0 PUSH2 0x1EF DUP3 PUSH2 0x1D3 JUMP JUMPDEST SWAP1 POP SWAP2 SWAP1 POP JUMP JUMPDEST PUSH2 0x1FF DUP2 PUSH2 0x1E5 JUMP JUMPDEST DUP3 MSTORE POP POP JUMP JUMPDEST PUSH0 PUSH1 0x20 DUP3 ADD SWAP1 POP PUSH2 0x218 PUSH0 DUP4 ADD DUP5 PUSH2 0x1F6 JUMP JUMPDEST SWAP3 SWAP2 POP POP JUMP JUMPDEST PUSH1 0x3 DUP2 LT PUSH2 0x22F JUMPI PUSH2 0x22E PUSH2 0x192 JUMP JUMPDEST JUMPDEST POP JUMP JUMPDEST PUSH0 DUP2 SWAP1 POP PUSH2 0x23F DUP3 PUSH2 0x21E JUMP JUMPDEST SWAP2 SWAP1 POP JUMP JUMPDEST PUSH0 PUSH2 0x24E DUP3 PUSH2 0x232 JUMP JUMPDEST SWAP1 POP SWAP2 SWAP1 POP JUMP JUMPDEST PUSH2 0x25E DUP2 PUSH2 0x244 JUMP JUMPDEST DUP3 MSTORE POP POP JUMP JUMPDEST PUSH0 PUSH1 0x20 DUP3 ADD SWAP1 POP PUSH2 0x277 PUSH0 DUP4 ADD DUP5 PUSH2 0x255 JUMP JUMPDEST SWAP3 SWAP2 POP POP JUMP JUMPDEST PUSH0 DUP2 SWAP1 POP SWAP2 SWAP1 POP JUMP JUMPDEST PUSH2 0x28F DUP2 PUSH2 0x27D JUMP JUMPDEST DUP3 MSTORE POP POP JUMP JUMPDEST PUSH0 PUSH1 0x20 DUP3 ADD SWAP1 POP PUSH2 0x2A8 PUSH0 DUP4 ADD DUP5 PUSH2 0x286 JUMP JUMPDEST SWAP3 SWAP2 POP POP JUMP INVALID LOG2 PUSH5 0x6970667358 0x22 SLT KECCAK256 0xBE DELEGATECALL 0x2A SWAP14 0xBD RETURNDATACOPY 0xEC INVALID BLOBBASEFEE MULMOD JUMPDEST ISZERO TSTORE 0xDC 0x29 0xCB 0xE6 0x27 AND PUSH27 0xCFAA5FC44E8468AD8063BAE264736F6C634300081A003300000000 "
				},
				"gasEstimates": {
					"creation": {
						"codeDepositCost": "148000",
						"executionCost": "194",
						"totalCost": "148194"
					},
					"external": {
						"getChoice()": "2561",
						"getChoice1()": "2700",
						"getDefaultChoice()": "402",
						"getDefaultChoice1()": "404",
						"setSmall()": "24495",
						"setWhite()": "24501"
					}
				},
				"methodIdentifiers": {
					"getChoice()": "67cb61b6",
					"getChoice1()": "b777cb32",
					"getDefaultChoice()": "843f7258",
					"getDefaultChoice1()": "0f495ca3",
					"setSmall()": "91ff2c86",
					"setWhite()": "7e10e9d1"
				}
			},
			"storageLayout": {
				"storage": [
					{
						"astId": 8,
						"contract": "contracts/enums.sol:learnEnum",
						"label": "choice",
						"offset": 0,
						"slot": "0",
						"type": "t_enum(frenchFriesSize)5"
					},
					{
						"astId": 49,
						"contract": "contracts/enums.sol:learnEnum",
						"label": "choice1",
						"offset": 1,
						"slot": "0",
						"type": "t_enum(shirtColor)46"
					}
				],
				"types": {
					"t_enum(frenchFriesSize)5": {
						"encoding": "inplace",
						"label": "enum learnEnum.frenchFriesSize",
						"numberOfBytes": "1"
					},
					"t_enum(shirtColor)46": {
						"encoding": "inplace",
						"label": "enum learnEnum.shirtColor",
						"numberOfBytes": "1"
					}
				}
			},
			"userdoc": {
				"kind": "user",
				"methods": {},
				"version": 1
			}
		}
	}
}