{
	"contracts/operator.sol": {
		"myOperator": {
			"abi": [
				{
					"inputs": [],
					"name": "calculator",
					"outputs": [
						{
							"internalType": "uint256",
							"name": "",
							"type": "uint256"
						}
					],
					"stateMutability": "pure",
					"type": "function"
				}
			],
			"devdoc": {
				"kind": "dev",
				"methods": {},
				"version": 1
			},
			"evm": {
				"assembly": "    /* \"contracts/operator.sol\":69:265  contract myOperator {... */\n  mstore(0x40, 0x80)\n  callvalue\n  dup1\n  iszero\n  tag_1\n  jumpi\n  0x00\n  dup1\n  revert\ntag_1:\n  pop\n  dataSize(sub_0)\n  dup1\n  dataOffset(sub_0)\n  0x00\n  codecopy\n  0x00\n  return\nstop\n\nsub_0: assembly {\n        /* \"contracts/operator.sol\":69:265  contract myOperator {... */\n      mstore(0x40, 0x80)\n      callvalue\n      dup1\n      iszero\n      tag_1\n      jumpi\n      0x00\n      dup1\n      revert\n    tag_1:\n      pop\n      jumpi(tag_2, lt(calldatasize, 0x04))\n      shr(0xe0, calldataload(0x00))\n      dup1\n      0xce3e39c0\n      eq\n      tag_3\n      jumpi\n    tag_2:\n      0x00\n      dup1\n      revert\n        /* \"contracts/operator.sol\":96:262  function calculator()public pure returns(uint){... */\n    tag_3:\n      tag_4\n      tag_5\n      jump\t// in\n    tag_4:\n      mload(0x40)\n      tag_6\n      swap2\n      swap1\n      tag_7\n      jump\t// in\n    tag_6:\n      mload(0x40)\n      dup1\n      swap2\n      sub\n      swap1\n      return\n    tag_5:\n        /* \"contracts/operator.sol\":137:141  uint */\n      0x00\n        /* \"contracts/operator.sol\":153:159  uint a */\n      dup1\n        /* \"contracts/operator.sol\":161:162  5 */\n      0x05\n        /* \"contracts/operator.sol\":153:162  uint a =5 */\n      swap1\n      pop\n        /* \"contracts/operator.sol\":173:179  uint b */\n      0x00\n        /* \"contracts/operator.sol\":182:183  8 */\n      0x08\n        /* \"contracts/operator.sol\":173:183  uint b = 8 */\n      swap1\n      pop\n        /* \"contracts/operator.sol\":194:205  uint result */\n      0x00\n        /* \"contracts/operator.sol\":227:228  b */\n      dup2\n        /* \"contracts/operator.sol\":225:226  a */\n      dup4\n        /* \"contracts/operator.sol\":225:228  a%b */\n      tag_9\n      swap2\n      swap1\n      tag_10\n      jump\t// in\n    tag_9:\n        /* \"contracts/operator.sol\":216:228  result = a%b */\n      swap1\n      pop\n        /* \"contracts/operator.sol\":246:252  result */\n      dup1\n        /* \"contracts/operator.sol\":239:252  return result */\n      swap4\n      pop\n      pop\n      pop\n      pop\n        /* \"contracts/operator.sol\":96:262  function calculator()public pure returns(uint){... */\n      swap1\n      jump\t// out\n        /* \"#utility.yul\":7:84   */\n    tag_11:\n        /* \"#utility.yul\":44:51   */\n      0x00\n        /* \"#utility.yul\":73:78   */\n      dup2\n        /* \"#utility.yul\":62:78   */\n      swap1\n      pop\n        /* \"#utility.yul\":7:84   */\n      swap2\n      swap1\n      pop\n      jump\t// out\n        /* \"#utility.yul\":90:208   */\n    tag_12:\n        /* \"#utility.yul\":177:201   */\n      tag_17\n        /* \"#utility.yul\":195:200   */\n      dup2\n        /* \"#utility.yul\":177:201   */\n      tag_11\n      jump\t// in\n    tag_17:\n        /* \"#utility.yul\":172:175   */\n      dup3\n        /* \"#utility.yul\":165:202   */\n      mstore\n        /* \"#utility.yul\":90:208   */\n      pop\n      pop\n      jump\t// out\n        /* \"#utility.yul\":214:436   */\n    tag_7:\n        /* \"#utility.yul\":307:311   */\n      0x00\n        /* \"#utility.yul\":345:347   */\n      0x20\n        /* \"#utility.yul\":334:343   */\n      dup3\n        /* \"#utility.yul\":330:348   */\n      add\n        /* \"#utility.yul\":322:348   */\n      swap1\n      pop\n        /* \"#utility.yul\":358:429   */\n      tag_19\n        /* \"#utility.yul\":426:427   */\n      0x00\n        /* \"#utility.yul\":415:424   */\n      dup4\n        /* \"#utility.yul\":411:428   */\n      add\n        /* \"#utility.yul\":402:408   */\n      dup5\n        /* \"#utility.yul\":358:429   */\n      tag_12\n      jump\t// in\n    tag_19:\n        /* \"#utility.yul\":214:436   */\n      swap3\n      swap2\n      pop\n      pop\n      jump\t// out\n        /* \"#utility.yul\":442:622   */\n    tag_13:\n        /* \"#utility.yul\":490:567   */\n      0x4e487b7100000000000000000000000000000000000000000000000000000000\n        /* \"#utility.yul\":487:488   */\n      0x00\n        /* \"#utility.yul\":480:568   */\n      mstore\n        /* \"#utility.yul\":587:591   */\n      0x12\n        /* \"#utility.yul\":584:585   */\n      0x04\n        /* \"#utility.yul\":577:592   */\n      mstore\n        /* \"#utility.yul\":611:615   */\n      0x24\n        /* \"#utility.yul\":608:609   */\n      0x00\n        /* \"#utility.yul\":601:616   */\n      revert\n        /* \"#utility.yul\":628:804   */\n    tag_10:\n        /* \"#utility.yul\":660:661   */\n      0x00\n        /* \"#utility.yul\":677:697   */\n      tag_22\n        /* \"#utility.yul\":695:696   */\n      dup3\n        /* \"#utility.yul\":677:697   */\n      tag_11\n      jump\t// in\n    tag_22:\n        /* \"#utility.yul\":672:697   */\n      swap2\n      pop\n        /* \"#utility.yul\":711:731   */\n      tag_23\n        /* \"#utility.yul\":729:730   */\n      dup4\n        /* \"#utility.yul\":711:731   */\n      tag_11\n      jump\t// in\n    tag_23:\n        /* \"#utility.yul\":706:731   */\n      swap3\n      pop\n        /* \"#utility.yul\":750:751   */\n      dup3\n        /* \"#utility.yul\":740:775   */\n      tag_24\n      jumpi\n        /* \"#utility.yul\":755:773   */\n      tag_25\n      tag_13\n      jump\t// in\n    tag_25:\n        /* \"#utility.yul\":740:775   */\n    tag_24:\n        /* \"#utility.yul\":796:797   */\n      dup3\n        /* \"#utility.yul\":793:794   */\n      dup3\n        /* \"#utility.yul\":789:798   */\n      mod\n        /* \"#utility.yul\":784:798   */\n      swap1\n      pop\n        /* \"#utility.yul\":628:804   */\n      swap3\n      swap2\n      pop\n      pop\n      jump\t// out\n\n    auxdata: 0xa2646970667358221220f432844f335443f849852d1df8cca7a7c185f12e1a302d6d8722a87d352baed064736f6c634300081a0033\n}\n",
				"bytecode": {
					"linkReferences": {},
					"object": "6080604052348015600e575f80fd5b5061011e8061001c5f395ff3fe6080604052348015600e575f80fd5b50600436106026575f3560e01c8063ce3e39c014602a575b5f80fd5b60306044565b604051603b9190607b565b60405180910390f35b5f80600590505f600890505f8183605a919060bf565b905080935050505090565b5f819050919050565b6075816065565b82525050565b5f602082019050608c5f830184606e565b92915050565b7f4e487b71000000000000000000000000000000000000000000000000000000005f52601260045260245ffd5b5f60c7826065565b915060d0836065565b92508260dd5760dc6092565b5b82820690509291505056fea2646970667358221220f432844f335443f849852d1df8cca7a7c185f12e1a302d6d8722a87d352baed064736f6c634300081a0033",
					"opcodes": "PUSH1 0x80 PUSH1 0x40 MSTORE CALLVALUE DUP1 ISZERO PUSH1 0xE JUMPI PUSH0 DUP1 REVERT JUMPDEST POP PUSH2 0x11E DUP1 PUSH2 0x1C PUSH0 CODECOPY PUSH0 RETURN INVALID PUSH1 0x80 PUSH1 0x40 MSTORE CALLVALUE DUP1 ISZERO PUSH1 0xE JUMPI PUSH0 DUP1 REVERT JUMPDEST POP PUSH1 0x4 CALLDATASIZE LT PUSH1 0x26 JUMPI PUSH0 CALLDATALOAD PUSH1 0xE0 SHR DUP1 PUSH4 0xCE3E39C0 EQ PUSH1 0x2A JUMPI JUMPDEST PUSH0 DUP1 REVERT JUMPDEST PUSH1 0x30 PUSH1 0x44 JUMP JUMPDEST PUSH1 0x40 MLOAD PUSH1 0x3B SWAP2 SWAP1 PUSH1 0x7B JUMP JUMPDEST PUSH1 0x40 MLOAD DUP1 SWAP2 SUB SWAP1 RETURN JUMPDEST PUSH0 DUP1 PUSH1 0x5 SWAP1 POP PUSH0 PUSH1 0x8 SWAP1 POP PUSH0 DUP2 DUP4 PUSH1 0x5A SWAP2 SWAP1 PUSH1 0xBF JUMP JUMPDEST SWAP1 POP DUP1 SWAP4 POP POP POP POP SWAP1 JUMP JUMPDEST PUSH0 DUP2 SWAP1 POP SWAP2 SWAP1 POP JUMP JUMPDEST PUSH1 0x75 DUP2 PUSH1 0x65 JUMP JUMPDEST DUP3 MSTORE POP POP JUMP JUMPDEST PUSH0 PUSH1 0x20 DUP3 ADD SWAP1 POP PUSH1 0x8C PUSH0 DUP4 ADD DUP5 PUSH1 0x6E JUMP JUMPDEST SWAP3 SWAP2 POP POP JUMP JUMPDEST PUSH32 0x4E487B7100000000000000000000000000000000000000000000000000000000 PUSH0 MSTORE PUSH1 0x12 PUSH1 0x4 MSTORE PUSH1 0x24 PUSH0 REVERT JUMPDEST PUSH0 PUSH1 0xC7 DUP3 PUSH1 0x65 JUMP JUMPDEST SWAP2 POP PUSH1 0xD0 DUP4 PUSH1 0x65 JUMP JUMPDEST SWAP3 POP DUP3 PUSH1 0xDD JUMPI PUSH1 0xDC PUSH1 0x92 JUMP JUMPDEST JUMPDEST DUP3 DUP3 MOD SWAP1 POP SWAP3 SWAP2 POP POP JUMP INVALID LOG2 PUSH5 0x6970667358 0x22 SLT KECCAK256 DELEGATECALL ORIGIN DUP5 0x4F CALLER SLOAD NUMBER 0xF8 BLOBHASH DUP6 0x2D SAR 0xF8 0xCC 0xA7 0xA7 0xC1 DUP6 CALL 0x2E BYTE ADDRESS 0x2D PUSH14 0x8722A87D352BAED064736F6C6343 STOP ADDMOD BYTE STOP CALLER "
				},
				"gasEstimates": {
					"creation": {
						"codeDepositCost": "57200",
						"executionCost": "103",
						"totalCost": "57303"
					},
					"external": {
						"calculator()": "infinite"
					}
				},
				"methodIdentifiers": {
					"calculator()": "ce3e39c0"
				}
			},
			"storageLayout": {
				"storage": [],
				"types": null
			},
			"userdoc": {
				"kind": "user",
				"methods": {},
				"version": 1
			}
		}
	}
}