{
	"contracts/cryptographic.sol": {
		"GenerateRandomNumber": {
			"abi": [
				{
					"inputs": [
						{
							"internalType": "address",
							"name": "oracleAddress",
							"type": "address"
						}
					],
					"stateMutability": "nonpayable",
					"type": "constructor"
				},
				{
					"inputs": [
						{
							"internalType": "uint256",
							"name": "range",
							"type": "uint256"
						}
					],
					"name": "randMod",
					"outputs": [
						{
							"internalType": "uint256",
							"name": "",
							"type": "uint256"
						}
					],
					"stateMutability": "view",
					"type": "function"
				}
			],
			"devdoc": {
				"kind": "dev",
				"methods": {},
				"version": 1
			},
			"evm": {
				"assembly": "    /* \"contracts/cryptographic.sol\":342:1064  contract GenerateRandomNumber{... */\n  mstore(0x40, 0x80)\n    /* \"contracts/cryptographic.sol\":399:482  constructor(address oracleAddress){... */\n  callvalue\n  dup1\n  iszero\n  tag_1\n  jumpi\n  0x00\n  dup1\n  revert\ntag_1:\n  pop\n  mload(0x40)\n  sub(codesize, bytecodeSize)\n  dup1\n  bytecodeSize\n  dup4\n  codecopy\n  dup2\n  dup2\n  add\n  0x40\n  mstore\n  dup2\n  add\n  swap1\n  tag_2\n  swap2\n  swap1\n  tag_3\n  jump\t// in\ntag_2:\n    /* \"contracts/cryptographic.sol\":460:473  oracleAddress */\n  dup1\n    /* \"contracts/cryptographic.sol\":444:450  oracle */\n  0x00\n  dup1\n    /* \"contracts/cryptographic.sol\":444:474  oracle = Oracle(oracleAddress) */\n  0x0100\n  exp\n  dup2\n  sload\n  dup2\n  0xffffffffffffffffffffffffffffffffffffffff\n  mul\n  not\n  and\n  swap1\n  dup4\n  0xffffffffffffffffffffffffffffffffffffffff\n  and\n  mul\n  or\n  swap1\n  sstore\n  pop\n    /* \"contracts/cryptographic.sol\":399:482  constructor(address oracleAddress){... */\n  pop\n    /* \"contracts/cryptographic.sol\":342:1064  contract GenerateRandomNumber{... */\n  jump(tag_6)\n    /* \"#utility.yul\":88:205   */\ntag_8:\n    /* \"#utility.yul\":197:198   */\n  0x00\n    /* \"#utility.yul\":194:195   */\n  dup1\n    /* \"#utility.yul\":187:199   */\n  revert\n    /* \"#utility.yul\":334:460   */\ntag_10:\n    /* \"#utility.yul\":371:378   */\n  0x00\n    /* \"#utility.yul\":411:453   */\n  0xffffffffffffffffffffffffffffffffffffffff\n    /* \"#utility.yul\":404:409   */\n  dup3\n    /* \"#utility.yul\":400:454   */\n  and\n    /* \"#utility.yul\":389:454   */\n  swap1\n  pop\n    /* \"#utility.yul\":334:460   */\n  swap2\n  swap1\n  pop\n  jump\t// out\n    /* \"#utility.yul\":466:562   */\ntag_11:\n    /* \"#utility.yul\":503:510   */\n  0x00\n    /* \"#utility.yul\":532:556   */\n  tag_20\n    /* \"#utility.yul\":550:555   */\n  dup3\n    /* \"#utility.yul\":532:556   */\n  tag_10\n  jump\t// in\ntag_20:\n    /* \"#utility.yul\":521:556   */\n  swap1\n  pop\n    /* \"#utility.yul\":466:562   */\n  swap2\n  swap1\n  pop\n  jump\t// out\n    /* \"#utility.yul\":568:690   */\ntag_12:\n    /* \"#utility.yul\":641:665   */\n  tag_22\n    /* \"#utility.yul\":659:664   */\n  dup2\n    /* \"#utility.yul\":641:665   */\n  tag_11\n  jump\t// in\ntag_22:\n    /* \"#utility.yul\":634:639   */\n  dup2\n    /* \"#utility.yul\":631:666   */\n  eq\n    /* \"#utility.yul\":621:684   */\n  tag_23\n  jumpi\n    /* \"#utility.yul\":680:681   */\n  0x00\n    /* \"#utility.yul\":677:678   */\n  dup1\n    /* \"#utility.yul\":670:682   */\n  revert\n    /* \"#utility.yul\":621:684   */\ntag_23:\n    /* \"#utility.yul\":568:690   */\n  pop\n  jump\t// out\n    /* \"#utility.yul\":696:839   */\ntag_13:\n    /* \"#utility.yul\":753:758   */\n  0x00\n    /* \"#utility.yul\":784:790   */\n  dup2\n    /* \"#utility.yul\":778:791   */\n  mload\n    /* \"#utility.yul\":769:791   */\n  swap1\n  pop\n    /* \"#utility.yul\":800:833   */\n  tag_25\n    /* \"#utility.yul\":827:832   */\n  dup2\n    /* \"#utility.yul\":800:833   */\n  tag_12\n  jump\t// in\ntag_25:\n    /* \"#utility.yul\":696:839   */\n  swap3\n  swap2\n  pop\n  pop\n  jump\t// out\n    /* \"#utility.yul\":845:1196   */\ntag_3:\n    /* \"#utility.yul\":915:921   */\n  0x00\n    /* \"#utility.yul\":964:966   */\n  0x20\n    /* \"#utility.yul\":952:961   */\n  dup3\n    /* \"#utility.yul\":943:950   */\n  dup5\n    /* \"#utility.yul\":939:962   */\n  sub\n    /* \"#utility.yul\":935:967   */\n  slt\n    /* \"#utility.yul\":932:1051   */\n  iszero\n  tag_27\n  jumpi\n    /* \"#utility.yul\":970:1049   */\n  tag_28\n  tag_8\n  jump\t// in\ntag_28:\n    /* \"#utility.yul\":932:1051   */\ntag_27:\n    /* \"#utility.yul\":1090:1091   */\n  0x00\n    /* \"#utility.yul\":1115:1179   */\n  tag_29\n    /* \"#utility.yul\":1171:1178   */\n  dup5\n    /* \"#utility.yul\":1162:1168   */\n  dup3\n    /* \"#utility.yul\":1151:1160   */\n  dup6\n    /* \"#utility.yul\":1147:1169   */\n  add\n    /* \"#utility.yul\":1115:1179   */\n  tag_13\n  jump\t// in\ntag_29:\n    /* \"#utility.yul\":1105:1179   */\n  swap2\n  pop\n    /* \"#utility.yul\":1061:1189   */\n  pop\n    /* \"#utility.yul\":845:1196   */\n  swap3\n  swap2\n  pop\n  pop\n  jump\t// out\n    /* \"contracts/cryptographic.sol\":342:1064  contract GenerateRandomNumber{... */\ntag_6:\n  dataSize(sub_0)\n  dup1\n  dataOffset(sub_0)\n  0x00\n  codecopy\n  0x00\n  return\nstop\n\nsub_0: assembly {\n        /* \"contracts/cryptographic.sol\":342:1064  contract GenerateRandomNumber{... */\n      mstore(0x40, 0x80)\n      callvalue\n      dup1\n      iszero\n      tag_1\n      jumpi\n      0x00\n      dup1\n      revert\n    tag_1:\n      pop\n      jumpi(tag_2, lt(calldatasize, 0x04))\n      shr(0xe0, calldataload(0x00))\n      dup1\n      0x805553e8\n      eq\n      tag_3\n      jumpi\n    tag_2:\n      0x00\n      dup1\n      revert\n        /* \"contracts/cryptographic.sol\":709:1061  function randMod(uint range)external view returns(uint){... */\n    tag_3:\n      tag_4\n      0x04\n      dup1\n      calldatasize\n      sub\n      dup2\n      add\n      swap1\n      tag_5\n      swap2\n      swap1\n      tag_6\n      jump\t// in\n    tag_5:\n      tag_7\n      jump\t// in\n    tag_4:\n      mload(0x40)\n      tag_8\n      swap2\n      swap1\n      tag_9\n      jump\t// in\n    tag_8:\n      mload(0x40)\n      dup1\n      swap2\n      sub\n      swap1\n      return\n    tag_7:\n        /* \"contracts/cryptographic.sol\":759:763  uint */\n      0x00\n        /* \"contracts/cryptographic.sol\":1042:1047  range */\n      dup2\n        /* \"contracts/cryptographic.sol\":979:985  oracle */\n      0x00\n      dup1\n      sload\n      swap1\n      0x0100\n      exp\n      swap1\n      div\n      0xffffffffffffffffffffffffffffffffffffffff\n      and\n        /* \"contracts/cryptographic.sol\":979:990  oracle.rand */\n      0xffffffffffffffffffffffffffffffffffffffff\n      and\n      0x3b3dca76\n        /* \"contracts/cryptographic.sol\":992:1007  block.timestamp */\n      timestamp\n        /* \"contracts/cryptographic.sol\":1009:1025  block.difficulty */\n      prevrandao\n        /* \"contracts/cryptographic.sol\":1027:1037  msg.sender */\n      caller\n        /* \"contracts/cryptographic.sol\":962:1038  abi.encodePacked(oracle.rand, block.timestamp, block.difficulty, msg.sender) */\n      add(0x20, mload(0x40))\n      tag_11\n      swap6\n      swap5\n      swap4\n      swap3\n      swap2\n      swap1\n      tag_12\n      jump\t// in\n    tag_11:\n      mload(0x40)\n      0x20\n      dup2\n      dup4\n      sub\n      sub\n      dup2\n      mstore\n      swap1\n      0x40\n      mstore\n        /* \"contracts/cryptographic.sol\":952:1039  keccak256(abi.encodePacked(oracle.rand, block.timestamp, block.difficulty, msg.sender)) */\n      dup1\n      mload\n      swap1\n      0x20\n      add\n      keccak256\n        /* \"contracts/cryptographic.sol\":947:1040  uint(keccak256(abi.encodePacked(oracle.rand, block.timestamp, block.difficulty, msg.sender))) */\n      0x00\n      shr\n        /* \"contracts/cryptographic.sol\":947:1047  uint(keccak256(abi.encodePacked(oracle.rand, block.timestamp, block.difficulty, msg.sender))) %range */\n      tag_13\n      swap2\n      swap1\n      tag_14\n      jump\t// in\n    tag_13:\n        /* \"contracts/cryptographic.sol\":940:1047  return uint(keccak256(abi.encodePacked(oracle.rand, block.timestamp, block.difficulty, msg.sender))) %range */\n      swap1\n      pop\n        /* \"contracts/cryptographic.sol\":709:1061  function randMod(uint range)external view returns(uint){... */\n      swap2\n      swap1\n      pop\n      jump\t// out\n        /* \"#utility.yul\":88:205   */\n    tag_16:\n        /* \"#utility.yul\":197:198   */\n      0x00\n        /* \"#utility.yul\":194:195   */\n      dup1\n        /* \"#utility.yul\":187:199   */\n      revert\n        /* \"#utility.yul\":334:411   */\n    tag_18:\n        /* \"#utility.yul\":371:378   */\n      0x00\n        /* \"#utility.yul\":400:405   */\n      dup2\n        /* \"#utility.yul\":389:405   */\n      swap1\n      pop\n        /* \"#utility.yul\":334:411   */\n      swap2\n      swap1\n      pop\n      jump\t// out\n        /* \"#utility.yul\":417:539   */\n    tag_19:\n        /* \"#utility.yul\":490:514   */\n      tag_42\n        /* \"#utility.yul\":508:513   */\n      dup2\n        /* \"#utility.yul\":490:514   */\n      tag_18\n      jump\t// in\n    tag_42:\n        /* \"#utility.yul\":483:488   */\n      dup2\n        /* \"#utility.yul\":480:515   */\n      eq\n        /* \"#utility.yul\":470:533   */\n      tag_43\n      jumpi\n        /* \"#utility.yul\":529:530   */\n      0x00\n        /* \"#utility.yul\":526:527   */\n      dup1\n        /* \"#utility.yul\":519:531   */\n      revert\n        /* \"#utility.yul\":470:533   */\n    tag_43:\n        /* \"#utility.yul\":417:539   */\n      pop\n      jump\t// out\n        /* \"#utility.yul\":545:684   */\n    tag_20:\n        /* \"#utility.yul\":591:596   */\n      0x00\n        /* \"#utility.yul\":629:635   */\n      dup2\n        /* \"#utility.yul\":616:636   */\n      calldataload\n        /* \"#utility.yul\":607:636   */\n      swap1\n      pop\n        /* \"#utility.yul\":645:678   */\n      tag_45\n        /* \"#utility.yul\":672:677   */\n      dup2\n        /* \"#utility.yul\":645:678   */\n      tag_19\n      jump\t// in\n    tag_45:\n        /* \"#utility.yul\":545:684   */\n      swap3\n      swap2\n      pop\n      pop\n      jump\t// out\n        /* \"#utility.yul\":690:1019   */\n    tag_6:\n        /* \"#utility.yul\":749:755   */\n      0x00\n        /* \"#utility.yul\":798:800   */\n      0x20\n        /* \"#utility.yul\":786:795   */\n      dup3\n        /* \"#utility.yul\":777:784   */\n      dup5\n        /* \"#utility.yul\":773:796   */\n      sub\n        /* \"#utility.yul\":769:801   */\n      slt\n        /* \"#utility.yul\":766:885   */\n      iszero\n      tag_47\n      jumpi\n        /* \"#utility.yul\":804:883   */\n      tag_48\n      tag_16\n      jump\t// in\n    tag_48:\n        /* \"#utility.yul\":766:885   */\n    tag_47:\n        /* \"#utility.yul\":924:925   */\n      0x00\n        /* \"#utility.yul\":949:1002   */\n      tag_49\n        /* \"#utility.yul\":994:1001   */\n      dup5\n        /* \"#utility.yul\":985:991   */\n      dup3\n        /* \"#utility.yul\":974:983   */\n      dup6\n        /* \"#utility.yul\":970:992   */\n      add\n        /* \"#utility.yul\":949:1002   */\n      tag_20\n      jump\t// in\n    tag_49:\n        /* \"#utility.yul\":939:1002   */\n      swap2\n      pop\n        /* \"#utility.yul\":895:1012   */\n      pop\n        /* \"#utility.yul\":690:1019   */\n      swap3\n      swap2\n      pop\n      pop\n      jump\t// out\n        /* \"#utility.yul\":1025:1143   */\n    tag_21:\n        /* \"#utility.yul\":1112:1136   */\n      tag_51\n        /* \"#utility.yul\":1130:1135   */\n      dup2\n        /* \"#utility.yul\":1112:1136   */\n      tag_18\n      jump\t// in\n    tag_51:\n        /* \"#utility.yul\":1107:1110   */\n      dup3\n        /* \"#utility.yul\":1100:1137   */\n      mstore\n        /* \"#utility.yul\":1025:1143   */\n      pop\n      pop\n      jump\t// out\n        /* \"#utility.yul\":1149:1371   */\n    tag_9:\n        /* \"#utility.yul\":1242:1246   */\n      0x00\n        /* \"#utility.yul\":1280:1282   */\n      0x20\n        /* \"#utility.yul\":1269:1278   */\n      dup3\n        /* \"#utility.yul\":1265:1283   */\n      add\n        /* \"#utility.yul\":1257:1283   */\n      swap1\n      pop\n        /* \"#utility.yul\":1293:1364   */\n      tag_53\n        /* \"#utility.yul\":1361:1362   */\n      0x00\n        /* \"#utility.yul\":1350:1359   */\n      dup4\n        /* \"#utility.yul\":1346:1363   */\n      add\n        /* \"#utility.yul\":1337:1343   */\n      dup5\n        /* \"#utility.yul\":1293:1364   */\n      tag_21\n      jump\t// in\n    tag_53:\n        /* \"#utility.yul\":1149:1371   */\n      swap3\n      swap2\n      pop\n      pop\n      jump\t// out\n        /* \"#utility.yul\":1377:1471   */\n    tag_22:\n        /* \"#utility.yul\":1410:1418   */\n      0x00\n        /* \"#utility.yul\":1458:1463   */\n      dup2\n        /* \"#utility.yul\":1454:1456   */\n      0x20\n        /* \"#utility.yul\":1450:1464   */\n      shl\n        /* \"#utility.yul\":1429:1464   */\n      swap1\n      pop\n        /* \"#utility.yul\":1377:1471   */\n      swap2\n      swap1\n      pop\n      jump\t// out\n        /* \"#utility.yul\":1477:1571   */\n    tag_23:\n        /* \"#utility.yul\":1510:1518   */\n      0x00\n        /* \"#utility.yul\":1558:1563   */\n      dup2\n        /* \"#utility.yul\":1554:1556   */\n      0x40\n        /* \"#utility.yul\":1550:1564   */\n      shl\n        /* \"#utility.yul\":1529:1564   */\n      swap1\n      pop\n        /* \"#utility.yul\":1477:1571   */\n      swap2\n      swap1\n      pop\n      jump\t// out\n        /* \"#utility.yul\":1577:1736   */\n    tag_24:\n        /* \"#utility.yul\":1634:1642   */\n      0x00\n        /* \"#utility.yul\":1665:1730   */\n      tag_57\n        /* \"#utility.yul\":1717:1727   */\n      0xffffffff\n        /* \"#utility.yul\":1707:1715   */\n      dup5\n        /* \"#utility.yul\":1703:1728   */\n      and\n        /* \"#utility.yul\":1682:1701   */\n      tag_58\n        /* \"#utility.yul\":1696:1700   */\n      dup5\n        /* \"#utility.yul\":1682:1701   */\n      tag_22\n      jump\t// in\n    tag_58:\n        /* \"#utility.yul\":1679:1729   */\n      or\n        /* \"#utility.yul\":1665:1730   */\n      tag_23\n      jump\t// in\n    tag_57:\n        /* \"#utility.yul\":1653:1730   */\n      swap1\n      pop\n        /* \"#utility.yul\":1577:1736   */\n      swap3\n      swap2\n      pop\n      pop\n      jump\t// out\n        /* \"#utility.yul\":1742:1971   */\n    tag_25:\n        /* \"#utility.yul\":1881:1888   */\n      0x00\n        /* \"#utility.yul\":1890:1903   */\n      dup1\n        /* \"#utility.yul\":1925:1929   */\n      dup3\n        /* \"#utility.yul\":1914:1929   */\n      swap2\n      pop\n        /* \"#utility.yul\":1955:1965   */\n      dup4\n        /* \"#utility.yul\":1938:1965   */\n      swap1\n      pop\n        /* \"#utility.yul\":1742:1971   */\n      swap3\n      pop\n      swap3\n      swap1\n      pop\n      jump\t// out\n        /* \"#utility.yul\":1977:2383   */\n    tag_26:\n        /* \"#utility.yul\":2181:2308   */\n      tag_61\n        /* \"#utility.yul\":2296:2307   */\n      dup3\n        /* \"#utility.yul\":2290:2294   */\n      dup3\n        /* \"#utility.yul\":2181:2308   */\n      tag_25\n      jump\t// in\n    tag_61:\n        /* \"#utility.yul\":2160:2308   */\n      swap3\n      pop\n      swap1\n      pop\n        /* \"#utility.yul\":2329:2376   */\n      tag_62\n        /* \"#utility.yul\":2364:2375   */\n      dup3\n        /* \"#utility.yul\":2358:2362   */\n      dup3\n        /* \"#utility.yul\":2329:2376   */\n      tag_24\n      jump\t// in\n    tag_62:\n        /* \"#utility.yul\":2324:2327   */\n      dup4\n        /* \"#utility.yul\":2317:2377   */\n      mstore\n        /* \"#utility.yul\":1977:2383   */\n      pop\n      pop\n      pop\n      jump\t// out\n        /* \"#utility.yul\":2389:2468   */\n    tag_27:\n        /* \"#utility.yul\":2428:2435   */\n      0x00\n        /* \"#utility.yul\":2457:2462   */\n      dup2\n        /* \"#utility.yul\":2446:2462   */\n      swap1\n      pop\n        /* \"#utility.yul\":2389:2468   */\n      swap2\n      swap1\n      pop\n      jump\t// out\n        /* \"#utility.yul\":2474:2631   */\n    tag_28:\n        /* \"#utility.yul\":2579:2624   */\n      tag_65\n        /* \"#utility.yul\":2599:2623   */\n      tag_66\n        /* \"#utility.yul\":2617:2622   */\n      dup3\n        /* \"#utility.yul\":2599:2623   */\n      tag_18\n      jump\t// in\n    tag_66:\n        /* \"#utility.yul\":2579:2624   */\n      tag_27\n      jump\t// in\n    tag_65:\n        /* \"#utility.yul\":2574:2577   */\n      dup3\n        /* \"#utility.yul\":2567:2625   */\n      mstore\n        /* \"#utility.yul\":2474:2631   */\n      pop\n      pop\n      jump\t// out\n        /* \"#utility.yul\":2637:2763   */\n    tag_29:\n        /* \"#utility.yul\":2674:2681   */\n      0x00\n        /* \"#utility.yul\":2714:2756   */\n      0xffffffffffffffffffffffffffffffffffffffff\n        /* \"#utility.yul\":2707:2712   */\n      dup3\n        /* \"#utility.yul\":2703:2757   */\n      and\n        /* \"#utility.yul\":2692:2757   */\n      swap1\n      pop\n        /* \"#utility.yul\":2637:2763   */\n      swap2\n      swap1\n      pop\n      jump\t// out\n        /* \"#utility.yul\":2769:2865   */\n    tag_30:\n        /* \"#utility.yul\":2806:2813   */\n      0x00\n        /* \"#utility.yul\":2835:2859   */\n      tag_69\n        /* \"#utility.yul\":2853:2858   */\n      dup3\n        /* \"#utility.yul\":2835:2859   */\n      tag_29\n      jump\t// in\n    tag_69:\n        /* \"#utility.yul\":2824:2859   */\n      swap1\n      pop\n        /* \"#utility.yul\":2769:2865   */\n      swap2\n      swap1\n      pop\n      jump\t// out\n        /* \"#utility.yul\":2871:2965   */\n    tag_31:\n        /* \"#utility.yul\":2904:2912   */\n      0x00\n        /* \"#utility.yul\":2952:2957   */\n      dup2\n        /* \"#utility.yul\":2948:2950   */\n      0x60\n        /* \"#utility.yul\":2944:2958   */\n      shl\n        /* \"#utility.yul\":2923:2958   */\n      swap1\n      pop\n        /* \"#utility.yul\":2871:2965   */\n      swap2\n      swap1\n      pop\n      jump\t// out\n        /* \"#utility.yul\":2971:3065   */\n    tag_32:\n        /* \"#utility.yul\":3010:3017   */\n      0x00\n        /* \"#utility.yul\":3039:3059   */\n      tag_72\n        /* \"#utility.yul\":3053:3058   */\n      dup3\n        /* \"#utility.yul\":3039:3059   */\n      tag_31\n      jump\t// in\n    tag_72:\n        /* \"#utility.yul\":3028:3059   */\n      swap1\n      pop\n        /* \"#utility.yul\":2971:3065   */\n      swap2\n      swap1\n      pop\n      jump\t// out\n        /* \"#utility.yul\":3071:3171   */\n    tag_33:\n        /* \"#utility.yul\":3110:3117   */\n      0x00\n        /* \"#utility.yul\":3139:3165   */\n      tag_74\n        /* \"#utility.yul\":3159:3164   */\n      dup3\n        /* \"#utility.yul\":3139:3165   */\n      tag_32\n      jump\t// in\n    tag_74:\n        /* \"#utility.yul\":3128:3165   */\n      swap1\n      pop\n        /* \"#utility.yul\":3071:3171   */\n      swap2\n      swap1\n      pop\n      jump\t// out\n        /* \"#utility.yul\":3177:3334   */\n    tag_34:\n        /* \"#utility.yul\":3282:3327   */\n      tag_76\n        /* \"#utility.yul\":3302:3326   */\n      tag_77\n        /* \"#utility.yul\":3320:3325   */\n      dup3\n        /* \"#utility.yul\":3302:3326   */\n      tag_30\n      jump\t// in\n    tag_77:\n        /* \"#utility.yul\":3282:3327   */\n      tag_33\n      jump\t// in\n    tag_76:\n        /* \"#utility.yul\":3277:3280   */\n      dup3\n        /* \"#utility.yul\":3270:3328   */\n      mstore\n        /* \"#utility.yul\":3177:3334   */\n      pop\n      pop\n      jump\t// out\n        /* \"#utility.yul\":3340:4191   */\n    tag_12:\n        /* \"#utility.yul\":3622:3625   */\n      0x00\n        /* \"#utility.yul\":3637:3798   */\n      tag_79\n        /* \"#utility.yul\":3794:3797   */\n      dup3\n        /* \"#utility.yul\":3785:3791   */\n      dup8\n        /* \"#utility.yul\":3777:3783   */\n      dup10\n        /* \"#utility.yul\":3637:3798   */\n      tag_26\n      jump\t// in\n    tag_79:\n        /* \"#utility.yul\":3823:3825   */\n      0x18\n        /* \"#utility.yul\":3818:3821   */\n      dup3\n        /* \"#utility.yul\":3814:3826   */\n      add\n        /* \"#utility.yul\":3807:3826   */\n      swap2\n      pop\n        /* \"#utility.yul\":3836:3911   */\n      tag_80\n        /* \"#utility.yul\":3907:3910   */\n      dup3\n        /* \"#utility.yul\":3898:3904   */\n      dup7\n        /* \"#utility.yul\":3836:3911   */\n      tag_28\n      jump\t// in\n    tag_80:\n        /* \"#utility.yul\":3936:3938   */\n      0x20\n        /* \"#utility.yul\":3931:3934   */\n      dup3\n        /* \"#utility.yul\":3927:3939   */\n      add\n        /* \"#utility.yul\":3920:3939   */\n      swap2\n      pop\n        /* \"#utility.yul\":3949:4024   */\n      tag_81\n        /* \"#utility.yul\":4020:4023   */\n      dup3\n        /* \"#utility.yul\":4011:4017   */\n      dup6\n        /* \"#utility.yul\":3949:4024   */\n      tag_28\n      jump\t// in\n    tag_81:\n        /* \"#utility.yul\":4049:4051   */\n      0x20\n        /* \"#utility.yul\":4044:4047   */\n      dup3\n        /* \"#utility.yul\":4040:4052   */\n      add\n        /* \"#utility.yul\":4033:4052   */\n      swap2\n      pop\n        /* \"#utility.yul\":4062:4137   */\n      tag_82\n        /* \"#utility.yul\":4133:4136   */\n      dup3\n        /* \"#utility.yul\":4124:4130   */\n      dup5\n        /* \"#utility.yul\":4062:4137   */\n      tag_34\n      jump\t// in\n    tag_82:\n        /* \"#utility.yul\":4162:4164   */\n      0x14\n        /* \"#utility.yul\":4157:4160   */\n      dup3\n        /* \"#utility.yul\":4153:4165   */\n      add\n        /* \"#utility.yul\":4146:4165   */\n      swap2\n      pop\n        /* \"#utility.yul\":4182:4185   */\n      dup2\n        /* \"#utility.yul\":4175:4185   */\n      swap1\n      pop\n        /* \"#utility.yul\":3340:4191   */\n      swap7\n      swap6\n      pop\n      pop\n      pop\n      pop\n      pop\n      pop\n      jump\t// out\n        /* \"#utility.yul\":4197:4377   */\n    tag_35:\n        /* \"#utility.yul\":4245:4322   */\n      0x4e487b7100000000000000000000000000000000000000000000000000000000\n        /* \"#utility.yul\":4242:4243   */\n      0x00\n        /* \"#utility.yul\":4235:4323   */\n      mstore\n        /* \"#utility.yul\":4342:4346   */\n      0x12\n        /* \"#utility.yul\":4339:4340   */\n      0x04\n        /* \"#utility.yul\":4332:4347   */\n      mstore\n        /* \"#utility.yul\":4366:4370   */\n      0x24\n        /* \"#utility.yul\":4363:4364   */\n      0x00\n        /* \"#utility.yul\":4356:4371   */\n      revert\n        /* \"#utility.yul\":4383:4559   */\n    tag_14:\n        /* \"#utility.yul\":4415:4416   */\n      0x00\n        /* \"#utility.yul\":4432:4452   */\n      tag_85\n        /* \"#utility.yul\":4450:4451   */\n      dup3\n        /* \"#utility.yul\":4432:4452   */\n      tag_18\n      jump\t// in\n    tag_85:\n        /* \"#utility.yul\":4427:4452   */\n      swap2\n      pop\n        /* \"#utility.yul\":4466:4486   */\n      tag_86\n        /* \"#utility.yul\":4484:4485   */\n      dup4\n        /* \"#utility.yul\":4466:4486   */\n      tag_18\n      jump\t// in\n    tag_86:\n        /* \"#utility.yul\":4461:4486   */\n      swap3\n      pop\n        /* \"#utility.yul\":4505:4506   */\n      dup3\n        /* \"#utility.yul\":4495:4530   */\n      tag_87\n      jumpi\n        /* \"#utility.yul\":4510:4528   */\n      tag_88\n      tag_35\n      jump\t// in\n    tag_88:\n        /* \"#utility.yul\":4495:4530   */\n    tag_87:\n        /* \"#utility.yul\":4551:4552   */\n      dup3\n        /* \"#utility.yul\":4548:4549   */\n      dup3\n        /* \"#utility.yul\":4544:4553   */\n      mod\n        /* \"#utility.yul\":4539:4553   */\n      swap1\n      pop\n        /* \"#utility.yul\":4383:4559   */\n      swap3\n      swap2\n      pop\n      pop\n      jump\t// out\n\n    auxdata: 0xa26469706673582212201ec36451b02e75af10fa2f00de61f171574cc7220b92e19440ffeb56ea13d0d864736f6c634300081a0033\n}\n",
				"bytecode": {
					"linkReferences": {},
					"object": "608060405234801561000f575f80fd5b5060405161044f38038061044f833981810160405281019061003191906100d4565b805f806101000a81548173ffffffffffffffffffffffffffffffffffffffff021916908373ffffffffffffffffffffffffffffffffffffffff160217905550506100ff565b5f80fd5b5f73ffffffffffffffffffffffffffffffffffffffff82169050919050565b5f6100a38261007a565b9050919050565b6100b381610099565b81146100bd575f80fd5b50565b5f815190506100ce816100aa565b92915050565b5f602082840312156100e9576100e8610076565b5b5f6100f6848285016100c0565b91505092915050565b6103438061010c5f395ff3fe608060405234801561000f575f80fd5b5060043610610029575f3560e01c8063805553e81461002d575b5f80fd5b61004760048036038101906100429190610111565b61005d565b604051610054919061014b565b60405180910390f35b5f815f8054906101000a900473ffffffffffffffffffffffffffffffffffffffff1673ffffffffffffffffffffffffffffffffffffffff16633b3dca764244336040516020016100b1959493929190610261565b604051602081830303815290604052805190602001205f1c6100d391906102dd565b9050919050565b5f80fd5b5f819050919050565b6100f0816100de565b81146100fa575f80fd5b50565b5f8135905061010b816100e7565b92915050565b5f60208284031215610126576101256100da565b5b5f610133848285016100fd565b91505092915050565b610145816100de565b82525050565b5f60208201905061015e5f83018461013c565b92915050565b5f8160201b9050919050565b5f8160401b9050919050565b5f61019663ffffffff841661019084610164565b17610170565b905092915050565b5f808291508390509250929050565b6101b7828261019e565b925090506101c5828261017c565b8352505050565b5f819050919050565b6101e66101e1826100de565b6101cc565b82525050565b5f73ffffffffffffffffffffffffffffffffffffffff82169050919050565b5f610215826101ec565b9050919050565b5f8160601b9050919050565b5f6102328261021c565b9050919050565b5f61024382610228565b9050919050565b61025b6102568261020b565b610239565b82525050565b5f61026d8287896101ad565b60188201915061027d82866101d5565b60208201915061028d82856101d5565b60208201915061029d828461024a565b6014820191508190509695505050505050565b7f4e487b71000000000000000000000000000000000000000000000000000000005f52601260045260245ffd5b5f6102e7826100de565b91506102f2836100de565b925082610302576103016102b0565b5b82820690509291505056fea26469706673582212201ec36451b02e75af10fa2f00de61f171574cc7220b92e19440ffeb56ea13d0d864736f6c634300081a0033",
					"opcodes": "PUSH1 0x80 PUSH1 0x40 MSTORE CALLVALUE DUP1 ISZERO PUSH2 0xF JUMPI PUSH0 DUP1 REVERT JUMPDEST POP PUSH1 0x40 MLOAD PUSH2 0x44F CODESIZE SUB DUP1 PUSH2 0x44F DUP4 CODECOPY DUP2 DUP2 ADD PUSH1 0x40 MSTORE DUP2 ADD SWAP1 PUSH2 0x31 SWAP2 SWAP1 PUSH2 0xD4 JUMP JUMPDEST DUP1 PUSH0 DUP1 PUSH2 0x100 EXP DUP2 SLOAD DUP2 PUSH20 0xFFFFFFFFFFFFFFFFFFFFFFFFFFFFFFFFFFFFFFFF MUL NOT AND SWAP1 DUP4 PUSH20 0xFFFFFFFFFFFFFFFFFFFFFFFFFFFFFFFFFFFFFFFF AND MUL OR SWAP1 SSTORE POP POP PUSH2 0xFF JUMP JUMPDEST PUSH0 DUP1 REVERT JUMPDEST PUSH0 PUSH20 0xFFFFFFFFFFFFFFFFFFFFFFFFFFFFFFFFFFFFFFFF DUP3 AND SWAP1 POP SWAP2 SWAP1 POP JUMP JUMPDEST PUSH0 PUSH2 0xA3 DUP3 PUSH2 0x7A JUMP JUMPDEST SWAP1 POP SWAP2 SWAP1 POP JUMP JUMPDEST PUSH2 0xB3 DUP2 PUSH2 0x99 JUMP JUMPDEST DUP2 EQ PUSH2 0xBD JUMPI PUSH0 DUP1 REVERT JUMPDEST POP JUMP JUMPDEST PUSH0 DUP2 MLOAD SWAP1 POP PUSH2 0xCE DUP2 PUSH2 0xAA JUMP JUMPDEST SWAP3 SWAP2 POP POP JUMP JUMPDEST PUSH0 PUSH1 0x20 DUP3 DUP5 SUB SLT ISZERO PUSH2 0xE9 JUMPI PUSH2 0xE8 PUSH2 0x76 JUMP JUMPDEST JUMPDEST PUSH0 PUSH2 0xF6 DUP5 DUP3 DUP6 ADD PUSH2 0xC0 JUMP JUMPDEST SWAP2 POP POP SWAP3 SWAP2 POP POP JUMP JUMPDEST PUSH2 0x343 DUP1 PUSH2 0x10C PUSH0 CODECOPY PUSH0 RETURN INVALID PUSH1 0x80 PUSH1 0x40 MSTORE CALLVALUE DUP1 ISZERO PUSH2 0xF JUMPI PUSH0 DUP1 REVERT JUMPDEST POP PUSH1 0x4 CALLDATASIZE LT PUSH2 0x29 JUMPI PUSH0 CALLDATALOAD PUSH1 0xE0 SHR DUP1 PUSH4 0x805553E8 EQ PUSH2 0x2D JUMPI JUMPDEST PUSH0 DUP1 REVERT JUMPDEST PUSH2 0x47 PUSH1 0x4 DUP1 CALLDATASIZE SUB DUP2 ADD SWAP1 PUSH2 0x42 SWAP2 SWAP1 PUSH2 0x111 JUMP JUMPDEST PUSH2 0x5D JUMP JUMPDEST PUSH1 0x40 MLOAD PUSH2 0x54 SWAP2 SWAP1 PUSH2 0x14B JUMP JUMPDEST PUSH1 0x40 MLOAD DUP1 SWAP2 SUB SWAP1 RETURN JUMPDEST PUSH0 DUP2 PUSH0 DUP1 SLOAD SWAP1 PUSH2 0x100 EXP SWAP1 DIV PUSH20 0xFFFFFFFFFFFFFFFFFFFFFFFFFFFFFFFFFFFFFFFF AND PUSH20 0xFFFFFFFFFFFFFFFFFFFFFFFFFFFFFFFFFFFFFFFF AND PUSH4 0x3B3DCA76 TIMESTAMP PREVRANDAO CALLER PUSH1 0x40 MLOAD PUSH1 0x20 ADD PUSH2 0xB1 SWAP6 SWAP5 SWAP4 SWAP3 SWAP2 SWAP1 PUSH2 0x261 JUMP JUMPDEST PUSH1 0x40 MLOAD PUSH1 0x20 DUP2 DUP4 SUB SUB DUP2 MSTORE SWAP1 PUSH1 0x40 MSTORE DUP1 MLOAD SWAP1 PUSH1 0x20 ADD KECCAK256 PUSH0 SHR PUSH2 0xD3 SWAP2 SWAP1 PUSH2 0x2DD JUMP JUMPDEST SWAP1 POP SWAP2 SWAP1 POP JUMP JUMPDEST PUSH0 DUP1 REVERT JUMPDEST PUSH0 DUP2 SWAP1 POP SWAP2 SWAP1 POP JUMP JUMPDEST PUSH2 0xF0 DUP2 PUSH2 0xDE JUMP JUMPDEST DUP2 EQ PUSH2 0xFA JUMPI PUSH0 DUP1 REVERT JUMPDEST POP JUMP JUMPDEST PUSH0 DUP2 CALLDATALOAD SWAP1 POP PUSH2 0x10B DUP2 PUSH2 0xE7 JUMP JUMPDEST SWAP3 SWAP2 POP POP JUMP JUMPDEST PUSH0 PUSH1 0x20 DUP3 DUP5 SUB SLT ISZERO PUSH2 0x126 JUMPI PUSH2 0x125 PUSH2 0xDA JUMP JUMPDEST JUMPDEST PUSH0 PUSH2 0x133 DUP5 DUP3 DUP6 ADD PUSH2 0xFD JUMP JUMPDEST SWAP2 POP POP SWAP3 SWAP2 POP POP JUMP JUMPDEST PUSH2 0x145 DUP2 PUSH2 0xDE JUMP JUMPDEST DUP3 MSTORE POP POP JUMP JUMPDEST PUSH0 PUSH1 0x20 DUP3 ADD SWAP1 POP PUSH2 0x15E PUSH0 DUP4 ADD DUP5 PUSH2 0x13C JUMP JUMPDEST SWAP3 SWAP2 POP POP JUMP JUMPDEST PUSH0 DUP2 PUSH1 0x20 SHL SWAP1 POP SWAP2 SWAP1 POP JUMP JUMPDEST PUSH0 DUP2 PUSH1 0x40 SHL SWAP1 POP SWAP2 SWAP1 POP JUMP JUMPDEST PUSH0 PUSH2 0x196 PUSH4 0xFFFFFFFF DUP5 AND PUSH2 0x190 DUP5 PUSH2 0x164 JUMP JUMPDEST OR PUSH2 0x170 JUMP JUMPDEST SWAP1 POP SWAP3 SWAP2 POP POP JUMP JUMPDEST PUSH0 DUP1 DUP3 SWAP2 POP DUP4 SWAP1 POP SWAP3 POP SWAP3 SWAP1 POP JUMP JUMPDEST PUSH2 0x1B7 DUP3 DUP3 PUSH2 0x19E JUMP JUMPDEST SWAP3 POP SWAP1 POP PUSH2 0x1C5 DUP3 DUP3 PUSH2 0x17C JUMP JUMPDEST DUP4 MSTORE POP POP POP JUMP JUMPDEST PUSH0 DUP2 SWAP1 POP SWAP2 SWAP1 POP JUMP JUMPDEST PUSH2 0x1E6 PUSH2 0x1E1 DUP3 PUSH2 0xDE JUMP JUMPDEST PUSH2 0x1CC JUMP JUMPDEST DUP3 MSTORE POP POP JUMP JUMPDEST PUSH0 PUSH20 0xFFFFFFFFFFFFFFFFFFFFFFFFFFFFFFFFFFFFFFFF DUP3 AND SWAP1 POP SWAP2 SWAP1 POP JUMP JUMPDEST PUSH0 PUSH2 0x215 DUP3 PUSH2 0x1EC JUMP JUMPDEST SWAP1 POP SWAP2 SWAP1 POP JUMP JUMPDEST PUSH0 DUP2 PUSH1 0x60 SHL SWAP1 POP SWAP2 SWAP1 POP JUMP JUMPDEST PUSH0 PUSH2 0x232 DUP3 PUSH2 0x21C JUMP JUMPDEST SWAP1 POP SWAP2 SWAP1 POP JUMP JUMPDEST PUSH0 PUSH2 0x243 DUP3 PUSH2 0x228 JUMP JUMPDEST SWAP1 POP SWAP2 SWAP1 POP JUMP JUMPDEST PUSH2 0x25B PUSH2 0x256 DUP3 PUSH2 0x20B JUMP JUMPDEST PUSH2 0x239 JUMP JUMPDEST DUP3 MSTORE POP POP JUMP JUMPDEST PUSH0 PUSH2 0x26D DUP3 DUP8 DUP10 PUSH2 0x1AD JUMP JUMPDEST PUSH1 0x18 DUP3 ADD SWAP2 POP PUSH2 0x27D DUP3 DUP7 PUSH2 0x1D5 JUMP JUMPDEST PUSH1 0x20 DUP3 ADD SWAP2 POP PUSH2 0x28D DUP3 DUP6 PUSH2 0x1D5 JUMP JUMPDEST PUSH1 0x20 DUP3 ADD SWAP2 POP PUSH2 0x29D DUP3 DUP5 PUSH2 0x24A JUMP JUMPDEST PUSH1 0x14 DUP3 ADD SWAP2 POP DUP2 SWAP1 POP SWAP7 SWAP6 POP POP POP POP POP POP JUMP JUMPDEST PUSH32 0x4E487B7100000000000000000000000000000000000000000000000000000000 PUSH0 MSTORE PUSH1 0x12 PUSH1 0x4 MSTORE PUSH1 0x24 PUSH0 REVERT JUMPDEST PUSH0 PUSH2 0x2E7 DUP3 PUSH2 0xDE JUMP JUMPDEST SWAP2 POP PUSH2 0x2F2 DUP4 PUSH2 0xDE JUMP JUMPDEST SWAP3 POP DUP3 PUSH2 0x302 JUMPI PUSH2 0x301 PUSH2 0x2B0 JUMP JUMPDEST JUMPDEST DUP3 DUP3 MOD SWAP1 POP SWAP3 SWAP2 POP POP JUMP INVALID LOG2 PUSH5 0x6970667358 0x22 SLT KECCAK256 0x1E 0xC3 PUSH5 0x51B02E75AF LT STATICCALL 0x2F STOP 0xDE PUSH2 0xF171 JUMPI 0x4C 0xC7 0x22 SIGNEXTEND SWAP3 0xE1 SWAP5 BLOCKHASH SELFDESTRUCT 0xEB JUMP 0xEA SGT 0xD0 0xD8 PUSH5 0x736F6C6343 STOP ADDMOD BYTE STOP CALLER "
				},
				"gasEstimates": {
					"creation": {
						"codeDepositCost": "167000",
						"executionCost": "infinite",
						"totalCost": "infinite"
					},
					"external": {
						"randMod(uint256)": "infinite"
					}
				},
				"methodIdentifiers": {
					"randMod(uint256)": "805553e8"
				}
			},
			"storageLayout": {
				"storage": [
					{
						"astId": 35,
						"contract": "contracts/cryptographic.sol:GenerateRandomNumber",
						"label": "oracle",
						"offset": 0,
						"slot": "0",
						"type": "t_contract(Oracle)32"
					}
				],
				"types": {
					"t_contract(Oracle)32": {
						"encoding": "inplace",
						"label": "contract Oracle",
						"numberOfBytes": "20"
					}
				}
			},
			"userdoc": {
				"kind": "user",
				"methods": {},
				"version": 1
			}
		}
	}
}