{
	"contracts/decisionMaking.sol": {
		"DecisionMaking": {
			"abi": [
				{
					"inputs": [],
					"name": "airDrop",
					"outputs": [
						{
							"internalType": "uint256",
							"name": "",
							"type": "uint256"
						}
					],
					"stateMutability": "view",
					"type": "function"
				},
				{
					"inputs": [],
					"name": "validateOranges",
					"outputs": [
						{
							"internalType": "bool",
							"name": "",
							"type": "bool"
						}
					],
					"stateMutability": "view",
					"type": "function"
				}
			],
			"devdoc": {
				"kind": "dev",
				"methods": {},
				"version": 1
			},
			"evm": {
				"assembly": "    /* \"contracts/decisionMaking.sol\":69:610  contract DecisionMaking{... */\n  mstore(0x40, 0x80)\n    /* \"contracts/decisionMaking.sol\":114:115  5 */\n  0x05\n    /* \"contracts/decisionMaking.sol\":99:115  uint oranges = 5 */\n  0x00\n  sstore\n    /* \"contracts/decisionMaking.sol\":402:403  8 */\n  0x08\n    /* \"contracts/decisionMaking.sol\":382:403  uint stakingWallet =8 */\n  0x01\n  sstore\n    /* \"contracts/decisionMaking.sol\":69:610  contract DecisionMaking{... */\n  callvalue\n  dup1\n  iszero\n  tag_1\n  jumpi\n  0x00\n  dup1\n  revert\ntag_1:\n  pop\n  dataSize(sub_0)\n  dup1\n  dataOffset(sub_0)\n  0x00\n  codecopy\n  0x00\n  return\nstop\n\nsub_0: assembly {\n        /* \"contracts/decisionMaking.sol\":69:610  contract DecisionMaking{... */\n      mstore(0x40, 0x80)\n      callvalue\n      dup1\n      iszero\n      tag_1\n      jumpi\n      0x00\n      dup1\n      revert\n    tag_1:\n      pop\n      jumpi(tag_2, lt(calldatasize, 0x04))\n      shr(0xe0, calldataload(0x00))\n      dup1\n      0xb4a4fad8\n      eq\n      tag_3\n      jumpi\n      dup1\n      0xca5d0880\n      eq\n      tag_4\n      jumpi\n    tag_2:\n      0x00\n      dup1\n      revert\n        /* \"contracts/decisionMaking.sol\":122:376  function validateOranges() public view returns(bool){... */\n    tag_3:\n      tag_5\n      tag_6\n      jump\t// in\n    tag_5:\n      mload(0x40)\n      tag_7\n      swap2\n      swap1\n      tag_8\n      jump\t// in\n    tag_7:\n      mload(0x40)\n      dup1\n      swap2\n      sub\n      swap1\n      return\n        /* \"contracts/decisionMaking.sol\":410:599  function airDrop() public view returns(uint){... */\n    tag_4:\n      tag_9\n      tag_10\n      jump\t// in\n    tag_9:\n      mload(0x40)\n      tag_11\n      swap2\n      swap1\n      tag_12\n      jump\t// in\n    tag_11:\n      mload(0x40)\n      dup1\n      swap2\n      sub\n      swap1\n      return\n        /* \"contracts/decisionMaking.sol\":122:376  function validateOranges() public view returns(bool){... */\n    tag_6:\n        /* \"contracts/decisionMaking.sol\":169:173  bool */\n      0x00\n        /* \"contracts/decisionMaking.sol\":275:276  5 */\n      0x05\n        /* \"contracts/decisionMaking.sol\":265:272  oranges */\n      sload(0x00)\n        /* \"contracts/decisionMaking.sol\":265:276  oranges== 5 */\n      sub\n        /* \"contracts/decisionMaking.sol\":262:369  if(oranges== 5 )... */\n      tag_14\n      jumpi\n        /* \"contracts/decisionMaking.sol\":310:314  true */\n      0x01\n        /* \"contracts/decisionMaking.sol\":303:314  return true */\n      swap1\n      pop\n      jump(tag_13)\n        /* \"contracts/decisionMaking.sol\":262:369  if(oranges== 5 )... */\n    tag_14:\n        /* \"contracts/decisionMaking.sol\":352:357  false */\n      0x00\n        /* \"contracts/decisionMaking.sol\":345:357  return false */\n      swap1\n      pop\n        /* \"contracts/decisionMaking.sol\":122:376  function validateOranges() public view returns(bool){... */\n    tag_13:\n      swap1\n      jump\t// out\n        /* \"contracts/decisionMaking.sol\":410:599  function airDrop() public view returns(uint){... */\n    tag_10:\n        /* \"contracts/decisionMaking.sol\":449:453  uint */\n      0x00\n        /* \"contracts/decisionMaking.sol\":484:486  10 */\n      0x0a\n        /* \"contracts/decisionMaking.sol\":468:481  stakingWallet */\n      sload(0x01)\n        /* \"contracts/decisionMaking.sol\":468:486  stakingWallet ==10 */\n      sub\n        /* \"contracts/decisionMaking.sol\":465:592  if(stakingWallet ==10){... */\n      tag_17\n      jumpi\n        /* \"contracts/decisionMaking.sol\":523:525  10 */\n      0x0a\n        /* \"contracts/decisionMaking.sol\":508:521  stakingWallet */\n      sload(0x01)\n        /* \"contracts/decisionMaking.sol\":508:525  stakingWallet +10 */\n      tag_18\n      swap2\n      swap1\n      tag_19\n      jump\t// in\n    tag_18:\n        /* \"contracts/decisionMaking.sol\":501:525  return stakingWallet +10 */\n      swap1\n      pop\n      jump(tag_16)\n        /* \"contracts/decisionMaking.sol\":465:592  if(stakingWallet ==10){... */\n    tag_17:\n        /* \"contracts/decisionMaking.sol\":579:580  1 */\n      0x01\n        /* \"contracts/decisionMaking.sol\":564:577  stakingWallet */\n      dup1\n      sload\n        /* \"contracts/decisionMaking.sol\":564:580  stakingWallet +1 */\n      tag_21\n      swap2\n      swap1\n      tag_19\n      jump\t// in\n    tag_21:\n        /* \"contracts/decisionMaking.sol\":557:580  return stakingWallet +1 */\n      swap1\n      pop\n        /* \"contracts/decisionMaking.sol\":410:599  function airDrop() public view returns(uint){... */\n    tag_16:\n      swap1\n      jump\t// out\n        /* \"#utility.yul\":7:97   */\n    tag_22:\n        /* \"#utility.yul\":41:48   */\n      0x00\n        /* \"#utility.yul\":84:89   */\n      dup2\n        /* \"#utility.yul\":77:90   */\n      iszero\n        /* \"#utility.yul\":70:91   */\n      iszero\n        /* \"#utility.yul\":59:91   */\n      swap1\n      pop\n        /* \"#utility.yul\":7:97   */\n      swap2\n      swap1\n      pop\n      jump\t// out\n        /* \"#utility.yul\":103:212   */\n    tag_23:\n        /* \"#utility.yul\":184:205   */\n      tag_30\n        /* \"#utility.yul\":199:204   */\n      dup2\n        /* \"#utility.yul\":184:205   */\n      tag_22\n      jump\t// in\n    tag_30:\n        /* \"#utility.yul\":179:182   */\n      dup3\n        /* \"#utility.yul\":172:206   */\n      mstore\n        /* \"#utility.yul\":103:212   */\n      pop\n      pop\n      jump\t// out\n        /* \"#utility.yul\":218:428   */\n    tag_8:\n        /* \"#utility.yul\":305:309   */\n      0x00\n        /* \"#utility.yul\":343:345   */\n      0x20\n        /* \"#utility.yul\":332:341   */\n      dup3\n        /* \"#utility.yul\":328:346   */\n      add\n        /* \"#utility.yul\":320:346   */\n      swap1\n      pop\n        /* \"#utility.yul\":356:421   */\n      tag_32\n        /* \"#utility.yul\":418:419   */\n      0x00\n        /* \"#utility.yul\":407:416   */\n      dup4\n        /* \"#utility.yul\":403:420   */\n      add\n        /* \"#utility.yul\":394:400   */\n      dup5\n        /* \"#utility.yul\":356:421   */\n      tag_23\n      jump\t// in\n    tag_32:\n        /* \"#utility.yul\":218:428   */\n      swap3\n      swap2\n      pop\n      pop\n      jump\t// out\n        /* \"#utility.yul\":434:511   */\n    tag_24:\n        /* \"#utility.yul\":471:478   */\n      0x00\n        /* \"#utility.yul\":500:505   */\n      dup2\n        /* \"#utility.yul\":489:505   */\n      swap1\n      pop\n        /* \"#utility.yul\":434:511   */\n      swap2\n      swap1\n      pop\n      jump\t// out\n        /* \"#utility.yul\":517:635   */\n    tag_25:\n        /* \"#utility.yul\":604:628   */\n      tag_35\n        /* \"#utility.yul\":622:627   */\n      dup2\n        /* \"#utility.yul\":604:628   */\n      tag_24\n      jump\t// in\n    tag_35:\n        /* \"#utility.yul\":599:602   */\n      dup3\n        /* \"#utility.yul\":592:629   */\n      mstore\n        /* \"#utility.yul\":517:635   */\n      pop\n      pop\n      jump\t// out\n        /* \"#utility.yul\":641:863   */\n    tag_12:\n        /* \"#utility.yul\":734:738   */\n      0x00\n        /* \"#utility.yul\":772:774   */\n      0x20\n        /* \"#utility.yul\":761:770   */\n      dup3\n        /* \"#utility.yul\":757:775   */\n      add\n        /* \"#utility.yul\":749:775   */\n      swap1\n      pop\n        /* \"#utility.yul\":785:856   */\n      tag_37\n        /* \"#utility.yul\":853:854   */\n      0x00\n        /* \"#utility.yul\":842:851   */\n      dup4\n        /* \"#utility.yul\":838:855   */\n      add\n        /* \"#utility.yul\":829:835   */\n      dup5\n        /* \"#utility.yul\":785:856   */\n      tag_25\n      jump\t// in\n    tag_37:\n        /* \"#utility.yul\":641:863   */\n      swap3\n      swap2\n      pop\n      pop\n      jump\t// out\n        /* \"#utility.yul\":869:1049   */\n    tag_26:\n        /* \"#utility.yul\":917:994   */\n      0x4e487b7100000000000000000000000000000000000000000000000000000000\n        /* \"#utility.yul\":914:915   */\n      0x00\n        /* \"#utility.yul\":907:995   */\n      mstore\n        /* \"#utility.yul\":1014:1018   */\n      0x11\n        /* \"#utility.yul\":1011:1012   */\n      0x04\n        /* \"#utility.yul\":1004:1019   */\n      mstore\n        /* \"#utility.yul\":1038:1042   */\n      0x24\n        /* \"#utility.yul\":1035:1036   */\n      0x00\n        /* \"#utility.yul\":1028:1043   */\n      revert\n        /* \"#utility.yul\":1055:1246   */\n    tag_19:\n        /* \"#utility.yul\":1095:1098   */\n      0x00\n        /* \"#utility.yul\":1114:1134   */\n      tag_40\n        /* \"#utility.yul\":1132:1133   */\n      dup3\n        /* \"#utility.yul\":1114:1134   */\n      tag_24\n      jump\t// in\n    tag_40:\n        /* \"#utility.yul\":1109:1134   */\n      swap2\n      pop\n        /* \"#utility.yul\":1148:1168   */\n      tag_41\n        /* \"#utility.yul\":1166:1167   */\n      dup4\n        /* \"#utility.yul\":1148:1168   */\n      tag_24\n      jump\t// in\n    tag_41:\n        /* \"#utility.yul\":1143:1168   */\n      swap3\n      pop\n        /* \"#utility.yul\":1191:1192   */\n      dup3\n        /* \"#utility.yul\":1188:1189   */\n      dup3\n        /* \"#utility.yul\":1184:1193   */\n      add\n        /* \"#utility.yul\":1177:1193   */\n      swap1\n      pop\n        /* \"#utility.yul\":1212:1215   */\n      dup1\n        /* \"#utility.yul\":1209:1210   */\n      dup3\n        /* \"#utility.yul\":1206:1216   */\n      gt\n        /* \"#utility.yul\":1203:1239   */\n      iszero\n      tag_42\n      jumpi\n        /* \"#utility.yul\":1219:1237   */\n      tag_43\n      tag_26\n      jump\t// in\n    tag_43:\n        /* \"#utility.yul\":1203:1239   */\n    tag_42:\n        /* \"#utility.yul\":1055:1246   */\n      swap3\n      swap2\n      pop\n      pop\n      jump\t// out\n\n    auxdata: 0xa2646970667358221220cd60b339cd94f0f915a61cdeae64213eb5242fe11ff7e1ca3a6f616b42490e9564736f6c634300081a0033\n}\n",
				"bytecode": {
					"linkReferences": {},
					"object": "608060405260055f5560086001553480156017575f80fd5b506101bd806100255f395ff3fe608060405234801561000f575f80fd5b5060043610610034575f3560e01c8063b4a4fad814610038578063ca5d088014610056575b5f80fd5b610040610074565b60405161004d91906100dd565b60405180910390f35b61005e61008e565b60405161006b919061010e565b60405180910390f35b5f60055f5403610087576001905061008b565b5f90505b90565b5f600a600154036100af57600a6001546100a89190610154565b90506100c0565b600180546100bd9190610154565b90505b90565b5f8115159050919050565b6100d7816100c3565b82525050565b5f6020820190506100f05f8301846100ce565b92915050565b5f819050919050565b610108816100f6565b82525050565b5f6020820190506101215f8301846100ff565b92915050565b7f4e487b71000000000000000000000000000000000000000000000000000000005f52601160045260245ffd5b5f61015e826100f6565b9150610169836100f6565b925082820190508082111561018157610180610127565b5b9291505056fea2646970667358221220cd60b339cd94f0f915a61cdeae64213eb5242fe11ff7e1ca3a6f616b42490e9564736f6c634300081a0033",
					"opcodes": "PUSH1 0x80 PUSH1 0x40 MSTORE PUSH1 0x5 PUSH0 SSTORE PUSH1 0x8 PUSH1 0x1 SSTORE CALLVALUE DUP1 ISZERO PUSH1 0x17 JUMPI PUSH0 DUP1 REVERT JUMPDEST POP PUSH2 0x1BD DUP1 PUSH2 0x25 PUSH0 CODECOPY PUSH0 RETURN INVALID PUSH1 0x80 PUSH1 0x40 MSTORE CALLVALUE DUP1 ISZERO PUSH2 0xF JUMPI PUSH0 DUP1 REVERT JUMPDEST POP PUSH1 0x4 CALLDATASIZE LT PUSH2 0x34 JUMPI PUSH0 CALLDATALOAD PUSH1 0xE0 SHR DUP1 PUSH4 0xB4A4FAD8 EQ PUSH2 0x38 JUMPI DUP1 PUSH4 0xCA5D0880 EQ PUSH2 0x56 JUMPI JUMPDEST PUSH0 DUP1 REVERT JUMPDEST PUSH2 0x40 PUSH2 0x74 JUMP JUMPDEST PUSH1 0x40 MLOAD PUSH2 0x4D SWAP2 SWAP1 PUSH2 0xDD JUMP JUMPDEST PUSH1 0x40 MLOAD DUP1 SWAP2 SUB SWAP1 RETURN JUMPDEST PUSH2 0x5E PUSH2 0x8E JUMP JUMPDEST PUSH1 0x40 MLOAD PUSH2 0x6B SWAP2 SWAP1 PUSH2 0x10E JUMP JUMPDEST PUSH1 0x40 MLOAD DUP1 SWAP2 SUB SWAP1 RETURN JUMPDEST PUSH0 PUSH1 0x5 PUSH0 SLOAD SUB PUSH2 0x87 JUMPI PUSH1 0x1 SWAP1 POP PUSH2 0x8B JUMP JUMPDEST PUSH0 SWAP1 POP JUMPDEST SWAP1 JUMP JUMPDEST PUSH0 PUSH1 0xA PUSH1 0x1 SLOAD SUB PUSH2 0xAF JUMPI PUSH1 0xA PUSH1 0x1 SLOAD PUSH2 0xA8 SWAP2 SWAP1 PUSH2 0x154 JUMP JUMPDEST SWAP1 POP PUSH2 0xC0 JUMP JUMPDEST PUSH1 0x1 DUP1 SLOAD PUSH2 0xBD SWAP2 SWAP1 PUSH2 0x154 JUMP JUMPDEST SWAP1 POP JUMPDEST SWAP1 JUMP JUMPDEST PUSH0 DUP2 ISZERO ISZERO SWAP1 POP SWAP2 SWAP1 POP JUMP JUMPDEST PUSH2 0xD7 DUP2 PUSH2 0xC3 JUMP JUMPDEST DUP3 MSTORE POP POP JUMP JUMPDEST PUSH0 PUSH1 0x20 DUP3 ADD SWAP1 POP PUSH2 0xF0 PUSH0 DUP4 ADD DUP5 PUSH2 0xCE JUMP JUMPDEST SWAP3 SWAP2 POP POP JUMP JUMPDEST PUSH0 DUP2 SWAP1 POP SWAP2 SWAP1 POP JUMP JUMPDEST PUSH2 0x108 DUP2 PUSH2 0xF6 JUMP JUMPDEST DUP3 MSTORE POP POP JUMP JUMPDEST PUSH0 PUSH1 0x20 DUP3 ADD SWAP1 POP PUSH2 0x121 PUSH0 DUP4 ADD DUP5 PUSH2 0xFF JUMP JUMPDEST SWAP3 SWAP2 POP POP JUMP JUMPDEST PUSH32 0x4E487B7100000000000000000000000000000000000000000000000000000000 PUSH0 MSTORE PUSH1 0x11 PUSH1 0x4 MSTORE PUSH1 0x24 PUSH0 REVERT JUMPDEST PUSH0 PUSH2 0x15E DUP3 PUSH2 0xF6 JUMP JUMPDEST SWAP2 POP PUSH2 0x169 DUP4 PUSH2 0xF6 JUMP JUMPDEST SWAP3 POP DUP3 DUP3 ADD SWAP1 POP DUP1 DUP3 GT ISZERO PUSH2 0x181 JUMPI PUSH2 0x180 PUSH2 0x127 JUMP JUMPDEST JUMPDEST SWAP3 SWAP2 POP POP JUMP INVALID LOG2 PUSH5 0x6970667358 0x22 SLT KECCAK256 0xCD PUSH1 0xB3 CODECOPY 0xCD SWAP5 CREATE 0xF9 ISZERO 0xA6 SHR 0xDE 0xAE PUSH5 0x213EB5242F 0xE1 0x1F 0xF7 0xE1 0xCA GASPRICE PUSH16 0x616B42490E9564736F6C634300081A00 CALLER "
				},
				"gasEstimates": {
					"creation": {
						"codeDepositCost": "89000",
						"executionCost": "44344",
						"totalCost": "133344"
					},
					"external": {
						"airDrop()": "infinite",
						"validateOranges()": "2449"
					}
				},
				"methodIdentifiers": {
					"airDrop()": "ca5d0880",
					"validateOranges()": "b4a4fad8"
				}
			},
			"storageLayout": {
				"storage": [
					{
						"astId": 4,
						"contract": "contracts/decisionMaking.sol:DecisionMaking",
						"label": "oranges",
						"offset": 0,
						"slot": "0",
						"type": "t_uint256"
					},
					{
						"astId": 23,
						"contract": "contracts/decisionMaking.sol:DecisionMaking",
						"label": "stakingWallet",
						"offset": 0,
						"slot": "1",
						"type": "t_uint256"
					}
				],
				"types": {
					"t_uint256": {
						"encoding": "inplace",
						"label": "uint256",
						"numberOfBytes": "32"
					}
				}
			},
			"userdoc": {
				"kind": "user",
				"methods": {},
				"version": 1
			}
		}
	}
}