{
	"contracts/advanced/events.sol": {
		"LearnEvents": {
			"abi": [
				{
					"anonymous": false,
					"inputs": [
						{
							"indexed": true,
							"internalType": "uint256",
							"name": "date",
							"type": "uint256"
						},
						{
							"indexed": false,
							"internalType": "address",
							"name": "from",
							"type": "address"
						},
						{
							"indexed": true,
							"internalType": "address",
							"name": "to",
							"type": "address"
						},
						{
							"indexed": true,
							"internalType": "uint256",
							"name": "amount",
							"type": "uint256"
						}
					],
					"name": "NewTrade",
					"type": "event"
				},
				{
					"inputs": [
						{
							"internalType": "address",
							"name": "to",
							"type": "address"
						},
						{
							"internalType": "uint256",
							"name": "amount",
							"type": "uint256"
						}
					],
					"name": "trade",
					"outputs": [],
					"stateMutability": "nonpayable",
					"type": "function"
				}
			],
			"devdoc": {
				"kind": "dev",
				"methods": {},
				"version": 1
			},
			"evm": {
				"assembly": "    /* \"contracts/advanced/events.sol\":67:533  contract LearnEvents{... */\n  mstore(0x40, 0x80)\n  callvalue\n  dup1\n  iszero\n  tag_1\n  jumpi\n  0x00\n  dup1\n  revert\ntag_1:\n  pop\n  dataSize(sub_0)\n  dup1\n  dataOffset(sub_0)\n  0x00\n  codecopy\n  0x00\n  return\nstop\n\nsub_0: assembly {\n        /* \"contracts/advanced/events.sol\":67:533  contract LearnEvents{... */\n      mstore(0x40, 0x80)\n      callvalue\n      dup1\n      iszero\n      tag_1\n      jumpi\n      0x00\n      dup1\n      revert\n    tag_1:\n      pop\n      jumpi(tag_2, lt(calldatasize, 0x04))\n      shr(0xe0, calldataload(0x00))\n      dup1\n      0x68f8c2a4\n      eq\n      tag_3\n      jumpi\n    tag_2:\n      0x00\n      dup1\n      revert\n        /* \"contracts/advanced/events.sol\":266:530  function trade(address to, uint amount)external {... */\n    tag_3:\n      tag_4\n      0x04\n      dup1\n      calldatasize\n      sub\n      dup2\n      add\n      swap1\n      tag_5\n      swap2\n      swap1\n      tag_6\n      jump\t// in\n    tag_5:\n      tag_7\n      jump\t// in\n    tag_4:\n      stop\n    tag_7:\n        /* \"contracts/advanced/events.sol\":515:521  amount */\n      dup1\n        /* \"contracts/advanced/events.sol\":511:513  to */\n      dup3\n        /* \"contracts/advanced/events.sol\":474:522  NewTrade(block.timestamp,msg.sender, to, amount) */\n      0xffffffffffffffffffffffffffffffffffffffff\n      and\n        /* \"contracts/advanced/events.sol\":483:498  block.timestamp */\n      timestamp\n        /* \"contracts/advanced/events.sol\":474:522  NewTrade(block.timestamp,msg.sender, to, amount) */\n      0xa6b5ddd331f9dc412a8c258207b1c66f53c1740c72628d9913aafcb6b28d8f73\n        /* \"contracts/advanced/events.sol\":499:509  msg.sender */\n      caller\n        /* \"contracts/advanced/events.sol\":474:522  NewTrade(block.timestamp,msg.sender, to, amount) */\n      mload(0x40)\n      tag_9\n      swap2\n      swap1\n      tag_10\n      jump\t// in\n    tag_9:\n      mload(0x40)\n      dup1\n      swap2\n      sub\n      swap1\n      log4\n        /* \"contracts/advanced/events.sol\":266:530  function trade(address to, uint amount)external {... */\n      pop\n      pop\n      jump\t// out\n        /* \"#utility.yul\":88:205   */\n    tag_12:\n        /* \"#utility.yul\":197:198   */\n      0x00\n        /* \"#utility.yul\":194:195   */\n      dup1\n        /* \"#utility.yul\":187:199   */\n      revert\n        /* \"#utility.yul\":334:460   */\n    tag_14:\n        /* \"#utility.yul\":371:378   */\n      0x00\n        /* \"#utility.yul\":411:453   */\n      0xffffffffffffffffffffffffffffffffffffffff\n        /* \"#utility.yul\":404:409   */\n      dup3\n        /* \"#utility.yul\":400:454   */\n      and\n        /* \"#utility.yul\":389:454   */\n      swap1\n      pop\n        /* \"#utility.yul\":334:460   */\n      swap2\n      swap1\n      pop\n      jump\t// out\n        /* \"#utility.yul\":466:562   */\n    tag_15:\n        /* \"#utility.yul\":503:510   */\n      0x00\n        /* \"#utility.yul\":532:556   */\n      tag_28\n        /* \"#utility.yul\":550:555   */\n      dup3\n        /* \"#utility.yul\":532:556   */\n      tag_14\n      jump\t// in\n    tag_28:\n        /* \"#utility.yul\":521:556   */\n      swap1\n      pop\n        /* \"#utility.yul\":466:562   */\n      swap2\n      swap1\n      pop\n      jump\t// out\n        /* \"#utility.yul\":568:690   */\n    tag_16:\n        /* \"#utility.yul\":641:665   */\n      tag_30\n        /* \"#utility.yul\":659:664   */\n      dup2\n        /* \"#utility.yul\":641:665   */\n      tag_15\n      jump\t// in\n    tag_30:\n        /* \"#utility.yul\":634:639   */\n      dup2\n        /* \"#utility.yul\":631:666   */\n      eq\n        /* \"#utility.yul\":621:684   */\n      tag_31\n      jumpi\n        /* \"#utility.yul\":680:681   */\n      0x00\n        /* \"#utility.yul\":677:678   */\n      dup1\n        /* \"#utility.yul\":670:682   */\n      revert\n        /* \"#utility.yul\":621:684   */\n    tag_31:\n        /* \"#utility.yul\":568:690   */\n      pop\n      jump\t// out\n        /* \"#utility.yul\":696:835   */\n    tag_17:\n        /* \"#utility.yul\":742:747   */\n      0x00\n        /* \"#utility.yul\":780:786   */\n      dup2\n        /* \"#utility.yul\":767:787   */\n      calldataload\n        /* \"#utility.yul\":758:787   */\n      swap1\n      pop\n        /* \"#utility.yul\":796:829   */\n      tag_33\n        /* \"#utility.yul\":823:828   */\n      dup2\n        /* \"#utility.yul\":796:829   */\n      tag_16\n      jump\t// in\n    tag_33:\n        /* \"#utility.yul\":696:835   */\n      swap3\n      swap2\n      pop\n      pop\n      jump\t// out\n        /* \"#utility.yul\":841:918   */\n    tag_18:\n        /* \"#utility.yul\":878:885   */\n      0x00\n        /* \"#utility.yul\":907:912   */\n      dup2\n        /* \"#utility.yul\":896:912   */\n      swap1\n      pop\n        /* \"#utility.yul\":841:918   */\n      swap2\n      swap1\n      pop\n      jump\t// out\n        /* \"#utility.yul\":924:1046   */\n    tag_19:\n        /* \"#utility.yul\":997:1021   */\n      tag_36\n        /* \"#utility.yul\":1015:1020   */\n      dup2\n        /* \"#utility.yul\":997:1021   */\n      tag_18\n      jump\t// in\n    tag_36:\n        /* \"#utility.yul\":990:995   */\n      dup2\n        /* \"#utility.yul\":987:1022   */\n      eq\n        /* \"#utility.yul\":977:1040   */\n      tag_37\n      jumpi\n        /* \"#utility.yul\":1036:1037   */\n      0x00\n        /* \"#utility.yul\":1033:1034   */\n      dup1\n        /* \"#utility.yul\":1026:1038   */\n      revert\n        /* \"#utility.yul\":977:1040   */\n    tag_37:\n        /* \"#utility.yul\":924:1046   */\n      pop\n      jump\t// out\n        /* \"#utility.yul\":1052:1191   */\n    tag_20:\n        /* \"#utility.yul\":1098:1103   */\n      0x00\n        /* \"#utility.yul\":1136:1142   */\n      dup2\n        /* \"#utility.yul\":1123:1143   */\n      calldataload\n        /* \"#utility.yul\":1114:1143   */\n      swap1\n      pop\n        /* \"#utility.yul\":1152:1185   */\n      tag_39\n        /* \"#utility.yul\":1179:1184   */\n      dup2\n        /* \"#utility.yul\":1152:1185   */\n      tag_19\n      jump\t// in\n    tag_39:\n        /* \"#utility.yul\":1052:1191   */\n      swap3\n      swap2\n      pop\n      pop\n      jump\t// out\n        /* \"#utility.yul\":1197:1671   */\n    tag_6:\n        /* \"#utility.yul\":1265:1271   */\n      0x00\n        /* \"#utility.yul\":1273:1279   */\n      dup1\n        /* \"#utility.yul\":1322:1324   */\n      0x40\n        /* \"#utility.yul\":1310:1319   */\n      dup4\n        /* \"#utility.yul\":1301:1308   */\n      dup6\n        /* \"#utility.yul\":1297:1320   */\n      sub\n        /* \"#utility.yul\":1293:1325   */\n      slt\n        /* \"#utility.yul\":1290:1409   */\n      iszero\n      tag_41\n      jumpi\n        /* \"#utility.yul\":1328:1407   */\n      tag_42\n      tag_12\n      jump\t// in\n    tag_42:\n        /* \"#utility.yul\":1290:1409   */\n    tag_41:\n        /* \"#utility.yul\":1448:1449   */\n      0x00\n        /* \"#utility.yul\":1473:1526   */\n      tag_43\n        /* \"#utility.yul\":1518:1525   */\n      dup6\n        /* \"#utility.yul\":1509:1515   */\n      dup3\n        /* \"#utility.yul\":1498:1507   */\n      dup7\n        /* \"#utility.yul\":1494:1516   */\n      add\n        /* \"#utility.yul\":1473:1526   */\n      tag_17\n      jump\t// in\n    tag_43:\n        /* \"#utility.yul\":1463:1526   */\n      swap3\n      pop\n        /* \"#utility.yul\":1419:1536   */\n      pop\n        /* \"#utility.yul\":1575:1577   */\n      0x20\n        /* \"#utility.yul\":1601:1654   */\n      tag_44\n        /* \"#utility.yul\":1646:1653   */\n      dup6\n        /* \"#utility.yul\":1637:1643   */\n      dup3\n        /* \"#utility.yul\":1626:1635   */\n      dup7\n        /* \"#utility.yul\":1622:1644   */\n      add\n        /* \"#utility.yul\":1601:1654   */\n      tag_20\n      jump\t// in\n    tag_44:\n        /* \"#utility.yul\":1591:1654   */\n      swap2\n      pop\n        /* \"#utility.yul\":1546:1664   */\n      pop\n        /* \"#utility.yul\":1197:1671   */\n      swap3\n      pop\n      swap3\n      swap1\n      pop\n      jump\t// out\n        /* \"#utility.yul\":1677:1795   */\n    tag_21:\n        /* \"#utility.yul\":1764:1788   */\n      tag_46\n        /* \"#utility.yul\":1782:1787   */\n      dup2\n        /* \"#utility.yul\":1764:1788   */\n      tag_15\n      jump\t// in\n    tag_46:\n        /* \"#utility.yul\":1759:1762   */\n      dup3\n        /* \"#utility.yul\":1752:1789   */\n      mstore\n        /* \"#utility.yul\":1677:1795   */\n      pop\n      pop\n      jump\t// out\n        /* \"#utility.yul\":1801:2023   */\n    tag_10:\n        /* \"#utility.yul\":1894:1898   */\n      0x00\n        /* \"#utility.yul\":1932:1934   */\n      0x20\n        /* \"#utility.yul\":1921:1930   */\n      dup3\n        /* \"#utility.yul\":1917:1935   */\n      add\n        /* \"#utility.yul\":1909:1935   */\n      swap1\n      pop\n        /* \"#utility.yul\":1945:2016   */\n      tag_48\n        /* \"#utility.yul\":2013:2014   */\n      0x00\n        /* \"#utility.yul\":2002:2011   */\n      dup4\n        /* \"#utility.yul\":1998:2015   */\n      add\n        /* \"#utility.yul\":1989:1995   */\n      dup5\n        /* \"#utility.yul\":1945:2016   */\n      tag_21\n      jump\t// in\n    tag_48:\n        /* \"#utility.yul\":1801:2023   */\n      swap3\n      swap2\n      pop\n      pop\n      jump\t// out\n\n    auxdata: 0xa2646970667358221220d630dff3dba07c95d1f26b0ccf12b14ac51cabf23a0d235df6b629352932ea3864736f6c634300081a0033\n}\n",
				"bytecode": {
					"linkReferences": {},
					"object": "6080604052348015600e575f80fd5b506101ca8061001c5f395ff3fe608060405234801561000f575f80fd5b5060043610610029575f3560e01c806368f8c2a41461002d575b5f80fd5b6100476004803603810190610042919061012e565b610049565b005b808273ffffffffffffffffffffffffffffffffffffffff16427fa6b5ddd331f9dc412a8c258207b1c66f53c1740c72628d9913aafcb6b28d8f7333604051610091919061017b565b60405180910390a45050565b5f80fd5b5f73ffffffffffffffffffffffffffffffffffffffff82169050919050565b5f6100ca826100a1565b9050919050565b6100da816100c0565b81146100e4575f80fd5b50565b5f813590506100f5816100d1565b92915050565b5f819050919050565b61010d816100fb565b8114610117575f80fd5b50565b5f8135905061012881610104565b92915050565b5f80604083850312156101445761014361009d565b5b5f610151858286016100e7565b92505060206101628582860161011a565b9150509250929050565b610175816100c0565b82525050565b5f60208201905061018e5f83018461016c565b9291505056fea2646970667358221220d630dff3dba07c95d1f26b0ccf12b14ac51cabf23a0d235df6b629352932ea3864736f6c634300081a0033",
					"opcodes": "PUSH1 0x80 PUSH1 0x40 MSTORE CALLVALUE DUP1 ISZERO PUSH1 0xE JUMPI PUSH0 DUP1 REVERT JUMPDEST POP PUSH2 0x1CA DUP1 PUSH2 0x1C PUSH0 CODECOPY PUSH0 RETURN INVALID PUSH1 0x80 PUSH1 0x40 MSTORE CALLVALUE DUP1 ISZERO PUSH2 0xF JUMPI PUSH0 DUP1 REVERT JUMPDEST POP PUSH1 0x4 CALLDATASIZE LT PUSH2 0x29 JUMPI PUSH0 CALLDATALOAD PUSH1 0xE0 SHR DUP1 PUSH4 0x68F8C2A4 EQ PUSH2 0x2D JUMPI JUMPDEST PUSH0 DUP1 REVERT JUMPDEST PUSH2 0x47 PUSH1 0x4 DUP1 CALLDATASIZE SUB DUP2 ADD SWAP1 PUSH2 0x42 SWAP2 SWAP1 PUSH2 0x12E JUMP JUMPDEST PUSH2 0x49 JUMP JUMPDEST STOP JUMPDEST DUP1 DUP3 PUSH20 0xFFFFFFFFFFFFFFFFFFFFFFFFFFFFFFFFFFFFFFFF AND TIMESTAMP PUSH32 0xA6B5DDD331F9DC412A8C258207B1C66F53C1740C72628D9913AAFCB6B28D8F73 CALLER PUSH1 0x40 MLOAD PUSH2 0x91 SWAP2 SWAP1 PUSH2 0x17B JUMP JUMPDEST PUSH1 0x40 MLOAD DUP1 SWAP2 SUB SWAP1 LOG4 POP POP JUMP JUMPDEST PUSH0 DUP1 REVERT JUMPDEST PUSH0 PUSH20 0xFFFFFFFFFFFFFFFFFFFFFFFFFFFFFFFFFFFFFFFF DUP3 AND SWAP1 POP SWAP2 SWAP1 POP JUMP JUMPDEST PUSH0 PUSH2 0xCA DUP3 PUSH2 0xA1 JUMP JUMPDEST SWAP1 POP SWAP2 SWAP1 POP JUMP JUMPDEST PUSH2 0xDA DUP2 PUSH2 0xC0 JUMP JUMPDEST DUP2 EQ PUSH2 0xE4 JUMPI PUSH0 DUP1 REVERT JUMPDEST POP JUMP JUMPDEST PUSH0 DUP2 CALLDATALOAD SWAP1 POP PUSH2 0xF5 DUP2 PUSH2 0xD1 JUMP JUMPDEST SWAP3 SWAP2 POP POP JUMP JUMPDEST PUSH0 DUP2 SWAP1 POP SWAP2 SWAP1 POP JUMP JUMPDEST PUSH2 0x10D DUP2 PUSH2 0xFB JUMP JUMPDEST DUP2 EQ PUSH2 0x117 JUMPI PUSH0 DUP1 REVERT JUMPDEST POP JUMP JUMPDEST PUSH0 DUP2 CALLDATALOAD SWAP1 POP PUSH2 0x128 DUP2 PUSH2 0x104 JUMP JUMPDEST SWAP3 SWAP2 POP POP JUMP JUMPDEST PUSH0 DUP1 PUSH1 0x40 DUP4 DUP6 SUB SLT ISZERO PUSH2 0x144 JUMPI PUSH2 0x143 PUSH2 0x9D JUMP JUMPDEST JUMPDEST PUSH0 PUSH2 0x151 DUP6 DUP3 DUP7 ADD PUSH2 0xE7 JUMP JUMPDEST SWAP3 POP POP PUSH1 0x20 PUSH2 0x162 DUP6 DUP3 DUP7 ADD PUSH2 0x11A JUMP JUMPDEST SWAP2 POP POP SWAP3 POP SWAP3 SWAP1 POP JUMP JUMPDEST PUSH2 0x175 DUP2 PUSH2 0xC0 JUMP JUMPDEST DUP3 MSTORE POP POP JUMP JUMPDEST PUSH0 PUSH1 0x20 DUP3 ADD SWAP1 POP PUSH2 0x18E PUSH0 DUP4 ADD DUP5 PUSH2 0x16C JUMP JUMPDEST SWAP3 SWAP2 POP POP JUMP INVALID LOG2 PUSH5 0x6970667358 0x22 SLT KECCAK256 0xD6 ADDRESS 0xDF RETURN 0xDB LOG0 PUSH29 0x95D1F26B0CCF12B14AC51CABF23A0D235DF6B629352932EA3864736F6C PUSH4 0x4300081A STOP CALLER "
				},
				"gasEstimates": {
					"creation": {
						"codeDepositCost": "91600",
						"executionCost": "139",
						"totalCost": "91739"
					},
					"external": {
						"trade(address,uint256)": "infinite"
					}
				},
				"methodIdentifiers": {
					"trade(address,uint256)": "68f8c2a4"
				}
			},
			"storageLayout": {
				"storage": [],
				"types": null
			},
			"userdoc": {
				"kind": "user",
				"methods": {},
				"version": 1
			}
		}
	}
}