{
	"contracts/advanced/errorhandling.sol": {
		"LearnErrorHandling": {
			"abi": [
				{
					"inputs": [],
					"name": "bringUmbrella",
					"outputs": [],
					"stateMutability": "nonpayable",
					"type": "function"
				},
				{
					"inputs": [],
					"name": "getCalc",
					"outputs": [
						{
							"internalType": "uint256",
							"name": "",
							"type": "uint256"
						}
					],
					"stateMutability": "view",
					"type": "function"
				},
				{
					"inputs": [],
					"name": "internalTestUnits",
					"outputs": [],
					"stateMutability": "nonpayable",
					"type": "function"
				},
				{
					"inputs": [],
					"name": "solarCalc",
					"outputs": [],
					"stateMutability": "nonpayable",
					"type": "function"
				},
				{
					"inputs": [],
					"name": "sunny",
					"outputs": [
						{
							"internalType": "bool",
							"name": "",
							"type": "bool"
						}
					],
					"stateMutability": "view",
					"type": "function"
				},
				{
					"inputs": [],
					"name": "umbrella",
					"outputs": [
						{
							"internalType": "bool",
							"name": "",
							"type": "bool"
						}
					],
					"stateMutability": "view",
					"type": "function"
				},
				{
					"inputs": [],
					"name": "weatherChanger",
					"outputs": [],
					"stateMutability": "nonpayable",
					"type": "function"
				}
			],
			"devdoc": {
				"kind": "dev",
				"methods": {},
				"version": 1
			},
			"evm": {
				"assembly": "    /* \"contracts/advanced/errorhandling.sol\":124:934  contract LearnErrorHandling{... */\n  mstore(0x40, 0x80)\n    /* \"contracts/advanced/errorhandling.sol\":178:182  true */\n  0x01\n    /* \"contracts/advanced/errorhandling.sol\":158:182  bool public sunny = true */\n  0x00\n  dup1\n  0x0100\n  exp\n  dup2\n  sload\n  dup2\n  0xff\n  mul\n  not\n  and\n  swap1\n  dup4\n  iszero\n  iszero\n  mul\n  or\n  swap1\n  sstore\n  pop\n    /* \"contracts/advanced/errorhandling.sol\":212:217  false */\n  0x00\n    /* \"contracts/advanced/errorhandling.sol\":189:217  bool public umbrella = false */\n  dup1\n  exp(0x0100, 0x01)\n  dup2\n  sload\n  dup2\n  0xff\n  mul\n  not\n  and\n  swap1\n  dup4\n  iszero\n  iszero\n  mul\n  or\n  swap1\n  sstore\n  pop\n    /* \"contracts/advanced/errorhandling.sol\":241:242  0 */\n  0x00\n    /* \"contracts/advanced/errorhandling.sol\":224:242  uint finalCalc = 0 */\n  0x01\n  sstore\n    /* \"contracts/advanced/errorhandling.sol\":124:934  contract LearnErrorHandling{... */\n  callvalue\n  dup1\n  iszero\n  tag_1\n  jumpi\n  0x00\n  dup1\n  revert\ntag_1:\n  pop\n  dataSize(sub_0)\n  dup1\n  dataOffset(sub_0)\n  0x00\n  codecopy\n  0x00\n  return\nstop\n\nsub_0: assembly {\n        /* \"contracts/advanced/errorhandling.sol\":124:934  contract LearnErrorHandling{... */\n      mstore(0x40, 0x80)\n      callvalue\n      dup1\n      iszero\n      tag_1\n      jumpi\n      0x00\n      dup1\n      revert\n    tag_1:\n      pop\n      jumpi(tag_2, lt(calldatasize, 0x04))\n      shr(0xe0, calldataload(0x00))\n      dup1\n      0xab02dd7b\n      gt\n      tag_10\n      jumpi\n      dup1\n      0xab02dd7b\n      eq\n      tag_6\n      jumpi\n      dup1\n      0xc000dcdb\n      eq\n      tag_7\n      jumpi\n      dup1\n      0xe472c67c\n      eq\n      tag_8\n      jumpi\n      dup1\n      0xebaf0dca\n      eq\n      tag_9\n      jumpi\n      jump(tag_2)\n    tag_10:\n      dup1\n      0x66e811c6\n      eq\n      tag_3\n      jumpi\n      dup1\n      0x84914262\n      eq\n      tag_4\n      jumpi\n      dup1\n      0x911ec8f5\n      eq\n      tag_5\n      jumpi\n    tag_2:\n      0x00\n      dup1\n      revert\n        /* \"contracts/advanced/errorhandling.sol\":760:931  function bringUmbrella()public{... */\n    tag_3:\n      tag_11\n      tag_12\n      jump\t// in\n    tag_11:\n      stop\n        /* \"contracts/advanced/errorhandling.sol\":189:217  bool public umbrella = false */\n    tag_4:\n      tag_13\n      tag_14\n      jump\t// in\n    tag_13:\n      mload(0x40)\n      tag_15\n      swap2\n      swap1\n      tag_16\n      jump\t// in\n    tag_15:\n      mload(0x40)\n      dup1\n      swap2\n      sub\n      swap1\n      return\n        /* \"contracts/advanced/errorhandling.sol\":459:533  function internalTestUnits()public{... */\n    tag_5:\n      tag_17\n      tag_18\n      jump\t// in\n    tag_17:\n      stop\n        /* \"contracts/advanced/errorhandling.sol\":158:182  bool public sunny = true */\n    tag_6:\n      tag_19\n      tag_20\n      jump\t// in\n    tag_19:\n      mload(0x40)\n      tag_21\n      swap2\n      swap1\n      tag_16\n      jump\t// in\n    tag_21:\n      mload(0x40)\n      dup1\n      swap2\n      sub\n      swap1\n      return\n        /* \"contracts/advanced/errorhandling.sol\":580:644  function weatherChanger() public{... */\n    tag_7:\n      tag_22\n      tag_23\n      jump\t// in\n    tag_22:\n      stop\n        /* \"contracts/advanced/errorhandling.sol\":278:417  function solarCalc()public{... */\n    tag_8:\n      tag_24\n      tag_25\n      jump\t// in\n    tag_24:\n      stop\n        /* \"contracts/advanced/errorhandling.sol\":674:752  function getCalc()public view returns(uint){... */\n    tag_9:\n      tag_26\n      tag_27\n      jump\t// in\n    tag_26:\n      mload(0x40)\n      tag_28\n      swap2\n      swap1\n      tag_29\n      jump\t// in\n    tag_28:\n      mload(0x40)\n      dup1\n      swap2\n      sub\n      swap1\n      return\n        /* \"contracts/advanced/errorhandling.sol\":760:931  function bringUmbrella()public{... */\n    tag_12:\n        /* \"contracts/advanced/errorhandling.sol\":805:810  sunny */\n      0x00\n      dup1\n      sload\n      swap1\n      0x0100\n      exp\n      swap1\n      div\n      0xff\n      and\n        /* \"contracts/advanced/errorhandling.sol\":801:924  if(!sunny){... */\n      tag_31\n      jumpi\n        /* \"contracts/advanced/errorhandling.sol\":837:841  true */\n      0x01\n        /* \"contracts/advanced/errorhandling.sol\":826:834  umbrella */\n      0x00\n      0x01\n        /* \"contracts/advanced/errorhandling.sol\":826:841  umbrella = true */\n      0x0100\n      exp\n      dup2\n      sload\n      dup2\n      0xff\n      mul\n      not\n      and\n      swap1\n      dup4\n      iszero\n      iszero\n      mul\n      or\n      swap1\n      sstore\n      pop\n        /* \"contracts/advanced/errorhandling.sol\":801:924  if(!sunny){... */\n      jump(tag_32)\n    tag_31:\n        /* \"contracts/advanced/errorhandling.sol\":868:912  revert('No need to bring on umbrella today') */\n      mload(0x40)\n      0x08c379a000000000000000000000000000000000000000000000000000000000\n      dup2\n      mstore\n      0x04\n      add\n      tag_33\n      swap1\n      tag_34\n      jump\t// in\n    tag_33:\n      mload(0x40)\n      dup1\n      swap2\n      sub\n      swap1\n      revert\n        /* \"contracts/advanced/errorhandling.sol\":801:924  if(!sunny){... */\n    tag_32:\n        /* \"contracts/advanced/errorhandling.sol\":760:931  function bringUmbrella()public{... */\n      jump\t// out\n        /* \"contracts/advanced/errorhandling.sol\":189:217  bool public umbrella = false */\n    tag_14:\n      0x00\n      0x01\n      swap1\n      sload\n      swap1\n      0x0100\n      exp\n      swap1\n      div\n      0xff\n      and\n      dup2\n      jump\t// out\n        /* \"contracts/advanced/errorhandling.sol\":459:533  function internalTestUnits()public{... */\n    tag_18:\n        /* \"contracts/advanced/errorhandling.sol\":523:524  6 */\n      0x06\n        /* \"contracts/advanced/errorhandling.sol\":511:520  finalCalc */\n      sload(0x01)\n        /* \"contracts/advanced/errorhandling.sol\":511:524  finalCalc !=6 */\n      sub\n        /* \"contracts/advanced/errorhandling.sol\":504:525  assert(finalCalc !=6) */\n      tag_36\n      jumpi\n      tag_37\n      tag_38\n      jump\t// in\n    tag_37:\n    tag_36:\n        /* \"contracts/advanced/errorhandling.sol\":459:533  function internalTestUnits()public{... */\n      jump\t// out\n        /* \"contracts/advanced/errorhandling.sol\":158:182  bool public sunny = true */\n    tag_20:\n      0x00\n      dup1\n      sload\n      swap1\n      0x0100\n      exp\n      swap1\n      div\n      0xff\n      and\n      dup2\n      jump\t// out\n        /* \"contracts/advanced/errorhandling.sol\":580:644  function weatherChanger() public{... */\n    tag_23:\n        /* \"contracts/advanced/errorhandling.sol\":631:636  sunny */\n      0x00\n      dup1\n      sload\n      swap1\n      0x0100\n      exp\n      swap1\n      div\n      0xff\n      and\n        /* \"contracts/advanced/errorhandling.sol\":630:636  !sunny */\n      iszero\n        /* \"contracts/advanced/errorhandling.sol\":623:628  sunny */\n      0x00\n      dup1\n        /* \"contracts/advanced/errorhandling.sol\":623:636  sunny =!sunny */\n      0x0100\n      exp\n      dup2\n      sload\n      dup2\n      0xff\n      mul\n      not\n      and\n      swap1\n      dup4\n      iszero\n      iszero\n      mul\n      or\n      swap1\n      sstore\n      pop\n        /* \"contracts/advanced/errorhandling.sol\":580:644  function weatherChanger() public{... */\n      jump\t// out\n        /* \"contracts/advanced/errorhandling.sol\":278:417  function solarCalc()public{... */\n    tag_25:\n        /* \"contracts/advanced/errorhandling.sol\":323:328  sunny */\n      0x00\n      dup1\n      sload\n      swap1\n      0x0100\n      exp\n      swap1\n      div\n      0xff\n      and\n        /* \"contracts/advanced/errorhandling.sol\":315:353  require(sunny, 'Its not sunny today!') */\n      tag_41\n      jumpi\n      mload(0x40)\n      0x08c379a000000000000000000000000000000000000000000000000000000000\n      dup2\n      mstore\n      0x04\n      add\n      tag_42\n      swap1\n      tag_43\n      jump\t// in\n    tag_42:\n      mload(0x40)\n      dup1\n      swap2\n      sub\n      swap1\n      revert\n    tag_41:\n        /* \"contracts/advanced/errorhandling.sol\":376:377  3 */\n      0x03\n        /* \"contracts/advanced/errorhandling.sol\":364:373  finalCalc */\n      0x01\n      0x00\n        /* \"contracts/advanced/errorhandling.sol\":364:377  finalCalc +=3 */\n      dup3\n      dup3\n      sload\n      tag_44\n      swap2\n      swap1\n      tag_45\n      jump\t// in\n    tag_44:\n      swap3\n      pop\n      pop\n      dup2\n      swap1\n      sstore\n      pop\n        /* \"contracts/advanced/errorhandling.sol\":407:408  6 */\n      0x06\n        /* \"contracts/advanced/errorhandling.sol\":395:404  finalCalc */\n      sload(0x01)\n        /* \"contracts/advanced/errorhandling.sol\":395:408  finalCalc !=6 */\n      sub\n        /* \"contracts/advanced/errorhandling.sol\":388:409  assert(finalCalc !=6) */\n      tag_46\n      jumpi\n      tag_47\n      tag_38\n      jump\t// in\n    tag_47:\n    tag_46:\n        /* \"contracts/advanced/errorhandling.sol\":278:417  function solarCalc()public{... */\n      jump\t// out\n        /* \"contracts/advanced/errorhandling.sol\":674:752  function getCalc()public view returns(uint){... */\n    tag_27:\n        /* \"contracts/advanced/errorhandling.sol\":712:716  uint */\n      0x00\n        /* \"contracts/advanced/errorhandling.sol\":735:744  finalCalc */\n      sload(0x01)\n        /* \"contracts/advanced/errorhandling.sol\":728:744  return finalCalc */\n      swap1\n      pop\n        /* \"contracts/advanced/errorhandling.sol\":674:752  function getCalc()public view returns(uint){... */\n      swap1\n      jump\t// out\n        /* \"#utility.yul\":7:97   */\n    tag_49:\n        /* \"#utility.yul\":41:48   */\n      0x00\n        /* \"#utility.yul\":84:89   */\n      dup2\n        /* \"#utility.yul\":77:90   */\n      iszero\n        /* \"#utility.yul\":70:91   */\n      iszero\n        /* \"#utility.yul\":59:91   */\n      swap1\n      pop\n        /* \"#utility.yul\":7:97   */\n      swap2\n      swap1\n      pop\n      jump\t// out\n        /* \"#utility.yul\":103:212   */\n    tag_50:\n        /* \"#utility.yul\":184:205   */\n      tag_62\n        /* \"#utility.yul\":199:204   */\n      dup2\n        /* \"#utility.yul\":184:205   */\n      tag_49\n      jump\t// in\n    tag_62:\n        /* \"#utility.yul\":179:182   */\n      dup3\n        /* \"#utility.yul\":172:206   */\n      mstore\n        /* \"#utility.yul\":103:212   */\n      pop\n      pop\n      jump\t// out\n        /* \"#utility.yul\":218:428   */\n    tag_16:\n        /* \"#utility.yul\":305:309   */\n      0x00\n        /* \"#utility.yul\":343:345   */\n      0x20\n        /* \"#utility.yul\":332:341   */\n      dup3\n        /* \"#utility.yul\":328:346   */\n      add\n        /* \"#utility.yul\":320:346   */\n      swap1\n      pop\n        /* \"#utility.yul\":356:421   */\n      tag_64\n        /* \"#utility.yul\":418:419   */\n      0x00\n        /* \"#utility.yul\":407:416   */\n      dup4\n        /* \"#utility.yul\":403:420   */\n      add\n        /* \"#utility.yul\":394:400   */\n      dup5\n        /* \"#utility.yul\":356:421   */\n      tag_50\n      jump\t// in\n    tag_64:\n        /* \"#utility.yul\":218:428   */\n      swap3\n      swap2\n      pop\n      pop\n      jump\t// out\n        /* \"#utility.yul\":434:511   */\n    tag_51:\n        /* \"#utility.yul\":471:478   */\n      0x00\n        /* \"#utility.yul\":500:505   */\n      dup2\n        /* \"#utility.yul\":489:505   */\n      swap1\n      pop\n        /* \"#utility.yul\":434:511   */\n      swap2\n      swap1\n      pop\n      jump\t// out\n        /* \"#utility.yul\":517:635   */\n    tag_52:\n        /* \"#utility.yul\":604:628   */\n      tag_67\n        /* \"#utility.yul\":622:627   */\n      dup2\n        /* \"#utility.yul\":604:628   */\n      tag_51\n      jump\t// in\n    tag_67:\n        /* \"#utility.yul\":599:602   */\n      dup3\n        /* \"#utility.yul\":592:629   */\n      mstore\n        /* \"#utility.yul\":517:635   */\n      pop\n      pop\n      jump\t// out\n        /* \"#utility.yul\":641:863   */\n    tag_29:\n        /* \"#utility.yul\":734:738   */\n      0x00\n        /* \"#utility.yul\":772:774   */\n      0x20\n        /* \"#utility.yul\":761:770   */\n      dup3\n        /* \"#utility.yul\":757:775   */\n      add\n        /* \"#utility.yul\":749:775   */\n      swap1\n      pop\n        /* \"#utility.yul\":785:856   */\n      tag_69\n        /* \"#utility.yul\":853:854   */\n      0x00\n        /* \"#utility.yul\":842:851   */\n      dup4\n        /* \"#utility.yul\":838:855   */\n      add\n        /* \"#utility.yul\":829:835   */\n      dup5\n        /* \"#utility.yul\":785:856   */\n      tag_52\n      jump\t// in\n    tag_69:\n        /* \"#utility.yul\":641:863   */\n      swap3\n      swap2\n      pop\n      pop\n      jump\t// out\n        /* \"#utility.yul\":869:1038   */\n    tag_53:\n        /* \"#utility.yul\":953:964   */\n      0x00\n        /* \"#utility.yul\":987:993   */\n      dup3\n        /* \"#utility.yul\":982:985   */\n      dup3\n        /* \"#utility.yul\":975:994   */\n      mstore\n        /* \"#utility.yul\":1027:1031   */\n      0x20\n        /* \"#utility.yul\":1022:1025   */\n      dup3\n        /* \"#utility.yul\":1018:1032   */\n      add\n        /* \"#utility.yul\":1003:1032   */\n      swap1\n      pop\n        /* \"#utility.yul\":869:1038   */\n      swap3\n      swap2\n      pop\n      pop\n      jump\t// out\n        /* \"#utility.yul\":1044:1265   */\n    tag_54:\n        /* \"#utility.yul\":1184:1218   */\n      0x4e6f206e65656420746f206272696e67206f6e20756d6272656c6c6120746f64\n        /* \"#utility.yul\":1180:1181   */\n      0x00\n        /* \"#utility.yul\":1172:1178   */\n      dup3\n        /* \"#utility.yul\":1168:1182   */\n      add\n        /* \"#utility.yul\":1161:1219   */\n      mstore\n        /* \"#utility.yul\":1253:1257   */\n      0x6179000000000000000000000000000000000000000000000000000000000000\n        /* \"#utility.yul\":1248:1250   */\n      0x20\n        /* \"#utility.yul\":1240:1246   */\n      dup3\n        /* \"#utility.yul\":1236:1251   */\n      add\n        /* \"#utility.yul\":1229:1258   */\n      mstore\n        /* \"#utility.yul\":1044:1265   */\n      pop\n      jump\t// out\n        /* \"#utility.yul\":1271:1637   */\n    tag_55:\n        /* \"#utility.yul\":1413:1416   */\n      0x00\n        /* \"#utility.yul\":1434:1501   */\n      tag_73\n        /* \"#utility.yul\":1498:1500   */\n      0x22\n        /* \"#utility.yul\":1493:1496   */\n      dup4\n        /* \"#utility.yul\":1434:1501   */\n      tag_53\n      jump\t// in\n    tag_73:\n        /* \"#utility.yul\":1427:1501   */\n      swap2\n      pop\n        /* \"#utility.yul\":1510:1603   */\n      tag_74\n        /* \"#utility.yul\":1599:1602   */\n      dup3\n        /* \"#utility.yul\":1510:1603   */\n      tag_54\n      jump\t// in\n    tag_74:\n        /* \"#utility.yul\":1628:1630   */\n      0x40\n        /* \"#utility.yul\":1623:1626   */\n      dup3\n        /* \"#utility.yul\":1619:1631   */\n      add\n        /* \"#utility.yul\":1612:1631   */\n      swap1\n      pop\n        /* \"#utility.yul\":1271:1637   */\n      swap2\n      swap1\n      pop\n      jump\t// out\n        /* \"#utility.yul\":1643:2062   */\n    tag_34:\n        /* \"#utility.yul\":1809:1813   */\n      0x00\n        /* \"#utility.yul\":1847:1849   */\n      0x20\n        /* \"#utility.yul\":1836:1845   */\n      dup3\n        /* \"#utility.yul\":1832:1850   */\n      add\n        /* \"#utility.yul\":1824:1850   */\n      swap1\n      pop\n        /* \"#utility.yul\":1896:1905   */\n      dup2\n        /* \"#utility.yul\":1890:1894   */\n      dup2\n        /* \"#utility.yul\":1886:1906   */\n      sub\n        /* \"#utility.yul\":1882:1883   */\n      0x00\n        /* \"#utility.yul\":1871:1880   */\n      dup4\n        /* \"#utility.yul\":1867:1884   */\n      add\n        /* \"#utility.yul\":1860:1907   */\n      mstore\n        /* \"#utility.yul\":1924:2055   */\n      tag_76\n        /* \"#utility.yul\":2050:2054   */\n      dup2\n        /* \"#utility.yul\":1924:2055   */\n      tag_55\n      jump\t// in\n    tag_76:\n        /* \"#utility.yul\":1916:2055   */\n      swap1\n      pop\n        /* \"#utility.yul\":1643:2062   */\n      swap2\n      swap1\n      pop\n      jump\t// out\n        /* \"#utility.yul\":2068:2248   */\n    tag_38:\n        /* \"#utility.yul\":2116:2193   */\n      0x4e487b7100000000000000000000000000000000000000000000000000000000\n        /* \"#utility.yul\":2113:2114   */\n      0x00\n        /* \"#utility.yul\":2106:2194   */\n      mstore\n        /* \"#utility.yul\":2213:2217   */\n      0x01\n        /* \"#utility.yul\":2210:2211   */\n      0x04\n        /* \"#utility.yul\":2203:2218   */\n      mstore\n        /* \"#utility.yul\":2237:2241   */\n      0x24\n        /* \"#utility.yul\":2234:2235   */\n      0x00\n        /* \"#utility.yul\":2227:2242   */\n      revert\n        /* \"#utility.yul\":2254:2424   */\n    tag_56:\n        /* \"#utility.yul\":2394:2416   */\n      0x497473206e6f742073756e6e7920746f64617921000000000000000000000000\n        /* \"#utility.yul\":2390:2391   */\n      0x00\n        /* \"#utility.yul\":2382:2388   */\n      dup3\n        /* \"#utility.yul\":2378:2392   */\n      add\n        /* \"#utility.yul\":2371:2417   */\n      mstore\n        /* \"#utility.yul\":2254:2424   */\n      pop\n      jump\t// out\n        /* \"#utility.yul\":2430:2796   */\n    tag_57:\n        /* \"#utility.yul\":2572:2575   */\n      0x00\n        /* \"#utility.yul\":2593:2660   */\n      tag_80\n        /* \"#utility.yul\":2657:2659   */\n      0x14\n        /* \"#utility.yul\":2652:2655   */\n      dup4\n        /* \"#utility.yul\":2593:2660   */\n      tag_53\n      jump\t// in\n    tag_80:\n        /* \"#utility.yul\":2586:2660   */\n      swap2\n      pop\n        /* \"#utility.yul\":2669:2762   */\n      tag_81\n        /* \"#utility.yul\":2758:2761   */\n      dup3\n        /* \"#utility.yul\":2669:2762   */\n      tag_56\n      jump\t// in\n    tag_81:\n        /* \"#utility.yul\":2787:2789   */\n      0x20\n        /* \"#utility.yul\":2782:2785   */\n      dup3\n        /* \"#utility.yul\":2778:2790   */\n      add\n        /* \"#utility.yul\":2771:2790   */\n      swap1\n      pop\n        /* \"#utility.yul\":2430:2796   */\n      swap2\n      swap1\n      pop\n      jump\t// out\n        /* \"#utility.yul\":2802:3221   */\n    tag_43:\n        /* \"#utility.yul\":2968:2972   */\n      0x00\n        /* \"#utility.yul\":3006:3008   */\n      0x20\n        /* \"#utility.yul\":2995:3004   */\n      dup3\n        /* \"#utility.yul\":2991:3009   */\n      add\n        /* \"#utility.yul\":2983:3009   */\n      swap1\n      pop\n        /* \"#utility.yul\":3055:3064   */\n      dup2\n        /* \"#utility.yul\":3049:3053   */\n      dup2\n        /* \"#utility.yul\":3045:3065   */\n      sub\n        /* \"#utility.yul\":3041:3042   */\n      0x00\n        /* \"#utility.yul\":3030:3039   */\n      dup4\n        /* \"#utility.yul\":3026:3043   */\n      add\n        /* \"#utility.yul\":3019:3066   */\n      mstore\n        /* \"#utility.yul\":3083:3214   */\n      tag_83\n        /* \"#utility.yul\":3209:3213   */\n      dup2\n        /* \"#utility.yul\":3083:3214   */\n      tag_57\n      jump\t// in\n    tag_83:\n        /* \"#utility.yul\":3075:3214   */\n      swap1\n      pop\n        /* \"#utility.yul\":2802:3221   */\n      swap2\n      swap1\n      pop\n      jump\t// out\n        /* \"#utility.yul\":3227:3407   */\n    tag_58:\n        /* \"#utility.yul\":3275:3352   */\n      0x4e487b7100000000000000000000000000000000000000000000000000000000\n        /* \"#utility.yul\":3272:3273   */\n      0x00\n        /* \"#utility.yul\":3265:3353   */\n      mstore\n        /* \"#utility.yul\":3372:3376   */\n      0x11\n        /* \"#utility.yul\":3369:3370   */\n      0x04\n        /* \"#utility.yul\":3362:3377   */\n      mstore\n        /* \"#utility.yul\":3396:3400   */\n      0x24\n        /* \"#utility.yul\":3393:3394   */\n      0x00\n        /* \"#utility.yul\":3386:3401   */\n      revert\n        /* \"#utility.yul\":3413:3604   */\n    tag_45:\n        /* \"#utility.yul\":3453:3456   */\n      0x00\n        /* \"#utility.yul\":3472:3492   */\n      tag_86\n        /* \"#utility.yul\":3490:3491   */\n      dup3\n        /* \"#utility.yul\":3472:3492   */\n      tag_51\n      jump\t// in\n    tag_86:\n        /* \"#utility.yul\":3467:3492   */\n      swap2\n      pop\n        /* \"#utility.yul\":3506:3526   */\n      tag_87\n        /* \"#utility.yul\":3524:3525   */\n      dup4\n        /* \"#utility.yul\":3506:3526   */\n      tag_51\n      jump\t// in\n    tag_87:\n        /* \"#utility.yul\":3501:3526   */\n      swap3\n      pop\n        /* \"#utility.yul\":3549:3550   */\n      dup3\n        /* \"#utility.yul\":3546:3547   */\n      dup3\n        /* \"#utility.yul\":3542:3551   */\n      add\n        /* \"#utility.yul\":3535:3551   */\n      swap1\n      pop\n        /* \"#utility.yul\":3570:3573   */\n      dup1\n        /* \"#utility.yul\":3567:3568   */\n      dup3\n        /* \"#utility.yul\":3564:3574   */\n      gt\n        /* \"#utility.yul\":3561:3597   */\n      iszero\n      tag_88\n      jumpi\n        /* \"#utility.yul\":3577:3595   */\n      tag_89\n      tag_58\n      jump\t// in\n    tag_89:\n        /* \"#utility.yul\":3561:3597   */\n    tag_88:\n        /* \"#utility.yul\":3413:3604   */\n      swap3\n      swap2\n      pop\n      pop\n      jump\t// out\n\n    auxdata: 0xa2646970667358221220bccb1e7543f1c9a4c2dd9d318cc004c9b7eab1b826681b7bd2447fb3b649a05b64736f6c634300081a0033\n}\n",
				"bytecode": {
					"linkReferences": {},
					"object": "608060405260015f806101000a81548160ff0219169083151502179055505f8060016101000a81548160ff0219169083151502179055505f6001553480156044575f80fd5b5061047c806100525f395ff3fe608060405234801561000f575f80fd5b506004361061007b575f3560e01c8063ab02dd7b11610059578063ab02dd7b146100b1578063c000dcdb146100cf578063e472c67c146100d9578063ebaf0dca146100e35761007b565b806366e811c61461007f5780638491426214610089578063911ec8f5146100a7575b5f80fd5b610087610101565b005b61009161016e565b60405161009e9190610269565b60405180910390f35b6100af610180565b005b6100b9610195565b6040516100c69190610269565b60405180910390f35b6100d76101a5565b005b6100e16101cc565b005b6100eb610246565b6040516100f8919061029a565b60405180910390f35b5f8054906101000a900460ff166101315760015f60016101000a81548160ff02191690831515021790555061016c565b6040517f08c379a000000000000000000000000000000000000000000000000000000000815260040161016390610333565b60405180910390fd5b565b5f60019054906101000a900460ff1681565b60066001540361019357610192610351565b5b565b5f8054906101000a900460ff1681565b5f8054906101000a900460ff16155f806101000a81548160ff021916908315150217905550565b5f8054906101000a900460ff16610218576040517f08c379a000000000000000000000000000000000000000000000000000000000815260040161020f906103c8565b60405180910390fd5b600360015f82825461022a9190610413565b9250508190555060066001540361024457610243610351565b5b565b5f600154905090565b5f8115159050919050565b6102638161024f565b82525050565b5f60208201905061027c5f83018461025a565b92915050565b5f819050919050565b61029481610282565b82525050565b5f6020820190506102ad5f83018461028b565b92915050565b5f82825260208201905092915050565b7f4e6f206e65656420746f206272696e67206f6e20756d6272656c6c6120746f645f8201527f6179000000000000000000000000000000000000000000000000000000000000602082015250565b5f61031d6022836102b3565b9150610328826102c3565b604082019050919050565b5f6020820190508181035f83015261034a81610311565b9050919050565b7f4e487b71000000000000000000000000000000000000000000000000000000005f52600160045260245ffd5b7f497473206e6f742073756e6e7920746f646179210000000000000000000000005f82015250565b5f6103b26014836102b3565b91506103bd8261037e565b602082019050919050565b5f6020820190508181035f8301526103df816103a6565b9050919050565b7f4e487b71000000000000000000000000000000000000000000000000000000005f52601160045260245ffd5b5f61041d82610282565b915061042883610282565b92508282019050808211156104405761043f6103e6565b5b9291505056fea2646970667358221220bccb1e7543f1c9a4c2dd9d318cc004c9b7eab1b826681b7bd2447fb3b649a05b64736f6c634300081a0033",
					"opcodes": "PUSH1 0x80 PUSH1 0x40 MSTORE PUSH1 0x1 PUSH0 DUP1 PUSH2 0x100 EXP DUP2 SLOAD DUP2 PUSH1 0xFF MUL NOT AND SWAP1 DUP4 ISZERO ISZERO MUL OR SWAP1 SSTORE POP PUSH0 DUP1 PUSH1 0x1 PUSH2 0x100 EXP DUP2 SLOAD DUP2 PUSH1 0xFF MUL NOT AND SWAP1 DUP4 ISZERO ISZERO MUL OR SWAP1 SSTORE POP PUSH0 PUSH1 0x1 SSTORE CALLVALUE DUP1 ISZERO PUSH1 0x44 JUMPI PUSH0 DUP1 REVERT JUMPDEST POP PUSH2 0x47C DUP1 PUSH2 0x52 PUSH0 CODECOPY PUSH0 RETURN INVALID PUSH1 0x80 PUSH1 0x40 MSTORE CALLVALUE DUP1 ISZERO PUSH2 0xF JUMPI PUSH0 DUP1 REVERT JUMPDEST POP PUSH1 0x4 CALLDATASIZE LT PUSH2 0x7B JUMPI PUSH0 CALLDATALOAD PUSH1 0xE0 SHR DUP1 PUSH4 0xAB02DD7B GT PUSH2 0x59 JUMPI DUP1 PUSH4 0xAB02DD7B EQ PUSH2 0xB1 JUMPI DUP1 PUSH4 0xC000DCDB EQ PUSH2 0xCF JUMPI DUP1 PUSH4 0xE472C67C EQ PUSH2 0xD9 JUMPI DUP1 PUSH4 0xEBAF0DCA EQ PUSH2 0xE3 JUMPI PUSH2 0x7B JUMP JUMPDEST DUP1 PUSH4 0x66E811C6 EQ PUSH2 0x7F JUMPI DUP1 PUSH4 0x84914262 EQ PUSH2 0x89 JUMPI DUP1 PUSH4 0x911EC8F5 EQ PUSH2 0xA7 JUMPI JUMPDEST PUSH0 DUP1 REVERT JUMPDEST PUSH2 0x87 PUSH2 0x101 JUMP JUMPDEST STOP JUMPDEST PUSH2 0x91 PUSH2 0x16E JUMP JUMPDEST PUSH1 0x40 MLOAD PUSH2 0x9E SWAP2 SWAP1 PUSH2 0x269 JUMP JUMPDEST PUSH1 0x40 MLOAD DUP1 SWAP2 SUB SWAP1 RETURN JUMPDEST PUSH2 0xAF PUSH2 0x180 JUMP JUMPDEST STOP JUMPDEST PUSH2 0xB9 PUSH2 0x195 JUMP JUMPDEST PUSH1 0x40 MLOAD PUSH2 0xC6 SWAP2 SWAP1 PUSH2 0x269 JUMP JUMPDEST PUSH1 0x40 MLOAD DUP1 SWAP2 SUB SWAP1 RETURN JUMPDEST PUSH2 0xD7 PUSH2 0x1A5 JUMP JUMPDEST STOP JUMPDEST PUSH2 0xE1 PUSH2 0x1CC JUMP JUMPDEST STOP JUMPDEST PUSH2 0xEB PUSH2 0x246 JUMP JUMPDEST PUSH1 0x40 MLOAD PUSH2 0xF8 SWAP2 SWAP1 PUSH2 0x29A JUMP JUMPDEST PUSH1 0x40 MLOAD DUP1 SWAP2 SUB SWAP1 RETURN JUMPDEST PUSH0 DUP1 SLOAD SWAP1 PUSH2 0x100 EXP SWAP1 DIV PUSH1 0xFF AND PUSH2 0x131 JUMPI PUSH1 0x1 PUSH0 PUSH1 0x1 PUSH2 0x100 EXP DUP2 SLOAD DUP2 PUSH1 0xFF MUL NOT AND SWAP1 DUP4 ISZERO ISZERO MUL OR SWAP1 SSTORE POP PUSH2 0x16C JUMP JUMPDEST PUSH1 0x40 MLOAD PUSH32 0x8C379A000000000000000000000000000000000000000000000000000000000 DUP2 MSTORE PUSH1 0x4 ADD PUSH2 0x163 SWAP1 PUSH2 0x333 JUMP JUMPDEST PUSH1 0x40 MLOAD DUP1 SWAP2 SUB SWAP1 REVERT JUMPDEST JUMP JUMPDEST PUSH0 PUSH1 0x1 SWAP1 SLOAD SWAP1 PUSH2 0x100 EXP SWAP1 DIV PUSH1 0xFF AND DUP2 JUMP JUMPDEST PUSH1 0x6 PUSH1 0x1 SLOAD SUB PUSH2 0x193 JUMPI PUSH2 0x192 PUSH2 0x351 JUMP JUMPDEST JUMPDEST JUMP JUMPDEST PUSH0 DUP1 SLOAD SWAP1 PUSH2 0x100 EXP SWAP1 DIV PUSH1 0xFF AND DUP2 JUMP JUMPDEST PUSH0 DUP1 SLOAD SWAP1 PUSH2 0x100 EXP SWAP1 DIV PUSH1 0xFF AND ISZERO PUSH0 DUP1 PUSH2 0x100 EXP DUP2 SLOAD DUP2 PUSH1 0xFF MUL NOT AND SWAP1 DUP4 ISZERO ISZERO MUL OR SWAP1 SSTORE POP JUMP JUMPDEST PUSH0 DUP1 SLOAD SWAP1 PUSH2 0x100 EXP SWAP1 DIV PUSH1 0xFF AND PUSH2 0x218 JUMPI PUSH1 0x40 MLOAD PUSH32 0x8C379A000000000000000000000000000000000000000000000000000000000 DUP2 MSTORE PUSH1 0x4 ADD PUSH2 0x20F SWAP1 PUSH2 0x3C8 JUMP JUMPDEST PUSH1 0x40 MLOAD DUP1 SWAP2 SUB SWAP1 REVERT JUMPDEST PUSH1 0x3 PUSH1 0x1 PUSH0 DUP3 DUP3 SLOAD PUSH2 0x22A SWAP2 SWAP1 PUSH2 0x413 JUMP JUMPDEST SWAP3 POP POP DUP2 SWAP1 SSTORE POP PUSH1 0x6 PUSH1 0x1 SLOAD SUB PUSH2 0x244 JUMPI PUSH2 0x243 PUSH2 0x351 JUMP JUMPDEST JUMPDEST JUMP JUMPDEST PUSH0 PUSH1 0x1 SLOAD SWAP1 POP SWAP1 JUMP JUMPDEST PUSH0 DUP2 ISZERO ISZERO SWAP1 POP SWAP2 SWAP1 POP JUMP JUMPDEST PUSH2 0x263 DUP2 PUSH2 0x24F JUMP JUMPDEST DUP3 MSTORE POP POP JUMP JUMPDEST PUSH0 PUSH1 0x20 DUP3 ADD SWAP1 POP PUSH2 0x27C PUSH0 DUP4 ADD DUP5 PUSH2 0x25A JUMP JUMPDEST SWAP3 SWAP2 POP POP JUMP JUMPDEST PUSH0 DUP2 SWAP1 POP SWAP2 SWAP1 POP JUMP JUMPDEST PUSH2 0x294 DUP2 PUSH2 0x282 JUMP JUMPDEST DUP3 MSTORE POP POP JUMP JUMPDEST PUSH0 PUSH1 0x20 DUP3 ADD SWAP1 POP PUSH2 0x2AD PUSH0 DUP4 ADD DUP5 PUSH2 0x28B JUMP JUMPDEST SWAP3 SWAP2 POP POP JUMP JUMPDEST PUSH0 DUP3 DUP3 MSTORE PUSH1 0x20 DUP3 ADD SWAP1 POP SWAP3 SWAP2 POP POP JUMP JUMPDEST PUSH32 0x4E6F206E65656420746F206272696E67206F6E20756D6272656C6C6120746F64 PUSH0 DUP3 ADD MSTORE PUSH32 0x6179000000000000000000000000000000000000000000000000000000000000 PUSH1 0x20 DUP3 ADD MSTORE POP JUMP JUMPDEST PUSH0 PUSH2 0x31D PUSH1 0x22 DUP4 PUSH2 0x2B3 JUMP JUMPDEST SWAP2 POP PUSH2 0x328 DUP3 PUSH2 0x2C3 JUMP JUMPDEST PUSH1 0x40 DUP3 ADD SWAP1 POP SWAP2 SWAP1 POP JUMP JUMPDEST PUSH0 PUSH1 0x20 DUP3 ADD SWAP1 POP DUP2 DUP2 SUB PUSH0 DUP4 ADD MSTORE PUSH2 0x34A DUP2 PUSH2 0x311 JUMP JUMPDEST SWAP1 POP SWAP2 SWAP1 POP JUMP JUMPDEST PUSH32 0x4E487B7100000000000000000000000000000000000000000000000000000000 PUSH0 MSTORE PUSH1 0x1 PUSH1 0x4 MSTORE PUSH1 0x24 PUSH0 REVERT JUMPDEST PUSH32 0x497473206E6F742073756E6E7920746F64617921000000000000000000000000 PUSH0 DUP3 ADD MSTORE POP JUMP JUMPDEST PUSH0 PUSH2 0x3B2 PUSH1 0x14 DUP4 PUSH2 0x2B3 JUMP JUMPDEST SWAP2 POP PUSH2 0x3BD DUP3 PUSH2 0x37E JUMP JUMPDEST PUSH1 0x20 DUP3 ADD SWAP1 POP SWAP2 SWAP1 POP JUMP JUMPDEST PUSH0 PUSH1 0x20 DUP3 ADD SWAP1 POP DUP2 DUP2 SUB PUSH0 DUP4 ADD MSTORE PUSH2 0x3DF DUP2 PUSH2 0x3A6 JUMP JUMPDEST SWAP1 POP SWAP2 SWAP1 POP JUMP JUMPDEST PUSH32 0x4E487B7100000000000000000000000000000000000000000000000000000000 PUSH0 MSTORE PUSH1 0x11 PUSH1 0x4 MSTORE PUSH1 0x24 PUSH0 REVERT JUMPDEST PUSH0 PUSH2 0x41D DUP3 PUSH2 0x282 JUMP JUMPDEST SWAP2 POP PUSH2 0x428 DUP4 PUSH2 0x282 JUMP JUMPDEST SWAP3 POP DUP3 DUP3 ADD SWAP1 POP DUP1 DUP3 GT ISZERO PUSH2 0x440 JUMPI PUSH2 0x43F PUSH2 0x3E6 JUMP JUMPDEST JUMPDEST SWAP3 SWAP2 POP POP JUMP INVALID LOG2 PUSH5 0x6970667358 0x22 SLT KECCAK256 0xBC 0xCB 0x1E PUSH22 0x43F1C9A4C2DD9D318CC004C9B7EAB1B826681B7BD244 PUSH32 0xB3B649A05B64736F6C634300081A003300000000000000000000000000000000 "
				},
				"gasEstimates": {
					"creation": {
						"codeDepositCost": "229600",
						"executionCost": "53854",
						"totalCost": "283454"
					},
					"external": {
						"bringUmbrella()": "26620",
						"getCalc()": "2498",
						"internalTestUnits()": "2338",
						"solarCalc()": "infinite",
						"sunny()": "2463",
						"umbrella()": "2539",
						"weatherChanger()": "26566"
					}
				},
				"methodIdentifiers": {
					"bringUmbrella()": "66e811c6",
					"getCalc()": "ebaf0dca",
					"internalTestUnits()": "911ec8f5",
					"solarCalc()": "e472c67c",
					"sunny()": "ab02dd7b",
					"umbrella()": "84914262",
					"weatherChanger()": "c000dcdb"
				}
			},
			"storageLayout": {
				"storage": [
					{
						"astId": 4,
						"contract": "contracts/advanced/errorhandling.sol:LearnErrorHandling",
						"label": "sunny",
						"offset": 0,
						"slot": "0",
						"type": "t_bool"
					},
					{
						"astId": 7,
						"contract": "contracts/advanced/errorhandling.sol:LearnErrorHandling",
						"label": "umbrella",
						"offset": 1,
						"slot": "0",
						"type": "t_bool"
					},
					{
						"astId": 10,
						"contract": "contracts/advanced/errorhandling.sol:LearnErrorHandling",
						"label": "finalCalc",
						"offset": 0,
						"slot": "1",
						"type": "t_uint256"
					}
				],
				"types": {
					"t_bool": {
						"encoding": "inplace",
						"label": "bool",
						"numberOfBytes": "1"
					},
					"t_uint256": {
						"encoding": "inplace",
						"label": "uint256",
						"numberOfBytes": "32"
					}
				}
			},
			"userdoc": {
				"kind": "user",
				"methods": {},
				"version": 1
			}
		}
	}
}