{
	"contracts/advanced/assembly.sol": {
		"LearnAssembly": {
			"abi": [
				{
					"inputs": [],
					"name": "addToEVM",
					"outputs": [],
					"stateMutability": "nonpayable",
					"type": "function"
				},
				{
					"inputs": [],
					"name": "addToEVM2",
					"outputs": [
						{
							"internalType": "bool",
							"name": "success",
							"type": "bool"
						}
					],
					"stateMutability": "view",
					"type": "function"
				},
				{
					"inputs": [],
					"name": "addToEVM3",
					"outputs": [],
					"stateMutability": "view",
					"type": "function"
				}
			],
			"devdoc": {
				"kind": "dev",
				"methods": {},
				"version": 1
			},
			"evm": {
				"assembly": "    /* \"contracts/advanced/assembly.sol\":276:1476  contract LearnAssembly{... */\n  mstore(0x40, 0x80)\n  callvalue\n  dup1\n  iszero\n  tag_1\n  jumpi\n  0x00\n  dup1\n  revert\ntag_1:\n  pop\n  dataSize(sub_0)\n  dup1\n  dataOffset(sub_0)\n  0x00\n  codecopy\n  0x00\n  return\nstop\n\nsub_0: assembly {\n        /* \"contracts/advanced/assembly.sol\":276:1476  contract LearnAssembly{... */\n      mstore(0x40, 0x80)\n      callvalue\n      dup1\n      iszero\n      tag_1\n      jumpi\n      0x00\n      dup1\n      revert\n    tag_1:\n      pop\n      jumpi(tag_2, lt(calldatasize, 0x04))\n      shr(0xe0, calldataload(0x00))\n      dup1\n      0x4691c58f\n      eq\n      tag_3\n      jumpi\n      dup1\n      0x4fee737f\n      eq\n      tag_4\n      jumpi\n      dup1\n      0xdadf8fee\n      eq\n      tag_5\n      jumpi\n    tag_2:\n      0x00\n      dup1\n      revert\n        /* \"contracts/advanced/assembly.sol\":1040:1473  function addToEVM3()external view {... */\n    tag_3:\n      tag_6\n      tag_7\n      jump\t// in\n    tag_6:\n      stop\n        /* \"contracts/advanced/assembly.sol\":710:1034  function addToEVM2()public view returns(bool success){... */\n    tag_4:\n      tag_8\n      tag_9\n      jump\t// in\n    tag_8:\n      mload(0x40)\n      tag_10\n      swap2\n      swap1\n      tag_11\n      jump\t// in\n    tag_10:\n      mload(0x40)\n      dup1\n      swap2\n      sub\n      swap1\n      return\n        /* \"contracts/advanced/assembly.sol\":305:638  function addToEVM()external {... */\n    tag_5:\n      tag_12\n      tag_13\n      jump\t// in\n    tag_12:\n      stop\n        /* \"contracts/advanced/assembly.sol\":1040:1473  function addToEVM3()external view {... */\n    tag_7:\n        /* \"contracts/advanced/assembly.sol\":1085:1102  bytes memory data */\n      0x00\n        /* \"contracts/advanced/assembly.sol\":1115:1117  10 */\n      0x0a\n        /* \"contracts/advanced/assembly.sol\":1105:1118  new bytes(10) */\n      0xffffffffffffffff\n      dup2\n      gt\n      iszero\n      tag_15\n      jumpi\n      tag_16\n      tag_17\n      jump\t// in\n    tag_16:\n    tag_15:\n      mload(0x40)\n      swap1\n      dup1\n      dup3\n      mstore\n      dup1\n      0x1f\n      add\n      not(0x1f)\n      and\n      0x20\n      add\n      dup3\n      add\n      0x40\n      mstore\n      dup1\n      iszero\n      tag_18\n      jumpi\n      dup2\n      0x20\n      add\n      0x01\n      dup3\n      mul\n      dup1\n      calldatasize\n      dup4\n      calldatacopy\n      dup1\n      dup3\n      add\n      swap2\n      pop\n      pop\n      swap1\n      pop\n    tag_18:\n      pop\n        /* \"contracts/advanced/assembly.sol\":1085:1118  bytes memory data = new bytes(10) */\n      swap1\n      pop\n        /* \"contracts/advanced/assembly.sol\":1299:1314  bytes32 dataB32 */\n      0x00\n        /* \"contracts/advanced/assembly.sol\":1374:1376  32 */\n      0x20\n        /* \"contracts/advanced/assembly.sol\":1369:1373  data */\n      dup3\n        /* \"contracts/advanced/assembly.sol\":1365:1377  add(data,32) */\n      add\n        /* \"contracts/advanced/assembly.sol\":1359:1378  mload(add(data,32)) */\n      mload\n        /* \"contracts/advanced/assembly.sol\":1348:1378  dataB32 := mload(add(data,32)) */\n      swap1\n      pop\n        /* \"contracts/advanced/assembly.sol\":1333:1466  {... */\n      pop\n      pop\n        /* \"contracts/advanced/assembly.sol\":1040:1473  function addToEVM3()external view {... */\n      jump\t// out\n        /* \"contracts/advanced/assembly.sol\":710:1034  function addToEVM2()public view returns(bool success){... */\n    tag_9:\n        /* \"contracts/advanced/assembly.sol\":750:762  bool success */\n      0x00\n        /* \"contracts/advanced/assembly.sol\":774:783  uint size */\n      dup1\n        /* \"contracts/advanced/assembly.sol\":794:806  address addr */\n      0x00\n        /* \"contracts/advanced/assembly.sol\":930:934  addr */\n      dup1\n        /* \"contracts/advanced/assembly.sol\":918:935  extcodesize(addr) */\n      extcodesize\n        /* \"contracts/advanced/assembly.sol\":910:935  size := extcodesize(addr) */\n      swap2\n      pop\n        /* \"contracts/advanced/assembly.sol\":965:966  0 */\n      0x00\n        /* \"contracts/advanced/assembly.sol\":959:963  size */\n      dup3\n        /* \"contracts/advanced/assembly.sol\":959:966  size<=0 */\n      gt\n        /* \"contracts/advanced/assembly.sol\":956:1026  if(size<=0)... */\n      tag_20\n      jumpi\n        /* \"contracts/advanced/assembly.sol\":984:988  true */\n      0x01\n        /* \"contracts/advanced/assembly.sol\":977:988  return true */\n      swap3\n      pop\n      pop\n      pop\n      jump(tag_19)\n        /* \"contracts/advanced/assembly.sol\":956:1026  if(size<=0)... */\n    tag_20:\n        /* \"contracts/advanced/assembly.sol\":1021:1026  false */\n      0x00\n        /* \"contracts/advanced/assembly.sol\":1014:1026  return false */\n      swap3\n      pop\n      pop\n      pop\n        /* \"contracts/advanced/assembly.sol\":710:1034  function addToEVM2()public view returns(bool success){... */\n    tag_19:\n      swap1\n      jump\t// out\n        /* \"contracts/advanced/assembly.sol\":305:638  function addToEVM()external {... */\n    tag_13:\n      jump\t// out\n        /* \"#utility.yul\":7:97   */\n    tag_23:\n        /* \"#utility.yul\":41:48   */\n      0x00\n        /* \"#utility.yul\":84:89   */\n      dup2\n        /* \"#utility.yul\":77:90   */\n      iszero\n        /* \"#utility.yul\":70:91   */\n      iszero\n        /* \"#utility.yul\":59:91   */\n      swap1\n      pop\n        /* \"#utility.yul\":7:97   */\n      swap2\n      swap1\n      pop\n      jump\t// out\n        /* \"#utility.yul\":103:212   */\n    tag_24:\n        /* \"#utility.yul\":184:205   */\n      tag_28\n        /* \"#utility.yul\":199:204   */\n      dup2\n        /* \"#utility.yul\":184:205   */\n      tag_23\n      jump\t// in\n    tag_28:\n        /* \"#utility.yul\":179:182   */\n      dup3\n        /* \"#utility.yul\":172:206   */\n      mstore\n        /* \"#utility.yul\":103:212   */\n      pop\n      pop\n      jump\t// out\n        /* \"#utility.yul\":218:428   */\n    tag_11:\n        /* \"#utility.yul\":305:309   */\n      0x00\n        /* \"#utility.yul\":343:345   */\n      0x20\n        /* \"#utility.yul\":332:341   */\n      dup3\n        /* \"#utility.yul\":328:346   */\n      add\n        /* \"#utility.yul\":320:346   */\n      swap1\n      pop\n        /* \"#utility.yul\":356:421   */\n      tag_30\n        /* \"#utility.yul\":418:419   */\n      0x00\n        /* \"#utility.yul\":407:416   */\n      dup4\n        /* \"#utility.yul\":403:420   */\n      add\n        /* \"#utility.yul\":394:400   */\n      dup5\n        /* \"#utility.yul\":356:421   */\n      tag_24\n      jump\t// in\n    tag_30:\n        /* \"#utility.yul\":218:428   */\n      swap3\n      swap2\n      pop\n      pop\n      jump\t// out\n        /* \"#utility.yul\":434:614   */\n    tag_17:\n        /* \"#utility.yul\":482:559   */\n      0x4e487b7100000000000000000000000000000000000000000000000000000000\n        /* \"#utility.yul\":479:480   */\n      0x00\n        /* \"#utility.yul\":472:560   */\n      mstore\n        /* \"#utility.yul\":579:583   */\n      0x41\n        /* \"#utility.yul\":576:577   */\n      0x04\n        /* \"#utility.yul\":569:584   */\n      mstore\n        /* \"#utility.yul\":603:607   */\n      0x24\n        /* \"#utility.yul\":600:601   */\n      0x00\n        /* \"#utility.yul\":593:608   */\n      revert\n\n    auxdata: 0xa2646970667358221220ee07b15c62e0187621a7f0b378556472ceb7a2ad57c8b4688266fa9c775f7e1a64736f6c634300081a0033\n}\n",
				"bytecode": {
					"linkReferences": {},
					"object": "6080604052348015600e575f80fd5b5061018c8061001c5f395ff3fe608060405234801561000f575f80fd5b506004361061003f575f3560e01c80634691c58f146100435780634fee737f1461004d578063dadf8fee1461006b575b5f80fd5b61004b610075565b005b6100556100d2565b6040516100629190610110565b60405180910390f35b6100736100f4565b005b5f600a67ffffffffffffffff81111561009157610090610129565b5b6040519080825280601f01601f1916602001820160405280156100c35781602001600182028036833780820191505090505b5090505f602082015190505050565b5f805f803b91505f82116100eb576001925050506100f1565b5f925050505b90565b565b5f8115159050919050565b61010a816100f6565b82525050565b5f6020820190506101235f830184610101565b92915050565b7f4e487b71000000000000000000000000000000000000000000000000000000005f52604160045260245ffdfea2646970667358221220ee07b15c62e0187621a7f0b378556472ceb7a2ad57c8b4688266fa9c775f7e1a64736f6c634300081a0033",
					"opcodes": "PUSH1 0x80 PUSH1 0x40 MSTORE CALLVALUE DUP1 ISZERO PUSH1 0xE JUMPI PUSH0 DUP1 REVERT JUMPDEST POP PUSH2 0x18C DUP1 PUSH2 0x1C PUSH0 CODECOPY PUSH0 RETURN INVALID PUSH1 0x80 PUSH1 0x40 MSTORE CALLVALUE DUP1 ISZERO PUSH2 0xF JUMPI PUSH0 DUP1 REVERT JUMPDEST POP PUSH1 0x4 CALLDATASIZE LT PUSH2 0x3F JUMPI PUSH0 CALLDATALOAD PUSH1 0xE0 SHR DUP1 PUSH4 0x4691C58F EQ PUSH2 0x43 JUMPI DUP1 PUSH4 0x4FEE737F EQ PUSH2 0x4D JUMPI DUP1 PUSH4 0xDADF8FEE EQ PUSH2 0x6B JUMPI JUMPDEST PUSH0 DUP1 REVERT JUMPDEST PUSH2 0x4B PUSH2 0x75 JUMP JUMPDEST STOP JUMPDEST PUSH2 0x55 PUSH2 0xD2 JUMP JUMPDEST PUSH1 0x40 MLOAD PUSH2 0x62 SWAP2 SWAP1 PUSH2 0x110 JUMP JUMPDEST PUSH1 0x40 MLOAD DUP1 SWAP2 SUB SWAP1 RETURN JUMPDEST PUSH2 0x73 PUSH2 0xF4 JUMP JUMPDEST STOP JUMPDEST PUSH0 PUSH1 0xA PUSH8 0xFFFFFFFFFFFFFFFF DUP2 GT ISZERO PUSH2 0x91 JUMPI PUSH2 0x90 PUSH2 0x129 JUMP JUMPDEST JUMPDEST PUSH1 0x40 MLOAD SWAP1 DUP1 DUP3 MSTORE DUP1 PUSH1 0x1F ADD PUSH1 0x1F NOT AND PUSH1 0x20 ADD DUP3 ADD PUSH1 0x40 MSTORE DUP1 ISZERO PUSH2 0xC3 JUMPI DUP2 PUSH1 0x20 ADD PUSH1 0x1 DUP3 MUL DUP1 CALLDATASIZE DUP4 CALLDATACOPY DUP1 DUP3 ADD SWAP2 POP POP SWAP1 POP JUMPDEST POP SWAP1 POP PUSH0 PUSH1 0x20 DUP3 ADD MLOAD SWAP1 POP POP POP JUMP JUMPDEST PUSH0 DUP1 PUSH0 DUP1 EXTCODESIZE SWAP2 POP PUSH0 DUP3 GT PUSH2 0xEB JUMPI PUSH1 0x1 SWAP3 POP POP POP PUSH2 0xF1 JUMP JUMPDEST PUSH0 SWAP3 POP POP POP JUMPDEST SWAP1 JUMP JUMPDEST JUMP JUMPDEST PUSH0 DUP2 ISZERO ISZERO SWAP1 POP SWAP2 SWAP1 POP JUMP JUMPDEST PUSH2 0x10A DUP2 PUSH2 0xF6 JUMP JUMPDEST DUP3 MSTORE POP POP JUMP JUMPDEST PUSH0 PUSH1 0x20 DUP3 ADD SWAP1 POP PUSH2 0x123 PUSH0 DUP4 ADD DUP5 PUSH2 0x101 JUMP JUMPDEST SWAP3 SWAP2 POP POP JUMP JUMPDEST PUSH32 0x4E487B7100000000000000000000000000000000000000000000000000000000 PUSH0 MSTORE PUSH1 0x41 PUSH1 0x4 MSTORE PUSH1 0x24 PUSH0 REVERT INVALID LOG2 PUSH5 0x6970667358 0x22 SLT KECCAK256 0xEE SMOD 0xB1 TLOAD PUSH3 0xE01876 0x21 0xA7 CREATE 0xB3 PUSH25 0x556472CEB7A2AD57C8B4688266FA9C775F7E1A64736F6C6343 STOP ADDMOD BYTE STOP CALLER "
				},
				"gasEstimates": {
					"creation": {
						"codeDepositCost": "79200",
						"executionCost": "127",
						"totalCost": "79327"
					},
					"external": {
						"addToEVM()": "165",
						"addToEVM2()": "2988",
						"addToEVM3()": "320"
					}
				},
				"methodIdentifiers": {
					"addToEVM()": "dadf8fee",
					"addToEVM2()": "4fee737f",
					"addToEVM3()": "4691c58f"
				}
			},
			"storageLayout": {
				"storage": [],
				"types": null
			},
			"userdoc": {
				"kind": "user",
				"methods": {},
				"version": 1
			}
		}
	}
}