{
	"contracts/advanced/visibility.sol": {
		"A": {
			"abi": [
				{
					"inputs": [],
					"name": "data",
					"outputs": [
						{
							"internalType": "uint256",
							"name": "",
							"type": "uint256"
						}
					],
					"stateMutability": "view",
					"type": "function"
				},
				{
					"inputs": [],
					"name": "x",
					"outputs": [
						{
							"internalType": "uint256",
							"name": "",
							"type": "uint256"
						}
					],
					"stateMutability": "pure",
					"type": "function"
				},
				{
					"inputs": [],
					"name": "y",
					"outputs": [
						{
							"internalType": "uint256",
							"name": "",
							"type": "uint256"
						}
					],
					"stateMutability": "view",
					"type": "function"
				}
			],
			"devdoc": {
				"kind": "dev",
				"methods": {},
				"version": 1
			},
			"evm": {
				"assembly": "    /* \"contracts/advanced/visibility.sol\":238:572  contract A{... */\n  mstore(0x40, 0x80)\n    /* \"contracts/advanced/visibility.sol\":274:276  10 */\n  0x0a\n    /* \"contracts/advanced/visibility.sol\":255:276  uint public data = 10 */\n  0x00\n  sstore\n    /* \"contracts/advanced/visibility.sol\":238:572  contract A{... */\n  callvalue\n  dup1\n  iszero\n  tag_1\n  jumpi\n  0x00\n  dup1\n  revert\ntag_1:\n  pop\n  dataSize(sub_0)\n  dup1\n  dataOffset(sub_0)\n  0x00\n  codecopy\n  0x00\n  return\nstop\n\nsub_0: assembly {\n        /* \"contracts/advanced/visibility.sol\":238:572  contract A{... */\n      mstore(0x40, 0x80)\n      callvalue\n      dup1\n      iszero\n      tag_1\n      jumpi\n      0x00\n      dup1\n      revert\n    tag_1:\n      pop\n      jumpi(tag_2, lt(calldatasize, 0x04))\n      shr(0xe0, calldataload(0x00))\n      dup1\n      0x0c55699c\n      eq\n      tag_3\n      jumpi\n      dup1\n      0x73d4a13a\n      eq\n      tag_4\n      jumpi\n      dup1\n      0xa56dfe4a\n      eq\n      tag_5\n      jumpi\n    tag_2:\n      0x00\n      dup1\n      revert\n        /* \"contracts/advanced/visibility.sol\":283:385  function x() external pure returns (uint){... */\n    tag_3:\n      tag_6\n      tag_7\n      jump\t// in\n    tag_6:\n      mload(0x40)\n      tag_8\n      swap2\n      swap1\n      tag_9\n      jump\t// in\n    tag_8:\n      mload(0x40)\n      dup1\n      swap2\n      sub\n      swap1\n      return\n        /* \"contracts/advanced/visibility.sol\":255:276  uint public data = 10 */\n    tag_4:\n      tag_10\n      tag_11\n      jump\t// in\n    tag_10:\n      mload(0x40)\n      tag_12\n      swap2\n      swap1\n      tag_9\n      jump\t// in\n    tag_12:\n      mload(0x40)\n      dup1\n      swap2\n      sub\n      swap1\n      return\n        /* \"contracts/advanced/visibility.sol\":502:569  function y()public view returns(uint){... */\n    tag_5:\n      tag_13\n      tag_14\n      jump\t// in\n    tag_13:\n      mload(0x40)\n      tag_15\n      swap2\n      swap1\n      tag_9\n      jump\t// in\n    tag_15:\n      mload(0x40)\n      dup1\n      swap2\n      sub\n      swap1\n      return\n        /* \"contracts/advanced/visibility.sol\":283:385  function x() external pure returns (uint){... */\n    tag_7:\n        /* \"contracts/advanced/visibility.sol\":319:323  uint */\n      0x00\n        /* \"contracts/advanced/visibility.sol\":335:347  uint newData */\n      dup1\n        /* \"contracts/advanced/visibility.sol\":350:352  25 */\n      0x19\n        /* \"contracts/advanced/visibility.sol\":335:352  uint newData = 25 */\n      swap1\n      pop\n        /* \"contracts/advanced/visibility.sol\":370:377  newData */\n      dup1\n        /* \"contracts/advanced/visibility.sol\":363:377  return newData */\n      swap2\n      pop\n      pop\n        /* \"contracts/advanced/visibility.sol\":283:385  function x() external pure returns (uint){... */\n      swap1\n      jump\t// out\n        /* \"contracts/advanced/visibility.sol\":255:276  uint public data = 10 */\n    tag_11:\n      sload(0x00)\n      dup2\n      jump\t// out\n        /* \"contracts/advanced/visibility.sol\":502:569  function y()public view returns(uint){... */\n    tag_14:\n        /* \"contracts/advanced/visibility.sol\":534:538  uint */\n      0x00\n        /* \"contracts/advanced/visibility.sol\":557:561  data */\n      dup1\n      sload\n        /* \"contracts/advanced/visibility.sol\":550:561  return data */\n      swap1\n      pop\n        /* \"contracts/advanced/visibility.sol\":502:569  function y()public view returns(uint){... */\n      swap1\n      jump\t// out\n        /* \"#utility.yul\":7:84   */\n    tag_18:\n        /* \"#utility.yul\":44:51   */\n      0x00\n        /* \"#utility.yul\":73:78   */\n      dup2\n        /* \"#utility.yul\":62:78   */\n      swap1\n      pop\n        /* \"#utility.yul\":7:84   */\n      swap2\n      swap1\n      pop\n      jump\t// out\n        /* \"#utility.yul\":90:208   */\n    tag_19:\n        /* \"#utility.yul\":177:201   */\n      tag_23\n        /* \"#utility.yul\":195:200   */\n      dup2\n        /* \"#utility.yul\":177:201   */\n      tag_18\n      jump\t// in\n    tag_23:\n        /* \"#utility.yul\":172:175   */\n      dup3\n        /* \"#utility.yul\":165:202   */\n      mstore\n        /* \"#utility.yul\":90:208   */\n      pop\n      pop\n      jump\t// out\n        /* \"#utility.yul\":214:436   */\n    tag_9:\n        /* \"#utility.yul\":307:311   */\n      0x00\n        /* \"#utility.yul\":345:347   */\n      0x20\n        /* \"#utility.yul\":334:343   */\n      dup3\n        /* \"#utility.yul\":330:348   */\n      add\n        /* \"#utility.yul\":322:348   */\n      swap1\n      pop\n        /* \"#utility.yul\":358:429   */\n      tag_25\n        /* \"#utility.yul\":426:427   */\n      0x00\n        /* \"#utility.yul\":415:424   */\n      dup4\n        /* \"#utility.yul\":411:428   */\n      add\n        /* \"#utility.yul\":402:408   */\n      dup5\n        /* \"#utility.yul\":358:429   */\n      tag_19\n      jump\t// in\n    tag_25:\n        /* \"#utility.yul\":214:436   */\n      swap3\n      swap2\n      pop\n      pop\n      jump\t// out\n\n    auxdata: 0xa264697066735822122098802f754798c3c9db6162a781ed758b8553f72f57aecb4500e0460efa2d388364736f6c634300081a0033\n}\n",
				"bytecode": {
					"linkReferences": {},
					"object": "6080604052600a5f553480156012575f80fd5b50610109806100205f395ff3fe6080604052348015600e575f80fd5b5060043610603a575f3560e01c80630c55699c14603e57806373d4a13a146058578063a56dfe4a146072575b5f80fd5b6044608c565b604051604f919060bc565b60405180910390f35b605e6099565b6040516069919060bc565b60405180910390f35b6078609e565b6040516083919060bc565b60405180910390f35b5f80601990508091505090565b5f5481565b5f8054905090565b5f819050919050565b60b68160a6565b82525050565b5f60208201905060cd5f83018460af565b9291505056fea264697066735822122098802f754798c3c9db6162a781ed758b8553f72f57aecb4500e0460efa2d388364736f6c634300081a0033",
					"opcodes": "PUSH1 0x80 PUSH1 0x40 MSTORE PUSH1 0xA PUSH0 SSTORE CALLVALUE DUP1 ISZERO PUSH1 0x12 JUMPI PUSH0 DUP1 REVERT JUMPDEST POP PUSH2 0x109 DUP1 PUSH2 0x20 PUSH0 CODECOPY PUSH0 RETURN INVALID PUSH1 0x80 PUSH1 0x40 MSTORE CALLVALUE DUP1 ISZERO PUSH1 0xE JUMPI PUSH0 DUP1 REVERT JUMPDEST POP PUSH1 0x4 CALLDATASIZE LT PUSH1 0x3A JUMPI PUSH0 CALLDATALOAD PUSH1 0xE0 SHR DUP1 PUSH4 0xC55699C EQ PUSH1 0x3E JUMPI DUP1 PUSH4 0x73D4A13A EQ PUSH1 0x58 JUMPI DUP1 PUSH4 0xA56DFE4A EQ PUSH1 0x72 JUMPI JUMPDEST PUSH0 DUP1 REVERT JUMPDEST PUSH1 0x44 PUSH1 0x8C JUMP JUMPDEST PUSH1 0x40 MLOAD PUSH1 0x4F SWAP2 SWAP1 PUSH1 0xBC JUMP JUMPDEST PUSH1 0x40 MLOAD DUP1 SWAP2 SUB SWAP1 RETURN JUMPDEST PUSH1 0x5E PUSH1 0x99 JUMP JUMPDEST PUSH1 0x40 MLOAD PUSH1 0x69 SWAP2 SWAP1 PUSH1 0xBC JUMP JUMPDEST PUSH1 0x40 MLOAD DUP1 SWAP2 SUB SWAP1 RETURN JUMPDEST PUSH1 0x78 PUSH1 0x9E JUMP JUMPDEST PUSH1 0x40 MLOAD PUSH1 0x83 SWAP2 SWAP1 PUSH1 0xBC JUMP JUMPDEST PUSH1 0x40 MLOAD DUP1 SWAP2 SUB SWAP1 RETURN JUMPDEST PUSH0 DUP1 PUSH1 0x19 SWAP1 POP DUP1 SWAP2 POP POP SWAP1 JUMP JUMPDEST PUSH0 SLOAD DUP2 JUMP JUMPDEST PUSH0 DUP1 SLOAD SWAP1 POP SWAP1 JUMP JUMPDEST PUSH0 DUP2 SWAP1 POP SWAP2 SWAP1 POP JUMP JUMPDEST PUSH1 0xB6 DUP2 PUSH1 0xA6 JUMP JUMPDEST DUP3 MSTORE POP POP JUMP JUMPDEST PUSH0 PUSH1 0x20 DUP3 ADD SWAP1 POP PUSH1 0xCD PUSH0 DUP4 ADD DUP5 PUSH1 0xAF JUMP JUMPDEST SWAP3 SWAP2 POP POP JUMP INVALID LOG2 PUSH5 0x6970667358 0x22 SLT KECCAK256 SWAP9 DUP1 0x2F PUSH22 0x4798C3C9DB6162A781ED758B8553F72F57AECB4500E0 CHAINID 0xE STATICCALL 0x2D CODESIZE DUP4 PUSH5 0x736F6C6343 STOP ADDMOD BYTE STOP CALLER "
				},
				"gasEstimates": {
					"creation": {
						"codeDepositCost": "53000",
						"executionCost": "22208",
						"totalCost": "75208"
					},
					"external": {
						"data()": "2424",
						"x()": "323",
						"y()": "2454"
					},
					"internal": {
						"l()": "infinite"
					}
				},
				"methodIdentifiers": {
					"data()": "73d4a13a",
					"x()": "0c55699c",
					"y()": "a56dfe4a"
				}
			},
			"storageLayout": {
				"storage": [
					{
						"astId": 4,
						"contract": "contracts/advanced/visibility.sol:A",
						"label": "data",
						"offset": 0,
						"slot": "0",
						"type": "t_uint256"
					}
				],
				"types": {
					"t_uint256": {
						"encoding": "inplace",
						"label": "uint256",
						"numberOfBytes": "32"
					}
				}
			},
			"userdoc": {
				"kind": "user",
				"methods": {},
				"version": 1
			}
		}
	}
}