{
	"contracts/security/restrictedAccess.sol": {
		"RestrictedAccess": {
			"abi": [
				{
					"inputs": [
						{
							"internalType": "address",
							"name": "_newAddress",
							"type": "address"
						}
					],
					"name": "changeOwnerAddress",
					"outputs": [],
					"stateMutability": "nonpayable",
					"type": "function"
				},
				{
					"inputs": [],
					"name": "creationTime",
					"outputs": [
						{
							"internalType": "uint256",
							"name": "",
							"type": "uint256"
						}
					],
					"stateMutability": "view",
					"type": "function"
				},
				{
					"inputs": [],
					"name": "disown",
					"outputs": [],
					"stateMutability": "nonpayable",
					"type": "function"
				},
				{
					"inputs": [
						{
							"internalType": "address",
							"name": "_newOwner",
							"type": "address"
						}
					],
					"name": "forceOwnerChange",
					"outputs": [],
					"stateMutability": "payable",
					"type": "function"
				},
				{
					"inputs": [],
					"name": "owner",
					"outputs": [
						{
							"internalType": "address",
							"name": "",
							"type": "address"
						}
					],
					"stateMutability": "view",
					"type": "function"
				}
			],
			"devdoc": {
				"kind": "dev",
				"methods": {},
				"version": 1
			},
			"evm": {
				"assembly": "    /* \"contracts/security/restrictedAccess.sol\":276:1520  contract RestrictedAccess{... */\n  mstore(0x40, 0x80)\n    /* \"contracts/security/restrictedAccess.sol\":331:341  msg.sender */\n  caller\n    /* \"contracts/security/restrictedAccess.sol\":308:341  address public owner = msg.sender */\n  0x00\n  dup1\n  0x0100\n  exp\n  dup2\n  sload\n  dup2\n  0xffffffffffffffffffffffffffffffffffffffff\n  mul\n  not\n  and\n  swap1\n  dup4\n  0xffffffffffffffffffffffffffffffffffffffff\n  and\n  mul\n  or\n  swap1\n  sstore\n  pop\n    /* \"contracts/security/restrictedAccess.sol\":375:390  block.timestamp */\n  timestamp\n    /* \"contracts/security/restrictedAccess.sol\":348:390  uint public creationTime = block.timestamp */\n  0x01\n  sstore\n    /* \"contracts/security/restrictedAccess.sol\":276:1520  contract RestrictedAccess{... */\n  callvalue\n  dup1\n  iszero\n  tag_1\n  jumpi\n  0x00\n  dup1\n  revert\ntag_1:\n  pop\n  dataSize(sub_0)\n  dup1\n  dataOffset(sub_0)\n  0x00\n  codecopy\n  0x00\n  return\nstop\n\nsub_0: assembly {\n        /* \"contracts/security/restrictedAccess.sol\":276:1520  contract RestrictedAccess{... */\n      mstore(0x40, 0x80)\n      jumpi(tag_1, lt(calldatasize, 0x04))\n      shr(0xe0, calldataload(0x00))\n      dup1\n      0x0cb0c7f0\n      eq\n      tag_2\n      jumpi\n      dup1\n      0x1e9bf0da\n      eq\n      tag_3\n      jumpi\n      dup1\n      0x85eac05f\n      eq\n      tag_4\n      jumpi\n      dup1\n      0x8da5cb5b\n      eq\n      tag_5\n      jumpi\n      dup1\n      0xd8270dce\n      eq\n      tag_6\n      jumpi\n    tag_1:\n      0x00\n      dup1\n      revert\n        /* \"contracts/security/restrictedAccess.sol\":1405:1517  function forceOwnerChange(address _newOwner) payable public costs(200 ether){... */\n    tag_2:\n      tag_7\n      0x04\n      dup1\n      calldatasize\n      sub\n      dup2\n      add\n      swap1\n      tag_8\n      swap2\n      swap1\n      tag_9\n      jump\t// in\n    tag_8:\n      tag_10\n      jump\t// in\n    tag_7:\n      stop\n        /* \"contracts/security/restrictedAccess.sol\":1144:1249  function disown() onlyBy(owner) onlyAfter(creationTime + 5 seconds) public{... */\n    tag_3:\n      callvalue\n      dup1\n      iszero\n      tag_11\n      jumpi\n      0x00\n      dup1\n      revert\n    tag_11:\n      pop\n      tag_12\n      tag_13\n      jump\t// in\n    tag_12:\n      stop\n        /* \"contracts/security/restrictedAccess.sol\":786:899  function changeOwnerAddress(address _newAddress) onlyBy(owner) public... */\n    tag_4:\n      callvalue\n      dup1\n      iszero\n      tag_14\n      jumpi\n      0x00\n      dup1\n      revert\n    tag_14:\n      pop\n      tag_15\n      0x04\n      dup1\n      calldatasize\n      sub\n      dup2\n      add\n      swap1\n      tag_16\n      swap2\n      swap1\n      tag_9\n      jump\t// in\n    tag_16:\n      tag_17\n      jump\t// in\n    tag_15:\n      stop\n        /* \"contracts/security/restrictedAccess.sol\":308:341  address public owner = msg.sender */\n    tag_5:\n      callvalue\n      dup1\n      iszero\n      tag_18\n      jumpi\n      0x00\n      dup1\n      revert\n    tag_18:\n      pop\n      tag_19\n      tag_20\n      jump\t// in\n    tag_19:\n      mload(0x40)\n      tag_21\n      swap2\n      swap1\n      tag_22\n      jump\t// in\n    tag_21:\n      mload(0x40)\n      dup1\n      swap2\n      sub\n      swap1\n      return\n        /* \"contracts/security/restrictedAccess.sol\":348:390  uint public creationTime = block.timestamp */\n    tag_6:\n      callvalue\n      dup1\n      iszero\n      tag_23\n      jumpi\n      0x00\n      dup1\n      revert\n    tag_23:\n      pop\n      tag_24\n      tag_25\n      jump\t// in\n    tag_24:\n      mload(0x40)\n      tag_26\n      swap2\n      swap1\n      tag_27\n      jump\t// in\n    tag_26:\n      mload(0x40)\n      dup1\n      swap2\n      sub\n      swap1\n      return\n        /* \"contracts/security/restrictedAccess.sol\":1405:1517  function forceOwnerChange(address _newOwner) payable public costs(200 ether){... */\n    tag_10:\n        /* \"contracts/security/restrictedAccess.sol\":1471:1480  200 ether */\n      0x0ad78ebc5ac6200000\n        /* \"contracts/security/restrictedAccess.sol\":1342:1349  _amount */\n      dup1\n        /* \"contracts/security/restrictedAccess.sol\":1330:1339  msg.value */\n      callvalue\n        /* \"contracts/security/restrictedAccess.sol\":1330:1349  msg.value>= _amount */\n      lt\n      iszero\n        /* \"contracts/security/restrictedAccess.sol\":1322:1379  require(msg.value>= _amount, 'Not enough ether provided') */\n      tag_29\n      jumpi\n      mload(0x40)\n      0x08c379a000000000000000000000000000000000000000000000000000000000\n      dup2\n      mstore\n      0x04\n      add\n      tag_30\n      swap1\n      tag_31\n      jump\t// in\n    tag_30:\n      mload(0x40)\n      dup1\n      swap2\n      sub\n      swap1\n      revert\n    tag_29:\n        /* \"contracts/security/restrictedAccess.sol\":1500:1509  _newOwner */\n      dup2\n        /* \"contracts/security/restrictedAccess.sol\":1492:1497  owner */\n      0x00\n      dup1\n        /* \"contracts/security/restrictedAccess.sol\":1492:1509  owner = _newOwner */\n      0x0100\n      exp\n      dup2\n      sload\n      dup2\n      0xffffffffffffffffffffffffffffffffffffffff\n      mul\n      not\n      and\n      swap1\n      dup4\n      0xffffffffffffffffffffffffffffffffffffffff\n      and\n      mul\n      or\n      swap1\n      sstore\n      pop\n        /* \"contracts/security/restrictedAccess.sol\":1405:1517  function forceOwnerChange(address _newOwner) payable public costs(200 ether){... */\n      pop\n      pop\n      jump\t// out\n        /* \"contracts/security/restrictedAccess.sol\":1144:1249  function disown() onlyBy(owner) onlyAfter(creationTime + 5 seconds) public{... */\n    tag_13:\n        /* \"contracts/security/restrictedAccess.sol\":1169:1174  owner */\n      0x00\n      dup1\n      sload\n      swap1\n      0x0100\n      exp\n      swap1\n      div\n      0xffffffffffffffffffffffffffffffffffffffff\n      and\n        /* \"contracts/security/restrictedAccess.sol\":665:673  _account */\n      dup1\n        /* \"contracts/security/restrictedAccess.sol\":651:673  msg.sender == _account */\n      0xffffffffffffffffffffffffffffffffffffffff\n      and\n        /* \"contracts/security/restrictedAccess.sol\":651:661  msg.sender */\n      caller\n        /* \"contracts/security/restrictedAccess.sol\":651:673  msg.sender == _account */\n      0xffffffffffffffffffffffffffffffffffffffff\n      and\n      eq\n        /* \"contracts/security/restrictedAccess.sol\":643:699  require(msg.sender == _account, 'Sender not authorized') */\n      tag_34\n      jumpi\n      mload(0x40)\n      0x08c379a000000000000000000000000000000000000000000000000000000000\n      dup2\n      mstore\n      0x04\n      add\n      tag_35\n      swap1\n      tag_36\n      jump\t// in\n    tag_35:\n      mload(0x40)\n      dup1\n      swap2\n      sub\n      swap1\n      revert\n    tag_34:\n        /* \"contracts/security/restrictedAccess.sol\":1201:1210  5 seconds */\n      0x05\n        /* \"contracts/security/restrictedAccess.sol\":1186:1198  creationTime */\n      sload(0x01)\n        /* \"contracts/security/restrictedAccess.sol\":1186:1210  creationTime + 5 seconds */\n      tag_37\n      swap2\n      swap1\n      tag_38\n      jump\t// in\n    tag_37:\n        /* \"contracts/security/restrictedAccess.sol\":1031:1036  _time */\n      dup1\n        /* \"contracts/security/restrictedAccess.sol\":1012:1027  block.timestamp */\n      timestamp\n        /* \"contracts/security/restrictedAccess.sol\":1012:1036  block.timestamp >= _time */\n      lt\n      iszero\n        /* \"contracts/security/restrictedAccess.sol\":1004:1037  require(block.timestamp >= _time) */\n      tag_40\n      jumpi\n      0x00\n      dup1\n      revert\n    tag_40:\n        /* \"contracts/security/restrictedAccess.sol\":1236:1241  owner */\n      0x00\n      dup1\n        /* \"contracts/security/restrictedAccess.sol\":1229:1241  delete owner */\n      0x0100\n      exp\n      dup2\n      sload\n      swap1\n      0xffffffffffffffffffffffffffffffffffffffff\n      mul\n      not\n      and\n      swap1\n      sstore\n        /* \"contracts/security/restrictedAccess.sol\":710:711  _ */\n      pop\n        /* \"contracts/security/restrictedAccess.sol\":1144:1249  function disown() onlyBy(owner) onlyAfter(creationTime + 5 seconds) public{... */\n      pop\n      jump\t// out\n        /* \"contracts/security/restrictedAccess.sol\":786:899  function changeOwnerAddress(address _newAddress) onlyBy(owner) public... */\n    tag_17:\n        /* \"contracts/security/restrictedAccess.sol\":842:847  owner */\n      0x00\n      dup1\n      sload\n      swap1\n      0x0100\n      exp\n      swap1\n      div\n      0xffffffffffffffffffffffffffffffffffffffff\n      and\n        /* \"contracts/security/restrictedAccess.sol\":665:673  _account */\n      dup1\n        /* \"contracts/security/restrictedAccess.sol\":651:673  msg.sender == _account */\n      0xffffffffffffffffffffffffffffffffffffffff\n      and\n        /* \"contracts/security/restrictedAccess.sol\":651:661  msg.sender */\n      caller\n        /* \"contracts/security/restrictedAccess.sol\":651:673  msg.sender == _account */\n      0xffffffffffffffffffffffffffffffffffffffff\n      and\n      eq\n        /* \"contracts/security/restrictedAccess.sol\":643:699  require(msg.sender == _account, 'Sender not authorized') */\n      tag_43\n      jumpi\n      mload(0x40)\n      0x08c379a000000000000000000000000000000000000000000000000000000000\n      dup2\n      mstore\n      0x04\n      add\n      tag_44\n      swap1\n      tag_36\n      jump\t// in\n    tag_44:\n      mload(0x40)\n      dup1\n      swap2\n      sub\n      swap1\n      revert\n    tag_43:\n        /* \"contracts/security/restrictedAccess.sol\":880:891  _newAddress */\n      dup2\n        /* \"contracts/security/restrictedAccess.sol\":872:877  owner */\n      0x00\n      dup1\n        /* \"contracts/security/restrictedAccess.sol\":872:891  owner = _newAddress */\n      0x0100\n      exp\n      dup2\n      sload\n      dup2\n      0xffffffffffffffffffffffffffffffffffffffff\n      mul\n      not\n      and\n      swap1\n      dup4\n      0xffffffffffffffffffffffffffffffffffffffff\n      and\n      mul\n      or\n      swap1\n      sstore\n      pop\n        /* \"contracts/security/restrictedAccess.sol\":786:899  function changeOwnerAddress(address _newAddress) onlyBy(owner) public... */\n      pop\n      pop\n      jump\t// out\n        /* \"contracts/security/restrictedAccess.sol\":308:341  address public owner = msg.sender */\n    tag_20:\n      0x00\n      dup1\n      sload\n      swap1\n      0x0100\n      exp\n      swap1\n      div\n      0xffffffffffffffffffffffffffffffffffffffff\n      and\n      dup2\n      jump\t// out\n        /* \"contracts/security/restrictedAccess.sol\":348:390  uint public creationTime = block.timestamp */\n    tag_25:\n      sload(0x01)\n      dup2\n      jump\t// out\n        /* \"#utility.yul\":88:205   */\n    tag_47:\n        /* \"#utility.yul\":197:198   */\n      0x00\n        /* \"#utility.yul\":194:195   */\n      dup1\n        /* \"#utility.yul\":187:199   */\n      revert\n        /* \"#utility.yul\":334:460   */\n    tag_49:\n        /* \"#utility.yul\":371:378   */\n      0x00\n        /* \"#utility.yul\":411:453   */\n      0xffffffffffffffffffffffffffffffffffffffff\n        /* \"#utility.yul\":404:409   */\n      dup3\n        /* \"#utility.yul\":400:454   */\n      and\n        /* \"#utility.yul\":389:454   */\n      swap1\n      pop\n        /* \"#utility.yul\":334:460   */\n      swap2\n      swap1\n      pop\n      jump\t// out\n        /* \"#utility.yul\":466:562   */\n    tag_50:\n        /* \"#utility.yul\":503:510   */\n      0x00\n        /* \"#utility.yul\":532:556   */\n      tag_68\n        /* \"#utility.yul\":550:555   */\n      dup3\n        /* \"#utility.yul\":532:556   */\n      tag_49\n      jump\t// in\n    tag_68:\n        /* \"#utility.yul\":521:556   */\n      swap1\n      pop\n        /* \"#utility.yul\":466:562   */\n      swap2\n      swap1\n      pop\n      jump\t// out\n        /* \"#utility.yul\":568:690   */\n    tag_51:\n        /* \"#utility.yul\":641:665   */\n      tag_70\n        /* \"#utility.yul\":659:664   */\n      dup2\n        /* \"#utility.yul\":641:665   */\n      tag_50\n      jump\t// in\n    tag_70:\n        /* \"#utility.yul\":634:639   */\n      dup2\n        /* \"#utility.yul\":631:666   */\n      eq\n        /* \"#utility.yul\":621:684   */\n      tag_71\n      jumpi\n        /* \"#utility.yul\":680:681   */\n      0x00\n        /* \"#utility.yul\":677:678   */\n      dup1\n        /* \"#utility.yul\":670:682   */\n      revert\n        /* \"#utility.yul\":621:684   */\n    tag_71:\n        /* \"#utility.yul\":568:690   */\n      pop\n      jump\t// out\n        /* \"#utility.yul\":696:835   */\n    tag_52:\n        /* \"#utility.yul\":742:747   */\n      0x00\n        /* \"#utility.yul\":780:786   */\n      dup2\n        /* \"#utility.yul\":767:787   */\n      calldataload\n        /* \"#utility.yul\":758:787   */\n      swap1\n      pop\n        /* \"#utility.yul\":796:829   */\n      tag_73\n        /* \"#utility.yul\":823:828   */\n      dup2\n        /* \"#utility.yul\":796:829   */\n      tag_51\n      jump\t// in\n    tag_73:\n        /* \"#utility.yul\":696:835   */\n      swap3\n      swap2\n      pop\n      pop\n      jump\t// out\n        /* \"#utility.yul\":841:1170   */\n    tag_9:\n        /* \"#utility.yul\":900:906   */\n      0x00\n        /* \"#utility.yul\":949:951   */\n      0x20\n        /* \"#utility.yul\":937:946   */\n      dup3\n        /* \"#utility.yul\":928:935   */\n      dup5\n        /* \"#utility.yul\":924:947   */\n      sub\n        /* \"#utility.yul\":920:952   */\n      slt\n        /* \"#utility.yul\":917:1036   */\n      iszero\n      tag_75\n      jumpi\n        /* \"#utility.yul\":955:1034   */\n      tag_76\n      tag_47\n      jump\t// in\n    tag_76:\n        /* \"#utility.yul\":917:1036   */\n    tag_75:\n        /* \"#utility.yul\":1075:1076   */\n      0x00\n        /* \"#utility.yul\":1100:1153   */\n      tag_77\n        /* \"#utility.yul\":1145:1152   */\n      dup5\n        /* \"#utility.yul\":1136:1142   */\n      dup3\n        /* \"#utility.yul\":1125:1134   */\n      dup6\n        /* \"#utility.yul\":1121:1143   */\n      add\n        /* \"#utility.yul\":1100:1153   */\n      tag_52\n      jump\t// in\n    tag_77:\n        /* \"#utility.yul\":1090:1153   */\n      swap2\n      pop\n        /* \"#utility.yul\":1046:1163   */\n      pop\n        /* \"#utility.yul\":841:1170   */\n      swap3\n      swap2\n      pop\n      pop\n      jump\t// out\n        /* \"#utility.yul\":1176:1294   */\n    tag_53:\n        /* \"#utility.yul\":1263:1287   */\n      tag_79\n        /* \"#utility.yul\":1281:1286   */\n      dup2\n        /* \"#utility.yul\":1263:1287   */\n      tag_50\n      jump\t// in\n    tag_79:\n        /* \"#utility.yul\":1258:1261   */\n      dup3\n        /* \"#utility.yul\":1251:1288   */\n      mstore\n        /* \"#utility.yul\":1176:1294   */\n      pop\n      pop\n      jump\t// out\n        /* \"#utility.yul\":1300:1522   */\n    tag_22:\n        /* \"#utility.yul\":1393:1397   */\n      0x00\n        /* \"#utility.yul\":1431:1433   */\n      0x20\n        /* \"#utility.yul\":1420:1429   */\n      dup3\n        /* \"#utility.yul\":1416:1434   */\n      add\n        /* \"#utility.yul\":1408:1434   */\n      swap1\n      pop\n        /* \"#utility.yul\":1444:1515   */\n      tag_81\n        /* \"#utility.yul\":1512:1513   */\n      0x00\n        /* \"#utility.yul\":1501:1510   */\n      dup4\n        /* \"#utility.yul\":1497:1514   */\n      add\n        /* \"#utility.yul\":1488:1494   */\n      dup5\n        /* \"#utility.yul\":1444:1515   */\n      tag_53\n      jump\t// in\n    tag_81:\n        /* \"#utility.yul\":1300:1522   */\n      swap3\n      swap2\n      pop\n      pop\n      jump\t// out\n        /* \"#utility.yul\":1528:1605   */\n    tag_54:\n        /* \"#utility.yul\":1565:1572   */\n      0x00\n        /* \"#utility.yul\":1594:1599   */\n      dup2\n        /* \"#utility.yul\":1583:1599   */\n      swap1\n      pop\n        /* \"#utility.yul\":1528:1605   */\n      swap2\n      swap1\n      pop\n      jump\t// out\n        /* \"#utility.yul\":1611:1729   */\n    tag_55:\n        /* \"#utility.yul\":1698:1722   */\n      tag_84\n        /* \"#utility.yul\":1716:1721   */\n      dup2\n        /* \"#utility.yul\":1698:1722   */\n      tag_54\n      jump\t// in\n    tag_84:\n        /* \"#utility.yul\":1693:1696   */\n      dup3\n        /* \"#utility.yul\":1686:1723   */\n      mstore\n        /* \"#utility.yul\":1611:1729   */\n      pop\n      pop\n      jump\t// out\n        /* \"#utility.yul\":1735:1957   */\n    tag_27:\n        /* \"#utility.yul\":1828:1832   */\n      0x00\n        /* \"#utility.yul\":1866:1868   */\n      0x20\n        /* \"#utility.yul\":1855:1864   */\n      dup3\n        /* \"#utility.yul\":1851:1869   */\n      add\n        /* \"#utility.yul\":1843:1869   */\n      swap1\n      pop\n        /* \"#utility.yul\":1879:1950   */\n      tag_86\n        /* \"#utility.yul\":1947:1948   */\n      0x00\n        /* \"#utility.yul\":1936:1945   */\n      dup4\n        /* \"#utility.yul\":1932:1949   */\n      add\n        /* \"#utility.yul\":1923:1929   */\n      dup5\n        /* \"#utility.yul\":1879:1950   */\n      tag_55\n      jump\t// in\n    tag_86:\n        /* \"#utility.yul\":1735:1957   */\n      swap3\n      swap2\n      pop\n      pop\n      jump\t// out\n        /* \"#utility.yul\":1963:2132   */\n    tag_56:\n        /* \"#utility.yul\":2047:2058   */\n      0x00\n        /* \"#utility.yul\":2081:2087   */\n      dup3\n        /* \"#utility.yul\":2076:2079   */\n      dup3\n        /* \"#utility.yul\":2069:2088   */\n      mstore\n        /* \"#utility.yul\":2121:2125   */\n      0x20\n        /* \"#utility.yul\":2116:2119   */\n      dup3\n        /* \"#utility.yul\":2112:2126   */\n      add\n        /* \"#utility.yul\":2097:2126   */\n      swap1\n      pop\n        /* \"#utility.yul\":1963:2132   */\n      swap3\n      swap2\n      pop\n      pop\n      jump\t// out\n        /* \"#utility.yul\":2138:2313   */\n    tag_57:\n        /* \"#utility.yul\":2278:2305   */\n      0x4e6f7420656e6f7567682065746865722070726f766964656400000000000000\n        /* \"#utility.yul\":2274:2275   */\n      0x00\n        /* \"#utility.yul\":2266:2272   */\n      dup3\n        /* \"#utility.yul\":2262:2276   */\n      add\n        /* \"#utility.yul\":2255:2306   */\n      mstore\n        /* \"#utility.yul\":2138:2313   */\n      pop\n      jump\t// out\n        /* \"#utility.yul\":2319:2685   */\n    tag_58:\n        /* \"#utility.yul\":2461:2464   */\n      0x00\n        /* \"#utility.yul\":2482:2549   */\n      tag_90\n        /* \"#utility.yul\":2546:2548   */\n      0x19\n        /* \"#utility.yul\":2541:2544   */\n      dup4\n        /* \"#utility.yul\":2482:2549   */\n      tag_56\n      jump\t// in\n    tag_90:\n        /* \"#utility.yul\":2475:2549   */\n      swap2\n      pop\n        /* \"#utility.yul\":2558:2651   */\n      tag_91\n        /* \"#utility.yul\":2647:2650   */\n      dup3\n        /* \"#utility.yul\":2558:2651   */\n      tag_57\n      jump\t// in\n    tag_91:\n        /* \"#utility.yul\":2676:2678   */\n      0x20\n        /* \"#utility.yul\":2671:2674   */\n      dup3\n        /* \"#utility.yul\":2667:2679   */\n      add\n        /* \"#utility.yul\":2660:2679   */\n      swap1\n      pop\n        /* \"#utility.yul\":2319:2685   */\n      swap2\n      swap1\n      pop\n      jump\t// out\n        /* \"#utility.yul\":2691:3110   */\n    tag_31:\n        /* \"#utility.yul\":2857:2861   */\n      0x00\n        /* \"#utility.yul\":2895:2897   */\n      0x20\n        /* \"#utility.yul\":2884:2893   */\n      dup3\n        /* \"#utility.yul\":2880:2898   */\n      add\n        /* \"#utility.yul\":2872:2898   */\n      swap1\n      pop\n        /* \"#utility.yul\":2944:2953   */\n      dup2\n        /* \"#utility.yul\":2938:2942   */\n      dup2\n        /* \"#utility.yul\":2934:2954   */\n      sub\n        /* \"#utility.yul\":2930:2931   */\n      0x00\n        /* \"#utility.yul\":2919:2928   */\n      dup4\n        /* \"#utility.yul\":2915:2932   */\n      add\n        /* \"#utility.yul\":2908:2955   */\n      mstore\n        /* \"#utility.yul\":2972:3103   */\n      tag_93\n        /* \"#utility.yul\":3098:3102   */\n      dup2\n        /* \"#utility.yul\":2972:3103   */\n      tag_58\n      jump\t// in\n    tag_93:\n        /* \"#utility.yul\":2964:3103   */\n      swap1\n      pop\n        /* \"#utility.yul\":2691:3110   */\n      swap2\n      swap1\n      pop\n      jump\t// out\n        /* \"#utility.yul\":3116:3287   */\n    tag_59:\n        /* \"#utility.yul\":3256:3279   */\n      0x53656e646572206e6f7420617574686f72697a65640000000000000000000000\n        /* \"#utility.yul\":3252:3253   */\n      0x00\n        /* \"#utility.yul\":3244:3250   */\n      dup3\n        /* \"#utility.yul\":3240:3254   */\n      add\n        /* \"#utility.yul\":3233:3280   */\n      mstore\n        /* \"#utility.yul\":3116:3287   */\n      pop\n      jump\t// out\n        /* \"#utility.yul\":3293:3659   */\n    tag_60:\n        /* \"#utility.yul\":3435:3438   */\n      0x00\n        /* \"#utility.yul\":3456:3523   */\n      tag_96\n        /* \"#utility.yul\":3520:3522   */\n      0x15\n        /* \"#utility.yul\":3515:3518   */\n      dup4\n        /* \"#utility.yul\":3456:3523   */\n      tag_56\n      jump\t// in\n    tag_96:\n        /* \"#utility.yul\":3449:3523   */\n      swap2\n      pop\n        /* \"#utility.yul\":3532:3625   */\n      tag_97\n        /* \"#utility.yul\":3621:3624   */\n      dup3\n        /* \"#utility.yul\":3532:3625   */\n      tag_59\n      jump\t// in\n    tag_97:\n        /* \"#utility.yul\":3650:3652   */\n      0x20\n        /* \"#utility.yul\":3645:3648   */\n      dup3\n        /* \"#utility.yul\":3641:3653   */\n      add\n        /* \"#utility.yul\":3634:3653   */\n      swap1\n      pop\n        /* \"#utility.yul\":3293:3659   */\n      swap2\n      swap1\n      pop\n      jump\t// out\n        /* \"#utility.yul\":3665:4084   */\n    tag_36:\n        /* \"#utility.yul\":3831:3835   */\n      0x00\n        /* \"#utility.yul\":3869:3871   */\n      0x20\n        /* \"#utility.yul\":3858:3867   */\n      dup3\n        /* \"#utility.yul\":3854:3872   */\n      add\n        /* \"#utility.yul\":3846:3872   */\n      swap1\n      pop\n        /* \"#utility.yul\":3918:3927   */\n      dup2\n        /* \"#utility.yul\":3912:3916   */\n      dup2\n        /* \"#utility.yul\":3908:3928   */\n      sub\n        /* \"#utility.yul\":3904:3905   */\n      0x00\n        /* \"#utility.yul\":3893:3902   */\n      dup4\n        /* \"#utility.yul\":3889:3906   */\n      add\n        /* \"#utility.yul\":3882:3929   */\n      mstore\n        /* \"#utility.yul\":3946:4077   */\n      tag_99\n        /* \"#utility.yul\":4072:4076   */\n      dup2\n        /* \"#utility.yul\":3946:4077   */\n      tag_60\n      jump\t// in\n    tag_99:\n        /* \"#utility.yul\":3938:4077   */\n      swap1\n      pop\n        /* \"#utility.yul\":3665:4084   */\n      swap2\n      swap1\n      pop\n      jump\t// out\n        /* \"#utility.yul\":4090:4270   */\n    tag_61:\n        /* \"#utility.yul\":4138:4215   */\n      0x4e487b7100000000000000000000000000000000000000000000000000000000\n        /* \"#utility.yul\":4135:4136   */\n      0x00\n        /* \"#utility.yul\":4128:4216   */\n      mstore\n        /* \"#utility.yul\":4235:4239   */\n      0x11\n        /* \"#utility.yul\":4232:4233   */\n      0x04\n        /* \"#utility.yul\":4225:4240   */\n      mstore\n        /* \"#utility.yul\":4259:4263   */\n      0x24\n        /* \"#utility.yul\":4256:4257   */\n      0x00\n        /* \"#utility.yul\":4249:4264   */\n      revert\n        /* \"#utility.yul\":4276:4467   */\n    tag_38:\n        /* \"#utility.yul\":4316:4319   */\n      0x00\n        /* \"#utility.yul\":4335:4355   */\n      tag_102\n        /* \"#utility.yul\":4353:4354   */\n      dup3\n        /* \"#utility.yul\":4335:4355   */\n      tag_54\n      jump\t// in\n    tag_102:\n        /* \"#utility.yul\":4330:4355   */\n      swap2\n      pop\n        /* \"#utility.yul\":4369:4389   */\n      tag_103\n        /* \"#utility.yul\":4387:4388   */\n      dup4\n        /* \"#utility.yul\":4369:4389   */\n      tag_54\n      jump\t// in\n    tag_103:\n        /* \"#utility.yul\":4364:4389   */\n      swap3\n      pop\n        /* \"#utility.yul\":4412:4413   */\n      dup3\n        /* \"#utility.yul\":4409:4410   */\n      dup3\n        /* \"#utility.yul\":4405:4414   */\n      add\n        /* \"#utility.yul\":4398:4414   */\n      swap1\n      pop\n        /* \"#utility.yul\":4433:4436   */\n      dup1\n        /* \"#utility.yul\":4430:4431   */\n      dup3\n        /* \"#utility.yul\":4427:4437   */\n      gt\n        /* \"#utility.yul\":4424:4460   */\n      iszero\n      tag_104\n      jumpi\n        /* \"#utility.yul\":4440:4458   */\n      tag_105\n      tag_61\n      jump\t// in\n    tag_105:\n        /* \"#utility.yul\":4424:4460   */\n    tag_104:\n        /* \"#utility.yul\":4276:4467   */\n      swap3\n      swap2\n      pop\n      pop\n      jump\t// out\n\n    auxdata: 0xa2646970667358221220b399056f4220a39b1946fb80a367f412f8aa35f3529b2caf29d744a12d22762664736f6c634300081a0033\n}\n",
				"bytecode": {
					"linkReferences": {},
					"object": "6080604052335f806101000a81548173ffffffffffffffffffffffffffffffffffffffff021916908373ffffffffffffffffffffffffffffffffffffffff160217905550426001553480156051575f80fd5b506105ad8061005f5f395ff3fe608060405260043610610049575f3560e01c80630cb0c7f01461004d5780631e9bf0da1461006957806385eac05f1461007f5780638da5cb5b146100a7578063d8270dce146100d1575b5f80fd5b610067600480360381019061006291906103b3565b6100fb565b005b348015610074575f80fd5b5061007d61018b565b005b34801561008a575f80fd5b506100a560048036038101906100a091906103b3565b61025b565b005b3480156100b2575f80fd5b506100bb61032c565b6040516100c891906103ed565b60405180910390f35b3480156100dc575f80fd5b506100e561034f565b6040516100f2919061041e565b60405180910390f35b680ad78ebc5ac620000080341015610148576040517f08c379a000000000000000000000000000000000000000000000000000000000815260040161013f90610491565b60405180910390fd5b815f806101000a81548173ffffffffffffffffffffffffffffffffffffffff021916908373ffffffffffffffffffffffffffffffffffffffff1602179055505050565b5f8054906101000a900473ffffffffffffffffffffffffffffffffffffffff168073ffffffffffffffffffffffffffffffffffffffff163373ffffffffffffffffffffffffffffffffffffffff1614610219576040517f08c379a0000000000000000000000000000000000000000000000000000000008152600401610210906104f9565b60405180910390fd5b60056001546102289190610544565b80421015610234575f80fd5b5f806101000a81549073ffffffffffffffffffffffffffffffffffffffff02191690555050565b5f8054906101000a900473ffffffffffffffffffffffffffffffffffffffff168073ffffffffffffffffffffffffffffffffffffffff163373ffffffffffffffffffffffffffffffffffffffff16146102e9576040517f08c379a00000000000000000000000000000000000000000000000000000000081526004016102e0906104f9565b60405180910390fd5b815f806101000a81548173ffffffffffffffffffffffffffffffffffffffff021916908373ffffffffffffffffffffffffffffffffffffffff1602179055505050565b5f8054906101000a900473ffffffffffffffffffffffffffffffffffffffff1681565b60015481565b5f80fd5b5f73ffffffffffffffffffffffffffffffffffffffff82169050919050565b5f61038282610359565b9050919050565b61039281610378565b811461039c575f80fd5b50565b5f813590506103ad81610389565b92915050565b5f602082840312156103c8576103c7610355565b5b5f6103d58482850161039f565b91505092915050565b6103e781610378565b82525050565b5f6020820190506104005f8301846103de565b92915050565b5f819050919050565b61041881610406565b82525050565b5f6020820190506104315f83018461040f565b92915050565b5f82825260208201905092915050565b7f4e6f7420656e6f7567682065746865722070726f7669646564000000000000005f82015250565b5f61047b601983610437565b915061048682610447565b602082019050919050565b5f6020820190508181035f8301526104a88161046f565b9050919050565b7f53656e646572206e6f7420617574686f72697a656400000000000000000000005f82015250565b5f6104e3601583610437565b91506104ee826104af565b602082019050919050565b5f6020820190508181035f830152610510816104d7565b9050919050565b7f4e487b71000000000000000000000000000000000000000000000000000000005f52601160045260245ffd5b5f61054e82610406565b915061055983610406565b925082820190508082111561057157610570610517565b5b9291505056fea2646970667358221220b399056f4220a39b1946fb80a367f412f8aa35f3529b2caf29d744a12d22762664736f6c634300081a0033",
					"opcodes": "PUSH1 0x80 PUSH1 0x40 MSTORE CALLER PUSH0 DUP1 PUSH2 0x100 EXP DUP2 SLOAD DUP2 PUSH20 0xFFFFFFFFFFFFFFFFFFFFFFFFFFFFFFFFFFFFFFFF MUL NOT AND SWAP1 DUP4 PUSH20 0xFFFFFFFFFFFFFFFFFFFFFFFFFFFFFFFFFFFFFFFF AND MUL OR SWAP1 SSTORE POP TIMESTAMP PUSH1 0x1 SSTORE CALLVALUE DUP1 ISZERO PUSH1 0x51 JUMPI PUSH0 DUP1 REVERT JUMPDEST POP PUSH2 0x5AD DUP1 PUSH2 0x5F PUSH0 CODECOPY PUSH0 RETURN INVALID PUSH1 0x80 PUSH1 0x40 MSTORE PUSH1 0x4 CALLDATASIZE LT PUSH2 0x49 JUMPI PUSH0 CALLDATALOAD PUSH1 0xE0 SHR DUP1 PUSH4 0xCB0C7F0 EQ PUSH2 0x4D JUMPI DUP1 PUSH4 0x1E9BF0DA EQ PUSH2 0x69 JUMPI DUP1 PUSH4 0x85EAC05F EQ PUSH2 0x7F JUMPI DUP1 PUSH4 0x8DA5CB5B EQ PUSH2 0xA7 JUMPI DUP1 PUSH4 0xD8270DCE EQ PUSH2 0xD1 JUMPI JUMPDEST PUSH0 DUP1 REVERT JUMPDEST PUSH2 0x67 PUSH1 0x4 DUP1 CALLDATASIZE SUB DUP2 ADD SWAP1 PUSH2 0x62 SWAP2 SWAP1 PUSH2 0x3B3 JUMP JUMPDEST PUSH2 0xFB JUMP JUMPDEST STOP JUMPDEST CALLVALUE DUP1 ISZERO PUSH2 0x74 JUMPI PUSH0 DUP1 REVERT JUMPDEST POP PUSH2 0x7D PUSH2 0x18B JUMP JUMPDEST STOP JUMPDEST CALLVALUE DUP1 ISZERO PUSH2 0x8A JUMPI PUSH0 DUP1 REVERT JUMPDEST POP PUSH2 0xA5 PUSH1 0x4 DUP1 CALLDATASIZE SUB DUP2 ADD SWAP1 PUSH2 0xA0 SWAP2 SWAP1 PUSH2 0x3B3 JUMP JUMPDEST PUSH2 0x25B JUMP JUMPDEST STOP JUMPDEST CALLVALUE DUP1 ISZERO PUSH2 0xB2 JUMPI PUSH0 DUP1 REVERT JUMPDEST POP PUSH2 0xBB PUSH2 0x32C JUMP JUMPDEST PUSH1 0x40 MLOAD PUSH2 0xC8 SWAP2 SWAP1 PUSH2 0x3ED JUMP JUMPDEST PUSH1 0x40 MLOAD DUP1 SWAP2 SUB SWAP1 RETURN JUMPDEST CALLVALUE DUP1 ISZERO PUSH2 0xDC JUMPI PUSH0 DUP1 REVERT JUMPDEST POP PUSH2 0xE5 PUSH2 0x34F JUMP JUMPDEST PUSH1 0x40 MLOAD PUSH2 0xF2 SWAP2 SWAP1 PUSH2 0x41E JUMP JUMPDEST PUSH1 0x40 MLOAD DUP1 SWAP2 SUB SWAP1 RETURN JUMPDEST PUSH9 0xAD78EBC5AC6200000 DUP1 CALLVALUE LT ISZERO PUSH2 0x148 JUMPI PUSH1 0x40 MLOAD PUSH32 0x8C379A000000000000000000000000000000000000000000000000000000000 DUP2 MSTORE PUSH1 0x4 ADD PUSH2 0x13F SWAP1 PUSH2 0x491 JUMP JUMPDEST PUSH1 0x40 MLOAD DUP1 SWAP2 SUB SWAP1 REVERT JUMPDEST DUP2 PUSH0 DUP1 PUSH2 0x100 EXP DUP2 SLOAD DUP2 PUSH20 0xFFFFFFFFFFFFFFFFFFFFFFFFFFFFFFFFFFFFFFFF MUL NOT AND SWAP1 DUP4 PUSH20 0xFFFFFFFFFFFFFFFFFFFFFFFFFFFFFFFFFFFFFFFF AND MUL OR SWAP1 SSTORE POP POP POP JUMP JUMPDEST PUSH0 DUP1 SLOAD SWAP1 PUSH2 0x100 EXP SWAP1 DIV PUSH20 0xFFFFFFFFFFFFFFFFFFFFFFFFFFFFFFFFFFFFFFFF AND DUP1 PUSH20 0xFFFFFFFFFFFFFFFFFFFFFFFFFFFFFFFFFFFFFFFF AND CALLER PUSH20 0xFFFFFFFFFFFFFFFFFFFFFFFFFFFFFFFFFFFFFFFF AND EQ PUSH2 0x219 JUMPI PUSH1 0x40 MLOAD PUSH32 0x8C379A000000000000000000000000000000000000000000000000000000000 DUP2 MSTORE PUSH1 0x4 ADD PUSH2 0x210 SWAP1 PUSH2 0x4F9 JUMP JUMPDEST PUSH1 0x40 MLOAD DUP1 SWAP2 SUB SWAP1 REVERT JUMPDEST PUSH1 0x5 PUSH1 0x1 SLOAD PUSH2 0x228 SWAP2 SWAP1 PUSH2 0x544 JUMP JUMPDEST DUP1 TIMESTAMP LT ISZERO PUSH2 0x234 JUMPI PUSH0 DUP1 REVERT JUMPDEST PUSH0 DUP1 PUSH2 0x100 EXP DUP2 SLOAD SWAP1 PUSH20 0xFFFFFFFFFFFFFFFFFFFFFFFFFFFFFFFFFFFFFFFF MUL NOT AND SWAP1 SSTORE POP POP JUMP JUMPDEST PUSH0 DUP1 SLOAD SWAP1 PUSH2 0x100 EXP SWAP1 DIV PUSH20 0xFFFFFFFFFFFFFFFFFFFFFFFFFFFFFFFFFFFFFFFF AND DUP1 PUSH20 0xFFFFFFFFFFFFFFFFFFFFFFFFFFFFFFFFFFFFFFFF AND CALLER PUSH20 0xFFFFFFFFFFFFFFFFFFFFFFFFFFFFFFFFFFFFFFFF AND EQ PUSH2 0x2E9 JUMPI PUSH1 0x40 MLOAD PUSH32 0x8C379A000000000000000000000000000000000000000000000000000000000 DUP2 MSTORE PUSH1 0x4 ADD PUSH2 0x2E0 SWAP1 PUSH2 0x4F9 JUMP JUMPDEST PUSH1 0x40 MLOAD DUP1 SWAP2 SUB SWAP1 REVERT JUMPDEST DUP2 PUSH0 DUP1 PUSH2 0x100 EXP DUP2 SLOAD DUP2 PUSH20 0xFFFFFFFFFFFFFFFFFFFFFFFFFFFFFFFFFFFFFFFF MUL NOT AND SWAP1 DUP4 PUSH20 0xFFFFFFFFFFFFFFFFFFFFFFFFFFFFFFFFFFFFFFFF AND MUL OR SWAP1 SSTORE POP POP POP JUMP JUMPDEST PUSH0 DUP1 SLOAD SWAP1 PUSH2 0x100 EXP SWAP1 DIV PUSH20 0xFFFFFFFFFFFFFFFFFFFFFFFFFFFFFFFFFFFFFFFF AND DUP2 JUMP JUMPDEST PUSH1 0x1 SLOAD DUP2 JUMP JUMPDEST PUSH0 DUP1 REVERT JUMPDEST PUSH0 PUSH20 0xFFFFFFFFFFFFFFFFFFFFFFFFFFFFFFFFFFFFFFFF DUP3 AND SWAP1 POP SWAP2 SWAP1 POP JUMP JUMPDEST PUSH0 PUSH2 0x382 DUP3 PUSH2 0x359 JUMP JUMPDEST SWAP1 POP SWAP2 SWAP1 POP JUMP JUMPDEST PUSH2 0x392 DUP2 PUSH2 0x378 JUMP JUMPDEST DUP2 EQ PUSH2 0x39C JUMPI PUSH0 DUP1 REVERT JUMPDEST POP JUMP JUMPDEST PUSH0 DUP2 CALLDATALOAD SWAP1 POP PUSH2 0x3AD DUP2 PUSH2 0x389 JUMP JUMPDEST SWAP3 SWAP2 POP POP JUMP JUMPDEST PUSH0 PUSH1 0x20 DUP3 DUP5 SUB SLT ISZERO PUSH2 0x3C8 JUMPI PUSH2 0x3C7 PUSH2 0x355 JUMP JUMPDEST JUMPDEST PUSH0 PUSH2 0x3D5 DUP5 DUP3 DUP6 ADD PUSH2 0x39F JUMP JUMPDEST SWAP2 POP POP SWAP3 SWAP2 POP POP JUMP JUMPDEST PUSH2 0x3E7 DUP2 PUSH2 0x378 JUMP JUMPDEST DUP3 MSTORE POP POP JUMP JUMPDEST PUSH0 PUSH1 0x20 DUP3 ADD SWAP1 POP PUSH2 0x400 PUSH0 DUP4 ADD DUP5 PUSH2 0x3DE JUMP JUMPDEST SWAP3 SWAP2 POP POP JUMP JUMPDEST PUSH0 DUP2 SWAP1 POP SWAP2 SWAP1 POP JUMP JUMPDEST PUSH2 0x418 DUP2 PUSH2 0x406 JUMP JUMPDEST DUP3 MSTORE POP POP JUMP JUMPDEST PUSH0 PUSH1 0x20 DUP3 ADD SWAP1 POP PUSH2 0x431 PUSH0 DUP4 ADD DUP5 PUSH2 0x40F JUMP JUMPDEST SWAP3 SWAP2 POP POP JUMP JUMPDEST PUSH0 DUP3 DUP3 MSTORE PUSH1 0x20 DUP3 ADD SWAP1 POP SWAP3 SWAP2 POP POP JUMP JUMPDEST PUSH32 0x4E6F7420656E6F7567682065746865722070726F766964656400000000000000 PUSH0 DUP3 ADD MSTORE POP JUMP JUMPDEST PUSH0 PUSH2 0x47B PUSH1 0x19 DUP4 PUSH2 0x437 JUMP JUMPDEST SWAP2 POP PUSH2 0x486 DUP3 PUSH2 0x447 JUMP JUMPDEST PUSH1 0x20 DUP3 ADD SWAP1 POP SWAP2 SWAP1 POP JUMP JUMPDEST PUSH0 PUSH1 0x20 DUP3 ADD SWAP1 POP DUP2 DUP2 SUB PUSH0 DUP4 ADD MSTORE PUSH2 0x4A8 DUP2 PUSH2 0x46F JUMP JUMPDEST SWAP1 POP SWAP2 SWAP1 POP JUMP JUMPDEST PUSH32 0x53656E646572206E6F7420617574686F72697A65640000000000000000000000 PUSH0 DUP3 ADD MSTORE POP JUMP JUMPDEST PUSH0 PUSH2 0x4E3 PUSH1 0x15 DUP4 PUSH2 0x437 JUMP JUMPDEST SWAP2 POP PUSH2 0x4EE DUP3 PUSH2 0x4AF JUMP JUMPDEST PUSH1 0x20 DUP3 ADD SWAP1 POP SWAP2 SWAP1 POP JUMP JUMPDEST PUSH0 PUSH1 0x20 DUP3 ADD SWAP1 POP DUP2 DUP2 SUB PUSH0 DUP4 ADD MSTORE PUSH2 0x510 DUP2 PUSH2 0x4D7 JUMP JUMPDEST SWAP1 POP SWAP2 SWAP1 POP JUMP JUMPDEST PUSH32 0x4E487B7100000000000000000000000000000000000000000000000000000000 PUSH0 MSTORE PUSH1 0x11 PUSH1 0x4 MSTORE PUSH1 0x24 PUSH0 REVERT JUMPDEST PUSH0 PUSH2 0x54E DUP3 PUSH2 0x406 JUMP JUMPDEST SWAP2 POP PUSH2 0x559 DUP4 PUSH2 0x406 JUMP JUMPDEST SWAP3 POP DUP3 DUP3 ADD SWAP1 POP DUP1 DUP3 GT ISZERO PUSH2 0x571 JUMPI PUSH2 0x570 PUSH2 0x517 JUMP JUMPDEST JUMPDEST SWAP3 SWAP2 POP POP JUMP INVALID LOG2 PUSH5 0x6970667358 0x22 SLT KECCAK256 0xB3 SWAP10 SDIV PUSH16 0x4220A39B1946FB80A367F412F8AA35F3 MSTORE SWAP12 0x2C 0xAF 0x29 0xD7 PREVRANDAO LOG1 0x2D 0x22 PUSH23 0x2664736F6C634300081A00330000000000000000000000 "
				},
				"gasEstimates": {
					"creation": {
						"codeDepositCost": "290600",
						"executionCost": "46699",
						"totalCost": "337299"
					},
					"external": {
						"changeOwnerAddress(address)": "26908",
						"creationTime()": "2491",
						"disown()": "infinite",
						"forceOwnerChange(address)": "24699",
						"owner()": "2549"
					}
				},
				"methodIdentifiers": {
					"changeOwnerAddress(address)": "85eac05f",
					"creationTime()": "d8270dce",
					"disown()": "1e9bf0da",
					"forceOwnerChange(address)": "0cb0c7f0",
					"owner()": "8da5cb5b"
				}
			},
			"storageLayout": {
				"storage": [
					{
						"astId": 5,
						"contract": "contracts/security/restrictedAccess.sol:RestrictedAccess",
						"label": "owner",
						"offset": 0,
						"slot": "0",
						"type": "t_address"
					},
					{
						"astId": 9,
						"contract": "contracts/security/restrictedAccess.sol:RestrictedAccess",
						"label": "creationTime",
						"offset": 0,
						"slot": "1",
						"type": "t_uint256"
					}
				],
				"types": {
					"t_address": {
						"encoding": "inplace",
						"label": "address",
						"numberOfBytes": "20"
					},
					"t_uint256": {
						"encoding": "inplace",
						"label": "uint256",
						"numberOfBytes": "32"
					}
				}
			},
			"userdoc": {
				"kind": "user",
				"methods": {},
				"version": 1
			}
		}
	}
}