{
	"data": {
		"bytecode": {
			"linkReferences": {},
			"object": "60806040526040518060400160405280601981526020017f48656c6c6f21200a20796f752772652068657265206e6f7721000000000000008152505f908161004791906102d8565b506040518060400160405280600481526020017f626c7565000000000000000000000000000000000000000000000000000000008152506001908161008c91906102d8565b50348015610098575f80fd5b506103a7565b5f81519050919050565b7f4e487b71000000000000000000000000000000000000000000000000000000005f52604160045260245ffd5b7f4e487b71000000000000000000000000000000000000000000000000000000005f52602260045260245ffd5b5f600282049050600182168061011957607f821691505b60208210810361012c5761012b6100d5565b5b50919050565b5f819050815f5260205f209050919050565b5f6020601f8301049050919050565b5f82821b905092915050565b5f6008830261018e7fffffffffffffffffffffffffffffffffffffffffffffffffffffffffffffffff82610153565b6101988683610153565b95508019841693508086168417925050509392505050565b5f819050919050565b5f819050919050565b5f6101dc6101d76101d2846101b0565b6101b9565b6101b0565b9050919050565b5f819050919050565b6101f5836101c2565b610209610201826101e3565b84845461015f565b825550505050565b5f90565b61021d610211565b6102288184846101ec565b505050565b5b8181101561024b576102405f82610215565b60018101905061022e565b5050565b601f8211156102905761026181610132565b61026a84610144565b81016020851015610279578190505b61028d61028585610144565b83018261022d565b50505b505050565b5f82821c905092915050565b5f6102b05f1984600802610295565b1980831691505092915050565b5f6102c883836102a1565b9150826002028217905092915050565b6102e18261009e565b67ffffffffffffffff8111156102fa576102f96100a8565b5b6103048254610102565b61030f82828561024f565b5f60209050601f831160018114610340575f841561032e578287015190505b61033885826102bd565b86555061039f565b601f19841661034e86610132565b5f5b8281101561037557848901518255600182019150602085019450602081019050610350565b86831015610392578489015161038e601f8916826102a1565b8355505b6001600288020188555050505b505050505050565b6108c5806103b45f395ff3fe608060405234801561000f575f80fd5b5060043610610060575f3560e01c806327a03cd7146100645780636aa2afd5146100825780639a86139b1461009e578063c323c9fe146100bc578063d1cfd048146100da578063d28c25d4146100f8575b5f80fd5b61006c610114565b60405161007991906103f1565b60405180910390f35b61009c6004803603810190610097919061054e565b6101a3565b005b6100a66101b6565b6040516100b391906103f1565b60405180910390f35b6100c4610246565b6040516100d191906105ad565b60405180910390f35b6100e26102db565b6040516100ef91906105ad565b60405180910390f35b610112600480360381019061010d919061054e565b61036f565b005b60605f8054610122906105f3565b80601f016020809104026020016040519081016040528092919081815260200182805461014e906105f3565b80156101995780601f1061017057610100808354040283529160200191610199565b820191905f5260205f20905b81548152906001019060200180831161017c57829003601f168201915b5050505050905090565b80600190816101b291906107c0565b5050565b6060600180546101c5906105f3565b80601f01602080910402602001604051908101604052809291908181526020018280546101f1906105f3565b801561023c5780601f106102135761010080835404028352916020019161023c565b820191905f5260205f20905b81548152906001019060200180831161021f57829003601f168201915b5050505050905090565b5f8060018054610255906105f3565b80601f0160208091040260200160405190810160405280929190818152602001828054610281906105f3565b80156102cc5780601f106102a3576101008083540402835291602001916102cc565b820191905f5260205f20905b8154815290600101906020018083116102af57829003601f168201915b50505050509050805191505090565b5f805f80546102e9906105f3565b80601f0160208091040260200160405190810160405280929190818152602001828054610315906105f3565b80156103605780601f1061033757610100808354040283529160200191610360565b820191905f5260205f20905b81548152906001019060200180831161034357829003601f168201915b50505050509050805191505090565b805f908161037d91906107c0565b5050565b5f81519050919050565b5f82825260208201905092915050565b8281835e5f83830152505050565b5f601f19601f8301169050919050565b5f6103c382610381565b6103cd818561038b565b93506103dd81856020860161039b565b6103e6816103a9565b840191505092915050565b5f6020820190508181035f83015261040981846103b9565b905092915050565b5f604051905090565b5f80fd5b5f80fd5b5f80fd5b5f80fd5b7f4e487b71000000000000000000000000000000000000000000000000000000005f52604160045260245ffd5b610460826103a9565b810181811067ffffffffffffffff8211171561047f5761047e61042a565b5b80604052505050565b5f610491610411565b905061049d8282610457565b919050565b5f67ffffffffffffffff8211156104bc576104bb61042a565b5b6104c5826103a9565b9050602081019050919050565b828183375f83830152505050565b5f6104f26104ed846104a2565b610488565b90508281526020810184848401111561050e5761050d610426565b5b6105198482856104d2565b509392505050565b5f82601f83011261053557610534610422565b5b81356105458482602086016104e0565b91505092915050565b5f602082840312156105635761056261041a565b5b5f82013567ffffffffffffffff8111156105805761057f61041e565b5b61058c84828501610521565b91505092915050565b5f819050919050565b6105a781610595565b82525050565b5f6020820190506105c05f83018461059e565b92915050565b7f4e487b71000000000000000000000000000000000000000000000000000000005f52602260045260245ffd5b5f600282049050600182168061060a57607f821691505b60208210810361061d5761061c6105c6565b5b50919050565b5f819050815f5260205f209050919050565b5f6020601f8301049050919050565b5f82821b905092915050565b5f6008830261067f7fffffffffffffffffffffffffffffffffffffffffffffffffffffffffffffffff82610644565b6106898683610644565b95508019841693508086168417925050509392505050565b5f819050919050565b5f6106c46106bf6106ba84610595565b6106a1565b610595565b9050919050565b5f819050919050565b6106dd836106aa565b6106f16106e9826106cb565b848454610650565b825550505050565b5f90565b6107056106f9565b6107108184846106d4565b505050565b5b81811015610733576107285f826106fd565b600181019050610716565b5050565b601f8211156107785761074981610623565b61075284610635565b81016020851015610761578190505b61077561076d85610635565b830182610715565b50505b505050565b5f82821c905092915050565b5f6107985f198460080261077d565b1980831691505092915050565b5f6107b08383610789565b9150826002028217905092915050565b6107c982610381565b67ffffffffffffffff8111156107e2576107e161042a565b5b6107ec82546105f3565b6107f7828285610737565b5f60209050601f831160018114610828575f8415610816578287015190505b61082085826107a5565b865550610887565b601f19841661083686610623565b5f5b8281101561085d57848901518255600182019150602085019450602081019050610838565b8683101561087a5784890151610876601f891682610789565b8355505b6001600288020188555050505b50505050505056fea2646970667358221220def377103227175f213020dda2ae4cfe37083d9187ad670e1c515dfab73749c864736f6c634300081a0033",
			"opcodes": "PUSH1 0x80 PUSH1 0x40 MSTORE PUSH1 0x40 MLOAD DUP1 PUSH1 0x40 ADD PUSH1 0x40 MSTORE DUP1 PUSH1 0x19 DUP2 MSTORE PUSH1 0x20 ADD PUSH32 0x48656C6C6F21200A20796F752772652068657265206E6F772100000000000000 DUP2 MSTORE POP PUSH0 SWAP1 DUP2 PUSH2 0x47 SWAP2 SWAP1 PUSH2 0x2D8 JUMP JUMPDEST POP PUSH1 0x40 MLOAD DUP1 PUSH1 0x40 ADD PUSH1 0x40 MSTORE DUP1 PUSH1 0x4 DUP2 MSTORE PUSH1 0x20 ADD PUSH32 0x626C756500000000000000000000000000000000000000000000000000000000 DUP2 MSTORE POP PUSH1 0x1 SWAP1 DUP2 PUSH2 0x8C SWAP2 SWAP1 PUSH2 0x2D8 JUMP JUMPDEST POP CALLVALUE DUP1 ISZERO PUSH2 0x98 JUMPI PUSH0 DUP1 REVERT JUMPDEST POP PUSH2 0x3A7 JUMP JUMPDEST PUSH0 DUP2 MLOAD SWAP1 POP SWAP2 SWAP1 POP JUMP JUMPDEST PUSH32 0x4E487B7100000000000000000000000000000000000000000000000000000000 PUSH0 MSTORE PUSH1 0x41 PUSH1 0x4 MSTORE PUSH1 0x24 PUSH0 REVERT JUMPDEST PUSH32 0x4E487B7100000000000000000000000000000000000000000000000000000000 PUSH0 MSTORE PUSH1 0x22 PUSH1 0x4 MSTORE PUSH1 0x24 PUSH0 REVERT JUMPDEST PUSH0 PUSH1 0x2 DUP3 DIV SWAP1 POP PUSH1 0x1 DUP3 AND DUP1 PUSH2 0x119 JUMPI PUSH1 0x7F DUP3 AND SWAP2 POP JUMPDEST PUSH1 0x20 DUP3 LT DUP2 SUB PUSH2 0x12C JUMPI PUSH2 0x12B PUSH2 0xD5 JUMP JUMPDEST JUMPDEST POP SWAP2 SWAP1 POP JUMP JUMPDEST PUSH0 DUP2 SWAP1 POP DUP2 PUSH0 MSTORE PUSH1 0x20 PUSH0 KECCAK256 SWAP1 POP SWAP2 SWAP1 POP JUMP JUMPDEST PUSH0 PUSH1 0x20 PUSH1 0x1F DUP4 ADD DIV SWAP1 POP SWAP2 SWAP1 POP JUMP JUMPDEST PUSH0 DUP3 DUP3 SHL SWAP1 POP SWAP3 SWAP2 POP POP JUMP JUMPDEST PUSH0 PUSH1 0x8 DUP4 MUL PUSH2 0x18E PUSH32 0xFFFFFFFFFFFFFFFFFFFFFFFFFFFFFFFFFFFFFFFFFFFFFFFFFFFFFFFFFFFFFFFF DUP3 PUSH2 0x153 JUMP JUMPDEST PUSH2 0x198 DUP7 DUP4 PUSH2 0x153 JUMP JUMPDEST SWAP6 POP DUP1 NOT DUP5 AND SWAP4 POP DUP1 DUP7 AND DUP5 OR SWAP3 POP POP POP SWAP4 SWAP3 POP POP POP JUMP JUMPDEST PUSH0 DUP2 SWAP1 POP SWAP2 SWAP1 POP JUMP JUMPDEST PUSH0 DUP2 SWAP1 POP SWAP2 SWAP1 POP JUMP JUMPDEST PUSH0 PUSH2 0x1DC PUSH2 0x1D7 PUSH2 0x1D2 DUP5 PUSH2 0x1B0 JUMP JUMPDEST PUSH2 0x1B9 JUMP JUMPDEST PUSH2 0x1B0 JUMP JUMPDEST SWAP1 POP SWAP2 SWAP1 POP JUMP JUMPDEST PUSH0 DUP2 SWAP1 POP SWAP2 SWAP1 POP JUMP JUMPDEST PUSH2 0x1F5 DUP4 PUSH2 0x1C2 JUMP JUMPDEST PUSH2 0x209 PUSH2 0x201 DUP3 PUSH2 0x1E3 JUMP JUMPDEST DUP5 DUP5 SLOAD PUSH2 0x15F JUMP JUMPDEST DUP3 SSTORE POP POP POP POP JUMP JUMPDEST PUSH0 SWAP1 JUMP JUMPDEST PUSH2 0x21D PUSH2 0x211 JUMP JUMPDEST PUSH2 0x228 DUP2 DUP5 DUP5 PUSH2 0x1EC JUMP JUMPDEST POP POP POP JUMP JUMPDEST JUMPDEST DUP2 DUP2 LT ISZERO PUSH2 0x24B JUMPI PUSH2 0x240 PUSH0 DUP3 PUSH2 0x215 JUMP JUMPDEST PUSH1 0x1 DUP2 ADD SWAP1 POP PUSH2 0x22E JUMP JUMPDEST POP POP JUMP JUMPDEST PUSH1 0x1F DUP3 GT ISZERO PUSH2 0x290 JUMPI PUSH2 0x261 DUP2 PUSH2 0x132 JUMP JUMPDEST PUSH2 0x26A DUP5 PUSH2 0x144 JUMP JUMPDEST DUP2 ADD PUSH1 0x20 DUP6 LT ISZERO PUSH2 0x279 JUMPI DUP2 SWAP1 POP JUMPDEST PUSH2 0x28D PUSH2 0x285 DUP6 PUSH2 0x144 JUMP JUMPDEST DUP4 ADD DUP3 PUSH2 0x22D JUMP JUMPDEST POP POP JUMPDEST POP POP POP JUMP JUMPDEST PUSH0 DUP3 DUP3 SHR SWAP1 POP SWAP3 SWAP2 POP POP JUMP JUMPDEST PUSH0 PUSH2 0x2B0 PUSH0 NOT DUP5 PUSH1 0x8 MUL PUSH2 0x295 JUMP JUMPDEST NOT DUP1 DUP4 AND SWAP2 POP POP SWAP3 SWAP2 POP POP JUMP JUMPDEST PUSH0 PUSH2 0x2C8 DUP4 DUP4 PUSH2 0x2A1 JUMP JUMPDEST SWAP2 POP DUP3 PUSH1 0x2 MUL DUP3 OR SWAP1 POP SWAP3 SWAP2 POP POP JUMP JUMPDEST PUSH2 0x2E1 DUP3 PUSH2 0x9E JUMP JUMPDEST PUSH8 0xFFFFFFFFFFFFFFFF DUP2 GT ISZERO PUSH2 0x2FA JUMPI PUSH2 0x2F9 PUSH2 0xA8 JUMP JUMPDEST JUMPDEST PUSH2 0x304 DUP3 SLOAD PUSH2 0x102 JUMP JUMPDEST PUSH2 0x30F DUP3 DUP3 DUP6 PUSH2 0x24F JUMP JUMPDEST PUSH0 PUSH1 0x20 SWAP1 POP PUSH1 0x1F DUP4 GT PUSH1 0x1 DUP2 EQ PUSH2 0x340 JUMPI PUSH0 DUP5 ISZERO PUSH2 0x32E JUMPI DUP3 DUP8 ADD MLOAD SWAP1 POP JUMPDEST PUSH2 0x338 DUP6 DUP3 PUSH2 0x2BD JUMP JUMPDEST DUP7 SSTORE POP PUSH2 0x39F JUMP JUMPDEST PUSH1 0x1F NOT DUP5 AND PUSH2 0x34E DUP7 PUSH2 0x132 JUMP JUMPDEST PUSH0 JUMPDEST DUP3 DUP2 LT ISZERO PUSH2 0x375 JUMPI DUP5 DUP10 ADD MLOAD DUP3 SSTORE PUSH1 0x1 DUP3 ADD SWAP2 POP PUSH1 0x20 DUP6 ADD SWAP5 POP PUSH1 0x20 DUP2 ADD SWAP1 POP PUSH2 0x350 JUMP JUMPDEST DUP7 DUP4 LT ISZERO PUSH2 0x392 JUMPI DUP5 DUP10 ADD MLOAD PUSH2 0x38E PUSH1 0x1F DUP10 AND DUP3 PUSH2 0x2A1 JUMP JUMPDEST DUP4 SSTORE POP JUMPDEST PUSH1 0x1 PUSH1 0x2 DUP9 MUL ADD DUP9 SSTORE POP POP POP JUMPDEST POP POP POP POP POP POP JUMP JUMPDEST PUSH2 0x8C5 DUP1 PUSH2 0x3B4 PUSH0 CODECOPY PUSH0 RETURN INVALID PUSH1 0x80 PUSH1 0x40 MSTORE CALLVALUE DUP1 ISZERO PUSH2 0xF JUMPI PUSH0 DUP1 REVERT JUMPDEST POP PUSH1 0x4 CALLDATASIZE LT PUSH2 0x60 JUMPI PUSH0 CALLDATALOAD PUSH1 0xE0 SHR DUP1 PUSH4 0x27A03CD7 EQ PUSH2 0x64 JUMPI DUP1 PUSH4 0x6AA2AFD5 EQ PUSH2 0x82 JUMPI DUP1 PUSH4 0x9A86139B EQ PUSH2 0x9E JUMPI DUP1 PUSH4 0xC323C9FE EQ PUSH2 0xBC JUMPI DUP1 PUSH4 0xD1CFD048 EQ PUSH2 0xDA JUMPI DUP1 PUSH4 0xD28C25D4 EQ PUSH2 0xF8 JUMPI JUMPDEST PUSH0 DUP1 REVERT JUMPDEST PUSH2 0x6C PUSH2 0x114 JUMP JUMPDEST PUSH1 0x40 MLOAD PUSH2 0x79 SWAP2 SWAP1 PUSH2 0x3F1 JUMP JUMPDEST PUSH1 0x40 MLOAD DUP1 SWAP2 SUB SWAP1 RETURN JUMPDEST PUSH2 0x9C PUSH1 0x4 DUP1 CALLDATASIZE SUB DUP2 ADD SWAP1 PUSH2 0x97 SWAP2 SWAP1 PUSH2 0x54E JUMP JUMPDEST PUSH2 0x1A3 JUMP JUMPDEST STOP JUMPDEST PUSH2 0xA6 PUSH2 0x1B6 JUMP JUMPDEST PUSH1 0x40 MLOAD PUSH2 0xB3 SWAP2 SWAP1 PUSH2 0x3F1 JUMP JUMPDEST PUSH1 0x40 MLOAD DUP1 SWAP2 SUB SWAP1 RETURN JUMPDEST PUSH2 0xC4 PUSH2 0x246 JUMP JUMPDEST PUSH1 0x40 MLOAD PUSH2 0xD1 SWAP2 SWAP1 PUSH2 0x5AD JUMP JUMPDEST PUSH1 0x40 MLOAD DUP1 SWAP2 SUB SWAP1 RETURN JUMPDEST PUSH2 0xE2 PUSH2 0x2DB JUMP JUMPDEST PUSH1 0x40 MLOAD PUSH2 0xEF SWAP2 SWAP1 PUSH2 0x5AD JUMP JUMPDEST PUSH1 0x40 MLOAD DUP1 SWAP2 SUB SWAP1 RETURN JUMPDEST PUSH2 0x112 PUSH1 0x4 DUP1 CALLDATASIZE SUB DUP2 ADD SWAP1 PUSH2 0x10D SWAP2 SWAP1 PUSH2 0x54E JUMP JUMPDEST PUSH2 0x36F JUMP JUMPDEST STOP JUMPDEST PUSH1 0x60 PUSH0 DUP1 SLOAD PUSH2 0x122 SWAP1 PUSH2 0x5F3 JUMP JUMPDEST DUP1 PUSH1 0x1F ADD PUSH1 0x20 DUP1 SWAP2 DIV MUL PUSH1 0x20 ADD PUSH1 0x40 MLOAD SWAP1 DUP2 ADD PUSH1 0x40 MSTORE DUP1 SWAP3 SWAP2 SWAP1 DUP2 DUP2 MSTORE PUSH1 0x20 ADD DUP3 DUP1 SLOAD PUSH2 0x14E SWAP1 PUSH2 0x5F3 JUMP JUMPDEST DUP1 ISZERO PUSH2 0x199 JUMPI DUP1 PUSH1 0x1F LT PUSH2 0x170 JUMPI PUSH2 0x100 DUP1 DUP4 SLOAD DIV MUL DUP4 MSTORE SWAP2 PUSH1 0x20 ADD SWAP2 PUSH2 0x199 JUMP JUMPDEST DUP3 ADD SWAP2 SWAP1 PUSH0 MSTORE PUSH1 0x20 PUSH0 KECCAK256 SWAP1 JUMPDEST DUP2 SLOAD DUP2 MSTORE SWAP1 PUSH1 0x1 ADD SWAP1 PUSH1 0x20 ADD DUP1 DUP4 GT PUSH2 0x17C JUMPI DUP3 SWAP1 SUB PUSH1 0x1F AND DUP3 ADD SWAP2 JUMPDEST POP POP POP POP POP SWAP1 POP SWAP1 JUMP JUMPDEST DUP1 PUSH1 0x1 SWAP1 DUP2 PUSH2 0x1B2 SWAP2 SWAP1 PUSH2 0x7C0 JUMP JUMPDEST POP POP JUMP JUMPDEST PUSH1 0x60 PUSH1 0x1 DUP1 SLOAD PUSH2 0x1C5 SWAP1 PUSH2 0x5F3 JUMP JUMPDEST DUP1 PUSH1 0x1F ADD PUSH1 0x20 DUP1 SWAP2 DIV MUL PUSH1 0x20 ADD PUSH1 0x40 MLOAD SWAP1 DUP2 ADD PUSH1 0x40 MSTORE DUP1 SWAP3 SWAP2 SWAP1 DUP2 DUP2 MSTORE PUSH1 0x20 ADD DUP3 DUP1 SLOAD PUSH2 0x1F1 SWAP1 PUSH2 0x5F3 JUMP JUMPDEST DUP1 ISZERO PUSH2 0x23C JUMPI DUP1 PUSH1 0x1F LT PUSH2 0x213 JUMPI PUSH2 0x100 DUP1 DUP4 SLOAD DIV MUL DUP4 MSTORE SWAP2 PUSH1 0x20 ADD SWAP2 PUSH2 0x23C JUMP JUMPDEST DUP3 ADD SWAP2 SWAP1 PUSH0 MSTORE PUSH1 0x20 PUSH0 KECCAK256 SWAP1 JUMPDEST DUP2 SLOAD DUP2 MSTORE SWAP1 PUSH1 0x1 ADD SWAP1 PUSH1 0x20 ADD DUP1 DUP4 GT PUSH2 0x21F JUMPI DUP3 SWAP1 SUB PUSH1 0x1F AND DUP3 ADD SWAP2 JUMPDEST POP POP POP POP POP SWAP1 POP SWAP1 JUMP JUMPDEST PUSH0 DUP1 PUSH1 0x1 DUP1 SLOAD PUSH2 0x255 SWAP1 PUSH2 0x5F3 JUMP JUMPDEST DUP1 PUSH1 0x1F ADD PUSH1 0x20 DUP1 SWAP2 DIV MUL PUSH1 0x20 ADD PUSH1 0x40 MLOAD SWAP1 DUP2 ADD PUSH1 0x40 MSTORE DUP1 SWAP3 SWAP2 SWAP1 DUP2 DUP2 MSTORE PUSH1 0x20 ADD DUP3 DUP1 SLOAD PUSH2 0x281 SWAP1 PUSH2 0x5F3 JUMP JUMPDEST DUP1 ISZERO PUSH2 0x2CC JUMPI DUP1 PUSH1 0x1F LT PUSH2 0x2A3 JUMPI PUSH2 0x100 DUP1 DUP4 SLOAD DIV MUL DUP4 MSTORE SWAP2 PUSH1 0x20 ADD SWAP2 PUSH2 0x2CC JUMP JUMPDEST DUP3 ADD SWAP2 SWAP1 PUSH0 MSTORE PUSH1 0x20 PUSH0 KECCAK256 SWAP1 JUMPDEST DUP2 SLOAD DUP2 MSTORE SWAP1 PUSH1 0x1 ADD SWAP1 PUSH1 0x20 ADD DUP1 DUP4 GT PUSH2 0x2AF JUMPI DUP3 SWAP1 SUB PUSH1 0x1F AND DUP3 ADD SWAP2 JUMPDEST POP POP POP POP POP SWAP1 POP DUP1 MLOAD SWAP2 POP POP SWAP1 JUMP JUMPDEST PUSH0 DUP1 PUSH0 DUP1 SLOAD PUSH2 0x2E9 SWAP1 PUSH2 0x5F3 JUMP JUMPDEST DUP1 PUSH1 0x1F ADD PUSH1 0x20 DUP1 SWAP2 DIV MUL PUSH1 0x20 ADD PUSH1 0x40 MLOAD SWAP1 DUP2 ADD PUSH1 0x40 MSTORE DUP1 SWAP3 SWAP2 SWAP1 DUP2 DUP2 MSTORE PUSH1 0x20 ADD DUP3 DUP1 SLOAD PUSH2 0x315 SWAP1 PUSH2 0x5F3 JUMP JUMPDEST DUP1 ISZERO PUSH2 0x360 JUMPI DUP1 PUSH1 0x1F LT PUSH2 0x337 JUMPI PUSH2 0x100 DUP1 DUP4 SLOAD DIV MUL DUP4 MSTORE SWAP2 PUSH1 0x20 ADD SWAP2 PUSH2 0x360 JUMP JUMPDEST DUP3 ADD SWAP2 SWAP1 PUSH0 MSTORE PUSH1 0x20 PUSH0 KECCAK256 SWAP1 JUMPDEST DUP2 SLOAD DUP2 MSTORE SWAP1 PUSH1 0x1 ADD SWAP1 PUSH1 0x20 ADD DUP1 DUP4 GT PUSH2 0x343 JUMPI DUP3 SWAP1 SUB PUSH1 0x1F AND DUP3 ADD SWAP2 JUMPDEST POP POP POP POP POP SWAP1 POP DUP1 MLOAD SWAP2 POP POP SWAP1 JUMP JUMPDEST DUP1 PUSH0 SWAP1 DUP2 PUSH2 0x37D SWAP2 SWAP1 PUSH2 0x7C0 JUMP JUMPDEST POP POP JUMP JUMPDEST PUSH0 DUP2 MLOAD SWAP1 POP SWAP2 SWAP1 POP JUMP JUMPDEST PUSH0 DUP3 DUP3 MSTORE PUSH1 0x20 DUP3 ADD SWAP1 POP SWAP3 SWAP2 POP POP JUMP JUMPDEST DUP3 DUP2 DUP4 MCOPY PUSH0 DUP4 DUP4 ADD MSTORE POP POP POP JUMP JUMPDEST PUSH0 PUSH1 0x1F NOT PUSH1 0x1F DUP4 ADD AND SWAP1 POP SWAP2 SWAP1 POP JUMP JUMPDEST PUSH0 PUSH2 0x3C3 DUP3 PUSH2 0x381 JUMP JUMPDEST PUSH2 0x3CD DUP2 DUP6 PUSH2 0x38B JUMP JUMPDEST SWAP4 POP PUSH2 0x3DD DUP2 DUP6 PUSH1 0x20 DUP7 ADD PUSH2 0x39B JUMP JUMPDEST PUSH2 0x3E6 DUP2 PUSH2 0x3A9 JUMP JUMPDEST DUP5 ADD SWAP2 POP POP SWAP3 SWAP2 POP POP JUMP JUMPDEST PUSH0 PUSH1 0x20 DUP3 ADD SWAP1 POP DUP2 DUP2 SUB PUSH0 DUP4 ADD MSTORE PUSH2 0x409 DUP2 DUP5 PUSH2 0x3B9 JUMP JUMPDEST SWAP1 POP SWAP3 SWAP2 POP POP JUMP JUMPDEST PUSH0 PUSH1 0x40 MLOAD SWAP1 POP SWAP1 JUMP JUMPDEST PUSH0 DUP1 REVERT JUMPDEST PUSH0 DUP1 REVERT JUMPDEST PUSH0 DUP1 REVERT JUMPDEST PUSH0 DUP1 REVERT JUMPDEST PUSH32 0x4E487B7100000000000000000000000000000000000000000000000000000000 PUSH0 MSTORE PUSH1 0x41 PUSH1 0x4 MSTORE PUSH1 0x24 PUSH0 REVERT JUMPDEST PUSH2 0x460 DUP3 PUSH2 0x3A9 JUMP JUMPDEST DUP2 ADD DUP2 DUP2 LT PUSH8 0xFFFFFFFFFFFFFFFF DUP3 GT OR ISZERO PUSH2 0x47F JUMPI PUSH2 0x47E PUSH2 0x42A JUMP JUMPDEST JUMPDEST DUP1 PUSH1 0x40 MSTORE POP POP POP JUMP JUMPDEST PUSH0 PUSH2 0x491 PUSH2 0x411 JUMP JUMPDEST SWAP1 POP PUSH2 0x49D DUP3 DUP3 PUSH2 0x457 JUMP JUMPDEST SWAP2 SWAP1 POP JUMP JUMPDEST PUSH0 PUSH8 0xFFFFFFFFFFFFFFFF DUP3 GT ISZERO PUSH2 0x4BC JUMPI PUSH2 0x4BB PUSH2 0x42A JUMP JUMPDEST JUMPDEST PUSH2 0x4C5 DUP3 PUSH2 0x3A9 JUMP JUMPDEST SWAP1 POP PUSH1 0x20 DUP2 ADD SWAP1 POP SWAP2 SWAP1 POP JUMP JUMPDEST DUP3 DUP2 DUP4 CALLDATACOPY PUSH0 DUP4 DUP4 ADD MSTORE POP POP POP JUMP JUMPDEST PUSH0 PUSH2 0x4F2 PUSH2 0x4ED DUP5 PUSH2 0x4A2 JUMP JUMPDEST PUSH2 0x488 JUMP JUMPDEST SWAP1 POP DUP3 DUP2 MSTORE PUSH1 0x20 DUP2 ADD DUP5 DUP5 DUP5 ADD GT ISZERO PUSH2 0x50E JUMPI PUSH2 0x50D PUSH2 0x426 JUMP JUMPDEST JUMPDEST PUSH2 0x519 DUP5 DUP3 DUP6 PUSH2 0x4D2 JUMP JUMPDEST POP SWAP4 SWAP3 POP POP POP JUMP JUMPDEST PUSH0 DUP3 PUSH1 0x1F DUP4 ADD SLT PUSH2 0x535 JUMPI PUSH2 0x534 PUSH2 0x422 JUMP JUMPDEST JUMPDEST DUP2 CALLDATALOAD PUSH2 0x545 DUP5 DUP3 PUSH1 0x20 DUP7 ADD PUSH2 0x4E0 JUMP JUMPDEST SWAP2 POP POP SWAP3 SWAP2 POP POP JUMP JUMPDEST PUSH0 PUSH1 0x20 DUP3 DUP5 SUB SLT ISZERO PUSH2 0x563 JUMPI PUSH2 0x562 PUSH2 0x41A JUMP JUMPDEST JUMPDEST PUSH0 DUP3 ADD CALLDATALOAD PUSH8 0xFFFFFFFFFFFFFFFF DUP2 GT ISZERO PUSH2 0x580 JUMPI PUSH2 0x57F PUSH2 0x41E JUMP JUMPDEST JUMPDEST PUSH2 0x58C DUP5 DUP3 DUP6 ADD PUSH2 0x521 JUMP JUMPDEST SWAP2 POP POP SWAP3 SWAP2 POP POP JUMP JUMPDEST PUSH0 DUP2 SWAP1 POP SWAP2 SWAP1 POP JUMP JUMPDEST PUSH2 0x5A7 DUP2 PUSH2 0x595 JUMP JUMPDEST DUP3 MSTORE POP POP JUMP JUMPDEST PUSH0 PUSH1 0x20 DUP3 ADD SWAP1 POP PUSH2 0x5C0 PUSH0 DUP4 ADD DUP5 PUSH2 0x59E JUMP JUMPDEST SWAP3 SWAP2 POP POP JUMP JUMPDEST PUSH32 0x4E487B7100000000000000000000000000000000000000000000000000000000 PUSH0 MSTORE PUSH1 0x22 PUSH1 0x4 MSTORE PUSH1 0x24 PUSH0 REVERT JUMPDEST PUSH0 PUSH1 0x2 DUP3 DIV SWAP1 POP PUSH1 0x1 DUP3 AND DUP1 PUSH2 0x60A JUMPI PUSH1 0x7F DUP3 AND SWAP2 POP JUMPDEST PUSH1 0x20 DUP3 LT DUP2 SUB PUSH2 0x61D JUMPI PUSH2 0x61C PUSH2 0x5C6 JUMP JUMPDEST JUMPDEST POP SWAP2 SWAP1 POP JUMP JUMPDEST PUSH0 DUP2 SWAP1 POP DUP2 PUSH0 MSTORE PUSH1 0x20 PUSH0 KECCAK256 SWAP1 POP SWAP2 SWAP1 POP JUMP JUMPDEST PUSH0 PUSH1 0x20 PUSH1 0x1F DUP4 ADD DIV SWAP1 POP SWAP2 SWAP1 POP JUMP JUMPDEST PUSH0 DUP3 DUP3 SHL SWAP1 POP SWAP3 SWAP2 POP POP JUMP JUMPDEST PUSH0 PUSH1 0x8 DUP4 MUL PUSH2 0x67F PUSH32 0xFFFFFFFFFFFFFFFFFFFFFFFFFFFFFFFFFFFFFFFFFFFFFFFFFFFFFFFFFFFFFFFF DUP3 PUSH2 0x644 JUMP JUMPDEST PUSH2 0x689 DUP7 DUP4 PUSH2 0x644 JUMP JUMPDEST SWAP6 POP DUP1 NOT DUP5 AND SWAP4 POP DUP1 DUP7 AND DUP5 OR SWAP3 POP POP POP SWAP4 SWAP3 POP POP POP JUMP JUMPDEST PUSH0 DUP2 SWAP1 POP SWAP2 SWAP1 POP JUMP JUMPDEST PUSH0 PUSH2 0x6C4 PUSH2 0x6BF PUSH2 0x6BA DUP5 PUSH2 0x595 JUMP JUMPDEST PUSH2 0x6A1 JUMP JUMPDEST PUSH2 0x595 JUMP JUMPDEST SWAP1 POP SWAP2 SWAP1 POP JUMP JUMPDEST PUSH0 DUP2 SWAP1 POP SWAP2 SWAP1 POP JUMP JUMPDEST PUSH2 0x6DD DUP4 PUSH2 0x6AA JUMP JUMPDEST PUSH2 0x6F1 PUSH2 0x6E9 DUP3 PUSH2 0x6CB JUMP JUMPDEST DUP5 DUP5 SLOAD PUSH2 0x650 JUMP JUMPDEST DUP3 SSTORE POP POP POP POP JUMP JUMPDEST PUSH0 SWAP1 JUMP JUMPDEST PUSH2 0x705 PUSH2 0x6F9 JUMP JUMPDEST PUSH2 0x710 DUP2 DUP5 DUP5 PUSH2 0x6D4 JUMP JUMPDEST POP POP POP JUMP JUMPDEST JUMPDEST DUP2 DUP2 LT ISZERO PUSH2 0x733 JUMPI PUSH2 0x728 PUSH0 DUP3 PUSH2 0x6FD JUMP JUMPDEST PUSH1 0x1 DUP2 ADD SWAP1 POP PUSH2 0x716 JUMP JUMPDEST POP POP JUMP JUMPDEST PUSH1 0x1F DUP3 GT ISZERO PUSH2 0x778 JUMPI PUSH2 0x749 DUP2 PUSH2 0x623 JUMP JUMPDEST PUSH2 0x752 DUP5 PUSH2 0x635 JUMP JUMPDEST DUP2 ADD PUSH1 0x20 DUP6 LT ISZERO PUSH2 0x761 JUMPI DUP2 SWAP1 POP JUMPDEST PUSH2 0x775 PUSH2 0x76D DUP6 PUSH2 0x635 JUMP JUMPDEST DUP4 ADD DUP3 PUSH2 0x715 JUMP JUMPDEST POP POP JUMPDEST POP POP POP JUMP JUMPDEST PUSH0 DUP3 DUP3 SHR SWAP1 POP SWAP3 SWAP2 POP POP JUMP JUMPDEST PUSH0 PUSH2 0x798 PUSH0 NOT DUP5 PUSH1 0x8 MUL PUSH2 0x77D JUMP JUMPDEST NOT DUP1 DUP4 AND SWAP2 POP POP SWAP3 SWAP2 POP POP JUMP JUMPDEST PUSH0 PUSH2 0x7B0 DUP4 DUP4 PUSH2 0x789 JUMP JUMPDEST SWAP2 POP DUP3 PUSH1 0x2 MUL DUP3 OR SWAP1 POP SWAP3 SWAP2 POP POP JUMP JUMPDEST PUSH2 0x7C9 DUP3 PUSH2 0x381 JUMP JUMPDEST PUSH8 0xFFFFFFFFFFFFFFFF DUP2 GT ISZERO PUSH2 0x7E2 JUMPI PUSH2 0x7E1 PUSH2 0x42A JUMP JUMPDEST JUMPDEST PUSH2 0x7EC DUP3 SLOAD PUSH2 0x5F3 JUMP JUMPDEST PUSH2 0x7F7 DUP3 DUP3 DUP6 PUSH2 0x737 JUMP JUMPDEST PUSH0 PUSH1 0x20 SWAP1 POP PUSH1 0x1F DUP4 GT PUSH1 0x1 DUP2 EQ PUSH2 0x828 JUMPI PUSH0 DUP5 ISZERO PUSH2 0x816 JUMPI DUP3 DUP8 ADD MLOAD SWAP1 POP JUMPDEST PUSH2 0x820 DUP6 DUP3 PUSH2 0x7A5 JUMP JUMPDEST DUP7 SSTORE POP PUSH2 0x887 JUMP JUMPDEST PUSH1 0x1F NOT DUP5 AND PUSH2 0x836 DUP7 PUSH2 0x623 JUMP JUMPDEST PUSH0 JUMPDEST DUP3 DUP2 LT ISZERO PUSH2 0x85D JUMPI DUP5 DUP10 ADD MLOAD DUP3 SSTORE PUSH1 0x1 DUP3 ADD SWAP2 POP PUSH1 0x20 DUP6 ADD SWAP5 POP PUSH1 0x20 DUP2 ADD SWAP1 POP PUSH2 0x838 JUMP JUMPDEST DUP7 DUP4 LT ISZERO PUSH2 0x87A JUMPI DUP5 DUP10 ADD MLOAD PUSH2 0x876 PUSH1 0x1F DUP10 AND DUP3 PUSH2 0x789 JUMP JUMPDEST DUP4 SSTORE POP JUMPDEST PUSH1 0x1 PUSH1 0x2 DUP9 MUL ADD DUP9 SSTORE POP POP POP JUMPDEST POP POP POP POP POP POP JUMP INVALID LOG2 PUSH5 0x6970667358 0x22 SLT KECCAK256 0xDE RETURN PUSH24 0x103227175F213020DDA2AE4CFE37083D9187AD670E1C515D STATICCALL 0xB7 CALLDATACOPY BLOBHASH 0xC8 PUSH5 0x736F6C6343 STOP ADDMOD BYTE STOP CALLER "
		},
		"gasEstimates": {
			"creation": {
				"codeDepositCost": "449000",
				"executionCost": "infinite",
				"totalCost": "infinite"
			},
			"external": {
				"changeColor(string)": "infinite",
				"changeGreeting(string)": "infinite",
				"getColor()": "infinite",
				"getColorLength()": "infinite",
				"getStringLength()": "infinite",
				"sayhello()": "infinite"
			}
		},
		"methodIdentifiers": {
			"changeColor(string)": "6aa2afd5",
			"changeGreeting(string)": "d28c25d4",
			"getColor()": "9a86139b",
			"getColorLength()": "c323c9fe",
			"getStringLength()": "d1cfd048",
			"sayhello()": "27a03cd7"
		}
	},
	"abi": [
		{
			"inputs": [
				{
					"internalType": "string",
					"name": "_color",
					"type": "string"
				}
			],
			"name": "changeColor",
			"outputs": [],
			"stateMutability": "nonpayable",
			"type": "function"
		},
		{
			"inputs": [
				{
					"internalType": "string",
					"name": "_change",
					"type": "string"
				}
			],
			"name": "changeGreeting",
			"outputs": [],
			"stateMutability": "nonpayable",
			"type": "function"
		},
		{
			"inputs": [],
			"name": "getColor",
			"outputs": [
				{
					"internalType": "string",
					"name": "",
					"type": "string"
				}
			],
			"stateMutability": "view",
			"type": "function"
		},
		{
			"inputs": [],
			"name": "getColorLength",
			"outputs": [
				{
					"internalType": "uint256",
					"name": "",
					"type": "uint256"
				}
			],
			"stateMutability": "view",
			"type": "function"
		},
		{
			"inputs": [],
			"name": "getStringLength",
			"outputs": [
				{
					"internalType": "uint256",
					"name": "",
					"type": "uint256"
				}
			],
			"stateMutability": "view",
			"type": "function"
		},
		{
			"inputs": [],
			"name": "sayhello",
			"outputs": [
				{
					"internalType": "string",
					"name": "",
					"type": "string"
				}
			],
			"stateMutability": "view",
			"type": "function"
		}
	]
}