{
	"data": {
		"bytecode": {
			"linkReferences": {},
			"object": "6080604052348015600e575f80fd5b50610b098061001c5f395ff3fe608060405234801561000f575f80fd5b506004361061007b575f3560e01c806370db69021161005957806370db6902146100fc57806387eb54fe14610118578063ae22c57d14610134578063f40f48c9146101645761007b565b806311f729901461007f57806327cbd529146100b05780634ba79dfe146100e0575b5f80fd5b61009960048036038101906100949190610520565b610180565b6040516100a79291906105ce565b60405180910390f35b6100ca60048036038101906100c59190610603565b6102b7565b6040516100d7919061063d565b60405180910390f35b6100fa60048036038101906100f59190610603565b6102cb565b005b61011660048036038101906101119190610520565b61030d565b005b610132600480360381019061012d9190610782565b610352565b005b61014e60048036038101906101499190610603565b6103e5565b60405161015b919061063d565b60405180910390f35b61017e60048036038101906101799190610782565b61042a565b005b6002602052815f5260405f20602052805f5260405f205f9150915050805f0180546101aa90610837565b80601f01602080910402602001604051908101604052809291908181526020018280546101d690610837565b80156102215780601f106101f857610100808354040283529160200191610221565b820191905f5260205f20905b81548152906001019060200180831161020457829003601f168201915b50505050509080600101805461023690610837565b80601f016020809104026020016040519081016040528092919081815260200182805461026290610837565b80156102ad5780601f10610284576101008083540402835291602001916102ad565b820191905f5260205f20905b81548152906001019060200180831161029057829003601f168201915b5050505050905082565b5f602052805f5260405f205f915090505481565b5f808273ffffffffffffffffffffffffffffffffffffffff1673ffffffffffffffffffffffffffffffffffffffff1681526020019081526020015f205f905550565b805f808473ffffffffffffffffffffffffffffffffffffffff1673ffffffffffffffffffffffffffffffffffffffff1681526020019081526020015f20819055505050565b60405180604001604052808381526020018281525060025f3373ffffffffffffffffffffffffffffffffffffffff1673ffffffffffffffffffffffffffffffffffffffff1681526020019081526020015f205f8581526020019081526020015f205f820151815f0190816103c69190610a04565b5060208201518160010190816103dc9190610a04565b50905050505050565b5f805f8373ffffffffffffffffffffffffffffffffffffffff1673ffffffffffffffffffffffffffffffffffffffff1681526020019081526020015f20549050919050565b60405180604001604052808381526020018281525060015f8581526020019081526020015f205f820151815f0190816104639190610a04565b5060208201518160010190816104799190610a04565b50905050505050565b5f604051905090565b5f80fd5b5f80fd5b5f73ffffffffffffffffffffffffffffffffffffffff82169050919050565b5f6104bc82610493565b9050919050565b6104cc816104b2565b81146104d6575f80fd5b50565b5f813590506104e7816104c3565b92915050565b5f819050919050565b6104ff816104ed565b8114610509575f80fd5b50565b5f8135905061051a816104f6565b92915050565b5f80604083850312156105365761053561048b565b5b5f610543858286016104d9565b92505060206105548582860161050c565b9150509250929050565b5f81519050919050565b5f82825260208201905092915050565b8281835e5f83830152505050565b5f601f19601f8301169050919050565b5f6105a08261055e565b6105aa8185610568565b93506105ba818560208601610578565b6105c381610586565b840191505092915050565b5f6040820190508181035f8301526105e68185610596565b905081810360208301526105fa8184610596565b90509392505050565b5f602082840312156106185761061761048b565b5b5f610625848285016104d9565b91505092915050565b610637816104ed565b82525050565b5f6020820190506106505f83018461062e565b92915050565b5f80fd5b5f80fd5b7f4e487b71000000000000000000000000000000000000000000000000000000005f52604160045260245ffd5b61069482610586565b810181811067ffffffffffffffff821117156106b3576106b261065e565b5b80604052505050565b5f6106c5610482565b90506106d1828261068b565b919050565b5f67ffffffffffffffff8211156106f0576106ef61065e565b5b6106f982610586565b9050602081019050919050565b828183375f83830152505050565b5f610726610721846106d6565b6106bc565b9050828152602081018484840111156107425761074161065a565b5b61074d848285610706565b509392505050565b5f82601f83011261076957610768610656565b5b8135610779848260208601610714565b91505092915050565b5f805f606084860312156107995761079861048b565b5b5f6107a68682870161050c565b935050602084013567ffffffffffffffff8111156107c7576107c661048f565b5b6107d386828701610755565b925050604084013567ffffffffffffffff8111156107f4576107f361048f565b5b61080086828701610755565b9150509250925092565b7f4e487b71000000000000000000000000000000000000000000000000000000005f52602260045260245ffd5b5f600282049050600182168061084e57607f821691505b6020821081036108615761086061080a565b5b50919050565b5f819050815f5260205f209050919050565b5f6020601f8301049050919050565b5f82821b905092915050565b5f600883026108c37fffffffffffffffffffffffffffffffffffffffffffffffffffffffffffffffff82610888565b6108cd8683610888565b95508019841693508086168417925050509392505050565b5f819050919050565b5f6109086109036108fe846104ed565b6108e5565b6104ed565b9050919050565b5f819050919050565b610921836108ee565b61093561092d8261090f565b848454610894565b825550505050565b5f90565b61094961093d565b610954818484610918565b505050565b5b818110156109775761096c5f82610941565b60018101905061095a565b5050565b601f8211156109bc5761098d81610867565b61099684610879565b810160208510156109a5578190505b6109b96109b185610879565b830182610959565b50505b505050565b5f82821c905092915050565b5f6109dc5f19846008026109c1565b1980831691505092915050565b5f6109f483836109cd565b9150826002028217905092915050565b610a0d8261055e565b67ffffffffffffffff811115610a2657610a2561065e565b5b610a308254610837565b610a3b82828561097b565b5f60209050601f831160018114610a6c575f8415610a5a578287015190505b610a6485826109e9565b865550610acb565b601f198416610a7a86610867565b5f5b82811015610aa157848901518255600182019150602085019450602081019050610a7c565b86831015610abe5784890151610aba601f8916826109cd565b8355505b6001600288020188555050505b50505050505056fea26469706673582212202138bca8e9baa9f6e385721ce68fbdb604e051019f4a59f7b9ce20fc0392646b64736f6c634300081a0033",
			"opcodes": "PUSH1 0x80 PUSH1 0x40 MSTORE CALLVALUE DUP1 ISZERO PUSH1 0xE JUMPI PUSH0 DUP1 REVERT JUMPDEST POP PUSH2 0xB09 DUP1 PUSH2 0x1C PUSH0 CODECOPY PUSH0 RETURN INVALID PUSH1 0x80 PUSH1 0x40 MSTORE CALLVALUE DUP1 ISZERO PUSH2 0xF JUMPI PUSH0 DUP1 REVERT JUMPDEST POP PUSH1 0x4 CALLDATASIZE LT PUSH2 0x7B JUMPI PUSH0 CALLDATALOAD PUSH1 0xE0 SHR DUP1 PUSH4 0x70DB6902 GT PUSH2 0x59 JUMPI DUP1 PUSH4 0x70DB6902 EQ PUSH2 0xFC JUMPI DUP1 PUSH4 0x87EB54FE EQ PUSH2 0x118 JUMPI DUP1 PUSH4 0xAE22C57D EQ PUSH2 0x134 JUMPI DUP1 PUSH4 0xF40F48C9 EQ PUSH2 0x164 JUMPI PUSH2 0x7B JUMP JUMPDEST DUP1 PUSH4 0x11F72990 EQ PUSH2 0x7F JUMPI DUP1 PUSH4 0x27CBD529 EQ PUSH2 0xB0 JUMPI DUP1 PUSH4 0x4BA79DFE EQ PUSH2 0xE0 JUMPI JUMPDEST PUSH0 DUP1 REVERT JUMPDEST PUSH2 0x99 PUSH1 0x4 DUP1 CALLDATASIZE SUB DUP2 ADD SWAP1 PUSH2 0x94 SWAP2 SWAP1 PUSH2 0x520 JUMP JUMPDEST PUSH2 0x180 JUMP JUMPDEST PUSH1 0x40 MLOAD PUSH2 0xA7 SWAP3 SWAP2 SWAP1 PUSH2 0x5CE JUMP JUMPDEST PUSH1 0x40 MLOAD DUP1 SWAP2 SUB SWAP1 RETURN JUMPDEST PUSH2 0xCA PUSH1 0x4 DUP1 CALLDATASIZE SUB DUP2 ADD SWAP1 PUSH2 0xC5 SWAP2 SWAP1 PUSH2 0x603 JUMP JUMPDEST PUSH2 0x2B7 JUMP JUMPDEST PUSH1 0x40 MLOAD PUSH2 0xD7 SWAP2 SWAP1 PUSH2 0x63D JUMP JUMPDEST PUSH1 0x40 MLOAD DUP1 SWAP2 SUB SWAP1 RETURN JUMPDEST PUSH2 0xFA PUSH1 0x4 DUP1 CALLDATASIZE SUB DUP2 ADD SWAP1 PUSH2 0xF5 SWAP2 SWAP1 PUSH2 0x603 JUMP JUMPDEST PUSH2 0x2CB JUMP JUMPDEST STOP JUMPDEST PUSH2 0x116 PUSH1 0x4 DUP1 CALLDATASIZE SUB DUP2 ADD SWAP1 PUSH2 0x111 SWAP2 SWAP1 PUSH2 0x520 JUMP JUMPDEST PUSH2 0x30D JUMP JUMPDEST STOP JUMPDEST PUSH2 0x132 PUSH1 0x4 DUP1 CALLDATASIZE SUB DUP2 ADD SWAP1 PUSH2 0x12D SWAP2 SWAP1 PUSH2 0x782 JUMP JUMPDEST PUSH2 0x352 JUMP JUMPDEST STOP JUMPDEST PUSH2 0x14E PUSH1 0x4 DUP1 CALLDATASIZE SUB DUP2 ADD SWAP1 PUSH2 0x149 SWAP2 SWAP1 PUSH2 0x603 JUMP JUMPDEST PUSH2 0x3E5 JUMP JUMPDEST PUSH1 0x40 MLOAD PUSH2 0x15B SWAP2 SWAP1 PUSH2 0x63D JUMP JUMPDEST PUSH1 0x40 MLOAD DUP1 SWAP2 SUB SWAP1 RETURN JUMPDEST PUSH2 0x17E PUSH1 0x4 DUP1 CALLDATASIZE SUB DUP2 ADD SWAP1 PUSH2 0x179 SWAP2 SWAP1 PUSH2 0x782 JUMP JUMPDEST PUSH2 0x42A JUMP JUMPDEST STOP JUMPDEST PUSH1 0x2 PUSH1 0x20 MSTORE DUP2 PUSH0 MSTORE PUSH1 0x40 PUSH0 KECCAK256 PUSH1 0x20 MSTORE DUP1 PUSH0 MSTORE PUSH1 0x40 PUSH0 KECCAK256 PUSH0 SWAP2 POP SWAP2 POP POP DUP1 PUSH0 ADD DUP1 SLOAD PUSH2 0x1AA SWAP1 PUSH2 0x837 JUMP JUMPDEST DUP1 PUSH1 0x1F ADD PUSH1 0x20 DUP1 SWAP2 DIV MUL PUSH1 0x20 ADD PUSH1 0x40 MLOAD SWAP1 DUP2 ADD PUSH1 0x40 MSTORE DUP1 SWAP3 SWAP2 SWAP1 DUP2 DUP2 MSTORE PUSH1 0x20 ADD DUP3 DUP1 SLOAD PUSH2 0x1D6 SWAP1 PUSH2 0x837 JUMP JUMPDEST DUP1 ISZERO PUSH2 0x221 JUMPI DUP1 PUSH1 0x1F LT PUSH2 0x1F8 JUMPI PUSH2 0x100 DUP1 DUP4 SLOAD DIV MUL DUP4 MSTORE SWAP2 PUSH1 0x20 ADD SWAP2 PUSH2 0x221 JUMP JUMPDEST DUP3 ADD SWAP2 SWAP1 PUSH0 MSTORE PUSH1 0x20 PUSH0 KECCAK256 SWAP1 JUMPDEST DUP2 SLOAD DUP2 MSTORE SWAP1 PUSH1 0x1 ADD SWAP1 PUSH1 0x20 ADD DUP1 DUP4 GT PUSH2 0x204 JUMPI DUP3 SWAP1 SUB PUSH1 0x1F AND DUP3 ADD SWAP2 JUMPDEST POP POP POP POP POP SWAP1 DUP1 PUSH1 0x1 ADD DUP1 SLOAD PUSH2 0x236 SWAP1 PUSH2 0x837 JUMP JUMPDEST DUP1 PUSH1 0x1F ADD PUSH1 0x20 DUP1 SWAP2 DIV MUL PUSH1 0x20 ADD PUSH1 0x40 MLOAD SWAP1 DUP2 ADD PUSH1 0x40 MSTORE DUP1 SWAP3 SWAP2 SWAP1 DUP2 DUP2 MSTORE PUSH1 0x20 ADD DUP3 DUP1 SLOAD PUSH2 0x262 SWAP1 PUSH2 0x837 JUMP JUMPDEST DUP1 ISZERO PUSH2 0x2AD JUMPI DUP1 PUSH1 0x1F LT PUSH2 0x284 JUMPI PUSH2 0x100 DUP1 DUP4 SLOAD DIV MUL DUP4 MSTORE SWAP2 PUSH1 0x20 ADD SWAP2 PUSH2 0x2AD JUMP JUMPDEST DUP3 ADD SWAP2 SWAP1 PUSH0 MSTORE PUSH1 0x20 PUSH0 KECCAK256 SWAP1 JUMPDEST DUP2 SLOAD DUP2 MSTORE SWAP1 PUSH1 0x1 ADD SWAP1 PUSH1 0x20 ADD DUP1 DUP4 GT PUSH2 0x290 JUMPI DUP3 SWAP1 SUB PUSH1 0x1F AND DUP3 ADD SWAP2 JUMPDEST POP POP POP POP POP SWAP1 POP DUP3 JUMP JUMPDEST PUSH0 PUSH1 0x20 MSTORE DUP1 PUSH0 MSTORE PUSH1 0x40 PUSH0 KECCAK256 PUSH0 SWAP2 POP SWAP1 POP SLOAD DUP2 JUMP JUMPDEST PUSH0 DUP1 DUP3 PUSH20 0xFFFFFFFFFFFFFFFFFFFFFFFFFFFFFFFFFFFFFFFF AND PUSH20 0xFFFFFFFFFFFFFFFFFFFFFFFFFFFFFFFFFFFFFFFF AND DUP2 MSTORE PUSH1 0x20 ADD SWAP1 DUP2 MSTORE PUSH1 0x20 ADD PUSH0 KECCAK256 PUSH0 SWAP1 SSTORE POP JUMP JUMPDEST DUP1 PUSH0 DUP1 DUP5 PUSH20 0xFFFFFFFFFFFFFFFFFFFFFFFFFFFFFFFFFFFFFFFF AND PUSH20 0xFFFFFFFFFFFFFFFFFFFFFFFFFFFFFFFFFFFFFFFF AND DUP2 MSTORE PUSH1 0x20 ADD SWAP1 DUP2 MSTORE PUSH1 0x20 ADD PUSH0 KECCAK256 DUP2 SWAP1 SSTORE POP POP POP JUMP JUMPDEST PUSH1 0x40 MLOAD DUP1 PUSH1 0x40 ADD PUSH1 0x40 MSTORE DUP1 DUP4 DUP2 MSTORE PUSH1 0x20 ADD DUP3 DUP2 MSTORE POP PUSH1 0x2 PUSH0 CALLER PUSH20 0xFFFFFFFFFFFFFFFFFFFFFFFFFFFFFFFFFFFFFFFF AND PUSH20 0xFFFFFFFFFFFFFFFFFFFFFFFFFFFFFFFFFFFFFFFF AND DUP2 MSTORE PUSH1 0x20 ADD SWAP1 DUP2 MSTORE PUSH1 0x20 ADD PUSH0 KECCAK256 PUSH0 DUP6 DUP2 MSTORE PUSH1 0x20 ADD SWAP1 DUP2 MSTORE PUSH1 0x20 ADD PUSH0 KECCAK256 PUSH0 DUP3 ADD MLOAD DUP2 PUSH0 ADD SWAP1 DUP2 PUSH2 0x3C6 SWAP2 SWAP1 PUSH2 0xA04 JUMP JUMPDEST POP PUSH1 0x20 DUP3 ADD MLOAD DUP2 PUSH1 0x1 ADD SWAP1 DUP2 PUSH2 0x3DC SWAP2 SWAP1 PUSH2 0xA04 JUMP JUMPDEST POP SWAP1 POP POP POP POP POP JUMP JUMPDEST PUSH0 DUP1 PUSH0 DUP4 PUSH20 0xFFFFFFFFFFFFFFFFFFFFFFFFFFFFFFFFFFFFFFFF AND PUSH20 0xFFFFFFFFFFFFFFFFFFFFFFFFFFFFFFFFFFFFFFFF AND DUP2 MSTORE PUSH1 0x20 ADD SWAP1 DUP2 MSTORE PUSH1 0x20 ADD PUSH0 KECCAK256 SLOAD SWAP1 POP SWAP2 SWAP1 POP JUMP JUMPDEST PUSH1 0x40 MLOAD DUP1 PUSH1 0x40 ADD PUSH1 0x40 MSTORE DUP1 DUP4 DUP2 MSTORE PUSH1 0x20 ADD DUP3 DUP2 MSTORE POP PUSH1 0x1 PUSH0 DUP6 DUP2 MSTORE PUSH1 0x20 ADD SWAP1 DUP2 MSTORE PUSH1 0x20 ADD PUSH0 KECCAK256 PUSH0 DUP3 ADD MLOAD DUP2 PUSH0 ADD SWAP1 DUP2 PUSH2 0x463 SWAP2 SWAP1 PUSH2 0xA04 JUMP JUMPDEST POP PUSH1 0x20 DUP3 ADD MLOAD DUP2 PUSH1 0x1 ADD SWAP1 DUP2 PUSH2 0x479 SWAP2 SWAP1 PUSH2 0xA04 JUMP JUMPDEST POP SWAP1 POP POP POP POP POP JUMP JUMPDEST PUSH0 PUSH1 0x40 MLOAD SWAP1 POP SWAP1 JUMP JUMPDEST PUSH0 DUP1 REVERT JUMPDEST PUSH0 DUP1 REVERT JUMPDEST PUSH0 PUSH20 0xFFFFFFFFFFFFFFFFFFFFFFFFFFFFFFFFFFFFFFFF DUP3 AND SWAP1 POP SWAP2 SWAP1 POP JUMP JUMPDEST PUSH0 PUSH2 0x4BC DUP3 PUSH2 0x493 JUMP JUMPDEST SWAP1 POP SWAP2 SWAP1 POP JUMP JUMPDEST PUSH2 0x4CC DUP2 PUSH2 0x4B2 JUMP JUMPDEST DUP2 EQ PUSH2 0x4D6 JUMPI PUSH0 DUP1 REVERT JUMPDEST POP JUMP JUMPDEST PUSH0 DUP2 CALLDATALOAD SWAP1 POP PUSH2 0x4E7 DUP2 PUSH2 0x4C3 JUMP JUMPDEST SWAP3 SWAP2 POP POP JUMP JUMPDEST PUSH0 DUP2 SWAP1 POP SWAP2 SWAP1 POP JUMP JUMPDEST PUSH2 0x4FF DUP2 PUSH2 0x4ED JUMP JUMPDEST DUP2 EQ PUSH2 0x509 JUMPI PUSH0 DUP1 REVERT JUMPDEST POP JUMP JUMPDEST PUSH0 DUP2 CALLDATALOAD SWAP1 POP PUSH2 0x51A DUP2 PUSH2 0x4F6 JUMP JUMPDEST SWAP3 SWAP2 POP POP JUMP JUMPDEST PUSH0 DUP1 PUSH1 0x40 DUP4 DUP6 SUB SLT ISZERO PUSH2 0x536 JUMPI PUSH2 0x535 PUSH2 0x48B JUMP JUMPDEST JUMPDEST PUSH0 PUSH2 0x543 DUP6 DUP3 DUP7 ADD PUSH2 0x4D9 JUMP JUMPDEST SWAP3 POP POP PUSH1 0x20 PUSH2 0x554 DUP6 DUP3 DUP7 ADD PUSH2 0x50C JUMP JUMPDEST SWAP2 POP POP SWAP3 POP SWAP3 SWAP1 POP JUMP JUMPDEST PUSH0 DUP2 MLOAD SWAP1 POP SWAP2 SWAP1 POP JUMP JUMPDEST PUSH0 DUP3 DUP3 MSTORE PUSH1 0x20 DUP3 ADD SWAP1 POP SWAP3 SWAP2 POP POP JUMP JUMPDEST DUP3 DUP2 DUP4 MCOPY PUSH0 DUP4 DUP4 ADD MSTORE POP POP POP JUMP JUMPDEST PUSH0 PUSH1 0x1F NOT PUSH1 0x1F DUP4 ADD AND SWAP1 POP SWAP2 SWAP1 POP JUMP JUMPDEST PUSH0 PUSH2 0x5A0 DUP3 PUSH2 0x55E JUMP JUMPDEST PUSH2 0x5AA DUP2 DUP6 PUSH2 0x568 JUMP JUMPDEST SWAP4 POP PUSH2 0x5BA DUP2 DUP6 PUSH1 0x20 DUP7 ADD PUSH2 0x578 JUMP JUMPDEST PUSH2 0x5C3 DUP2 PUSH2 0x586 JUMP JUMPDEST DUP5 ADD SWAP2 POP POP SWAP3 SWAP2 POP POP JUMP JUMPDEST PUSH0 PUSH1 0x40 DUP3 ADD SWAP1 POP DUP2 DUP2 SUB PUSH0 DUP4 ADD MSTORE PUSH2 0x5E6 DUP2 DUP6 PUSH2 0x596 JUMP JUMPDEST SWAP1 POP DUP2 DUP2 SUB PUSH1 0x20 DUP4 ADD MSTORE PUSH2 0x5FA DUP2 DUP5 PUSH2 0x596 JUMP JUMPDEST SWAP1 POP SWAP4 SWAP3 POP POP POP JUMP JUMPDEST PUSH0 PUSH1 0x20 DUP3 DUP5 SUB SLT ISZERO PUSH2 0x618 JUMPI PUSH2 0x617 PUSH2 0x48B JUMP JUMPDEST JUMPDEST PUSH0 PUSH2 0x625 DUP5 DUP3 DUP6 ADD PUSH2 0x4D9 JUMP JUMPDEST SWAP2 POP POP SWAP3 SWAP2 POP POP JUMP JUMPDEST PUSH2 0x637 DUP2 PUSH2 0x4ED JUMP JUMPDEST DUP3 MSTORE POP POP JUMP JUMPDEST PUSH0 PUSH1 0x20 DUP3 ADD SWAP1 POP PUSH2 0x650 PUSH0 DUP4 ADD DUP5 PUSH2 0x62E JUMP JUMPDEST SWAP3 SWAP2 POP POP JUMP JUMPDEST PUSH0 DUP1 REVERT JUMPDEST PUSH0 DUP1 REVERT JUMPDEST PUSH32 0x4E487B7100000000000000000000000000000000000000000000000000000000 PUSH0 MSTORE PUSH1 0x41 PUSH1 0x4 MSTORE PUSH1 0x24 PUSH0 REVERT JUMPDEST PUSH2 0x694 DUP3 PUSH2 0x586 JUMP JUMPDEST DUP2 ADD DUP2 DUP2 LT PUSH8 0xFFFFFFFFFFFFFFFF DUP3 GT OR ISZERO PUSH2 0x6B3 JUMPI PUSH2 0x6B2 PUSH2 0x65E JUMP JUMPDEST JUMPDEST DUP1 PUSH1 0x40 MSTORE POP POP POP JUMP JUMPDEST PUSH0 PUSH2 0x6C5 PUSH2 0x482 JUMP JUMPDEST SWAP1 POP PUSH2 0x6D1 DUP3 DUP3 PUSH2 0x68B JUMP JUMPDEST SWAP2 SWAP1 POP JUMP JUMPDEST PUSH0 PUSH8 0xFFFFFFFFFFFFFFFF DUP3 GT ISZERO PUSH2 0x6F0 JUMPI PUSH2 0x6EF PUSH2 0x65E JUMP JUMPDEST JUMPDEST PUSH2 0x6F9 DUP3 PUSH2 0x586 JUMP JUMPDEST SWAP1 POP PUSH1 0x20 DUP2 ADD SWAP1 POP SWAP2 SWAP1 POP JUMP JUMPDEST DUP3 DUP2 DUP4 CALLDATACOPY PUSH0 DUP4 DUP4 ADD MSTORE POP POP POP JUMP JUMPDEST PUSH0 PUSH2 0x726 PUSH2 0x721 DUP5 PUSH2 0x6D6 JUMP JUMPDEST PUSH2 0x6BC JUMP JUMPDEST SWAP1 POP DUP3 DUP2 MSTORE PUSH1 0x20 DUP2 ADD DUP5 DUP5 DUP5 ADD GT ISZERO PUSH2 0x742 JUMPI PUSH2 0x741 PUSH2 0x65A JUMP JUMPDEST JUMPDEST PUSH2 0x74D DUP5 DUP3 DUP6 PUSH2 0x706 JUMP JUMPDEST POP SWAP4 SWAP3 POP POP POP JUMP JUMPDEST PUSH0 DUP3 PUSH1 0x1F DUP4 ADD SLT PUSH2 0x769 JUMPI PUSH2 0x768 PUSH2 0x656 JUMP JUMPDEST JUMPDEST DUP2 CALLDATALOAD PUSH2 0x779 DUP5 DUP3 PUSH1 0x20 DUP7 ADD PUSH2 0x714 JUMP JUMPDEST SWAP2 POP POP SWAP3 SWAP2 POP POP JUMP JUMPDEST PUSH0 DUP1 PUSH0 PUSH1 0x60 DUP5 DUP7 SUB SLT ISZERO PUSH2 0x799 JUMPI PUSH2 0x798 PUSH2 0x48B JUMP JUMPDEST JUMPDEST PUSH0 PUSH2 0x7A6 DUP7 DUP3 DUP8 ADD PUSH2 0x50C JUMP JUMPDEST SWAP4 POP POP PUSH1 0x20 DUP5 ADD CALLDATALOAD PUSH8 0xFFFFFFFFFFFFFFFF DUP2 GT ISZERO PUSH2 0x7C7 JUMPI PUSH2 0x7C6 PUSH2 0x48F JUMP JUMPDEST JUMPDEST PUSH2 0x7D3 DUP7 DUP3 DUP8 ADD PUSH2 0x755 JUMP JUMPDEST SWAP3 POP POP PUSH1 0x40 DUP5 ADD CALLDATALOAD PUSH8 0xFFFFFFFFFFFFFFFF DUP2 GT ISZERO PUSH2 0x7F4 JUMPI PUSH2 0x7F3 PUSH2 0x48F JUMP JUMPDEST JUMPDEST PUSH2 0x800 DUP7 DUP3 DUP8 ADD PUSH2 0x755 JUMP JUMPDEST SWAP2 POP POP SWAP3 POP SWAP3 POP SWAP3 JUMP JUMPDEST PUSH32 0x4E487B7100000000000000000000000000000000000000000000000000000000 PUSH0 MSTORE PUSH1 0x22 PUSH1 0x4 MSTORE PUSH1 0x24 PUSH0 REVERT JUMPDEST PUSH0 PUSH1 0x2 DUP3 DIV SWAP1 POP PUSH1 0x1 DUP3 AND DUP1 PUSH2 0x84E JUMPI PUSH1 0x7F DUP3 AND SWAP2 POP JUMPDEST PUSH1 0x20 DUP3 LT DUP2 SUB PUSH2 0x861 JUMPI PUSH2 0x860 PUSH2 0x80A JUMP JUMPDEST JUMPDEST POP SWAP2 SWAP1 POP JUMP JUMPDEST PUSH0 DUP2 SWAP1 POP DUP2 PUSH0 MSTORE PUSH1 0x20 PUSH0 KECCAK256 SWAP1 POP SWAP2 SWAP1 POP JUMP JUMPDEST PUSH0 PUSH1 0x20 PUSH1 0x1F DUP4 ADD DIV SWAP1 POP SWAP2 SWAP1 POP JUMP JUMPDEST PUSH0 DUP3 DUP3 SHL SWAP1 POP SWAP3 SWAP2 POP POP JUMP JUMPDEST PUSH0 PUSH1 0x8 DUP4 MUL PUSH2 0x8C3 PUSH32 0xFFFFFFFFFFFFFFFFFFFFFFFFFFFFFFFFFFFFFFFFFFFFFFFFFFFFFFFFFFFFFFFF DUP3 PUSH2 0x888 JUMP JUMPDEST PUSH2 0x8CD DUP7 DUP4 PUSH2 0x888 JUMP JUMPDEST SWAP6 POP DUP1 NOT DUP5 AND SWAP4 POP DUP1 DUP7 AND DUP5 OR SWAP3 POP POP POP SWAP4 SWAP3 POP POP POP JUMP JUMPDEST PUSH0 DUP2 SWAP1 POP SWAP2 SWAP1 POP JUMP JUMPDEST PUSH0 PUSH2 0x908 PUSH2 0x903 PUSH2 0x8FE DUP5 PUSH2 0x4ED JUMP JUMPDEST PUSH2 0x8E5 JUMP JUMPDEST PUSH2 0x4ED JUMP JUMPDEST SWAP1 POP SWAP2 SWAP1 POP JUMP JUMPDEST PUSH0 DUP2 SWAP1 POP SWAP2 SWAP1 POP JUMP JUMPDEST PUSH2 0x921 DUP4 PUSH2 0x8EE JUMP JUMPDEST PUSH2 0x935 PUSH2 0x92D DUP3 PUSH2 0x90F JUMP JUMPDEST DUP5 DUP5 SLOAD PUSH2 0x894 JUMP JUMPDEST DUP3 SSTORE POP POP POP POP JUMP JUMPDEST PUSH0 SWAP1 JUMP JUMPDEST PUSH2 0x949 PUSH2 0x93D JUMP JUMPDEST PUSH2 0x954 DUP2 DUP5 DUP5 PUSH2 0x918 JUMP JUMPDEST POP POP POP JUMP JUMPDEST JUMPDEST DUP2 DUP2 LT ISZERO PUSH2 0x977 JUMPI PUSH2 0x96C PUSH0 DUP3 PUSH2 0x941 JUMP JUMPDEST PUSH1 0x1 DUP2 ADD SWAP1 POP PUSH2 0x95A JUMP JUMPDEST POP POP JUMP JUMPDEST PUSH1 0x1F DUP3 GT ISZERO PUSH2 0x9BC JUMPI PUSH2 0x98D DUP2 PUSH2 0x867 JUMP JUMPDEST PUSH2 0x996 DUP5 PUSH2 0x879 JUMP JUMPDEST DUP2 ADD PUSH1 0x20 DUP6 LT ISZERO PUSH2 0x9A5 JUMPI DUP2 SWAP1 POP JUMPDEST PUSH2 0x9B9 PUSH2 0x9B1 DUP6 PUSH2 0x879 JUMP JUMPDEST DUP4 ADD DUP3 PUSH2 0x959 JUMP JUMPDEST POP POP JUMPDEST POP POP POP JUMP JUMPDEST PUSH0 DUP3 DUP3 SHR SWAP1 POP SWAP3 SWAP2 POP POP JUMP JUMPDEST PUSH0 PUSH2 0x9DC PUSH0 NOT DUP5 PUSH1 0x8 MUL PUSH2 0x9C1 JUMP JUMPDEST NOT DUP1 DUP4 AND SWAP2 POP POP SWAP3 SWAP2 POP POP JUMP JUMPDEST PUSH0 PUSH2 0x9F4 DUP4 DUP4 PUSH2 0x9CD JUMP JUMPDEST SWAP2 POP DUP3 PUSH1 0x2 MUL DUP3 OR SWAP1 POP SWAP3 SWAP2 POP POP JUMP JUMPDEST PUSH2 0xA0D DUP3 PUSH2 0x55E JUMP JUMPDEST PUSH8 0xFFFFFFFFFFFFFFFF DUP2 GT ISZERO PUSH2 0xA26 JUMPI PUSH2 0xA25 PUSH2 0x65E JUMP JUMPDEST JUMPDEST PUSH2 0xA30 DUP3 SLOAD PUSH2 0x837 JUMP JUMPDEST PUSH2 0xA3B DUP3 DUP3 DUP6 PUSH2 0x97B JUMP JUMPDEST PUSH0 PUSH1 0x20 SWAP1 POP PUSH1 0x1F DUP4 GT PUSH1 0x1 DUP2 EQ PUSH2 0xA6C JUMPI PUSH0 DUP5 ISZERO PUSH2 0xA5A JUMPI DUP3 DUP8 ADD MLOAD SWAP1 POP JUMPDEST PUSH2 0xA64 DUP6 DUP3 PUSH2 0x9E9 JUMP JUMPDEST DUP7 SSTORE POP PUSH2 0xACB JUMP JUMPDEST PUSH1 0x1F NOT DUP5 AND PUSH2 0xA7A DUP7 PUSH2 0x867 JUMP JUMPDEST PUSH0 JUMPDEST DUP3 DUP2 LT ISZERO PUSH2 0xAA1 JUMPI DUP5 DUP10 ADD MLOAD DUP3 SSTORE PUSH1 0x1 DUP3 ADD SWAP2 POP PUSH1 0x20 DUP6 ADD SWAP5 POP PUSH1 0x20 DUP2 ADD SWAP1 POP PUSH2 0xA7C JUMP JUMPDEST DUP7 DUP4 LT ISZERO PUSH2 0xABE JUMPI DUP5 DUP10 ADD MLOAD PUSH2 0xABA PUSH1 0x1F DUP10 AND DUP3 PUSH2 0x9CD JUMP JUMPDEST DUP4 SSTORE POP JUMPDEST PUSH1 0x1 PUSH1 0x2 DUP9 MUL ADD DUP9 SSTORE POP POP POP JUMPDEST POP POP POP POP POP POP JUMP INVALID LOG2 PUSH5 0x6970667358 0x22 SLT KECCAK256 0x21 CODESIZE 0xBC 0xA8 0xE9 0xBA 0xA9 0xF6 0xE3 DUP6 PUSH19 0x1CE68FBDB604E051019F4A59F7B9CE20FC0392 PUSH5 0x6B64736F6C PUSH4 0x4300081A STOP CALLER "
		},
		"gasEstimates": {
			"creation": {
				"codeDepositCost": "565000",
				"executionCost": "598",
				"totalCost": "565598"
			},
			"external": {
				"addMovie(uint256,string,string)": "infinite",
				"addMyMovie(uint256,string,string)": "infinite",
				"getAddress(address)": "2873",
				"myMap(address)": "2824",
				"myMovie(address,uint256)": "infinite",
				"removeAddress(address)": "5590",
				"setAddress(address,uint256)": "22822"
			}
		},
		"methodIdentifiers": {
			"addMovie(uint256,string,string)": "f40f48c9",
			"addMyMovie(uint256,string,string)": "87eb54fe",
			"getAddress(address)": "ae22c57d",
			"myMap(address)": "27cbd529",
			"myMovie(address,uint256)": "11f72990",
			"removeAddress(address)": "4ba79dfe",
			"setAddress(address,uint256)": "70db6902"
		}
	},
	"abi": [
		{
			"inputs": [
				{
					"internalType": "uint256",
					"name": "id",
					"type": "uint256"
				},
				{
					"internalType": "string",
					"name": "title",
					"type": "string"
				},
				{
					"internalType": "string",
					"name": "director",
					"type": "string"
				}
			],
			"name": "addMovie",
			"outputs": [],
			"stateMutability": "nonpayable",
			"type": "function"
		},
		{
			"inputs": [
				{
					"internalType": "uint256",
					"name": "id",
					"type": "uint256"
				},
				{
					"internalType": "string",
					"name": "title",
					"type": "string"
				},
				{
					"internalType": "string",
					"name": "director",
					"type": "string"
				}
			],
			"name": "addMyMovie",
			"outputs": [],
			"stateMutability": "nonpayable",
			"type": "function"
		},
		{
			"inputs": [
				{
					"internalType": "address",
					"name": "_addr",
					"type": "address"
				}
			],
			"name": "getAddress",
			"outputs": [
				{
					"internalType": "uint256",
					"name": "",
					"type": "uint256"
				}
			],
			"stateMutability": "view",
			"type": "function"
		},
		{
			"inputs": [
				{
					"internalType": "address",
					"name": "",
					"type": "address"
				}
			],
			"name": "myMap",
			"outputs": [
				{
					"internalType": "uint256",
					"name": "",
					"type": "uint256"
				}
			],
			"stateMutability": "view",
			"type": "function"
		},
		{
			"inputs": [
				{
					"internalType": "address",
					"name": "",
					"type": "address"
				},
				{
					"internalType": "uint256",
					"name": "",
					"type": "uint256"
				}
			],
			"name": "myMovie",
			"outputs": [
				{
					"internalType": "string",
					"name": "title",
					"type": "string"
				},
				{
					"internalType": "string",
					"name": "director",
					"type": "string"
				}
			],
			"stateMutability": "view",
			"type": "function"
		},
		{
			"inputs": [
				{
					"internalType": "address",
					"name": "_addr",
					"type": "address"
				}
			],
			"name": "removeAddress",
			"outputs": [],
			"stateMutability": "nonpayable",
			"type": "function"
		},
		{
			"inputs": [
				{
					"internalType": "address",
					"name": "_addr",
					"type": "address"
				},
				{
					"internalType": "uint256",
					"name": "_i",
					"type": "uint256"
				}
			],
			"name": "setAddress",
			"outputs": [],
			"stateMutability": "nonpayable",
			"type": "function"
		}
	]
}