{
	"data": {
		"bytecode": {
			"linkReferences": {},
			"object": "6080604052348015600e575f80fd5b5060c980601a5f395ff3fe6080604052348015600e575f80fd5b50600436106030575f3560e01c80636d4ce63c146034578063b8e010de14604e575b5f80fd5b603a6056565b60405160459190607c565b60405180910390f35b6054605e565b005b5f8054905090565b435f81905550565b5f819050919050565b6076816066565b82525050565b5f602082019050608d5f830184606f565b9291505056fea2646970667358221220a63ffb342acd054229e49530fae16d4fe6508251f8ab7ba943f6dc2d12285f1864736f6c634300081a0033",
			"opcodes": "PUSH1 0x80 PUSH1 0x40 MSTORE CALLVALUE DUP1 ISZERO PUSH1 0xE JUMPI PUSH0 DUP1 REVERT JUMPDEST POP PUSH1 0xC9 DUP1 PUSH1 0x1A PUSH0 CODECOPY PUSH0 RETURN INVALID PUSH1 0x80 PUSH1 0x40 MSTORE CALLVALUE DUP1 ISZERO PUSH1 0xE JUMPI PUSH0 DUP1 REVERT JUMPDEST POP PUSH1 0x4 CALLDATASIZE LT PUSH1 0x30 JUMPI PUSH0 CALLDATALOAD PUSH1 0xE0 SHR DUP1 PUSH4 0x6D4CE63C EQ PUSH1 0x34 JUMPI DUP1 PUSH4 0xB8E010DE EQ PUSH1 0x4E JUMPI JUMPDEST PUSH0 DUP1 REVERT JUMPDEST PUSH1 0x3A PUSH1 0x56 JUMP JUMPDEST PUSH1 0x40 MLOAD PUSH1 0x45 SWAP2 SWAP1 PUSH1 0x7C JUMP JUMPDEST PUSH1 0x40 MLOAD DUP1 SWAP2 SUB SWAP1 RETURN JUMPDEST PUSH1 0x54 PUSH1 0x5E JUMP JUMPDEST STOP JUMPDEST PUSH0 DUP1 SLOAD SWAP1 POP SWAP1 JUMP JUMPDEST NUMBER PUSH0 DUP2 SWAP1 SSTORE POP JUMP JUMPDEST PUSH0 DUP2 SWAP1 POP SWAP2 SWAP1 POP JUMP JUMPDEST PUSH1 0x76 DUP2 PUSH1 0x66 JUMP JUMPDEST DUP3 MSTORE POP POP JUMP JUMPDEST PUSH0 PUSH1 0x20 DUP3 ADD SWAP1 POP PUSH1 0x8D PUSH0 DUP4 ADD DUP5 PUSH1 0x6F JUMP JUMPDEST SWAP3 SWAP2 POP POP JUMP INVALID LOG2 PUSH5 0x6970667358 0x22 SLT KECCAK256 0xA6 EXTCODEHASH 0xFB CALLVALUE 0x2A 0xCD SDIV TIMESTAMP 0x29 0xE4 SWAP6 ADDRESS STATICCALL 0xE1 PUSH14 0x4FE6508251F8AB7BA943F6DC2D12 0x28 PUSH0 XOR PUSH5 0x736F6C6343 STOP ADDMOD BYTE STOP CALLER "
		},
		"gasEstimates": {
			"creation": {
				"codeDepositCost": "40200",
				"executionCost": "91",
				"totalCost": "40291"
			},
			"external": {
				"get()": "2410",
				"set()": "22255"
			}
		},
		"methodIdentifiers": {
			"get()": "6d4ce63c",
			"set()": "b8e010de"
		}
	},
	"abi": [
		{
			"inputs": [],
			"name": "get",
			"outputs": [
				{
					"internalType": "uint256",
					"name": "",
					"type": "uint256"
				}
			],
			"stateMutability": "view",
			"type": "function"
		},
		{
			"inputs": [],
			"name": "set",
			"outputs": [],
			"stateMutability": "nonpayable",
			"type": "function"
		}
	]
}