{
	"data": {
		"bytecode": {
			"linkReferences": {},
			"object": "6080604052348015600e575f80fd5b506103108061001c5f395ff3fe608060405260043610610028575f3560e01c80638f299b1e1461002c578063e4849b3214610042575b5f80fd5b348015610037575f80fd5b5061004061005e565b005b61005c600480360381019061005791906101a9565b61009f565b005b335f806101000a81548173ffffffffffffffffffffffffffffffffffffffff021916908373ffffffffffffffffffffffffffffffffffffffff160217905550565b5f8054906101000a900473ffffffffffffffffffffffffffffffffffffffff1673ffffffffffffffffffffffffffffffffffffffff163373ffffffffffffffffffffffffffffffffffffffff161461012c576040517f08c379a00000000000000000000000000000000000000000000000000000000081526004016101239061022e565b60405180910390fd5b3481111561016f576040517f08c379a0000000000000000000000000000000000000000000000000000000008152600401610166906102bc565b60405180910390fd5b50565b5f80fd5b5f819050919050565b61018881610176565b8114610192575f80fd5b50565b5f813590506101a38161017f565b92915050565b5f602082840312156101be576101bd610172565b5b5f6101cb84828501610195565b91505092915050565b5f82825260208201905092915050565b7f6f6e6c79207468652073656c6c65722063616e2073656c6c20096869732100005f82015250565b5f610218601e836101d4565b9150610223826101e4565b602082019050919050565b5f6020820190508181035f8301526102458161020c565b9050919050565b7f205468657265206973206e6f7420656e6f7567682065746865722070726f76695f8201527f6465642100000000000000000000000000000000000000000000000000000000602082015250565b5f6102a66024836101d4565b91506102b18261024c565b604082019050919050565b5f6020820190508181035f8301526102d38161029a565b905091905056fea2646970667358221220a460640e16c658df3f2e7934a04743337421f172a1b01239a14fa065f445984a64736f6c634300081a0033",
			"opcodes": "PUSH1 0x80 PUSH1 0x40 MSTORE CALLVALUE DUP1 ISZERO PUSH1 0xE JUMPI PUSH0 DUP1 REVERT JUMPDEST POP PUSH2 0x310 DUP1 PUSH2 0x1C PUSH0 CODECOPY PUSH0 RETURN INVALID PUSH1 0x80 PUSH1 0x40 MSTORE PUSH1 0x4 CALLDATASIZE LT PUSH2 0x28 JUMPI PUSH0 CALLDATALOAD PUSH1 0xE0 SHR DUP1 PUSH4 0x8F299B1E EQ PUSH2 0x2C JUMPI DUP1 PUSH4 0xE4849B32 EQ PUSH2 0x42 JUMPI JUMPDEST PUSH0 DUP1 REVERT JUMPDEST CALLVALUE DUP1 ISZERO PUSH2 0x37 JUMPI PUSH0 DUP1 REVERT JUMPDEST POP PUSH2 0x40 PUSH2 0x5E JUMP JUMPDEST STOP JUMPDEST PUSH2 0x5C PUSH1 0x4 DUP1 CALLDATASIZE SUB DUP2 ADD SWAP1 PUSH2 0x57 SWAP2 SWAP1 PUSH2 0x1A9 JUMP JUMPDEST PUSH2 0x9F JUMP JUMPDEST STOP JUMPDEST CALLER PUSH0 DUP1 PUSH2 0x100 EXP DUP2 SLOAD DUP2 PUSH20 0xFFFFFFFFFFFFFFFFFFFFFFFFFFFFFFFFFFFFFFFF MUL NOT AND SWAP1 DUP4 PUSH20 0xFFFFFFFFFFFFFFFFFFFFFFFFFFFFFFFFFFFFFFFF AND MUL OR SWAP1 SSTORE POP JUMP JUMPDEST PUSH0 DUP1 SLOAD SWAP1 PUSH2 0x100 EXP SWAP1 DIV PUSH20 0xFFFFFFFFFFFFFFFFFFFFFFFFFFFFFFFFFFFFFFFF AND PUSH20 0xFFFFFFFFFFFFFFFFFFFFFFFFFFFFFFFFFFFFFFFF AND CALLER PUSH20 0xFFFFFFFFFFFFFFFFFFFFFFFFFFFFFFFFFFFFFFFF AND EQ PUSH2 0x12C JUMPI PUSH1 0x40 MLOAD PUSH32 0x8C379A000000000000000000000000000000000000000000000000000000000 DUP2 MSTORE PUSH1 0x4 ADD PUSH2 0x123 SWAP1 PUSH2 0x22E JUMP JUMPDEST PUSH1 0x40 MLOAD DUP1 SWAP2 SUB SWAP1 REVERT JUMPDEST CALLVALUE DUP2 GT ISZERO PUSH2 0x16F JUMPI PUSH1 0x40 MLOAD PUSH32 0x8C379A000000000000000000000000000000000000000000000000000000000 DUP2 MSTORE PUSH1 0x4 ADD PUSH2 0x166 SWAP1 PUSH2 0x2BC JUMP JUMPDEST PUSH1 0x40 MLOAD DUP1 SWAP2 SUB SWAP1 REVERT JUMPDEST POP JUMP JUMPDEST PUSH0 DUP1 REVERT JUMPDEST PUSH0 DUP2 SWAP1 POP SWAP2 SWAP1 POP JUMP JUMPDEST PUSH2 0x188 DUP2 PUSH2 0x176 JUMP JUMPDEST DUP2 EQ PUSH2 0x192 JUMPI PUSH0 DUP1 REVERT JUMPDEST POP JUMP JUMPDEST PUSH0 DUP2 CALLDATALOAD SWAP1 POP PUSH2 0x1A3 DUP2 PUSH2 0x17F JUMP JUMPDEST SWAP3 SWAP2 POP POP JUMP JUMPDEST PUSH0 PUSH1 0x20 DUP3 DUP5 SUB SLT ISZERO PUSH2 0x1BE JUMPI PUSH2 0x1BD PUSH2 0x172 JUMP JUMPDEST JUMPDEST PUSH0 PUSH2 0x1CB DUP5 DUP3 DUP6 ADD PUSH2 0x195 JUMP JUMPDEST SWAP2 POP POP SWAP3 SWAP2 POP POP JUMP JUMPDEST PUSH0 DUP3 DUP3 MSTORE PUSH1 0x20 DUP3 ADD SWAP1 POP SWAP3 SWAP2 POP POP JUMP JUMPDEST PUSH32 0x6F6E6C79207468652073656C6C65722063616E2073656C6C2009686973210000 PUSH0 DUP3 ADD MSTORE POP JUMP JUMPDEST PUSH0 PUSH2 0x218 PUSH1 0x1E DUP4 PUSH2 0x1D4 JUMP JUMPDEST SWAP2 POP PUSH2 0x223 DUP3 PUSH2 0x1E4 JUMP JUMPDEST PUSH1 0x20 DUP3 ADD SWAP1 POP SWAP2 SWAP1 POP JUMP JUMPDEST PUSH0 PUSH1 0x20 DUP3 ADD SWAP1 POP DUP2 DUP2 SUB PUSH0 DUP4 ADD MSTORE PUSH2 0x245 DUP2 PUSH2 0x20C JUMP JUMPDEST SWAP1 POP SWAP2 SWAP1 POP JUMP JUMPDEST PUSH32 0x205468657265206973206E6F7420656E6F7567682065746865722070726F7669 PUSH0 DUP3 ADD MSTORE PUSH32 0x6465642100000000000000000000000000000000000000000000000000000000 PUSH1 0x20 DUP3 ADD MSTORE POP JUMP JUMPDEST PUSH0 PUSH2 0x2A6 PUSH1 0x24 DUP4 PUSH2 0x1D4 JUMP JUMPDEST SWAP2 POP PUSH2 0x2B1 DUP3 PUSH2 0x24C JUMP JUMPDEST PUSH1 0x40 DUP3 ADD SWAP1 POP SWAP2 SWAP1 POP JUMP JUMPDEST PUSH0 PUSH1 0x20 DUP3 ADD SWAP1 POP DUP2 DUP2 SUB PUSH0 DUP4 ADD MSTORE PUSH2 0x2D3 DUP2 PUSH2 0x29A JUMP JUMPDEST SWAP1 POP SWAP2 SWAP1 POP JUMP INVALID LOG2 PUSH5 0x6970667358 0x22 SLT KECCAK256 LOG4 PUSH1 0x64 0xE AND 0xC6 PC 0xDF EXTCODEHASH 0x2E PUSH26 0x34A04743337421F172A1B01239A14FA065F445984A64736F6C63 NUMBER STOP ADDMOD BYTE STOP CALLER "
		},
		"gasEstimates": {
			"creation": {
				"codeDepositCost": "156800",
				"executionCost": "200",
				"totalCost": "157000"
			},
			"external": {
				"becomeSeller()": "24386",
				"sell(uint256)": "2868"
			}
		},
		"methodIdentifiers": {
			"becomeSeller()": "8f299b1e",
			"sell(uint256)": "e4849b32"
		}
	},
	"abi": [
		{
			"inputs": [],
			"name": "becomeSeller",
			"outputs": [],
			"stateMutability": "nonpayable",
			"type": "function"
		},
		{
			"inputs": [
				{
					"internalType": "uint256",
					"name": "amount",
					"type": "uint256"
				}
			],
			"name": "sell",
			"outputs": [],
			"stateMutability": "payable",
			"type": "function"
		}
	]
}